{
  "_format": "hh-sol-artifact-1",
  "contractName": "NoteRegistryWithAccessControl",
  "sourceName": "contracts/NoteRegistryWithAccessControl.sol",
  "abi": [
    {
      "anonymous": false,
      "inputs": [
        {
          "indexed": true,
          "internalType": "address",
          "name": "owner",
          "type": "address"
        },
        {
          "indexed": true,
          "internalType": "uint256",
          "name": "noteId",
          "type": "uint256"
        },
        {
          "indexed": false,
          "internalType": "uint256",
          "name": "timestamp",
          "type": "uint256"
        }
      ],
      "name": "NoteDeactivated",
      "type": "event"
    },
    {
      "anonymous": false,
      "inputs": [
        {
          "indexed": true,
          "internalType": "address",
          "name": "owner",
          "type": "address"
        },
        {
          "indexed": true,
          "internalType": "uint256",
          "name": "noteId",
          "type": "uint256"
        },
        {
          "indexed": false,
          "internalType": "bytes32",
          "name": "hash",
          "type": "bytes32"
        },
        {
          "indexed": false,
          "internalType": "string",
          "name": "title",
          "type": "string"
        },
        {
          "indexed": false,
          "internalType": "uint256",
          "name": "timestamp",
          "type": "uint256"
        },
        {
          "indexed": false,
          "internalType": "bool",
          "name": "isPublic",
          "type": "bool"
        }
      ],
      "name": "NoteRegistered",
      "type": "event"
    },
    {
      "anonymous": false,
      "inputs": [
        {
          "indexed": true,
          "internalType": "address",
          "name": "updater",
          "type": "address"
        },
        {
          "indexed": true,
          "internalType": "uint256",
          "name": "noteId",
          "type": "uint256"
        },
        {
          "indexed": false,
          "internalType": "bytes32",
          "name": "newHash",
          "type": "bytes32"
        },
        {
          "indexed": false,
          "internalType": "uint256",
          "name": "timestamp",
          "type": "uint256"
        }
      ],
      "name": "NoteUpdated",
      "type": "event"
    },
    {
      "anonymous": false,
      "inputs": [
        {
          "indexed": true,
          "internalType": "uint256",
          "name": "noteId",
          "type": "uint256"
        },
        {
          "indexed": false,
          "internalType": "bool",
          "name": "isPublic",
          "type": "bool"
        },
        {
          "indexed": false,
          "internalType": "uint256",
          "name": "timestamp",
          "type": "uint256"
        }
      ],
      "name": "NoteVisibilityChanged",
      "type": "event"
    },
    {
      "anonymous": false,
      "inputs": [
        {
          "indexed": true,
          "internalType": "uint256",
          "name": "noteId",
          "type": "uint256"
        },
        {
          "indexed": true,
          "internalType": "address",
          "name": "previousOwner",
          "type": "address"
        },
        {
          "indexed": true,
          "internalType": "address",
          "name": "newOwner",
          "type": "address"
        }
      ],
      "name": "OwnershipTransferred",
      "type": "event"
    },
    {
      "anonymous": false,
      "inputs": [
        {
          "indexed": true,
          "internalType": "uint256",
          "name": "noteId",
          "type": "uint256"
        },
        {
          "indexed": true,
          "internalType": "address",
          "name": "grantee",
          "type": "address"
        },
        {
          "indexed": true,
          "internalType": "address",
          "name": "granter",
          "type": "address"
        },
        {
          "indexed": false,
          "internalType": "enum NoteRegistryWithAccessControl.Permission",
          "name": "permission",
          "type": "uint8"
        },
        {
          "indexed": false,
          "internalType": "uint256",
          "name": "timestamp",
          "type": "uint256"
        }
      ],
      "name": "PermissionGranted",
      "type": "event"
    },
    {
      "anonymous": false,
      "inputs": [
        {
          "indexed": true,
          "internalType": "uint256",
          "name": "noteId",
          "type": "uint256"
        },
        {
          "indexed": true,
          "internalType": "address",
          "name": "grantee",
          "type": "address"
        },
        {
          "indexed": true,
          "internalType": "address",
          "name": "revoker",
          "type": "address"
        },
        {
          "indexed": false,
          "internalType": "uint256",
          "name": "timestamp",
          "type": "uint256"
        }
      ],
      "name": "PermissionRevoked",
      "type": "event"
    },
    {
      "inputs": [
        {
          "internalType": "uint256",
          "name": "noteId",
          "type": "uint256"
        }
      ],
      "name": "deactivateNote",
      "outputs": [],
      "stateMutability": "nonpayable",
      "type": "function"
    },
    {
      "inputs": [
        {
          "internalType": "address",
          "name": "user",
          "type": "address"
        }
      ],
      "name": "getAccessibleNotes",
      "outputs": [
        {
          "internalType": "uint256[]",
          "name": "accessibleNotes",
          "type": "uint256[]"
        }
      ],
      "stateMutability": "view",
      "type": "function"
    },
    {
      "inputs": [
        {
          "internalType": "uint256",
          "name": "noteId",
          "type": "uint256"
        }
      ],
      "name": "getNote",
      "outputs": [
        {
          "components": [
            {
              "internalType": "address",
              "name": "owner",
              "type": "address"
            },
            {
              "internalType": "bytes32",
              "name": "hash",
              "type": "bytes32"
            },
            {
              "internalType": "uint256",
              "name": "timestamp",
              "type": "uint256"
            },
            {
              "internalType": "string",
              "name": "title",
              "type": "string"
            },
            {
              "internalType": "bool",
              "name": "isActive",
              "type": "bool"
            },
            {
              "internalType": "bool",
              "name": "isPublic",
              "type": "bool"
            }
          ],
          "internalType": "struct NoteRegistryWithAccessControl.Note",
          "name": "note",
          "type": "tuple"
        }
      ],
      "stateMutability": "view",
      "type": "function"
    },
    {
      "inputs": [
        {
          "internalType": "bytes32",
          "name": "hash",
          "type": "bytes32"
        }
      ],
      "name": "getNoteByHash",
      "outputs": [
        {
          "components": [
            {
              "internalType": "address",
              "name": "owner",
              "type": "address"
            },
            {
              "internalType": "bytes32",
              "name": "hash",
              "type": "bytes32"
            },
            {
              "internalType": "uint256",
              "name": "timestamp",
              "type": "uint256"
            },
            {
              "internalType": "string",
              "name": "title",
              "type": "string"
            },
            {
              "internalType": "bool",
              "name": "isActive",
              "type": "bool"
            },
            {
              "internalType": "bool",
              "name": "isPublic",
              "type": "bool"
            }
          ],
          "internalType": "struct NoteRegistryWithAccessControl.Note",
          "name": "note",
          "type": "tuple"
        }
      ],
      "stateMutability": "view",
      "type": "function"
    },
    {
      "inputs": [
        {
          "internalType": "uint256",
          "name": "noteId",
          "type": "uint256"
        }
      ],
      "name": "getNoteCollaborators",
      "outputs": [
        {
          "internalType": "address[]",
          "name": "collaborators",
          "type": "address[]"
        }
      ],
      "stateMutability": "view",
      "type": "function"
    },
    {
      "inputs": [
        {
          "internalType": "address",
          "name": "user",
          "type": "address"
        }
      ],
      "name": "getNotesByOwner",
      "outputs": [
        {
          "internalType": "uint256[]",
          "name": "noteIds",
          "type": "uint256[]"
        }
      ],
      "stateMutability": "view",
      "type": "function"
    },
    {
      "inputs": [
        {
          "internalType": "uint256",
          "name": "noteId",
          "type": "uint256"
        },
        {
          "internalType": "address",
          "name": "user",
          "type": "address"
        }
      ],
      "name": "getPermission",
      "outputs": [
        {
          "internalType": "enum NoteRegistryWithAccessControl.Permission",
          "name": "permission",
          "type": "uint8"
        }
      ],
      "stateMutability": "view",
      "type": "function"
    },
    {
      "inputs": [
        {
          "internalType": "uint256",
          "name": "noteId",
          "type": "uint256"
        },
        {
          "internalType": "address",
          "name": "collaborator",
          "type": "address"
        }
      ],
      "name": "getPermissionDetails",
      "outputs": [
        {
          "components": [
            {
              "internalType": "enum NoteRegistryWithAccessControl.Permission",
              "name": "level",
              "type": "uint8"
            },
            {
              "internalType": "uint256",
              "name": "grantedAt",
              "type": "uint256"
            },
            {
              "internalType": "address",
              "name": "grantedBy",
              "type": "address"
            }
          ],
          "internalType": "struct NoteRegistryWithAccessControl.NotePermission",
          "name": "permission",
          "type": "tuple"
        }
      ],
      "stateMutability": "view",
      "type": "function"
    },
    {
      "inputs": [],
      "name": "getTotalNoteCount",
      "outputs": [
        {
          "internalType": "uint256",
          "name": "count",
          "type": "uint256"
        }
      ],
      "stateMutability": "view",
      "type": "function"
    },
    {
      "inputs": [
        {
          "internalType": "uint256",
          "name": "noteId",
          "type": "uint256"
        },
        {
          "internalType": "address",
          "name": "grantee",
          "type": "address"
        },
        {
          "internalType": "enum NoteRegistryWithAccessControl.Permission",
          "name": "permission",
          "type": "uint8"
        }
      ],
      "name": "grantPermission",
      "outputs": [],
      "stateMutability": "nonpayable",
      "type": "function"
    },
    {
      "inputs": [
        {
          "internalType": "uint256",
          "name": "noteId",
          "type": "uint256"
        },
        {
          "internalType": "address",
          "name": "user",
          "type": "address"
        },
        {
          "internalType": "enum NoteRegistryWithAccessControl.Permission",
          "name": "requiredPermission",
          "type": "uint8"
        }
      ],
      "name": "hasPermission",
      "outputs": [
        {
          "internalType": "bool",
          "name": "hasPermission",
          "type": "bool"
        }
      ],
      "stateMutability": "view",
      "type": "function"
    },
    {
      "inputs": [
        {
          "internalType": "bytes32",
          "name": "",
          "type": "bytes32"
        }
      ],
      "name": "hashToNoteId",
      "outputs": [
        {
          "internalType": "uint256",
          "name": "",
          "type": "uint256"
        }
      ],
      "stateMutability": "view",
      "type": "function"
    },
    {
      "inputs": [
        {
          "internalType": "uint256",
          "name": "",
          "type": "uint256"
        },
        {
          "internalType": "uint256",
          "name": "",
          "type": "uint256"
        }
      ],
      "name": "noteCollaborators",
      "outputs": [
        {
          "internalType": "address",
          "name": "",
          "type": "address"
        }
      ],
      "stateMutability": "view",
      "type": "function"
    },
    {
      "inputs": [],
      "name": "noteCount",
      "outputs": [
        {
          "internalType": "uint256",
          "name": "",
          "type": "uint256"
        }
      ],
      "stateMutability": "view",
      "type": "function"
    },
    {
      "inputs": [
        {
          "internalType": "uint256",
          "name": "",
          "type": "uint256"
        },
        {
          "internalType": "address",
          "name": "",
          "type": "address"
        }
      ],
      "name": "notePermissions",
      "outputs": [
        {
          "internalType": "enum NoteRegistryWithAccessControl.Permission",
          "name": "level",
          "type": "uint8"
        },
        {
          "internalType": "uint256",
          "name": "grantedAt",
          "type": "uint256"
        },
        {
          "internalType": "address",
          "name": "grantedBy",
          "type": "address"
        }
      ],
      "stateMutability": "view",
      "type": "function"
    },
    {
      "inputs": [
        {
          "internalType": "uint256",
          "name": "",
          "type": "uint256"
        }
      ],
      "name": "notes",
      "outputs": [
        {
          "internalType": "address",
          "name": "owner",
          "type": "address"
        },
        {
          "internalType": "bytes32",
          "name": "hash",
          "type": "bytes32"
        },
        {
          "internalType": "uint256",
          "name": "timestamp",
          "type": "uint256"
        },
        {
          "internalType": "string",
          "name": "title",
          "type": "string"
        },
        {
          "internalType": "bool",
          "name": "isActive",
          "type": "bool"
        },
        {
          "internalType": "bool",
          "name": "isPublic",
          "type": "bool"
        }
      ],
      "stateMutability": "view",
      "type": "function"
    },
    {
      "inputs": [
        {
          "internalType": "address",
          "name": "",
          "type": "address"
        },
        {
          "internalType": "uint256",
          "name": "",
          "type": "uint256"
        }
      ],
      "name": "ownerNotes",
      "outputs": [
        {
          "internalType": "uint256",
          "name": "",
          "type": "uint256"
        }
      ],
      "stateMutability": "view",
      "type": "function"
    },
    {
      "inputs": [
        {
          "internalType": "bytes32",
          "name": "hash",
          "type": "bytes32"
        },
        {
          "internalType": "string",
          "name": "title",
          "type": "string"
        },
        {
          "internalType": "bool",
          "name": "isPublic",
          "type": "bool"
        }
      ],
      "name": "registerNote",
      "outputs": [
        {
          "internalType": "uint256",
          "name": "noteId",
          "type": "uint256"
        }
      ],
      "stateMutability": "nonpayable",
      "type": "function"
    },
    {
      "inputs": [
        {
          "internalType": "uint256",
          "name": "noteId",
          "type": "uint256"
        },
        {
          "internalType": "address",
          "name": "grantee",
          "type": "address"
        }
      ],
      "name": "revokePermission",
      "outputs": [],
      "stateMutability": "nonpayable",
      "type": "function"
    },
    {
      "inputs": [
        {
          "internalType": "uint256",
          "name": "noteId",
          "type": "uint256"
        },
        {
          "internalType": "bool",
          "name": "isPublic",
          "type": "bool"
        }
      ],
      "name": "setNoteVisibility",
      "outputs": [],
      "stateMutability": "nonpayable",
      "type": "function"
    },
    {
      "inputs": [
        {
          "internalType": "uint256",
          "name": "noteId",
          "type": "uint256"
        },
        {
          "internalType": "address",
          "name": "newOwner",
          "type": "address"
        }
      ],
      "name": "transferOwnership",
      "outputs": [],
      "stateMutability": "nonpayable",
      "type": "function"
    },
    {
      "inputs": [
        {
          "internalType": "uint256",
          "name": "noteId",
          "type": "uint256"
        },
        {
          "internalType": "bytes32",
          "name": "newHash",
          "type": "bytes32"
        }
      ],
      "name": "updateNote",
      "outputs": [],
      "stateMutability": "nonpayable",
      "type": "function"
    },
    {
      "inputs": [
        {
          "internalType": "bytes32",
          "name": "hash",
          "type": "bytes32"
        }
      ],
      "name": "verifyNoteAccess",
      "outputs": [
        {
          "internalType": "bool",
          "name": "exists",
          "type": "bool"
        },
        {
          "internalType": "bool",
          "name": "hasReadAccess",
          "type": "bool"
        },
        {
          "internalType": "bool",
          "name": "hasWriteAccess",
          "type": "bool"
        },
        {
          "internalType": "bool",
          "name": "isActive",
          "type": "bool"
        }
      ],
      "stateMutability": "view",
      "type": "function"
    }
  ],
  "bytecode": "0x60808060405234610016576125f4908161001c8239f35b600080fdfe6080604052600436101561001257600080fd5b60003560e01c80631139cac11461018257806316d06cc11461017d578063233833ca1461017857806329507f73146101735780632d29c2f91461016e5780633125d43c14610169578063317a4c7614610146578063570a3b271461016457806361c3a7e61461015f57806378a9e84a1461015a5780637ee9c35814610155578063823abfd9146101505780638c6016821461014b5780638e133f701461014657806394a9cdc91461014157806396fa90221461013c578063a18121f714610137578063a3d4973f14610132578063a6d52e3d1461012d578063a965a94114610128578063acb8f0a714610123578063bbfc736d1461011e5763e0737dfd1461011957600080fd5b611669565b6115a7565b6114c9565b6113f0565b61139a565b611321565b61123e565b6111b5565b61107e565b610876565b610df4565b610db3565b610d61565b610b66565b610aa7565b6108cf565b6107ca565b6106a9565b61041e565b610320565b610274565b6101aa565b60243590811515820361019657565b600080fd5b60443590811515820361019657565b3461019657604080600319360112610196576004357f8c2d85937085e93214c4811dc14c37a2e4a5dd83a51d5528dbfe81c0111b1c8e6101e8610187565b9282151580610268575b6101fb90611ae8565b6000938385528460205261021c6001600160a01b038387205416331461210a565b8385528460205261023560ff6004848820015416611b7e565b8385526020859052818520600401805461ff00191682151560081b61ff001617905581519015158152426020820152a280f35b506005548311156101f2565b346101965760403660031901126101965760043580151580610314575b61029a90611ae8565b6102d0600091808352826020526001600160a01b03604084205416331480156102d3575b6102c790611b33565b60243590611bc9565b80f35b5060036020526102c7600260ff6103003360408820906001600160a01b0316600052602052604060002090565b541661030b816111e1565b101590506102be565b50600554811115610291565b3461019657602036600319011261019657600435801515806103e6575b61034690611ae8565b600090808252816020526103686001600160a01b03604084205416331461210a565b8082528160205261038260ff600460408520015416611b7e565b808252816020526001604083206004810160ff1981541690550154825260026020528160408120556040517fa6ce03be5d75ae83d219243d923da4fddd2263c8c6427891615d2492f9b6490f3391806103e042829190602083019252565b0390a380f35b5060055481111561033d565b602435906001600160a01b038216820361019657565b600435906001600160a01b038216820361019657565b346101965760403660031901126101965760043561043a6103f2565b81151580610603575b61044c90611ae8565b600091808352826020526001600160a01b039061047082604086205416331461210a565b8084528360205261048a60ff600460408720015416611b7e565b81831691610499831515612358565b6104a5338414156123a3565b61052f8261052a6104d06104c3836000526000602052604060002090565b546001600160a01b031690565b96610511816104e9856000526000602052604060002090565b906001600160a01b031673ffffffffffffffffffffffffffffffffffffffff19825416179055565b6001600160a01b03166000526001602052604060002090565b611949565b61054c846001600160a01b03166000526001602052604060002090565b93855b8554808210156105f75784610571610567848a610d44565b90549060031b1c90565b14610585575061058090611769565b61054f565b6105ce9293949596916105b06105a96105676105a36105c995611f7e565b86610d44565b9184610d44565b90919082549060031b91821b91600019901b1916179055565b6123ee565b16907f16b85f49bf01212961345d3016c9a531894accf62eb7680f2045d79185cc0ec08480a480f35b505090919293506105ce565b50600554821115610443565b919082519283825260005b84811061063b575050826000602080949584010152601f8019910116010190565b60208183018101518483018201520161061a565b602081526001600160a01b038251166020820152602082015160408201526040820151606082015260c060a0610693606085015183608086015260e085019061060f565b9360808101511515828501520151151591015290565b34610196576020366003190112610196576106c2612467565b50600435600052600260205261074a61073e6107396040600020546106e8811515611ae8565b80600052600060205261070760406000206001600160a01b0390541690565b6001600160a01b0316331480156107a0575b801561074e575b610729906121a8565b6000526000602052604060002090565b612498565b6040519182918261064f565b0390f35b50610729600161078e6107873361076f866000526003602052604060002090565b906001600160a01b0316600052602052604060002090565b5460ff1690565b610797816111e1565b10159050610720565b506107c560046107ba836000526000602052604060002090565b015460081c60ff1690565b610719565b34610196576040366003190112610196576004356102d06107e96103f2565b8215158061086a575b6107fb90611ae8565b600092808452836020526001600160a01b036040852054163314801561082a575b61082590611ca4565b611fd5565b506003602052610825600360ff6108573360408920906001600160a01b0316600052602052604060002090565b5416610862816111e1565b14905061081c565b506005548311156107f2565b34610196576000366003190112610196576020600554604051908152f35b6020908160408183019282815285518094520193019160005b8281106108bb575050505090565b8351855293810193928101926001016108ad565b3461019657602080600319360112610196576001600160a01b036108f1610408565b166000526001808252604060002091604051918282855491828152019460005282600020926000905b82821061093d5761074a86610931818a03826109df565b60405191829182610894565b8454875295860195938301939083019061091a565b90600182811c92168015610982575b602083101461096c57565b634e487b7160e01b600052602260045260246000fd5b91607f1691610961565b634e487b7160e01b600052604160045260246000fd5b6060810190811067ffffffffffffffff8211176109be57604052565b61098c565b60c0810190811067ffffffffffffffff8211176109be57604052565b90601f8019910116810190811067ffffffffffffffff8211176109be57604052565b9060405191826000825492610a1584610952565b908184526001948581169081600014610a845750600114610a41575b5050610a3f925003836109df565b565b9093915060005260209081600020936000915b818310610a6c575050610a3f93508201013880610a31565b85548884018501529485019487945091830191610a54565b915050610a3f94506020925060ff191682840152151560051b8201013880610a31565b3461019657602036600319011261019657600435600052600060205260406000206001600160a01b0381541660018201549160ff610b196002830154926004610af260038301610a01565b9101549360405196879687526020870152604086015260c0606086015260c085019061060f565b918181161515608085015260081c16151560a08301520390f35b606090600319011261019657600435906024356001600160a01b0381168103610196579060443560048110156101965790565b3461019657610b7436610b33565b9082151580610d22575b610b8790611ae8565b60009280845283602052610c886001600160a01b038060408720541633148015610ce2575b610bb590611ca4565b82865285602052610bcf60ff600460408920015416611b7e565b831692610bdd841515611cef565b610c0e610c06610bfa6104c3866000526000602052604060002090565b6001600160a01b031690565b851415611d3a565b610c17856111e1565b610c22851515611dab565b610c3d6107878261076f866000526003602052604060002090565b610c46816111e1565b15610cc0575b610c83610c576114bc565b91610c628784611e64565b4260208401523360408401525b61076f856000526003602052604060002090565b611e70565b7f870dcfdb460d8902025a54f68f8b6de58a0f2ccf9b543bc34b707dea719a2d9560405180610cba3396429083611ecf565b0390a480f35b610cdd81610cd8856000526004602052604060002090565b611e1c565b610c4c565b506003602052610bb5600360ff610d0f3360408b20906001600160a01b0316600052602052604060002090565b5416610d1a816111e1565b149050610bac565b50600554831115610b7e565b634e487b7160e01b600052603260045260246000fd5b8054821015610d5c5760005260206000200190600090565b610d2e565b34610196576040366003190112610196576024356004356000526004602052604060002090815481101561019657610da36001600160a01b0391602093610d44565b9190546040519260031b1c168152f35b34610196576020610dde610dc636610b33565b9180151580610de8575b610dd990611ae8565b6122be565b6040519015158152f35b50600554811115610dd0565b3461019657602036600319011261019657610e0d610408565b610e32610e2d826001600160a01b03166000526001602052604060002090565b612418565b805160055492919060015b84811115610fb15750610e4f90612578565b90600093845b8251811015610ebf5780610e8d6004610e85610e74610e9695886125aa565b516000526000602052604060002090565b015460ff1690565b610e9b57611769565b610e55565b610ea581856125aa565b51610eb9610eb289611769565b98876125aa565b52611769565b8584838760015b82811115610edf578484526040518061074a8682610894565b610f0e906004610efd81610e85846000526000602052604060002090565b80610f85575b610f13575b50611769565b610ec6565b610f2b906107ba836000526000602052604060002090565b8015610f57575b610f3d575b86610f08565b80610f51610f4a88611769565b97876125aa565b52610f37565b506001610f756107878561076f856000526003602052604060002090565b610f7e816111e1565b1015610f32565b50610f9d6104c3836000526000602052604060002090565b6001600160a01b0380861691161415610f03565b6004610fcb81610e85846000526000602052604060002090565b80611052575b610fe5575b50610fe090611769565b610e3d565b610ffd906107ba836000526000602052604060002090565b8015611024575b61100f575b38610fd6565b9061101c610fe091611769565b919050611009565b5060016110426107878661076f856000526003602052604060002090565b61104b816111e1565b1015611004565b5061106a6104c3836000526000602052604060002090565b6001600160a01b0380871691161415610fd1565b3461019657602036600319011261019657600080600080600435815260026020526040812054806110d2575b5060408051931515845293151560208401521515928201929092529015156060820152608090f35b935050505060016110f26004610e85846000526000602052604060002090565b9161110a6104c3826000526000602052604060002090565b6001600160a01b03163303611128575061074a8192825b90916110aa565b9161074a9061114660046107ba866000526000602052604060002090565b801561117c575b61116c6107876002929661076f33916000526003602052604060002090565b611175816111e1565b1015611121565b50600261116c610787856111a16107873361076f8b6000526003602052604060002090565b6111aa816111e1565b10159250505061114d565b346101965760203660031901126101965760043560005260026020526020604060002054604051908152f35b600411156111eb57565b634e487b7160e01b600052602160045260246000fd5b9060048210156111eb5752565b91909160406001600160a01b0381606084019561122c858251611201565b60208101516020860152015116910152565b346101965760403660031901126101965761074a6112c46004356112606103f2565b90604080805161126f816109a2565b6000918183809352826020820152015282151580611315575b61129190611ae8565b82815280602052206001600160a01b038154163314908115611303575b5080156112d0575b6112bf906121a8565b61225a565b6040519182918261120e565b506112bf60016112f16107873361076f866000526003602052604060002090565b6112fa816111e1565b101590506112b6565b60ff91506004015460081c16386112ae565b50600554831115611288565b3461019657604036600319011261019657606061136761133f6103f2565b60043560005260036020526040600020906001600160a01b0316600052602052604060002090565b60ff815416906001600160a01b0360026001830154920154169061138e6040518094611201565b60208301526040820152f35b34610196576040366003190112610196576113b3610408565b6001600160a01b036024359116600052600160205260406000208054821015610196576020916113e291610d44565b90546040519160031b1c8152f35b346101965760203660031901126101965761074a61073e600435611412612467565b50801515806114a3575b61142590611ae8565b80600052600060205260406000206001600160a01b038154163314908115611491575b50801561145e575b611459906121a8565b6124f6565b50611459600161147f6107873361076f866000526003602052604060002090565b611488816111e1565b10159050611450565b60ff91506004015460081c1638611448565b5060055481111561141c565b60405190610a3f826109c3565b60405190610a3f826109a2565b346101965760603660031901126101965767ffffffffffffffff60243581811161019657366023820112156101965780600401359182116109be5760405161151b601f8401601f1916602001826109df565b828152366024848401011161019657600060208461074a9560246115539601838601378301015261154a61019b565b9060043561199c565b6040519081529081906020820190565b6020908160408183019282815285518094520193019160005b82811061158a575050505090565b83516001600160a01b03168552938101939281019260010161157c565b346101965760203660031901126101965761074a61160c6004358015158061165d575b6115d390611ae8565b80600052600060205260406000206001600160a01b03815416331490811561164b575b508015611618575b611607906121a8565b6121f3565b60405191829182611563565b5061160760016116396107873361076f866000526003602052604060002090565b611642816111e1565b101590506115fe565b60ff91506004015460081c16386115f6565b506005548111156115ca565b346101965760403660031901126101965760206116a260043561168a6103f2565b90801515806116b1575b61169d90611ae8565b612155565b6116af6040518092611201565bf35b50600554811115611694565b156116c457565b606460405162461bcd60e51b815260206004820152601460248201527f486173682063616e6e6f7420626520656d7074790000000000000000000000006044820152fd5b1561170f57565b606460405162461bcd60e51b815260206004820152601860248201527f4e6f7465206861736820616c72656164792065786973747300000000000000006044820152fd5b634e487b7160e01b600052601160045260246000fd5b60001981146117785760010190565b611753565b90601f811161178b57505050565b600091825260208220906020601f850160051c830194106117c7575b601f0160051c01915b8281106117bc57505050565b8181556001016117b0565b90925082906117a7565b8151815473ffffffffffffffffffffffffffffffffffffffff19166001600160a01b03919091161781559060209182820151926001938483015560408301516002830155600382019060608401519485519167ffffffffffffffff83116109be57611846836118408654610952565b8661177d565b80601f84116001146118cb57509282806004946118aa979460a097610a3f9b6000946118c0575b50501b916000199060031b1c19161790555b01926118a36118916080830151151590565b859060ff801983541691151516179055565b0151151590565b815461ff00191690151560081b61ff0016179055565b01519250388061186d565b9193949596601f1984166118e487600052602060002090565b936000905b82821061193257505093610a3f9897936118aa979360a097938360049810611919575b505050811b01905561187f565b015160001960f88460031b161c1916905538808061190c565b8088869782949787015181550196019401906118e9565b90815491680100000000000000008310156109be57826105b0916001610a3f95018155610d44565b9294939060609261198f91855260806020860152608085019061060f565b9460408401521515910152565b9291906119aa8415156116bd565b805115611aa4576119cf6119c8856000526002602052604060002090565b5415611708565b7f86972bbbece77e21e608072409eebb5b881627b9e541b0950f92132c5be4812b6119fb600554611769565b92611a0584600555565b8395611a55611a126114af565b338152826020820152426040820152856060820152611a346080820160019052565b83151560a0820152611a50876000526000602052604060002090565b6117d1565b611a768561052a336001600160a01b03166000526001602052604060002090565b84611a8b826000526002602052604060002090565b55611a9f6040519283923396429185611971565b0390a3565b606460405162461bcd60e51b815260206004820152601560248201527f5469746c652063616e6e6f7420626520656d70747900000000000000000000006044820152fd5b15611aef57565b606460405162461bcd60e51b815260206004820152601360248201527f4e6f746520646f6573206e6f74206578697374000000000000000000000000006044820152fd5b15611b3a57565b606460405162461bcd60e51b815260206004820152601360248201527f4e6f207772697465207065726d697373696f6e000000000000000000000000006044820152fd5b15611b8557565b606460405162461bcd60e51b815260206004820152601260248201527f4e6f7465206973206e6f742061637469766500000000000000000000000000006044820152fd5b90600082815280602052611be660ff600460408420015416611b7e565b611bf18215156116bd565b8181526002602052611c07604082205415611708565b828152806020526001604082200154815260026020526040812055806001611c39846000526000602052604060002090565b0155426002611c52846000526000602052604060002090565b015581611c69826000526002602052604060002090565b556040805191825242602083015233917f50f2b41364885ab267cc890d61657def298f540b0cf476cc2bec5137af047f3d9181908101611a9f565b15611cab57565b606460405162461bcd60e51b815260206004820152601360248201527f4e6f2061646d696e207065726d697373696f6e000000000000000000000000006044820152fd5b15611cf657565b606460405162461bcd60e51b815260206004820152601c60248201527f43616e6e6f74206772616e7420746f207a65726f2061646472657373000000006044820152fd5b15611d4157565b608460405162461bcd60e51b815260206004820152602160248201527f4f776e657220616c72656164792068617320616c6c207065726d697373696f6e60448201527f73000000000000000000000000000000000000000000000000000000000000006064820152fd5b15611db257565b608460405162461bcd60e51b815260206004820152602560248201527f557365207265766f6b655065726d697373696f6e20746f2072656d6f7665206160448201527f63636573730000000000000000000000000000000000000000000000000000006064820152fd5b90815491680100000000000000008310156109be5782611e44916001610a3f95018155610d44565b90919082549060031b916001600160a01b03809116831b921b1916179055565b60048210156111eb5752565b815160048110156111eb576001600160a01b036040610a3f9460029360ff80198754169116178555602081015160018601550151169101906001600160a01b031673ffffffffffffffffffffffffffffffffffffffff19825416179055565b60209093929193611ee4816040810196611201565b0152565b15611eef57565b606460405162461bcd60e51b815260206004820152601f60248201527f43616e6e6f74207265766f6b65206f776e6572207065726d697373696f6e73006044820152fd5b15611f3a57565b606460405162461bcd60e51b815260206004820152601760248201527f4e6f207065726d697373696f6e20746f207265766f6b650000000000000000006044820152fd5b60001981019190821161177857565b634e487b7160e01b600052603160045260246000fd5b80548015611fd0576000190190611fba8282610d44565b6001600160a01b0382549160031b1b1916905555565b611f8d565b611fef610bfa6104c3836000526000602052604060002090565b6120056001600160a01b03841691821415611ee8565b6120336120236107878561076f866000526003602052604060002090565b61202c816111e1565b1515611f33565b612047826000526004602052604060002090565b9260005b8454808210156120f85783612079610bfa612066858a610d44565b90546001600160a01b039160031b1c1690565b1461208d575061208890611769565b61204b565b6120c79394956120b06120b59493611e446105a96120666105a3610c6f97611f7e565b611fa3565b60026000918281558260018201550155565b6040514281523392907faa3c9dac66a750d95209b48ca2766a49801b2484dfdc92a4b4fe86b7d4dfb09090602090a4565b50506120c7919293506120b590610c6f565b1561211157565b606460405162461bcd60e51b815260206004820152601a60248201527f4e6f7420746865206f776e6572206f662074686973206e6f74650000000000006044820152fd5b60005260006020526001600160a01b038060406000205416908216146121a25761219d60ff9160036020526040600020906001600160a01b0316600052602052604060002090565b541690565b50600390565b156121af57565b606460405162461bcd60e51b815260206004820152601260248201527f4e6f2072656164207065726d697373696f6e00000000000000000000000000006044820152fd5b6000526020600481526040600020906040518092839183825491828152019160005283600020936000905b82821061223757505050612234925003826109df565b90565b85546001600160a01b03168452600195860195879550938101939091019061221e565b906122849160005260036020526040600020906001600160a01b0316600052602052604060002090565b6001600160a01b0360026040519261229b846109a2565b6122a960ff82541685611e64565b60018101546020850152015416604082015290565b6000818152806020526001600160a01b03806040832054169084161461234f576122e7846111e1565b600184149081612332575b5061232a5760ff9161076f612311926000526003602052604060002090565b541661231c826111e1565b612325816111e1565b101590565b505050600190565b60ff915060408184600493528060205220015460081c16386122f2565b50505050600190565b1561235f57565b606460405162461bcd60e51b815260206004820152601f60248201527f43616e6e6f74207472616e7366657220746f207a65726f2061646472657373006044820152fd5b156123aa57565b606460405162461bcd60e51b815260206004820152601b60248201527f43616e6e6f74207472616e7366657220746f20796f757273656c6600000000006044820152fd5b8054908115611fd057600019918201916124088383610d44565b909182549160031b1b1916905555565b9060405191828154918282526020928383019160005283600020936000905b82821061244d57505050610a3f925003836109df565b855484526001958601958895509381019390910190612437565b60405190612474826109c3565b600060a0838281528260208201528260408201526060808201528260808201520152565b906040516124a5816109c3565b60a060ff600483956001600160a01b03815416855260018101546020860152600281015460408601526124da60038201610a01565b606086015201548181161515608085015260081c161515910152565b6000526000602052604060002060ff600460405192612514846109c3565b6001600160a01b038154168452600181015460208501526002810154604085015261254160038201610a01565b606085015201548181161515608084015260081c16151560a082015290565b67ffffffffffffffff81116109be5760051b60200190565b9061258282612560565b61258f60405191826109df565b82815280926125a0601f1991612560565b0190602036910137565b8051821015610d5c5760209160051b01019056fea264697066735822122049efb0db6518c4e6555daeed2d144c2d41516a8cd344e6f1ba8ea7975278cb2664736f6c63430008130033",
  "linkReferences": {},
  "deployedLinkReferences": {}
}