{"contracts/NoteMonetization.sol":{"NoteMonetization":{"abi":[{"inputs":[{"internalType":"address payable","name":"_moduloToken","type":"address"}],"stateMutability":"nonpayable","type":"constructor"},{"anonymous":false,"inputs":[{"indexed":true,"internalType":"address","name":"user","type":"address"},{"indexed":false,"internalType":"uint256","name":"amount","type":"uint256"}],"name":"EarningsWithdrawn","type":"event"},{"anonymous":false,"inputs":[{"indexed":true,"internalType":"address","name":"buyer","type":"address"},{"indexed":true,"internalType":"uint256","name":"noteId","type":"uint256"},{"indexed":false,"internalType":"uint256","name":"amount","type":"uint256"},{"indexed":false,"internalType":"uint256","name":"timestamp","type":"uint256"}],"name":"NoteAccessGranted","type":"event"},{"anonymous":false,"inputs":[{"indexed":true,"internalType":"address","name":"owner","type":"address"},{"indexed":true,"internalType":"uint256","name":"noteId","type":"uint256"},{"indexed":false,"internalType":"uint256","name":"timestamp","type":"uint256"}],"name":"NoteDeactivated","type":"event"},{"anonymous":false,"inputs":[{"indexed":true,"internalType":"address","name":"owner","type":"address"},{"indexed":true,"internalType":"uint256","name":"noteId","type":"uint256"},{"indexed":false,"internalType":"bytes32","name":"hash","type":"bytes32"},{"indexed":false,"internalType":"string","name":"title","type":"string"},{"indexed":false,"internalType":"bool","name":"isPremium","type":"bool"},{"indexed":false,"internalType":"uint256","name":"accessPrice","type":"uint256"},{"indexed":false,"internalType":"uint256","name":"timestamp","type":"uint256"}],"name":"NoteRegistered","type":"event"},{"anonymous":false,"inputs":[{"indexed":true,"internalType":"address","name":"owner","type":"address"},{"indexed":true,"internalType":"uint256","name":"noteId","type":"uint256"},{"indexed":false,"internalType":"bytes32","name":"newHash","type":"bytes32"},{"indexed":false,"internalType":"uint256","name":"timestamp","type":"uint256"}],"name":"NoteUpdated","type":"event"},{"anonymous":false,"inputs":[{"indexed":true,"internalType":"address","name":"previousOwner","type":"address"},{"indexed":true,"internalType":"address","name":"newOwner","type":"address"}],"name":"OwnershipTransferred","type":"event"},{"anonymous":false,"inputs":[{"indexed":false,"internalType":"address","name":"account","type":"address"}],"name":"Paused","type":"event"},{"anonymous":false,"inputs":[{"indexed":false,"internalType":"uint256","name":"oldFee","type":"uint256"},{"indexed":false,"internalType":"uint256","name":"newFee","type":"uint256"}],"name":"PlatformFeeUpdated","type":"event"},{"anonymous":false,"inputs":[{"indexed":true,"internalType":"uint256","name":"noteId","type":"uint256"},{"indexed":false,"internalType":"uint256","name":"oldPrice","type":"uint256"},{"indexed":false,"internalType":"uint256","name":"newPrice","type":"uint256"}],"name":"PriceUpdated","type":"event"},{"anonymous":false,"inputs":[{"indexed":false,"internalType":"address","name":"account","type":"address"}],"name":"Unpaused","type":"event"},{"inputs":[],"name":"MAX_PLATFORM_FEE","outputs":[{"internalType":"uint256","name":"","type":"uint256"}],"stateMutability":"view","type":"function"},{"inputs":[],"name":"MAX_PRICE","outputs":[{"internalType":"uint256","name":"","type":"uint256"}],"stateMutability":"view","type":"function"},{"inputs":[],"name":"MIN_PRICE","outputs":[{"internalType":"uint256","name":"","type":"uint256"}],"stateMutability":"view","type":"function"},{"inputs":[{"internalType":"uint256","name":"noteId","type":"uint256"},{"internalType":"address","name":"user","type":"address"}],"name":"checkNoteAccess","outputs":[{"internalType":"bool","name":"","type":"bool"}],"stateMutability":"view","type":"function"},{"inputs":[],"name":"feeRecipient","outputs":[{"internalType":"address","name":"","type":"address"}],"stateMutability":"view","type":"function"},{"inputs":[{"internalType":"uint256","name":"noteId","type":"uint256"}],"name":"getNoteDetails","outputs":[{"internalType":"address","name":"owner","type":"address"},{"internalType":"bytes32","name":"hash","type":"bytes32"},{"internalType":"uint256","name":"timestamp","type":"uint256"},{"internalType":"string","name":"title","type":"string"},{"internalType":"bool","name":"isActive","type":"bool"},{"internalType":"bool","name":"isPremium","type":"bool"},{"internalType":"uint256","name":"accessPrice","type":"uint256"},{"internalType":"uint256","name":"totalEarnings","type":"uint256"},{"internalType":"uint256","name":"accessCount","type":"uint256"},{"internalType":"string","name":"category","type":"string"},{"internalType":"string","name":"description","type":"string"}],"stateMutability":"view","type":"function"},{"inputs":[{"internalType":"address","name":"user","type":"address"},{"internalType":"uint256","name":"offset","type":"uint256"},{"internalType":"uint256","name":"limit","type":"uint256"}],"name":"getUserNotes","outputs":[{"internalType":"uint256[]","name":"noteIds","type":"uint256[]"}],"stateMutability":"view","type":"function"},{"inputs":[{"internalType":"uint256","name":"","type":"uint256"},{"internalType":"address","name":"","type":"address"}],"name":"hasAccess","outputs":[{"internalType":"bool","name":"","type":"bool"}],"stateMutability":"view","type":"function"},{"inputs":[{"internalType":"bytes32","name":"","type":"bytes32"}],"name":"hashToNoteId","outputs":[{"internalType":"uint256","name":"","type":"uint256"}],"stateMutability":"view","type":"function"},{"inputs":[],"name":"moduloToken","outputs":[{"internalType":"contract ModuloToken","name":"","type":"address"}],"stateMutability":"view","type":"function"},{"inputs":[],"name":"noteCount","outputs":[{"internalType":"uint256","name":"","type":"uint256"}],"stateMutability":"view","type":"function"},{"inputs":[{"internalType":"uint256","name":"","type":"uint256"},{"internalType":"uint256","name":"","type":"uint256"}],"name":"notePurchases","outputs":[{"internalType":"address","name":"buyer","type":"address"},{"internalType":"uint256","name":"noteId","type":"uint256"},{"internalType":"uint256","name":"amount","type":"uint256"},{"internalType":"uint256","name":"timestamp","type":"uint256"},{"internalType":"bool","name":"isValid","type":"bool"}],"stateMutability":"view","type":"function"},{"inputs":[{"internalType":"uint256","name":"","type":"uint256"}],"name":"notes","outputs":[{"internalType":"address","name":"owner","type":"address"},{"internalType":"bytes32","name":"hash","type":"bytes32"},{"internalType":"uint256","name":"timestamp","type":"uint256"},{"internalType":"string","name":"title","type":"string"},{"internalType":"bool","name":"isActive","type":"bool"},{"internalType":"bool","name":"isPremium","type":"bool"},{"internalType":"uint256","name":"accessPrice","type":"uint256"},{"internalType":"uint256","name":"totalEarnings","type":"uint256"},{"internalType":"uint256","name":"accessCount","type":"uint256"},{"internalType":"string","name":"category","type":"string"},{"internalType":"string","name":"description","type":"string"}],"stateMutability":"view","type":"function"},{"inputs":[],"name":"owner","outputs":[{"internalType":"address","name":"","type":"address"}],"stateMutability":"view","type":"function"},{"inputs":[{"internalType":"address","name":"","type":"address"},{"internalType":"uint256","name":"","type":"uint256"}],"name":"ownerNotes","outputs":[{"internalType":"uint256","name":"","type":"uint256"}],"stateMutability":"view","type":"function"},{"inputs":[],"name":"pause","outputs":[],"stateMutability":"nonpayable","type":"function"},{"inputs":[],"name":"paused","outputs":[{"internalType":"bool","name":"","type":"bool"}],"stateMutability":"view","type":"function"},{"inputs":[],"name":"platformFeePercent","outputs":[{"internalType":"uint256","name":"","type":"uint256"}],"stateMutability":"view","type":"function"},{"inputs":[{"internalType":"uint256","name":"noteId","type":"uint256"}],"name":"purchaseNoteAccess","outputs":[],"stateMutability":"nonpayable","type":"function"},{"inputs":[{"internalType":"address","name":"token","type":"address"},{"internalType":"uint256","name":"amount","type":"uint256"}],"name":"recoverERC20","outputs":[],"stateMutability":"nonpayable","type":"function"},{"inputs":[{"internalType":"bytes32","name":"hash","type":"bytes32"},{"internalType":"string","name":"title","type":"string"},{"internalType":"bool","name":"isPremium","type":"bool"},{"internalType":"uint256","name":"accessPrice","type":"uint256"},{"internalType":"string","name":"category","type":"string"},{"internalType":"string","name":"description","type":"string"}],"name":"registerNote","outputs":[{"internalType":"uint256","name":"noteId","type":"uint256"}],"stateMutability":"nonpayable","type":"function"},{"inputs":[],"name":"renounceOwnership","outputs":[],"stateMutability":"nonpayable","type":"function"},{"inputs":[],"name":"totalPurchases","outputs":[{"internalType":"uint256","name":"","type":"uint256"}],"stateMutability":"view","type":"function"},{"inputs":[{"internalType":"address","name":"newOwner","type":"address"}],"name":"transferOwnership","outputs":[],"stateMutability":"nonpayable","type":"function"},{"inputs":[],"name":"unpause","outputs":[],"stateMutability":"nonpayable","type":"function"},{"inputs":[{"internalType":"address","name":"newRecipient","type":"address"}],"name":"updateFeeRecipient","outputs":[],"stateMutability":"nonpayable","type":"function"},{"inputs":[{"internalType":"uint256","name":"noteId","type":"uint256"},{"internalType":"bool","name":"isPremium","type":"bool"},{"internalType":"uint256","name":"accessPrice","type":"uint256"}],"name":"updateNotePremiumStatus","outputs":[],"stateMutability":"nonpayable","type":"function"},{"inputs":[{"internalType":"uint256","name":"noteId","type":"uint256"},{"internalType":"uint256","name":"newPrice","type":"uint256"}],"name":"updateNotePrice","outputs":[],"stateMutability":"nonpayable","type":"function"},{"inputs":[{"internalType":"uint256","name":"newFeePercent","type":"uint256"}],"name":"updatePlatformFee","outputs":[],"stateMutability":"nonpayable","type":"function"},{"inputs":[{"internalType":"address","name":"","type":"address"}],"name":"userEarnings","outputs":[{"internalType":"uint256","name":"","type":"uint256"}],"stateMutability":"view","type":"function"},{"inputs":[{"internalType":"uint256","name":"amount","type":"uint256"}],"name":"withdrawEarnings","outputs":[],"stateMutability":"nonpayable","type":"function"}],"evm":{"bytecode":{"linkReferences":{},"object":"60a03461012d57601f6123d638819003918201601f19168301916001600160401b038311848410176101325780849260209460405283398101031261012d57516001600160a01b038082169182900361012d57600160005560015460405191339082167f8be0079c531659141344cd1fd0a4f28419497f9722a3daafe3b4186f6b6457e0600080a36001600160a81b0319163360ff60a01b19161760015560fa600a5581156100eb5750608052600b80546001600160a01b0319163317905560405161228d908161014982396080518181816106f001528181610a6701528181610aba0152610d440152f35b62461bcd60e51b815260206004820152601560248201527f496e76616c696420746f6b656e206164647265737300000000000000000000006044820152606490fd5b600080fd5b634e487b7160e01b600052604160045260246000fdfe608080604052600436101561001357600080fd5b60003560e01c90816301c11d9614611a3057508063317a4c7614611a125780633998a681146119f55780633de0c4d7146112c15780633f4ba83a1461121f57806346904840146111f85780634d5485061461118c5780635962a9411461116e5780635c975abb146111485780635f71566d1461101657806361c3a7e614610f8857806363b3834e14610e635780636e70096e14610cc1578063715018a614610c6657806375e2a27e14610bf15780638456cb5914610b805780638980f11f14610a8b5780638a0b3b0a14610a475780638b7cc3df146109f85780638c639a85146109da5780638da5cb5b146109b357806395ba85c4146105d457806396fa9022146105a8578063a6d52e3d14610551578063aa0b5988146104af578063ad9f20a61461048d578063bce5f59f14610363578063ced1419814610315578063d8ba6021146102db578063f160d369146102515763f2fde38b1461017457600080fd5b3461024c57602036600319011261024c5761018d611ae8565b610195611d0e565b6001600160a01b038091169081156101e257600154826001600160a01b0319821617600155167f8be0079c531659141344cd1fd0a4f28419497f9722a3daafe3b4186f6b6457e0600080a3005b608460405162461bcd60e51b815260206004820152602660248201527f4f776e61626c653a206e6577206f776e657220697320746865207a65726f206160448201527f64647265737300000000000000000000000000000000000000000000000000006064820152fd5b600080fd5b3461024c57602036600319011261024c576001600160a01b03610272611ae8565b61027a611d0e565b168015610297576001600160a01b0319600b541617600b55600080f35b606460405162461bcd60e51b815260206004820152601160248201527f496e76616c696420726563697069656e740000000000000000000000000000006044820152fd5b3461024c57602036600319011261024c576001600160a01b036102fc611ae8565b1660005260066020526020604060002054604051908152f35b3461024c57604036600319011261024c5761032e611afe565b60043560005260056020526001600160a01b0360406000209116600052602052602060ff604060002054166040519015158152f35b3461024c57606036600319011261024c5760043560243580158015820361024c576044359280151580610481575b61039a90611e13565b8060005260026020526103bc6001600160a01b03604060002054163314611fc6565b8060005260026020526103d960ff60046040600020015416611e5e565b60005260026020526040600020918061046f575b15610438575060059066038d7ea4c6800083101580610425575b61041090611d66565b60048101805461ff0019166101001790550155005b50683635c9adc5dea00000831115610407565b9091508061045e575b610448575b005b60058160046000930161ff001981541690550155005b5060ff600482015460081c16610441565b5060ff600483015460081c16156103ed565b50600854811115610391565b3461024c57600036600319011261024c57602060405166038d7ea4c680008152f35b3461024c57602036600319011261024c576004356104cb611d0e565b6103e8811161050d5760407fd347e206f25a89b917fc9482f1a2d294d749baa4dc9bde7fb495ee11fe49164391600a549080600a5582519182526020820152a1005b606460405162461bcd60e51b815260206004820152600c60248201527f46656520746f6f206869676800000000000000000000000000000000000000006044820152fd5b3461024c57604036600319011261024c5761056a611ae8565b6001600160a01b03602435911660005260036020526040600020805482101561024c5760209161059991611cf6565b90549060031b1c604051908152f35b3461024c57602036600319011261024c5760043560005260046020526020604060002054604051908152f35b3461024c5760208060031936011261024c576004356105f1611f71565b6105f9611dc0565b801515806109a7575b61060b90611e13565b806000526002825261062760ff60046040600020015416611e5e565b806000526002825260406000209161064860ff600485015460081c16611ea9565b8160005260058152604060002033600052815260ff60406000205416610963576001600160a01b039033828554161461091f57600584015491821561068d8115611d66565b600a5490818502918583041417156108d05761271090046106ae8185611ef4565b6040517f23b872dd00000000000000000000000000000000000000000000000000000000815233600482015230602482015285604482015284816064816000887f0000000000000000000000000000000000000000000000000000000000000000165af180156109135761072a916000916108e6575b50611f19565b856000526005845260406000203360005284526040600020966001978860ff198254161790556006810161075f838254611f64565b9055600781019081548981018091116108d05785925554166000526006845261078e6040600020918254611f64565b905581600b5416600052600683526107ac6040600020918254611f64565b90558360005260078252604060002060405160a0810181811067ffffffffffffffff8211176108ba576040523381528381019186835260408201868152606083019042825260808401928a84528054680100000000000000008110156108ba5761081a918c82018155611cc4565b9590956108a4576108609660049551166001600160a01b0319875416178655518a86015551600285015551600384015551151591019060ff801983541691151516179055565b61086b600954611db1565b60095560405191825242908201527ff734c49672b04aa6d31caf2a2de7f5bbe9eea86df580f98cea7224bb3642127c60403392a3600055005b634e487b7160e01b600052600060045260246000fd5b634e487b7160e01b600052604160045260246000fd5b634e487b7160e01b600052601160045260246000fd5b6109069150863d881161090c575b6108fe8183611a6f565b810190611f01565b89610724565b503d6108f4565b6040513d6000823e3d90fd5b6064906040519062461bcd60e51b82526004820152601860248201527f43616e6e6f74207075726368617365206f776e206e6f746500000000000000006044820152fd5b6064906040519062461bcd60e51b82526004820152601260248201527f416c7265616479206861732061636365737300000000000000000000000000006044820152fd5b50600854811115610602565b3461024c57600036600319011261024c5760206001600160a01b0360015416604051908152f35b3461024c57600036600319011261024c576020600a54604051908152f35b3461024c57604036600319011261024c576020610a31600435610a19611afe565b9080151580610a3b575b610a2c90611e13565b612011565b6040519015158152f35b50600854811115610a23565b3461024c57600036600319011261024c5760206040516001600160a01b037f0000000000000000000000000000000000000000000000000000000000000000168152f35b3461024c57604036600319011261024c57610aa4611ae8565b610aac611d0e565b6001600160a01b03809116817f0000000000000000000000000000000000000000000000000000000000000000168114610b3c5760015460405163a9059cbb60e01b815292166001600160a01b0316600483015260248035908301526020908290816000816044810103925af1801561091357610b2557005b6104469060203d811161090c576108fe8183611a6f565b606460405162461bcd60e51b815260206004820152601a60248201527f43616e6e6f74207265636f766572204d4f444f20746f6b656e730000000000006044820152fd5b3461024c57600036600319011261024c57610b99611d0e565b610ba1611dc0565b7401000000000000000000000000000000000000000060ff60a01b1960015416176001557f62e78cea01bee320cd4e420270b5ea74000d11b0c9f74754ebdbfc544b05a2586020604051338152a1005b3461024c57610bff36611b14565b9060005260076020526040600020805482101561024c5760a091610c2291611cc4565b506001600160a01b0381541690600181015490600281015460ff60046003840154930154169260405194855260208501526040840152606083015215156080820152f35b3461024c57600036600319011261024c57610c7f611d0e565b60006001600160a01b036001546001600160a01b03198116600155167f8be0079c531659141344cd1fd0a4f28419497f9722a3daafe3b4186f6b6457e08280a3005b3461024c5760208060031936011261024c5760043590610cdf611f71565b610ce7611dc0565b813360005260068252604060002054908115610e1f5780610dd5575091505b33600052600681526040600020610d1e838254611ef4565b905560405163a9059cbb60e01b81523360048201526024810183905290808260448160007f00000000000000000000000000000000000000000000000000000000000000006001600160a01b03165af1918215610913577f48dc35af7b45e2a81fffad55f6e2fafacdb1d3d0d50d24ebdc16324f5ba757f192610da891600091610db85750611f19565b6040519283523392a26001600055005b610dcf9150833d851161090c576108fe8183611a6f565b85610724565b1115610d06576064906040519062461bcd60e51b82526004820152601560248201527f496e73756666696369656e74206561726e696e677300000000000000000000006044820152fd5b6064836040519062461bcd60e51b82526004820152601760248201527f4e6f206561726e696e677320746f2077697468647261770000000000000000006044820152fd5b3461024c57602036600319011261024c5760043580151580610f7c575b610e8990611e13565b60005260026020526040600020604051610ea281611a52565b610f786001600160a01b03918284541681526001840154926020820193845260028501549460408301958652610eda60038201611b64565b91606084019283526004820154608085019060ff81161515825260ff60a087019160081c161515815260058401549060c0870191825260068501549260e088019384526007860154946101008901958652610f4b6009610f3c60088a01611b64565b986101208c01998a5201611b64565b9889610140820152511699519a51965190511515915115159251935194519551966040519b8c9b8c611c4a565b0390f35b50600854811115610e80565b3461024c57602036600319011261024c57600435600052600260205260406000206001600160a01b03815416610f78600183015491600284015493610fcf60038201611b64565b9160048201546005830154600684015491600785015493610ffe6009610ff760088901611b64565b9701611b64565b966040519a8b9a60ff808660081c169516938c611c4a565b3461024c5761102436611b14565b8115158061113c575b61103690611e13565b8160005260026020526110586001600160a01b03604060002054163314611fc6565b81600052600260205261107560ff60046040600020015416611e5e565b66038d7ea4c6800081101580611129575b156110e55760407f15819dd2fd9f6418b142e798d08a18d0bf06ea368f4480b7b0d3f75bd966bc48918360005260026020526005826000206110d160ff600483015460081c16611ea9565b0190808254925582519182526020820152a2005b606460405162461bcd60e51b815260206004820152601860248201527f5072696365206f7574206f662076616c69642072616e676500000000000000006044820152fd5b50683635c9adc5dea00000811115611086565b5060085482111561102d565b3461024c57600036600319011261024c57602060ff60015460a01c166040519015158152f35b3461024c57600036600319011261024c576020600954604051908152f35b3461024c57606036600319011261024c576111b56111a8611ae8565b604435906024359061211b565b604051809160208083018184528251809152816040850193019160005b8281106111e157505050500390f35b8351855286955093810193928101926001016111d2565b3461024c57600036600319011261024c5760206001600160a01b03600b5416604051908152f35b3461024c57600036600319011261024c57611238611d0e565b60015460ff8160a01c161561127d5760ff60a01b19166001557f5db9ee0a495bf2e6ff9c91a7834c1ba4fdd244a5e8aa4e537bd38aeae4b073aa6020604051338152a1005b606460405162461bcd60e51b815260206004820152601460248201527f5061757361626c653a206e6f74207061757365640000000000000000000000006044820152fd5b3461024c5760c036600319011261024c5760243567ffffffffffffffff811161024c576112f2903690600401611a91565b604435801515810361024c5760843567ffffffffffffffff811161024c5761131e903690600401611a91565b9160a43567ffffffffffffffff811161024c5761133f903690600401611a91565b91611348611dc0565b60643593600435156119b15782511561196d5760043560005260046020526040600020546119295781156119205766038d7ea4c680008510158061190d575b61139090611d66565b61139b600854611db1565b9384600855604051916113ad83611a52565b33835260043560208401524260408401528460608401526001608084015283151560a08401528660c0840152600060e084015260006101008401526101208301526101408201528360005260026020526040600020906001600160a01b038151166001600160a01b03198354161782556020810151600183015560408101516002830155606081015180519067ffffffffffffffff82116108ba5781906114576003860154611b2a565b601f81116118ba575b50602090601f83116001146118485760009261183d575b50508160011b916000199060031b1c19161760038301555b600482016114af60808301511515829060ff801983541691151516179055565b60a0820151815461ff00191690151560081b61ff001617905560c0810151600583015560e08101516006830155610100810151600783015561012081015180519067ffffffffffffffff82116108ba5761150c6008850154611b2a565b601f81116117f6575b50602090601f83116001146117825761014093929160009183611777575b50508160011b916000199060031b1c19161760088401555b015180519067ffffffffffffffff82116108ba5761156c6009840154611b2a565b601f8111611730575b50602090601f83116001146116c25760099291600091836116b7575b50508160011b916000199060031b1c1916179101555b336000526003602052604060002091825490680100000000000000008210156108ba576020956115ff83879660017fcbf4e15a8a5c6df39c4529172b0a3aa5bd97c1f8fba73bd241cb3884ffae2e0096018155611cf6565b81549060031b9087821b91600019901b19161790556004356000526004875284604060002055831560001461168f57846000526005875260406000203360005287526040600020600160ff198254161790555b61166e60405192600435845260a08985015260a0840190611c0a565b931515604083015260608201524260808201528033930390a3604051908152f35b846000526005875260406000203360005287526040600020600160ff19825416179055611652565b015190508880611591565b90601f198316916009850160005260206000209260005b818110611718575091600193918560099694106116ff575b505050811b019101556115a7565b015160001960f88460031b161c191690558880806116f1565b929360206001819287860151815501950193016116d9565b600984016000526020600020601f840160051c810160208510611770575b601f830160051c82018110611764575050611575565b6000815560010161174e565b508061174e565b015190508980611533565b906008850160005260206000209160005b601f19851681106117de57509183916001936101409695601f198116106117c5575b505050811b01600884015561154b565b015160001960f88460031b161c191690558980806117b5565b91926020600181928685015181550194019201611793565b600885016000526020600020601f840160051c810160208510611836575b601f830160051c8201811061182a575050611515565b60008155600101611814565b5080611814565b015190508880611477565b9250600385016000526020600020906000935b601f198416851061189f576001945083601f19811610611886575b505050811b01600383015561148f565b015160001960f88460031b161c19169055888080611876565b8181015183556020948501946001909301929091019061185b565b909150600385016000526020600020601f840160051c810160208510611906575b90849392915b601f830160051c820181106118f7575050611460565b600081558594506001016118e1565b50806118db565b50683635c9adc5dea00000851115611387565b60009450611390565b606460405162461bcd60e51b815260206004820152601860248201527f4e6f7465206861736820616c72656164792065786973747300000000000000006044820152fd5b606460405162461bcd60e51b815260206004820152601560248201527f5469746c652063616e6e6f7420626520656d70747900000000000000000000006044820152fd5b606460405162461bcd60e51b815260206004820152601460248201527f486173682063616e6e6f7420626520656d7074790000000000000000000000006044820152fd5b3461024c57600036600319011261024c5760206040516103e88152f35b3461024c57600036600319011261024c576020600854604051908152f35b3461024c57600036600319011261024c5780683635c9adc5dea0000060209252f35b610160810190811067ffffffffffffffff8211176108ba57604052565b90601f8019910116810190811067ffffffffffffffff8211176108ba57604052565b81601f8201121561024c5780359067ffffffffffffffff82116108ba5760405192611ac6601f8401601f191660200185611a6f565b8284526020838301011161024c57816000926020809301838601378301015290565b600435906001600160a01b038216820361024c57565b602435906001600160a01b038216820361024c57565b604090600319011261024c576004359060243590565b90600182811c92168015611b5a575b6020831014611b4457565b634e487b7160e01b600052602260045260246000fd5b91607f1691611b39565b9060405191826000825492611b7884611b2a565b908184526001948581169081600014611be75750600114611ba4575b5050611ba292500383611a6f565b565b9093915060005260209081600020936000915b818310611bcf575050611ba293508201013880611b94565b85548884018501529485019487945091830191611bb7565b915050611ba294506020925060ff191682840152151560051b8201013880611b94565b919082519283825260005b848110611c36575050826000602080949584010152601f8019910116010190565b602081830181015184830182015201611c15565b99959193611cc19b99959793611cb299956001600160a01b03611c8594168d5260208d015260408c01526101608060608d01528b0190611c0a565b95151560808a0152151560a089015260c088015260e0870152610100860152848203610120860152611c0a565b91610140818403910152611c0a565b90565b8054821015611ce0576000526005602060002091020190600090565b634e487b7160e01b600052603260045260246000fd5b8054821015611ce05760005260206000200190600090565b6001600160a01b03600154163303611d2257565b606460405162461bcd60e51b815260206004820152602060248201527f4f776e61626c653a2063616c6c6572206973206e6f7420746865206f776e65726044820152fd5b15611d6d57565b606460405162461bcd60e51b815260206004820152601460248201527f496e76616c6964206163636573732070726963650000000000000000000000006044820152fd5b60001981146108d05760010190565b60ff60015460a01c16611dcf57565b606460405162461bcd60e51b815260206004820152601060248201527f5061757361626c653a20706175736564000000000000000000000000000000006044820152fd5b15611e1a57565b606460405162461bcd60e51b815260206004820152601360248201527f4e6f746520646f6573206e6f74206578697374000000000000000000000000006044820152fd5b15611e6557565b606460405162461bcd60e51b815260206004820152601260248201527f4e6f7465206973206e6f742061637469766500000000000000000000000000006044820152fd5b15611eb057565b606460405162461bcd60e51b815260206004820152601360248201527f4e6f7465206973206e6f74207072656d69756d000000000000000000000000006044820152fd5b919082039182116108d057565b9081602091031261024c5751801515810361024c5790565b15611f2057565b606460405162461bcd60e51b815260206004820152601560248201527f546f6b656e207472616e73666572206661696c656400000000000000000000006044820152fd5b919082018092116108d057565b600260005414611f82576002600055565b606460405162461bcd60e51b815260206004820152601f60248201527f5265656e7472616e637947756172643a207265656e7472616e742063616c6c006044820152fd5b15611fcd57565b606460405162461bcd60e51b815260206004820152601a60248201527f4e6f7420746865206f776e6572206f662074686973206e6f74650000000000006044820152fd5b6000818152600260205260408120926040519361202d85611a52565b6001600160a01b0394858254168152600182015460208201526002820154604082015261205c60038301611b64565b60608201526101406120c0600960048501549460ff86161515608086015260ff60a086019660081c1615158652600581015460c0860152600681015460e086015260078101546101008601526120b460088201611b64565b61012086015201611b64565b91015251156120e65760ff93604093835260056020528383209116825260205220541690565b50505050600190565b67ffffffffffffffff81116108ba5760051b60200190565b8051821015611ce05760209160051b010190565b92916001600160a01b03600094168452602090600382526040852090604051808385829554938481520190895285892092895b878282106122415750505061216592500383611a6f565b815190818510156122025761218e9161217f869283611f64565b908082116121fa575b50611ef4565b92612198846120ef565b926121a66040519485611a6f565b848452601f196121b5866120ef565b0190369085013782955b8481106121cd575050505050565b806121e46121de6121f59385611f64565b85612107565b516121ef8287612107565b52611db1565b6121bf565b905038612188565b50506040519394925050820167ffffffffffffffff81118382101761222d5760405280825236813790565b602482634e487b7160e01b81526041600452fd5b855484526001958601958895509301920161214e56fea26469706673582212206e4e46a4852aeac2be90b413afcf04c84c7fbe5400d4209ac12b56ec4c98b46364736f6c63430008130033","opcodes":"PUSH1 0xA0 CALLVALUE PUSH2 0x12D JUMPI PUSH1 0x1F PUSH2 0x23D6 CODESIZE DUP2 SWAP1 SUB SWAP2 DUP3 ADD PUSH1 0x1F NOT AND DUP4 ADD SWAP2 PUSH1 0x1 PUSH1 0x1 PUSH1 0x40 SHL SUB DUP4 GT DUP5 DUP5 LT OR PUSH2 0x132 JUMPI DUP1 DUP5 SWAP3 PUSH1 0x20 SWAP5 PUSH1 0x40 MSTORE DUP4 CODECOPY DUP2 ADD SUB SLT PUSH2 0x12D JUMPI MLOAD PUSH1 0x1 PUSH1 0x1 PUSH1 0xA0 SHL SUB DUP1 DUP3 AND SWAP2 DUP3 SWAP1 SUB PUSH2 0x12D JUMPI PUSH1 0x1 PUSH1 0x0 SSTORE PUSH1 0x1 SLOAD PUSH1 0x40 MLOAD SWAP2 CALLER SWAP1 DUP3 AND PUSH32 0x8BE0079C531659141344CD1FD0A4F28419497F9722A3DAAFE3B4186F6B6457E0 PUSH1 0x0 DUP1 LOG3 PUSH1 0x1 PUSH1 0x1 PUSH1 0xA8 SHL SUB NOT AND CALLER PUSH1 0xFF PUSH1 0xA0 SHL NOT AND OR PUSH1 0x1 SSTORE PUSH1 0xFA PUSH1 0xA SSTORE DUP2 ISZERO PUSH2 0xEB JUMPI POP PUSH1 0x80 MSTORE PUSH1 0xB DUP1 SLOAD PUSH1 0x1 PUSH1 0x1 PUSH1 0xA0 SHL SUB NOT AND CALLER OR SWAP1 SSTORE PUSH1 0x40 MLOAD PUSH2 0x228D SWAP1 DUP2 PUSH2 0x149 DUP3 CODECOPY PUSH1 0x80 MLOAD DUP2 DUP2 DUP2 PUSH2 0x6F0 ADD MSTORE DUP2 DUP2 PUSH2 0xA67 ADD MSTORE DUP2 DUP2 PUSH2 0xABA ADD MSTORE PUSH2 0xD44 ADD MSTORE RETURN JUMPDEST PUSH3 0x461BCD PUSH1 0xE5 SHL DUP2 MSTORE PUSH1 0x20 PUSH1 0x4 DUP3 ADD MSTORE PUSH1 0x15 PUSH1 0x24 DUP3 ADD MSTORE PUSH32 0x496E76616C696420746F6B656E20616464726573730000000000000000000000 PUSH1 0x44 DUP3 ADD MSTORE PUSH1 0x64 SWAP1 REVERT JUMPDEST PUSH1 0x0 DUP1 REVERT JUMPDEST PUSH4 0x4E487B71 PUSH1 0xE0 SHL PUSH1 0x0 MSTORE PUSH1 0x41 PUSH1 0x4 MSTORE PUSH1 0x24 PUSH1 0x0 REVERT INVALID PUSH1 0x80 DUP1 PUSH1 0x40 MSTORE PUSH1 0x4 CALLDATASIZE LT ISZERO PUSH2 0x13 JUMPI PUSH1 0x0 DUP1 REVERT JUMPDEST PUSH1 0x0 CALLDATALOAD PUSH1 0xE0 SHR SWAP1 DUP2 PUSH4 0x1C11D96 EQ PUSH2 0x1A30 JUMPI POP DUP1 PUSH4 0x317A4C76 EQ PUSH2 0x1A12 JUMPI DUP1 PUSH4 0x3998A681 EQ PUSH2 0x19F5 JUMPI DUP1 PUSH4 0x3DE0C4D7 EQ PUSH2 0x12C1 JUMPI DUP1 PUSH4 0x3F4BA83A EQ PUSH2 0x121F JUMPI DUP1 PUSH4 0x46904840 EQ PUSH2 0x11F8 JUMPI DUP1 PUSH4 0x4D548506 EQ PUSH2 0x118C JUMPI DUP1 PUSH4 0x5962A941 EQ PUSH2 0x116E JUMPI DUP1 PUSH4 0x5C975ABB EQ PUSH2 0x1148 JUMPI DUP1 PUSH4 0x5F71566D EQ PUSH2 0x1016 JUMPI DUP1 PUSH4 0x61C3A7E6 EQ PUSH2 0xF88 JUMPI DUP1 PUSH4 0x63B3834E EQ PUSH2 0xE63 JUMPI DUP1 PUSH4 0x6E70096E EQ PUSH2 0xCC1 JUMPI DUP1 PUSH4 0x715018A6 EQ PUSH2 0xC66 JUMPI DUP1 PUSH4 0x75E2A27E EQ PUSH2 0xBF1 JUMPI DUP1 PUSH4 0x8456CB59 EQ PUSH2 0xB80 JUMPI DUP1 PUSH4 0x8980F11F EQ PUSH2 0xA8B JUMPI DUP1 PUSH4 0x8A0B3B0A EQ PUSH2 0xA47 JUMPI DUP1 PUSH4 0x8B7CC3DF EQ PUSH2 0x9F8 JUMPI DUP1 PUSH4 0x8C639A85 EQ PUSH2 0x9DA JUMPI DUP1 PUSH4 0x8DA5CB5B EQ PUSH2 0x9B3 JUMPI DUP1 PUSH4 0x95BA85C4 EQ PUSH2 0x5D4 JUMPI DUP1 PUSH4 0x96FA9022 EQ PUSH2 0x5A8 JUMPI DUP1 PUSH4 0xA6D52E3D EQ PUSH2 0x551 JUMPI DUP1 PUSH4 0xAA0B5988 EQ PUSH2 0x4AF JUMPI DUP1 PUSH4 0xAD9F20A6 EQ PUSH2 0x48D JUMPI DUP1 PUSH4 0xBCE5F59F EQ PUSH2 0x363 JUMPI DUP1 PUSH4 0xCED14198 EQ PUSH2 0x315 JUMPI DUP1 PUSH4 0xD8BA6021 EQ PUSH2 0x2DB JUMPI DUP1 PUSH4 0xF160D369 EQ PUSH2 0x251 JUMPI PUSH4 0xF2FDE38B EQ PUSH2 0x174 JUMPI PUSH1 0x0 DUP1 REVERT JUMPDEST CALLVALUE PUSH2 0x24C JUMPI PUSH1 0x20 CALLDATASIZE PUSH1 0x3 NOT ADD SLT PUSH2 0x24C JUMPI PUSH2 0x18D PUSH2 0x1AE8 JUMP JUMPDEST PUSH2 0x195 PUSH2 0x1D0E JUMP JUMPDEST PUSH1 0x1 PUSH1 0x1 PUSH1 0xA0 SHL SUB DUP1 SWAP2 AND SWAP1 DUP2 ISZERO PUSH2 0x1E2 JUMPI PUSH1 0x1 SLOAD DUP3 PUSH1 0x1 PUSH1 0x1 PUSH1 0xA0 SHL SUB NOT DUP3 AND OR PUSH1 0x1 SSTORE AND PUSH32 0x8BE0079C531659141344CD1FD0A4F28419497F9722A3DAAFE3B4186F6B6457E0 PUSH1 0x0 DUP1 LOG3 STOP JUMPDEST PUSH1 0x84 PUSH1 0x40 MLOAD PUSH3 0x461BCD PUSH1 0xE5 SHL DUP2 MSTORE PUSH1 0x20 PUSH1 0x4 DUP3 ADD MSTORE PUSH1 0x26 PUSH1 0x24 DUP3 ADD MSTORE PUSH32 0x4F776E61626C653A206E6577206F776E657220697320746865207A65726F2061 PUSH1 0x44 DUP3 ADD MSTORE PUSH32 0x6464726573730000000000000000000000000000000000000000000000000000 PUSH1 0x64 DUP3 ADD MSTORE REVERT JUMPDEST PUSH1 0x0 DUP1 REVERT JUMPDEST CALLVALUE PUSH2 0x24C JUMPI PUSH1 0x20 CALLDATASIZE PUSH1 0x3 NOT ADD SLT PUSH2 0x24C JUMPI PUSH1 0x1 PUSH1 0x1 PUSH1 0xA0 SHL SUB PUSH2 0x272 PUSH2 0x1AE8 JUMP JUMPDEST PUSH2 0x27A PUSH2 0x1D0E JUMP JUMPDEST AND DUP1 ISZERO PUSH2 0x297 JUMPI PUSH1 0x1 PUSH1 0x1 PUSH1 0xA0 SHL SUB NOT PUSH1 0xB SLOAD AND OR PUSH1 0xB SSTORE PUSH1 0x0 DUP1 RETURN JUMPDEST PUSH1 0x64 PUSH1 0x40 MLOAD PUSH3 0x461BCD PUSH1 0xE5 SHL DUP2 MSTORE PUSH1 0x20 PUSH1 0x4 DUP3 ADD MSTORE PUSH1 0x11 PUSH1 0x24 DUP3 ADD MSTORE PUSH32 0x496E76616C696420726563697069656E74000000000000000000000000000000 PUSH1 0x44 DUP3 ADD MSTORE REVERT JUMPDEST CALLVALUE PUSH2 0x24C JUMPI PUSH1 0x20 CALLDATASIZE PUSH1 0x3 NOT ADD SLT PUSH2 0x24C JUMPI PUSH1 0x1 PUSH1 0x1 PUSH1 0xA0 SHL SUB PUSH2 0x2FC PUSH2 0x1AE8 JUMP JUMPDEST AND PUSH1 0x0 MSTORE PUSH1 0x6 PUSH1 0x20 MSTORE PUSH1 0x20 PUSH1 0x40 PUSH1 0x0 KECCAK256 SLOAD PUSH1 0x40 MLOAD SWAP1 DUP2 MSTORE RETURN JUMPDEST CALLVALUE PUSH2 0x24C JUMPI PUSH1 0x40 CALLDATASIZE PUSH1 0x3 NOT ADD SLT PUSH2 0x24C JUMPI PUSH2 0x32E PUSH2 0x1AFE JUMP JUMPDEST PUSH1 0x4 CALLDATALOAD PUSH1 0x0 MSTORE PUSH1 0x5 PUSH1 0x20 MSTORE PUSH1 0x1 PUSH1 0x1 PUSH1 0xA0 SHL SUB PUSH1 0x40 PUSH1 0x0 KECCAK256 SWAP2 AND PUSH1 0x0 MSTORE PUSH1 0x20 MSTORE PUSH1 0x20 PUSH1 0xFF PUSH1 0x40 PUSH1 0x0 KECCAK256 SLOAD AND PUSH1 0x40 MLOAD SWAP1 ISZERO ISZERO DUP2 MSTORE RETURN JUMPDEST CALLVALUE PUSH2 0x24C JUMPI PUSH1 0x60 CALLDATASIZE PUSH1 0x3 NOT ADD SLT PUSH2 0x24C JUMPI PUSH1 0x4 CALLDATALOAD PUSH1 0x24 CALLDATALOAD DUP1 ISZERO DUP1 ISZERO DUP3 SUB PUSH2 0x24C JUMPI PUSH1 0x44 CALLDATALOAD SWAP3 DUP1 ISZERO ISZERO DUP1 PUSH2 0x481 JUMPI JUMPDEST PUSH2 0x39A SWAP1 PUSH2 0x1E13 JUMP JUMPDEST DUP1 PUSH1 0x0 MSTORE PUSH1 0x2 PUSH1 0x20 MSTORE PUSH2 0x3BC PUSH1 0x1 PUSH1 0x1 PUSH1 0xA0 SHL SUB PUSH1 0x40 PUSH1 0x0 KECCAK256 SLOAD AND CALLER EQ PUSH2 0x1FC6 JUMP JUMPDEST DUP1 PUSH1 0x0 MSTORE PUSH1 0x2 PUSH1 0x20 MSTORE PUSH2 0x3D9 PUSH1 0xFF PUSH1 0x4 PUSH1 0x40 PUSH1 0x0 KECCAK256 ADD SLOAD AND PUSH2 0x1E5E JUMP JUMPDEST PUSH1 0x0 MSTORE PUSH1 0x2 PUSH1 0x20 MSTORE PUSH1 0x40 PUSH1 0x0 KECCAK256 SWAP2 DUP1 PUSH2 0x46F JUMPI JUMPDEST ISZERO PUSH2 0x438 JUMPI POP PUSH1 0x5 SWAP1 PUSH7 0x38D7EA4C68000 DUP4 LT ISZERO DUP1 PUSH2 0x425 JUMPI JUMPDEST PUSH2 0x410 SWAP1 PUSH2 0x1D66 JUMP JUMPDEST PUSH1 0x4 DUP2 ADD DUP1 SLOAD PUSH2 0xFF00 NOT AND PUSH2 0x100 OR SWAP1 SSTORE ADD SSTORE STOP JUMPDEST POP PUSH9 0x3635C9ADC5DEA00000 DUP4 GT ISZERO PUSH2 0x407 JUMP JUMPDEST SWAP1 SWAP2 POP DUP1 PUSH2 0x45E JUMPI JUMPDEST PUSH2 0x448 JUMPI JUMPDEST STOP JUMPDEST PUSH1 0x5 DUP2 PUSH1 0x4 PUSH1 0x0 SWAP4 ADD PUSH2 0xFF00 NOT DUP2 SLOAD AND SWAP1 SSTORE ADD SSTORE STOP JUMPDEST POP PUSH1 0xFF PUSH1 0x4 DUP3 ADD SLOAD PUSH1 0x8 SHR AND PUSH2 0x441 JUMP JUMPDEST POP PUSH1 0xFF PUSH1 0x4 DUP4 ADD SLOAD PUSH1 0x8 SHR AND ISZERO PUSH2 0x3ED JUMP JUMPDEST POP PUSH1 0x8 SLOAD DUP2 GT ISZERO PUSH2 0x391 JUMP JUMPDEST CALLVALUE PUSH2 0x24C JUMPI PUSH1 0x0 CALLDATASIZE PUSH1 0x3 NOT ADD SLT PUSH2 0x24C JUMPI PUSH1 0x20 PUSH1 0x40 MLOAD PUSH7 0x38D7EA4C68000 DUP2 MSTORE RETURN JUMPDEST CALLVALUE PUSH2 0x24C JUMPI PUSH1 0x20 CALLDATASIZE PUSH1 0x3 NOT ADD SLT PUSH2 0x24C JUMPI PUSH1 0x4 CALLDATALOAD PUSH2 0x4CB PUSH2 0x1D0E JUMP JUMPDEST PUSH2 0x3E8 DUP2 GT PUSH2 0x50D JUMPI PUSH1 0x40 PUSH32 0xD347E206F25A89B917FC9482F1A2D294D749BAA4DC9BDE7FB495EE11FE491643 SWAP2 PUSH1 0xA SLOAD SWAP1 DUP1 PUSH1 0xA SSTORE DUP3 MLOAD SWAP2 DUP3 MSTORE PUSH1 0x20 DUP3 ADD MSTORE LOG1 STOP JUMPDEST PUSH1 0x64 PUSH1 0x40 MLOAD PUSH3 0x461BCD PUSH1 0xE5 SHL DUP2 MSTORE PUSH1 0x20 PUSH1 0x4 DUP3 ADD MSTORE PUSH1 0xC PUSH1 0x24 DUP3 ADD MSTORE PUSH32 0x46656520746F6F20686967680000000000000000000000000000000000000000 PUSH1 0x44 DUP3 ADD MSTORE REVERT JUMPDEST CALLVALUE PUSH2 0x24C JUMPI PUSH1 0x40 CALLDATASIZE PUSH1 0x3 NOT ADD SLT PUSH2 0x24C JUMPI PUSH2 0x56A PUSH2 0x1AE8 JUMP JUMPDEST PUSH1 0x1 PUSH1 0x1 PUSH1 0xA0 SHL SUB PUSH1 0x24 CALLDATALOAD SWAP2 AND PUSH1 0x0 MSTORE PUSH1 0x3 PUSH1 0x20 MSTORE PUSH1 0x40 PUSH1 0x0 KECCAK256 DUP1 SLOAD DUP3 LT ISZERO PUSH2 0x24C JUMPI PUSH1 0x20 SWAP2 PUSH2 0x599 SWAP2 PUSH2 0x1CF6 JUMP JUMPDEST SWAP1 SLOAD SWAP1 PUSH1 0x3 SHL SHR PUSH1 0x40 MLOAD SWAP1 DUP2 MSTORE RETURN JUMPDEST CALLVALUE PUSH2 0x24C JUMPI PUSH1 0x20 CALLDATASIZE PUSH1 0x3 NOT ADD SLT PUSH2 0x24C JUMPI PUSH1 0x4 CALLDATALOAD PUSH1 0x0 MSTORE PUSH1 0x4 PUSH1 0x20 MSTORE PUSH1 0x20 PUSH1 0x40 PUSH1 0x0 KECCAK256 SLOAD PUSH1 0x40 MLOAD SWAP1 DUP2 MSTORE RETURN JUMPDEST CALLVALUE PUSH2 0x24C JUMPI PUSH1 0x20 DUP1 PUSH1 0x3 NOT CALLDATASIZE ADD SLT PUSH2 0x24C JUMPI PUSH1 0x4 CALLDATALOAD PUSH2 0x5F1 PUSH2 0x1F71 JUMP JUMPDEST PUSH2 0x5F9 PUSH2 0x1DC0 JUMP JUMPDEST DUP1 ISZERO ISZERO DUP1 PUSH2 0x9A7 JUMPI JUMPDEST PUSH2 0x60B SWAP1 PUSH2 0x1E13 JUMP JUMPDEST DUP1 PUSH1 0x0 MSTORE PUSH1 0x2 DUP3 MSTORE PUSH2 0x627 PUSH1 0xFF PUSH1 0x4 PUSH1 0x40 PUSH1 0x0 KECCAK256 ADD SLOAD AND PUSH2 0x1E5E JUMP JUMPDEST DUP1 PUSH1 0x0 MSTORE PUSH1 0x2 DUP3 MSTORE PUSH1 0x40 PUSH1 0x0 KECCAK256 SWAP2 PUSH2 0x648 PUSH1 0xFF PUSH1 0x4 DUP6 ADD SLOAD PUSH1 0x8 SHR AND PUSH2 0x1EA9 JUMP JUMPDEST DUP2 PUSH1 0x0 MSTORE PUSH1 0x5 DUP2 MSTORE PUSH1 0x40 PUSH1 0x0 KECCAK256 CALLER PUSH1 0x0 MSTORE DUP2 MSTORE PUSH1 0xFF PUSH1 0x40 PUSH1 0x0 KECCAK256 SLOAD AND PUSH2 0x963 JUMPI PUSH1 0x1 PUSH1 0x1 PUSH1 0xA0 SHL SUB SWAP1 CALLER DUP3 DUP6 SLOAD AND EQ PUSH2 0x91F JUMPI PUSH1 0x5 DUP5 ADD SLOAD SWAP2 DUP3 ISZERO PUSH2 0x68D DUP2 ISZERO PUSH2 0x1D66 JUMP JUMPDEST PUSH1 0xA SLOAD SWAP1 DUP2 DUP6 MUL SWAP2 DUP6 DUP4 DIV EQ OR ISZERO PUSH2 0x8D0 JUMPI PUSH2 0x2710 SWAP1 DIV PUSH2 0x6AE DUP2 DUP6 PUSH2 0x1EF4 JUMP JUMPDEST PUSH1 0x40 MLOAD PUSH32 0x23B872DD00000000000000000000000000000000000000000000000000000000 DUP2 MSTORE CALLER PUSH1 0x4 DUP3 ADD MSTORE ADDRESS PUSH1 0x24 DUP3 ADD MSTORE DUP6 PUSH1 0x44 DUP3 ADD MSTORE DUP5 DUP2 PUSH1 0x64 DUP2 PUSH1 0x0 DUP9 PUSH32 0x0 AND GAS CALL DUP1 ISZERO PUSH2 0x913 JUMPI PUSH2 0x72A SWAP2 PUSH1 0x0 SWAP2 PUSH2 0x8E6 JUMPI JUMPDEST POP PUSH2 0x1F19 JUMP JUMPDEST DUP6 PUSH1 0x0 MSTORE PUSH1 0x5 DUP5 MSTORE PUSH1 0x40 PUSH1 0x0 KECCAK256 CALLER PUSH1 0x0 MSTORE DUP5 MSTORE PUSH1 0x40 PUSH1 0x0 KECCAK256 SWAP7 PUSH1 0x1 SWAP8 DUP9 PUSH1 0xFF NOT DUP3 SLOAD AND OR SWAP1 SSTORE PUSH1 0x6 DUP2 ADD PUSH2 0x75F DUP4 DUP3 SLOAD PUSH2 0x1F64 JUMP JUMPDEST SWAP1 SSTORE PUSH1 0x7 DUP2 ADD SWAP1 DUP2 SLOAD DUP10 DUP2 ADD DUP1 SWAP2 GT PUSH2 0x8D0 JUMPI DUP6 SWAP3 SSTORE SLOAD AND PUSH1 0x0 MSTORE PUSH1 0x6 DUP5 MSTORE PUSH2 0x78E PUSH1 0x40 PUSH1 0x0 KECCAK256 SWAP2 DUP3 SLOAD PUSH2 0x1F64 JUMP JUMPDEST SWAP1 SSTORE DUP2 PUSH1 0xB SLOAD AND PUSH1 0x0 MSTORE PUSH1 0x6 DUP4 MSTORE PUSH2 0x7AC PUSH1 0x40 PUSH1 0x0 KECCAK256 SWAP2 DUP3 SLOAD PUSH2 0x1F64 JUMP JUMPDEST SWAP1 SSTORE DUP4 PUSH1 0x0 MSTORE PUSH1 0x7 DUP3 MSTORE PUSH1 0x40 PUSH1 0x0 KECCAK256 PUSH1 0x40 MLOAD PUSH1 0xA0 DUP2 ADD DUP2 DUP2 LT PUSH8 0xFFFFFFFFFFFFFFFF DUP3 GT OR PUSH2 0x8BA JUMPI PUSH1 0x40 MSTORE CALLER DUP2 MSTORE DUP4 DUP2 ADD SWAP2 DUP7 DUP4 MSTORE PUSH1 0x40 DUP3 ADD DUP7 DUP2 MSTORE PUSH1 0x60 DUP4 ADD SWAP1 TIMESTAMP DUP3 MSTORE PUSH1 0x80 DUP5 ADD SWAP3 DUP11 DUP5 MSTORE DUP1 SLOAD PUSH9 0x10000000000000000 DUP2 LT ISZERO PUSH2 0x8BA JUMPI PUSH2 0x81A SWAP2 DUP13 DUP3 ADD DUP2 SSTORE PUSH2 0x1CC4 JUMP JUMPDEST SWAP6 SWAP1 SWAP6 PUSH2 0x8A4 JUMPI PUSH2 0x860 SWAP7 PUSH1 0x4 SWAP6 MLOAD AND PUSH1 0x1 PUSH1 0x1 PUSH1 0xA0 SHL SUB NOT DUP8 SLOAD AND OR DUP7 SSTORE MLOAD DUP11 DUP7 ADD SSTORE MLOAD PUSH1 0x2 DUP6 ADD SSTORE MLOAD PUSH1 0x3 DUP5 ADD SSTORE MLOAD ISZERO ISZERO SWAP2 ADD SWAP1 PUSH1 0xFF DUP1 NOT DUP4 SLOAD AND SWAP2 ISZERO ISZERO AND OR SWAP1 SSTORE JUMP JUMPDEST PUSH2 0x86B PUSH1 0x9 SLOAD PUSH2 0x1DB1 JUMP JUMPDEST PUSH1 0x9 SSTORE PUSH1 0x40 MLOAD SWAP2 DUP3 MSTORE TIMESTAMP SWAP1 DUP3 ADD MSTORE PUSH32 0xF734C49672B04AA6D31CAF2A2DE7F5BBE9EEA86DF580F98CEA7224BB3642127C PUSH1 0x40 CALLER SWAP3 LOG3 PUSH1 0x0 SSTORE STOP JUMPDEST PUSH4 0x4E487B71 PUSH1 0xE0 SHL PUSH1 0x0 MSTORE PUSH1 0x0 PUSH1 0x4 MSTORE PUSH1 0x24 PUSH1 0x0 REVERT JUMPDEST PUSH4 0x4E487B71 PUSH1 0xE0 SHL PUSH1 0x0 MSTORE PUSH1 0x41 PUSH1 0x4 MSTORE PUSH1 0x24 PUSH1 0x0 REVERT JUMPDEST PUSH4 0x4E487B71 PUSH1 0xE0 SHL PUSH1 0x0 MSTORE PUSH1 0x11 PUSH1 0x4 MSTORE PUSH1 0x24 PUSH1 0x0 REVERT JUMPDEST PUSH2 0x906 SWAP2 POP DUP7 RETURNDATASIZE DUP9 GT PUSH2 0x90C JUMPI JUMPDEST PUSH2 0x8FE DUP2 DUP4 PUSH2 0x1A6F JUMP JUMPDEST DUP2 ADD SWAP1 PUSH2 0x1F01 JUMP JUMPDEST DUP10 PUSH2 0x724 JUMP JUMPDEST POP RETURNDATASIZE PUSH2 0x8F4 JUMP JUMPDEST PUSH1 0x40 MLOAD RETURNDATASIZE PUSH1 0x0 DUP3 RETURNDATACOPY RETURNDATASIZE SWAP1 REVERT JUMPDEST PUSH1 0x64 SWAP1 PUSH1 0x40 MLOAD SWAP1 PUSH3 0x461BCD PUSH1 0xE5 SHL DUP3 MSTORE PUSH1 0x4 DUP3 ADD MSTORE PUSH1 0x18 PUSH1 0x24 DUP3 ADD MSTORE PUSH32 0x43616E6E6F74207075726368617365206F776E206E6F74650000000000000000 PUSH1 0x44 DUP3 ADD MSTORE REVERT JUMPDEST PUSH1 0x64 SWAP1 PUSH1 0x40 MLOAD SWAP1 PUSH3 0x461BCD PUSH1 0xE5 SHL DUP3 MSTORE PUSH1 0x4 DUP3 ADD MSTORE PUSH1 0x12 PUSH1 0x24 DUP3 ADD MSTORE PUSH32 0x416C726561647920686173206163636573730000000000000000000000000000 PUSH1 0x44 DUP3 ADD MSTORE REVERT JUMPDEST POP PUSH1 0x8 SLOAD DUP2 GT ISZERO PUSH2 0x602 JUMP JUMPDEST CALLVALUE PUSH2 0x24C JUMPI PUSH1 0x0 CALLDATASIZE PUSH1 0x3 NOT ADD SLT PUSH2 0x24C JUMPI PUSH1 0x20 PUSH1 0x1 PUSH1 0x1 PUSH1 0xA0 SHL SUB PUSH1 0x1 SLOAD AND PUSH1 0x40 MLOAD SWAP1 DUP2 MSTORE RETURN JUMPDEST CALLVALUE PUSH2 0x24C JUMPI PUSH1 0x0 CALLDATASIZE PUSH1 0x3 NOT ADD SLT PUSH2 0x24C JUMPI PUSH1 0x20 PUSH1 0xA SLOAD PUSH1 0x40 MLOAD SWAP1 DUP2 MSTORE RETURN JUMPDEST CALLVALUE PUSH2 0x24C JUMPI PUSH1 0x40 CALLDATASIZE PUSH1 0x3 NOT ADD SLT PUSH2 0x24C JUMPI PUSH1 0x20 PUSH2 0xA31 PUSH1 0x4 CALLDATALOAD PUSH2 0xA19 PUSH2 0x1AFE JUMP JUMPDEST SWAP1 DUP1 ISZERO ISZERO DUP1 PUSH2 0xA3B JUMPI JUMPDEST PUSH2 0xA2C SWAP1 PUSH2 0x1E13 JUMP JUMPDEST PUSH2 0x2011 JUMP JUMPDEST PUSH1 0x40 MLOAD SWAP1 ISZERO ISZERO DUP2 MSTORE RETURN JUMPDEST POP PUSH1 0x8 SLOAD DUP2 GT ISZERO PUSH2 0xA23 JUMP JUMPDEST CALLVALUE PUSH2 0x24C JUMPI PUSH1 0x0 CALLDATASIZE PUSH1 0x3 NOT ADD SLT PUSH2 0x24C JUMPI PUSH1 0x20 PUSH1 0x40 MLOAD PUSH1 0x1 PUSH1 0x1 PUSH1 0xA0 SHL SUB PUSH32 0x0 AND DUP2 MSTORE RETURN JUMPDEST CALLVALUE PUSH2 0x24C JUMPI PUSH1 0x40 CALLDATASIZE PUSH1 0x3 NOT ADD SLT PUSH2 0x24C JUMPI PUSH2 0xAA4 PUSH2 0x1AE8 JUMP JUMPDEST PUSH2 0xAAC PUSH2 0x1D0E JUMP JUMPDEST PUSH1 0x1 PUSH1 0x1 PUSH1 0xA0 SHL SUB DUP1 SWAP2 AND DUP2 PUSH32 0x0 AND DUP2 EQ PUSH2 0xB3C JUMPI PUSH1 0x1 SLOAD PUSH1 0x40 MLOAD PUSH4 0xA9059CBB PUSH1 0xE0 SHL DUP2 MSTORE SWAP3 AND PUSH1 0x1 PUSH1 0x1 PUSH1 0xA0 SHL SUB AND PUSH1 0x4 DUP4 ADD MSTORE PUSH1 0x24 DUP1 CALLDATALOAD SWAP1 DUP4 ADD MSTORE PUSH1 0x20 SWAP1 DUP3 SWAP1 DUP2 PUSH1 0x0 DUP2 PUSH1 0x44 DUP2 ADD SUB SWAP3 GAS CALL DUP1 ISZERO PUSH2 0x913 JUMPI PUSH2 0xB25 JUMPI STOP JUMPDEST PUSH2 0x446 SWAP1 PUSH1 0x20 RETURNDATASIZE DUP2 GT PUSH2 0x90C JUMPI PUSH2 0x8FE DUP2 DUP4 PUSH2 0x1A6F JUMP JUMPDEST PUSH1 0x64 PUSH1 0x40 MLOAD PUSH3 0x461BCD PUSH1 0xE5 SHL DUP2 MSTORE PUSH1 0x20 PUSH1 0x4 DUP3 ADD MSTORE PUSH1 0x1A PUSH1 0x24 DUP3 ADD MSTORE PUSH32 0x43616E6E6F74207265636F766572204D4F444F20746F6B656E73000000000000 PUSH1 0x44 DUP3 ADD MSTORE REVERT JUMPDEST CALLVALUE PUSH2 0x24C JUMPI PUSH1 0x0 CALLDATASIZE PUSH1 0x3 NOT ADD SLT PUSH2 0x24C JUMPI PUSH2 0xB99 PUSH2 0x1D0E JUMP JUMPDEST PUSH2 0xBA1 PUSH2 0x1DC0 JUMP JUMPDEST PUSH21 0x10000000000000000000000000000000000000000 PUSH1 0xFF PUSH1 0xA0 SHL NOT PUSH1 0x1 SLOAD AND OR PUSH1 0x1 SSTORE PUSH32 0x62E78CEA01BEE320CD4E420270B5EA74000D11B0C9F74754EBDBFC544B05A258 PUSH1 0x20 PUSH1 0x40 MLOAD CALLER DUP2 MSTORE LOG1 STOP JUMPDEST CALLVALUE PUSH2 0x24C JUMPI PUSH2 0xBFF CALLDATASIZE PUSH2 0x1B14 JUMP JUMPDEST SWAP1 PUSH1 0x0 MSTORE PUSH1 0x7 PUSH1 0x20 MSTORE PUSH1 0x40 PUSH1 0x0 KECCAK256 DUP1 SLOAD DUP3 LT ISZERO PUSH2 0x24C JUMPI PUSH1 0xA0 SWAP2 PUSH2 0xC22 SWAP2 PUSH2 0x1CC4 JUMP JUMPDEST POP PUSH1 0x1 PUSH1 0x1 PUSH1 0xA0 SHL SUB DUP2 SLOAD AND SWAP1 PUSH1 0x1 DUP2 ADD SLOAD SWAP1 PUSH1 0x2 DUP2 ADD SLOAD PUSH1 0xFF PUSH1 0x4 PUSH1 0x3 DUP5 ADD SLOAD SWAP4 ADD SLOAD AND SWAP3 PUSH1 0x40 MLOAD SWAP5 DUP6 MSTORE PUSH1 0x20 DUP6 ADD MSTORE PUSH1 0x40 DUP5 ADD MSTORE PUSH1 0x60 DUP4 ADD MSTORE ISZERO ISZERO PUSH1 0x80 DUP3 ADD MSTORE RETURN JUMPDEST CALLVALUE PUSH2 0x24C JUMPI PUSH1 0x0 CALLDATASIZE PUSH1 0x3 NOT ADD SLT PUSH2 0x24C JUMPI PUSH2 0xC7F PUSH2 0x1D0E JUMP JUMPDEST PUSH1 0x0 PUSH1 0x1 PUSH1 0x1 PUSH1 0xA0 SHL SUB PUSH1 0x1 SLOAD PUSH1 0x1 PUSH1 0x1 PUSH1 0xA0 SHL SUB NOT DUP2 AND PUSH1 0x1 SSTORE AND PUSH32 0x8BE0079C531659141344CD1FD0A4F28419497F9722A3DAAFE3B4186F6B6457E0 DUP3 DUP1 LOG3 STOP JUMPDEST CALLVALUE PUSH2 0x24C JUMPI PUSH1 0x20 DUP1 PUSH1 0x3 NOT CALLDATASIZE ADD SLT PUSH2 0x24C JUMPI PUSH1 0x4 CALLDATALOAD SWAP1 PUSH2 0xCDF PUSH2 0x1F71 JUMP JUMPDEST PUSH2 0xCE7 PUSH2 0x1DC0 JUMP JUMPDEST DUP2 CALLER PUSH1 0x0 MSTORE PUSH1 0x6 DUP3 MSTORE PUSH1 0x40 PUSH1 0x0 KECCAK256 SLOAD SWAP1 DUP2 ISZERO PUSH2 0xE1F JUMPI DUP1 PUSH2 0xDD5 JUMPI POP SWAP2 POP JUMPDEST CALLER PUSH1 0x0 MSTORE PUSH1 0x6 DUP2 MSTORE PUSH1 0x40 PUSH1 0x0 KECCAK256 PUSH2 0xD1E DUP4 DUP3 SLOAD PUSH2 0x1EF4 JUMP JUMPDEST SWAP1 SSTORE PUSH1 0x40 MLOAD PUSH4 0xA9059CBB PUSH1 0xE0 SHL DUP2 MSTORE CALLER PUSH1 0x4 DUP3 ADD MSTORE PUSH1 0x24 DUP2 ADD DUP4 SWAP1 MSTORE SWAP1 DUP1 DUP3 PUSH1 0x44 DUP2 PUSH1 0x0 PUSH32 0x0 PUSH1 0x1 PUSH1 0x1 PUSH1 0xA0 SHL SUB AND GAS CALL SWAP2 DUP3 ISZERO PUSH2 0x913 JUMPI PUSH32 0x48DC35AF7B45E2A81FFFAD55F6E2FAFACDB1D3D0D50D24EBDC16324F5BA757F1 SWAP3 PUSH2 0xDA8 SWAP2 PUSH1 0x0 SWAP2 PUSH2 0xDB8 JUMPI POP PUSH2 0x1F19 JUMP JUMPDEST PUSH1 0x40 MLOAD SWAP3 DUP4 MSTORE CALLER SWAP3 LOG2 PUSH1 0x1 PUSH1 0x0 SSTORE STOP JUMPDEST PUSH2 0xDCF SWAP2 POP DUP4 RETURNDATASIZE DUP6 GT PUSH2 0x90C JUMPI PUSH2 0x8FE DUP2 DUP4 PUSH2 0x1A6F JUMP JUMPDEST DUP6 PUSH2 0x724 JUMP JUMPDEST GT ISZERO PUSH2 0xD06 JUMPI PUSH1 0x64 SWAP1 PUSH1 0x40 MLOAD SWAP1 PUSH3 0x461BCD PUSH1 0xE5 SHL DUP3 MSTORE PUSH1 0x4 DUP3 ADD MSTORE PUSH1 0x15 PUSH1 0x24 DUP3 ADD MSTORE PUSH32 0x496E73756666696369656E74206561726E696E67730000000000000000000000 PUSH1 0x44 DUP3 ADD MSTORE REVERT JUMPDEST PUSH1 0x64 DUP4 PUSH1 0x40 MLOAD SWAP1 PUSH3 0x461BCD PUSH1 0xE5 SHL DUP3 MSTORE PUSH1 0x4 DUP3 ADD MSTORE PUSH1 0x17 PUSH1 0x24 DUP3 ADD MSTORE PUSH32 0x4E6F206561726E696E677320746F207769746864726177000000000000000000 PUSH1 0x44 DUP3 ADD MSTORE REVERT JUMPDEST CALLVALUE PUSH2 0x24C JUMPI PUSH1 0x20 CALLDATASIZE PUSH1 0x3 NOT ADD SLT PUSH2 0x24C JUMPI PUSH1 0x4 CALLDATALOAD DUP1 ISZERO ISZERO DUP1 PUSH2 0xF7C JUMPI JUMPDEST PUSH2 0xE89 SWAP1 PUSH2 0x1E13 JUMP JUMPDEST PUSH1 0x0 MSTORE PUSH1 0x2 PUSH1 0x20 MSTORE PUSH1 0x40 PUSH1 0x0 KECCAK256 PUSH1 0x40 MLOAD PUSH2 0xEA2 DUP2 PUSH2 0x1A52 JUMP JUMPDEST PUSH2 0xF78 PUSH1 0x1 PUSH1 0x1 PUSH1 0xA0 SHL SUB SWAP2 DUP3 DUP5 SLOAD AND DUP2 MSTORE PUSH1 0x1 DUP5 ADD SLOAD SWAP3 PUSH1 0x20 DUP3 ADD SWAP4 DUP5 MSTORE PUSH1 0x2 DUP6 ADD SLOAD SWAP5 PUSH1 0x40 DUP4 ADD SWAP6 DUP7 MSTORE PUSH2 0xEDA PUSH1 0x3 DUP3 ADD PUSH2 0x1B64 JUMP JUMPDEST SWAP2 PUSH1 0x60 DUP5 ADD SWAP3 DUP4 MSTORE PUSH1 0x4 DUP3 ADD SLOAD PUSH1 0x80 DUP6 ADD SWAP1 PUSH1 0xFF DUP2 AND ISZERO ISZERO DUP3 MSTORE PUSH1 0xFF PUSH1 0xA0 DUP8 ADD SWAP2 PUSH1 0x8 SHR AND ISZERO ISZERO DUP2 MSTORE PUSH1 0x5 DUP5 ADD SLOAD SWAP1 PUSH1 0xC0 DUP8 ADD SWAP2 DUP3 MSTORE PUSH1 0x6 DUP6 ADD SLOAD SWAP3 PUSH1 0xE0 DUP9 ADD SWAP4 DUP5 MSTORE PUSH1 0x7 DUP7 ADD SLOAD SWAP5 PUSH2 0x100 DUP10 ADD SWAP6 DUP7 MSTORE PUSH2 0xF4B PUSH1 0x9 PUSH2 0xF3C PUSH1 0x8 DUP11 ADD PUSH2 0x1B64 JUMP JUMPDEST SWAP9 PUSH2 0x120 DUP13 ADD SWAP10 DUP11 MSTORE ADD PUSH2 0x1B64 JUMP JUMPDEST SWAP9 DUP10 PUSH2 0x140 DUP3 ADD MSTORE MLOAD AND SWAP10 MLOAD SWAP11 MLOAD SWAP7 MLOAD SWAP1 MLOAD ISZERO ISZERO SWAP2 MLOAD ISZERO ISZERO SWAP3 MLOAD SWAP4 MLOAD SWAP5 MLOAD SWAP6 MLOAD SWAP7 PUSH1 0x40 MLOAD SWAP12 DUP13 SWAP12 DUP13 PUSH2 0x1C4A JUMP JUMPDEST SUB SWAP1 RETURN JUMPDEST POP PUSH1 0x8 SLOAD DUP2 GT ISZERO PUSH2 0xE80 JUMP JUMPDEST CALLVALUE PUSH2 0x24C JUMPI PUSH1 0x20 CALLDATASIZE PUSH1 0x3 NOT ADD SLT PUSH2 0x24C JUMPI PUSH1 0x4 CALLDATALOAD PUSH1 0x0 MSTORE PUSH1 0x2 PUSH1 0x20 MSTORE PUSH1 0x40 PUSH1 0x0 KECCAK256 PUSH1 0x1 PUSH1 0x1 PUSH1 0xA0 SHL SUB DUP2 SLOAD AND PUSH2 0xF78 PUSH1 0x1 DUP4 ADD SLOAD SWAP2 PUSH1 0x2 DUP5 ADD SLOAD SWAP4 PUSH2 0xFCF PUSH1 0x3 DUP3 ADD PUSH2 0x1B64 JUMP JUMPDEST SWAP2 PUSH1 0x4 DUP3 ADD SLOAD PUSH1 0x5 DUP4 ADD SLOAD PUSH1 0x6 DUP5 ADD SLOAD SWAP2 PUSH1 0x7 DUP6 ADD SLOAD SWAP4 PUSH2 0xFFE PUSH1 0x9 PUSH2 0xFF7 PUSH1 0x8 DUP10 ADD PUSH2 0x1B64 JUMP JUMPDEST SWAP8 ADD PUSH2 0x1B64 JUMP JUMPDEST SWAP7 PUSH1 0x40 MLOAD SWAP11 DUP12 SWAP11 PUSH1 0xFF DUP1 DUP7 PUSH1 0x8 SHR AND SWAP6 AND SWAP4 DUP13 PUSH2 0x1C4A JUMP JUMPDEST CALLVALUE PUSH2 0x24C JUMPI PUSH2 0x1024 CALLDATASIZE PUSH2 0x1B14 JUMP JUMPDEST DUP2 ISZERO ISZERO DUP1 PUSH2 0x113C JUMPI JUMPDEST PUSH2 0x1036 SWAP1 PUSH2 0x1E13 JUMP JUMPDEST DUP2 PUSH1 0x0 MSTORE PUSH1 0x2 PUSH1 0x20 MSTORE PUSH2 0x1058 PUSH1 0x1 PUSH1 0x1 PUSH1 0xA0 SHL SUB PUSH1 0x40 PUSH1 0x0 KECCAK256 SLOAD AND CALLER EQ PUSH2 0x1FC6 JUMP JUMPDEST DUP2 PUSH1 0x0 MSTORE PUSH1 0x2 PUSH1 0x20 MSTORE PUSH2 0x1075 PUSH1 0xFF PUSH1 0x4 PUSH1 0x40 PUSH1 0x0 KECCAK256 ADD SLOAD AND PUSH2 0x1E5E JUMP JUMPDEST PUSH7 0x38D7EA4C68000 DUP2 LT ISZERO DUP1 PUSH2 0x1129 JUMPI JUMPDEST ISZERO PUSH2 0x10E5 JUMPI PUSH1 0x40 PUSH32 0x15819DD2FD9F6418B142E798D08A18D0BF06EA368F4480B7B0D3F75BD966BC48 SWAP2 DUP4 PUSH1 0x0 MSTORE PUSH1 0x2 PUSH1 0x20 MSTORE PUSH1 0x5 DUP3 PUSH1 0x0 KECCAK256 PUSH2 0x10D1 PUSH1 0xFF PUSH1 0x4 DUP4 ADD SLOAD PUSH1 0x8 SHR AND PUSH2 0x1EA9 JUMP JUMPDEST ADD SWAP1 DUP1 DUP3 SLOAD SWAP3 SSTORE DUP3 MLOAD SWAP2 DUP3 MSTORE PUSH1 0x20 DUP3 ADD MSTORE LOG2 STOP JUMPDEST PUSH1 0x64 PUSH1 0x40 MLOAD PUSH3 0x461BCD PUSH1 0xE5 SHL DUP2 MSTORE PUSH1 0x20 PUSH1 0x4 DUP3 ADD MSTORE PUSH1 0x18 PUSH1 0x24 DUP3 ADD MSTORE PUSH32 0x5072696365206F7574206F662076616C69642072616E67650000000000000000 PUSH1 0x44 DUP3 ADD MSTORE REVERT JUMPDEST POP PUSH9 0x3635C9ADC5DEA00000 DUP2 GT ISZERO PUSH2 0x1086 JUMP JUMPDEST POP PUSH1 0x8 SLOAD DUP3 GT ISZERO PUSH2 0x102D JUMP JUMPDEST CALLVALUE PUSH2 0x24C JUMPI PUSH1 0x0 CALLDATASIZE PUSH1 0x3 NOT ADD SLT PUSH2 0x24C JUMPI PUSH1 0x20 PUSH1 0xFF PUSH1 0x1 SLOAD PUSH1 0xA0 SHR AND PUSH1 0x40 MLOAD SWAP1 ISZERO ISZERO DUP2 MSTORE RETURN JUMPDEST CALLVALUE PUSH2 0x24C JUMPI PUSH1 0x0 CALLDATASIZE PUSH1 0x3 NOT ADD SLT PUSH2 0x24C JUMPI PUSH1 0x20 PUSH1 0x9 SLOAD PUSH1 0x40 MLOAD SWAP1 DUP2 MSTORE RETURN JUMPDEST CALLVALUE PUSH2 0x24C JUMPI PUSH1 0x60 CALLDATASIZE PUSH1 0x3 NOT ADD SLT PUSH2 0x24C JUMPI PUSH2 0x11B5 PUSH2 0x11A8 PUSH2 0x1AE8 JUMP JUMPDEST PUSH1 0x44 CALLDATALOAD SWAP1 PUSH1 0x24 CALLDATALOAD SWAP1 PUSH2 0x211B JUMP JUMPDEST PUSH1 0x40 MLOAD DUP1 SWAP2 PUSH1 0x20 DUP1 DUP4 ADD DUP2 DUP5 MSTORE DUP3 MLOAD DUP1 SWAP2 MSTORE DUP2 PUSH1 0x40 DUP6 ADD SWAP4 ADD SWAP2 PUSH1 0x0 JUMPDEST DUP3 DUP2 LT PUSH2 0x11E1 JUMPI POP POP POP POP SUB SWAP1 RETURN JUMPDEST DUP4 MLOAD DUP6 MSTORE DUP7 SWAP6 POP SWAP4 DUP2 ADD SWAP4 SWAP3 DUP2 ADD SWAP3 PUSH1 0x1 ADD PUSH2 0x11D2 JUMP JUMPDEST CALLVALUE PUSH2 0x24C JUMPI PUSH1 0x0 CALLDATASIZE PUSH1 0x3 NOT ADD SLT PUSH2 0x24C JUMPI PUSH1 0x20 PUSH1 0x1 PUSH1 0x1 PUSH1 0xA0 SHL SUB PUSH1 0xB SLOAD AND PUSH1 0x40 MLOAD SWAP1 DUP2 MSTORE RETURN JUMPDEST CALLVALUE PUSH2 0x24C JUMPI PUSH1 0x0 CALLDATASIZE PUSH1 0x3 NOT ADD SLT PUSH2 0x24C JUMPI PUSH2 0x1238 PUSH2 0x1D0E JUMP JUMPDEST PUSH1 0x1 SLOAD PUSH1 0xFF DUP2 PUSH1 0xA0 SHR AND ISZERO PUSH2 0x127D JUMPI PUSH1 0xFF PUSH1 0xA0 SHL NOT AND PUSH1 0x1 SSTORE PUSH32 0x5DB9EE0A495BF2E6FF9C91A7834C1BA4FDD244A5E8AA4E537BD38AEAE4B073AA PUSH1 0x20 PUSH1 0x40 MLOAD CALLER DUP2 MSTORE LOG1 STOP JUMPDEST PUSH1 0x64 PUSH1 0x40 MLOAD PUSH3 0x461BCD PUSH1 0xE5 SHL DUP2 MSTORE PUSH1 0x20 PUSH1 0x4 DUP3 ADD MSTORE PUSH1 0x14 PUSH1 0x24 DUP3 ADD MSTORE PUSH32 0x5061757361626C653A206E6F7420706175736564000000000000000000000000 PUSH1 0x44 DUP3 ADD MSTORE REVERT JUMPDEST CALLVALUE PUSH2 0x24C JUMPI PUSH1 0xC0 CALLDATASIZE PUSH1 0x3 NOT ADD SLT PUSH2 0x24C JUMPI PUSH1 0x24 CALLDATALOAD PUSH8 0xFFFFFFFFFFFFFFFF DUP2 GT PUSH2 0x24C JUMPI PUSH2 0x12F2 SWAP1 CALLDATASIZE SWAP1 PUSH1 0x4 ADD PUSH2 0x1A91 JUMP JUMPDEST PUSH1 0x44 CALLDATALOAD DUP1 ISZERO ISZERO DUP2 SUB PUSH2 0x24C JUMPI PUSH1 0x84 CALLDATALOAD PUSH8 0xFFFFFFFFFFFFFFFF DUP2 GT PUSH2 0x24C JUMPI PUSH2 0x131E SWAP1 CALLDATASIZE SWAP1 PUSH1 0x4 ADD PUSH2 0x1A91 JUMP JUMPDEST SWAP2 PUSH1 0xA4 CALLDATALOAD PUSH8 0xFFFFFFFFFFFFFFFF DUP2 GT PUSH2 0x24C JUMPI PUSH2 0x133F SWAP1 CALLDATASIZE SWAP1 PUSH1 0x4 ADD PUSH2 0x1A91 JUMP JUMPDEST SWAP2 PUSH2 0x1348 PUSH2 0x1DC0 JUMP JUMPDEST PUSH1 0x64 CALLDATALOAD SWAP4 PUSH1 0x4 CALLDATALOAD ISZERO PUSH2 0x19B1 JUMPI DUP3 MLOAD ISZERO PUSH2 0x196D JUMPI PUSH1 0x4 CALLDATALOAD PUSH1 0x0 MSTORE PUSH1 0x4 PUSH1 0x20 MSTORE PUSH1 0x40 PUSH1 0x0 KECCAK256 SLOAD PUSH2 0x1929 JUMPI DUP2 ISZERO PUSH2 0x1920 JUMPI PUSH7 0x38D7EA4C68000 DUP6 LT ISZERO DUP1 PUSH2 0x190D JUMPI JUMPDEST PUSH2 0x1390 SWAP1 PUSH2 0x1D66 JUMP JUMPDEST PUSH2 0x139B PUSH1 0x8 SLOAD PUSH2 0x1DB1 JUMP JUMPDEST SWAP4 DUP5 PUSH1 0x8 SSTORE PUSH1 0x40 MLOAD SWAP2 PUSH2 0x13AD DUP4 PUSH2 0x1A52 JUMP JUMPDEST CALLER DUP4 MSTORE PUSH1 0x4 CALLDATALOAD PUSH1 0x20 DUP5 ADD MSTORE TIMESTAMP PUSH1 0x40 DUP5 ADD MSTORE DUP5 PUSH1 0x60 DUP5 ADD MSTORE PUSH1 0x1 PUSH1 0x80 DUP5 ADD MSTORE DUP4 ISZERO ISZERO PUSH1 0xA0 DUP5 ADD MSTORE DUP7 PUSH1 0xC0 DUP5 ADD MSTORE PUSH1 0x0 PUSH1 0xE0 DUP5 ADD MSTORE PUSH1 0x0 PUSH2 0x100 DUP5 ADD MSTORE PUSH2 0x120 DUP4 ADD MSTORE PUSH2 0x140 DUP3 ADD MSTORE DUP4 PUSH1 0x0 MSTORE PUSH1 0x2 PUSH1 0x20 MSTORE PUSH1 0x40 PUSH1 0x0 KECCAK256 SWAP1 PUSH1 0x1 PUSH1 0x1 PUSH1 0xA0 SHL SUB DUP2 MLOAD AND PUSH1 0x1 PUSH1 0x1 PUSH1 0xA0 SHL SUB NOT DUP4 SLOAD AND OR DUP3 SSTORE PUSH1 0x20 DUP2 ADD MLOAD PUSH1 0x1 DUP4 ADD SSTORE PUSH1 0x40 DUP2 ADD MLOAD PUSH1 0x2 DUP4 ADD SSTORE PUSH1 0x60 DUP2 ADD MLOAD DUP1 MLOAD SWAP1 PUSH8 0xFFFFFFFFFFFFFFFF DUP3 GT PUSH2 0x8BA JUMPI DUP2 SWAP1 PUSH2 0x1457 PUSH1 0x3 DUP7 ADD SLOAD PUSH2 0x1B2A JUMP JUMPDEST PUSH1 0x1F DUP2 GT PUSH2 0x18BA JUMPI JUMPDEST POP PUSH1 0x20 SWAP1 PUSH1 0x1F DUP4 GT PUSH1 0x1 EQ PUSH2 0x1848 JUMPI PUSH1 0x0 SWAP3 PUSH2 0x183D JUMPI JUMPDEST POP POP DUP2 PUSH1 0x1 SHL SWAP2 PUSH1 0x0 NOT SWAP1 PUSH1 0x3 SHL SHR NOT AND OR PUSH1 0x3 DUP4 ADD SSTORE JUMPDEST PUSH1 0x4 DUP3 ADD PUSH2 0x14AF PUSH1 0x80 DUP4 ADD MLOAD ISZERO ISZERO DUP3 SWAP1 PUSH1 0xFF DUP1 NOT DUP4 SLOAD AND SWAP2 ISZERO ISZERO AND OR SWAP1 SSTORE JUMP JUMPDEST PUSH1 0xA0 DUP3 ADD MLOAD DUP2 SLOAD PUSH2 0xFF00 NOT AND SWAP1 ISZERO ISZERO PUSH1 0x8 SHL PUSH2 0xFF00 AND OR SWAP1 SSTORE PUSH1 0xC0 DUP2 ADD MLOAD PUSH1 0x5 DUP4 ADD SSTORE PUSH1 0xE0 DUP2 ADD MLOAD PUSH1 0x6 DUP4 ADD SSTORE PUSH2 0x100 DUP2 ADD MLOAD PUSH1 0x7 DUP4 ADD SSTORE PUSH2 0x120 DUP2 ADD MLOAD DUP1 MLOAD SWAP1 PUSH8 0xFFFFFFFFFFFFFFFF DUP3 GT PUSH2 0x8BA JUMPI PUSH2 0x150C PUSH1 0x8 DUP6 ADD SLOAD PUSH2 0x1B2A JUMP JUMPDEST PUSH1 0x1F DUP2 GT PUSH2 0x17F6 JUMPI JUMPDEST POP PUSH1 0x20 SWAP1 PUSH1 0x1F DUP4 GT PUSH1 0x1 EQ PUSH2 0x1782 JUMPI PUSH2 0x140 SWAP4 SWAP3 SWAP2 PUSH1 0x0 SWAP2 DUP4 PUSH2 0x1777 JUMPI JUMPDEST POP POP DUP2 PUSH1 0x1 SHL SWAP2 PUSH1 0x0 NOT SWAP1 PUSH1 0x3 SHL SHR NOT AND OR PUSH1 0x8 DUP5 ADD SSTORE JUMPDEST ADD MLOAD DUP1 MLOAD SWAP1 PUSH8 0xFFFFFFFFFFFFFFFF DUP3 GT PUSH2 0x8BA JUMPI PUSH2 0x156C PUSH1 0x9 DUP5 ADD SLOAD PUSH2 0x1B2A JUMP JUMPDEST PUSH1 0x1F DUP2 GT PUSH2 0x1730 JUMPI JUMPDEST POP PUSH1 0x20 SWAP1 PUSH1 0x1F DUP4 GT PUSH1 0x1 EQ PUSH2 0x16C2 JUMPI PUSH1 0x9 SWAP3 SWAP2 PUSH1 0x0 SWAP2 DUP4 PUSH2 0x16B7 JUMPI JUMPDEST POP POP DUP2 PUSH1 0x1 SHL SWAP2 PUSH1 0x0 NOT SWAP1 PUSH1 0x3 SHL SHR NOT AND OR SWAP2 ADD SSTORE JUMPDEST CALLER PUSH1 0x0 MSTORE PUSH1 0x3 PUSH1 0x20 MSTORE PUSH1 0x40 PUSH1 0x0 KECCAK256 SWAP2 DUP3 SLOAD SWAP1 PUSH9 0x10000000000000000 DUP3 LT ISZERO PUSH2 0x8BA JUMPI PUSH1 0x20 SWAP6 PUSH2 0x15FF DUP4 DUP8 SWAP7 PUSH1 0x1 PUSH32 0xCBF4E15A8A5C6DF39C4529172B0A3AA5BD97C1F8FBA73BD241CB3884FFAE2E00 SWAP7 ADD DUP2 SSTORE PUSH2 0x1CF6 JUMP JUMPDEST DUP2 SLOAD SWAP1 PUSH1 0x3 SHL SWAP1 DUP8 DUP3 SHL SWAP2 PUSH1 0x0 NOT SWAP1 SHL NOT AND OR SWAP1 SSTORE PUSH1 0x4 CALLDATALOAD PUSH1 0x0 MSTORE PUSH1 0x4 DUP8 MSTORE DUP5 PUSH1 0x40 PUSH1 0x0 KECCAK256 SSTORE DUP4 ISZERO PUSH1 0x0 EQ PUSH2 0x168F JUMPI DUP5 PUSH1 0x0 MSTORE PUSH1 0x5 DUP8 MSTORE PUSH1 0x40 PUSH1 0x0 KECCAK256 CALLER PUSH1 0x0 MSTORE DUP8 MSTORE PUSH1 0x40 PUSH1 0x0 KECCAK256 PUSH1 0x1 PUSH1 0xFF NOT DUP3 SLOAD AND OR SWAP1 SSTORE JUMPDEST PUSH2 0x166E PUSH1 0x40 MLOAD SWAP3 PUSH1 0x4 CALLDATALOAD DUP5 MSTORE PUSH1 0xA0 DUP10 DUP6 ADD MSTORE PUSH1 0xA0 DUP5 ADD SWAP1 PUSH2 0x1C0A JUMP JUMPDEST SWAP4 ISZERO ISZERO PUSH1 0x40 DUP4 ADD MSTORE PUSH1 0x60 DUP3 ADD MSTORE TIMESTAMP PUSH1 0x80 DUP3 ADD MSTORE DUP1 CALLER SWAP4 SUB SWAP1 LOG3 PUSH1 0x40 MLOAD SWAP1 DUP2 MSTORE RETURN JUMPDEST DUP5 PUSH1 0x0 MSTORE PUSH1 0x5 DUP8 MSTORE PUSH1 0x40 PUSH1 0x0 KECCAK256 CALLER PUSH1 0x0 MSTORE DUP8 MSTORE PUSH1 0x40 PUSH1 0x0 KECCAK256 PUSH1 0x1 PUSH1 0xFF NOT DUP3 SLOAD AND OR SWAP1 SSTORE PUSH2 0x1652 JUMP JUMPDEST ADD MLOAD SWAP1 POP DUP9 DUP1 PUSH2 0x1591 JUMP JUMPDEST SWAP1 PUSH1 0x1F NOT DUP4 AND SWAP2 PUSH1 0x9 DUP6 ADD PUSH1 0x0 MSTORE PUSH1 0x20 PUSH1 0x0 KECCAK256 SWAP3 PUSH1 0x0 JUMPDEST DUP2 DUP2 LT PUSH2 0x1718 JUMPI POP SWAP2 PUSH1 0x1 SWAP4 SWAP2 DUP6 PUSH1 0x9 SWAP7 SWAP5 LT PUSH2 0x16FF JUMPI JUMPDEST POP POP POP DUP2 SHL ADD SWAP2 ADD SSTORE PUSH2 0x15A7 JUMP JUMPDEST ADD MLOAD PUSH1 0x0 NOT PUSH1 0xF8 DUP5 PUSH1 0x3 SHL AND SHR NOT AND SWAP1 SSTORE DUP9 DUP1 DUP1 PUSH2 0x16F1 JUMP JUMPDEST SWAP3 SWAP4 PUSH1 0x20 PUSH1 0x1 DUP2 SWAP3 DUP8 DUP7 ADD MLOAD DUP2 SSTORE ADD SWAP6 ADD SWAP4 ADD PUSH2 0x16D9 JUMP JUMPDEST PUSH1 0x9 DUP5 ADD PUSH1 0x0 MSTORE PUSH1 0x20 PUSH1 0x0 KECCAK256 PUSH1 0x1F DUP5 ADD PUSH1 0x5 SHR DUP2 ADD PUSH1 0x20 DUP6 LT PUSH2 0x1770 JUMPI JUMPDEST PUSH1 0x1F DUP4 ADD PUSH1 0x5 SHR DUP3 ADD DUP2 LT PUSH2 0x1764 JUMPI POP POP PUSH2 0x1575 JUMP JUMPDEST PUSH1 0x0 DUP2 SSTORE PUSH1 0x1 ADD PUSH2 0x174E JUMP JUMPDEST POP DUP1 PUSH2 0x174E JUMP JUMPDEST ADD MLOAD SWAP1 POP DUP10 DUP1 PUSH2 0x1533 JUMP JUMPDEST SWAP1 PUSH1 0x8 DUP6 ADD PUSH1 0x0 MSTORE PUSH1 0x20 PUSH1 0x0 KECCAK256 SWAP2 PUSH1 0x0 JUMPDEST PUSH1 0x1F NOT DUP6 AND DUP2 LT PUSH2 0x17DE JUMPI POP SWAP2 DUP4 SWAP2 PUSH1 0x1 SWAP4 PUSH2 0x140 SWAP7 SWAP6 PUSH1 0x1F NOT DUP2 AND LT PUSH2 0x17C5 JUMPI JUMPDEST POP POP POP DUP2 SHL ADD PUSH1 0x8 DUP5 ADD SSTORE PUSH2 0x154B JUMP JUMPDEST ADD MLOAD PUSH1 0x0 NOT PUSH1 0xF8 DUP5 PUSH1 0x3 SHL AND SHR NOT AND SWAP1 SSTORE DUP10 DUP1 DUP1 PUSH2 0x17B5 JUMP JUMPDEST SWAP2 SWAP3 PUSH1 0x20 PUSH1 0x1 DUP2 SWAP3 DUP7 DUP6 ADD MLOAD DUP2 SSTORE ADD SWAP5 ADD SWAP3 ADD PUSH2 0x1793 JUMP JUMPDEST PUSH1 0x8 DUP6 ADD PUSH1 0x0 MSTORE PUSH1 0x20 PUSH1 0x0 KECCAK256 PUSH1 0x1F DUP5 ADD PUSH1 0x5 SHR DUP2 ADD PUSH1 0x20 DUP6 LT PUSH2 0x1836 JUMPI JUMPDEST PUSH1 0x1F DUP4 ADD PUSH1 0x5 SHR DUP3 ADD DUP2 LT PUSH2 0x182A JUMPI POP POP PUSH2 0x1515 JUMP JUMPDEST PUSH1 0x0 DUP2 SSTORE PUSH1 0x1 ADD PUSH2 0x1814 JUMP JUMPDEST POP DUP1 PUSH2 0x1814 JUMP JUMPDEST ADD MLOAD SWAP1 POP DUP9 DUP1 PUSH2 0x1477 JUMP JUMPDEST SWAP3 POP PUSH1 0x3 DUP6 ADD PUSH1 0x0 MSTORE PUSH1 0x20 PUSH1 0x0 KECCAK256 SWAP1 PUSH1 0x0 SWAP4 JUMPDEST PUSH1 0x1F NOT DUP5 AND DUP6 LT PUSH2 0x189F JUMPI PUSH1 0x1 SWAP5 POP DUP4 PUSH1 0x1F NOT DUP2 AND LT PUSH2 0x1886 JUMPI JUMPDEST POP POP POP DUP2 SHL ADD PUSH1 0x3 DUP4 ADD SSTORE PUSH2 0x148F JUMP JUMPDEST ADD MLOAD PUSH1 0x0 NOT PUSH1 0xF8 DUP5 PUSH1 0x3 SHL AND SHR NOT AND SWAP1 SSTORE DUP9 DUP1 DUP1 PUSH2 0x1876 JUMP JUMPDEST DUP2 DUP2 ADD MLOAD DUP4 SSTORE PUSH1 0x20 SWAP5 DUP6 ADD SWAP5 PUSH1 0x1 SWAP1 SWAP4 ADD SWAP3 SWAP1 SWAP2 ADD SWAP1 PUSH2 0x185B JUMP JUMPDEST SWAP1 SWAP2 POP PUSH1 0x3 DUP6 ADD PUSH1 0x0 MSTORE PUSH1 0x20 PUSH1 0x0 KECCAK256 PUSH1 0x1F DUP5 ADD PUSH1 0x5 SHR DUP2 ADD PUSH1 0x20 DUP6 LT PUSH2 0x1906 JUMPI JUMPDEST SWAP1 DUP5 SWAP4 SWAP3 SWAP2 JUMPDEST PUSH1 0x1F DUP4 ADD PUSH1 0x5 SHR DUP3 ADD DUP2 LT PUSH2 0x18F7 JUMPI POP POP PUSH2 0x1460 JUMP JUMPDEST PUSH1 0x0 DUP2 SSTORE DUP6 SWAP5 POP PUSH1 0x1 ADD PUSH2 0x18E1 JUMP JUMPDEST POP DUP1 PUSH2 0x18DB JUMP JUMPDEST POP PUSH9 0x3635C9ADC5DEA00000 DUP6 GT ISZERO PUSH2 0x1387 JUMP JUMPDEST PUSH1 0x0 SWAP5 POP PUSH2 0x1390 JUMP JUMPDEST PUSH1 0x64 PUSH1 0x40 MLOAD PUSH3 0x461BCD PUSH1 0xE5 SHL DUP2 MSTORE PUSH1 0x20 PUSH1 0x4 DUP3 ADD MSTORE PUSH1 0x18 PUSH1 0x24 DUP3 ADD MSTORE PUSH32 0x4E6F7465206861736820616C7265616479206578697374730000000000000000 PUSH1 0x44 DUP3 ADD MSTORE REVERT JUMPDEST PUSH1 0x64 PUSH1 0x40 MLOAD PUSH3 0x461BCD PUSH1 0xE5 SHL DUP2 MSTORE PUSH1 0x20 PUSH1 0x4 DUP3 ADD MSTORE PUSH1 0x15 PUSH1 0x24 DUP3 ADD MSTORE PUSH32 0x5469746C652063616E6E6F7420626520656D7074790000000000000000000000 PUSH1 0x44 DUP3 ADD MSTORE REVERT JUMPDEST PUSH1 0x64 PUSH1 0x40 MLOAD PUSH3 0x461BCD PUSH1 0xE5 SHL DUP2 MSTORE PUSH1 0x20 PUSH1 0x4 DUP3 ADD MSTORE PUSH1 0x14 PUSH1 0x24 DUP3 ADD MSTORE PUSH32 0x486173682063616E6E6F7420626520656D707479000000000000000000000000 PUSH1 0x44 DUP3 ADD MSTORE REVERT JUMPDEST CALLVALUE PUSH2 0x24C JUMPI PUSH1 0x0 CALLDATASIZE PUSH1 0x3 NOT ADD SLT PUSH2 0x24C JUMPI PUSH1 0x20 PUSH1 0x40 MLOAD PUSH2 0x3E8 DUP2 MSTORE RETURN JUMPDEST CALLVALUE PUSH2 0x24C JUMPI PUSH1 0x0 CALLDATASIZE PUSH1 0x3 NOT ADD SLT PUSH2 0x24C JUMPI PUSH1 0x20 PUSH1 0x8 SLOAD PUSH1 0x40 MLOAD SWAP1 DUP2 MSTORE RETURN JUMPDEST CALLVALUE PUSH2 0x24C JUMPI PUSH1 0x0 CALLDATASIZE PUSH1 0x3 NOT ADD SLT PUSH2 0x24C JUMPI DUP1 PUSH9 0x3635C9ADC5DEA00000 PUSH1 0x20 SWAP3 MSTORE RETURN JUMPDEST PUSH2 0x160 DUP2 ADD SWAP1 DUP2 LT PUSH8 0xFFFFFFFFFFFFFFFF DUP3 GT OR PUSH2 0x8BA JUMPI PUSH1 0x40 MSTORE JUMP JUMPDEST SWAP1 PUSH1 0x1F DUP1 NOT SWAP2 ADD AND DUP2 ADD SWAP1 DUP2 LT PUSH8 0xFFFFFFFFFFFFFFFF DUP3 GT OR PUSH2 0x8BA JUMPI PUSH1 0x40 MSTORE JUMP JUMPDEST DUP2 PUSH1 0x1F DUP3 ADD SLT ISZERO PUSH2 0x24C JUMPI DUP1 CALLDATALOAD SWAP1 PUSH8 0xFFFFFFFFFFFFFFFF DUP3 GT PUSH2 0x8BA JUMPI PUSH1 0x40 MLOAD SWAP3 PUSH2 0x1AC6 PUSH1 0x1F DUP5 ADD PUSH1 0x1F NOT AND PUSH1 0x20 ADD DUP6 PUSH2 0x1A6F JUMP JUMPDEST DUP3 DUP5 MSTORE PUSH1 0x20 DUP4 DUP4 ADD ADD GT PUSH2 0x24C JUMPI DUP2 PUSH1 0x0 SWAP3 PUSH1 0x20 DUP1 SWAP4 ADD DUP4 DUP7 ADD CALLDATACOPY DUP4 ADD ADD MSTORE SWAP1 JUMP JUMPDEST PUSH1 0x4 CALLDATALOAD SWAP1 PUSH1 0x1 PUSH1 0x1 PUSH1 0xA0 SHL SUB DUP3 AND DUP3 SUB PUSH2 0x24C JUMPI JUMP JUMPDEST PUSH1 0x24 CALLDATALOAD SWAP1 PUSH1 0x1 PUSH1 0x1 PUSH1 0xA0 SHL SUB DUP3 AND DUP3 SUB PUSH2 0x24C JUMPI JUMP JUMPDEST PUSH1 0x40 SWAP1 PUSH1 0x3 NOT ADD SLT PUSH2 0x24C JUMPI PUSH1 0x4 CALLDATALOAD SWAP1 PUSH1 0x24 CALLDATALOAD SWAP1 JUMP JUMPDEST SWAP1 PUSH1 0x1 DUP3 DUP2 SHR SWAP3 AND DUP1 ISZERO PUSH2 0x1B5A JUMPI JUMPDEST PUSH1 0x20 DUP4 LT EQ PUSH2 0x1B44 JUMPI JUMP JUMPDEST PUSH4 0x4E487B71 PUSH1 0xE0 SHL PUSH1 0x0 MSTORE PUSH1 0x22 PUSH1 0x4 MSTORE PUSH1 0x24 PUSH1 0x0 REVERT JUMPDEST SWAP2 PUSH1 0x7F AND SWAP2 PUSH2 0x1B39 JUMP JUMPDEST SWAP1 PUSH1 0x40 MLOAD SWAP2 DUP3 PUSH1 0x0 DUP3 SLOAD SWAP3 PUSH2 0x1B78 DUP5 PUSH2 0x1B2A JUMP JUMPDEST SWAP1 DUP2 DUP5 MSTORE PUSH1 0x1 SWAP5 DUP6 DUP2 AND SWAP1 DUP2 PUSH1 0x0 EQ PUSH2 0x1BE7 JUMPI POP PUSH1 0x1 EQ PUSH2 0x1BA4 JUMPI JUMPDEST POP POP PUSH2 0x1BA2 SWAP3 POP SUB DUP4 PUSH2 0x1A6F JUMP JUMPDEST JUMP JUMPDEST SWAP1 SWAP4 SWAP2 POP PUSH1 0x0 MSTORE PUSH1 0x20 SWAP1 DUP2 PUSH1 0x0 KECCAK256 SWAP4 PUSH1 0x0 SWAP2 JUMPDEST DUP2 DUP4 LT PUSH2 0x1BCF JUMPI POP POP PUSH2 0x1BA2 SWAP4 POP DUP3 ADD ADD CODESIZE DUP1 PUSH2 0x1B94 JUMP JUMPDEST DUP6 SLOAD DUP9 DUP5 ADD DUP6 ADD MSTORE SWAP5 DUP6 ADD SWAP5 DUP8 SWAP5 POP SWAP2 DUP4 ADD SWAP2 PUSH2 0x1BB7 JUMP JUMPDEST SWAP2 POP POP PUSH2 0x1BA2 SWAP5 POP PUSH1 0x20 SWAP3 POP PUSH1 0xFF NOT AND DUP3 DUP5 ADD MSTORE ISZERO ISZERO PUSH1 0x5 SHL DUP3 ADD ADD CODESIZE DUP1 PUSH2 0x1B94 JUMP JUMPDEST SWAP2 SWAP1 DUP3 MLOAD SWAP3 DUP4 DUP3 MSTORE PUSH1 0x0 JUMPDEST DUP5 DUP2 LT PUSH2 0x1C36 JUMPI POP POP DUP3 PUSH1 0x0 PUSH1 0x20 DUP1 SWAP5 SWAP6 DUP5 ADD ADD MSTORE PUSH1 0x1F DUP1 NOT SWAP2 ADD AND ADD ADD SWAP1 JUMP JUMPDEST PUSH1 0x20 DUP2 DUP4 ADD DUP2 ADD MLOAD DUP5 DUP4 ADD DUP3 ADD MSTORE ADD PUSH2 0x1C15 JUMP JUMPDEST SWAP10 SWAP6 SWAP2 SWAP4 PUSH2 0x1CC1 SWAP12 SWAP10 SWAP6 SWAP8 SWAP4 PUSH2 0x1CB2 SWAP10 SWAP6 PUSH1 0x1 PUSH1 0x1 PUSH1 0xA0 SHL SUB PUSH2 0x1C85 SWAP5 AND DUP14 MSTORE PUSH1 0x20 DUP14 ADD MSTORE PUSH1 0x40 DUP13 ADD MSTORE PUSH2 0x160 DUP1 PUSH1 0x60 DUP14 ADD MSTORE DUP12 ADD SWAP1 PUSH2 0x1C0A JUMP JUMPDEST SWAP6 ISZERO ISZERO PUSH1 0x80 DUP11 ADD MSTORE ISZERO ISZERO PUSH1 0xA0 DUP10 ADD MSTORE PUSH1 0xC0 DUP9 ADD MSTORE PUSH1 0xE0 DUP8 ADD MSTORE PUSH2 0x100 DUP7 ADD MSTORE DUP5 DUP3 SUB PUSH2 0x120 DUP7 ADD MSTORE PUSH2 0x1C0A JUMP JUMPDEST SWAP2 PUSH2 0x140 DUP2 DUP5 SUB SWAP2 ADD MSTORE PUSH2 0x1C0A JUMP JUMPDEST SWAP1 JUMP JUMPDEST DUP1 SLOAD DUP3 LT ISZERO PUSH2 0x1CE0 JUMPI PUSH1 0x0 MSTORE PUSH1 0x5 PUSH1 0x20 PUSH1 0x0 KECCAK256 SWAP2 MUL ADD SWAP1 PUSH1 0x0 SWAP1 JUMP JUMPDEST PUSH4 0x4E487B71 PUSH1 0xE0 SHL PUSH1 0x0 MSTORE PUSH1 0x32 PUSH1 0x4 MSTORE PUSH1 0x24 PUSH1 0x0 REVERT JUMPDEST DUP1 SLOAD DUP3 LT ISZERO PUSH2 0x1CE0 JUMPI PUSH1 0x0 MSTORE PUSH1 0x20 PUSH1 0x0 KECCAK256 ADD SWAP1 PUSH1 0x0 SWAP1 JUMP JUMPDEST PUSH1 0x1 PUSH1 0x1 PUSH1 0xA0 SHL SUB PUSH1 0x1 SLOAD AND CALLER SUB PUSH2 0x1D22 JUMPI JUMP JUMPDEST PUSH1 0x64 PUSH1 0x40 MLOAD PUSH3 0x461BCD PUSH1 0xE5 SHL DUP2 MSTORE PUSH1 0x20 PUSH1 0x4 DUP3 ADD MSTORE PUSH1 0x20 PUSH1 0x24 DUP3 ADD MSTORE PUSH32 0x4F776E61626C653A2063616C6C6572206973206E6F7420746865206F776E6572 PUSH1 0x44 DUP3 ADD MSTORE REVERT JUMPDEST ISZERO PUSH2 0x1D6D JUMPI JUMP JUMPDEST PUSH1 0x64 PUSH1 0x40 MLOAD PUSH3 0x461BCD PUSH1 0xE5 SHL DUP2 MSTORE PUSH1 0x20 PUSH1 0x4 DUP3 ADD MSTORE PUSH1 0x14 PUSH1 0x24 DUP3 ADD MSTORE PUSH32 0x496E76616C696420616363657373207072696365000000000000000000000000 PUSH1 0x44 DUP3 ADD MSTORE REVERT JUMPDEST PUSH1 0x0 NOT DUP2 EQ PUSH2 0x8D0 JUMPI PUSH1 0x1 ADD SWAP1 JUMP JUMPDEST PUSH1 0xFF PUSH1 0x1 SLOAD PUSH1 0xA0 SHR AND PUSH2 0x1DCF JUMPI JUMP JUMPDEST PUSH1 0x64 PUSH1 0x40 MLOAD PUSH3 0x461BCD PUSH1 0xE5 SHL DUP2 MSTORE PUSH1 0x20 PUSH1 0x4 DUP3 ADD MSTORE PUSH1 0x10 PUSH1 0x24 DUP3 ADD MSTORE PUSH32 0x5061757361626C653A2070617573656400000000000000000000000000000000 PUSH1 0x44 DUP3 ADD MSTORE REVERT JUMPDEST ISZERO PUSH2 0x1E1A JUMPI JUMP JUMPDEST PUSH1 0x64 PUSH1 0x40 MLOAD PUSH3 0x461BCD PUSH1 0xE5 SHL DUP2 MSTORE PUSH1 0x20 PUSH1 0x4 DUP3 ADD MSTORE PUSH1 0x13 PUSH1 0x24 DUP3 ADD MSTORE PUSH32 0x4E6F746520646F6573206E6F7420657869737400000000000000000000000000 PUSH1 0x44 DUP3 ADD MSTORE REVERT JUMPDEST ISZERO PUSH2 0x1E65 JUMPI JUMP JUMPDEST PUSH1 0x64 PUSH1 0x40 MLOAD PUSH3 0x461BCD PUSH1 0xE5 SHL DUP2 MSTORE PUSH1 0x20 PUSH1 0x4 DUP3 ADD MSTORE PUSH1 0x12 PUSH1 0x24 DUP3 ADD MSTORE PUSH32 0x4E6F7465206973206E6F74206163746976650000000000000000000000000000 PUSH1 0x44 DUP3 ADD MSTORE REVERT JUMPDEST ISZERO PUSH2 0x1EB0 JUMPI JUMP JUMPDEST PUSH1 0x64 PUSH1 0x40 MLOAD PUSH3 0x461BCD PUSH1 0xE5 SHL DUP2 MSTORE PUSH1 0x20 PUSH1 0x4 DUP3 ADD MSTORE PUSH1 0x13 PUSH1 0x24 DUP3 ADD MSTORE PUSH32 0x4E6F7465206973206E6F74207072656D69756D00000000000000000000000000 PUSH1 0x44 DUP3 ADD MSTORE REVERT JUMPDEST SWAP2 SWAP1 DUP3 SUB SWAP2 DUP3 GT PUSH2 0x8D0 JUMPI JUMP JUMPDEST SWAP1 DUP2 PUSH1 0x20 SWAP2 SUB SLT PUSH2 0x24C JUMPI MLOAD DUP1 ISZERO ISZERO DUP2 SUB PUSH2 0x24C JUMPI SWAP1 JUMP JUMPDEST ISZERO PUSH2 0x1F20 JUMPI JUMP JUMPDEST PUSH1 0x64 PUSH1 0x40 MLOAD PUSH3 0x461BCD PUSH1 0xE5 SHL DUP2 MSTORE PUSH1 0x20 PUSH1 0x4 DUP3 ADD MSTORE PUSH1 0x15 PUSH1 0x24 DUP3 ADD MSTORE PUSH32 0x546F6B656E207472616E73666572206661696C65640000000000000000000000 PUSH1 0x44 DUP3 ADD MSTORE REVERT JUMPDEST SWAP2 SWAP1 DUP3 ADD DUP1 SWAP3 GT PUSH2 0x8D0 JUMPI JUMP JUMPDEST PUSH1 0x2 PUSH1 0x0 SLOAD EQ PUSH2 0x1F82 JUMPI PUSH1 0x2 PUSH1 0x0 SSTORE JUMP JUMPDEST PUSH1 0x64 PUSH1 0x40 MLOAD PUSH3 0x461BCD PUSH1 0xE5 SHL DUP2 MSTORE PUSH1 0x20 PUSH1 0x4 DUP3 ADD MSTORE PUSH1 0x1F PUSH1 0x24 DUP3 ADD MSTORE PUSH32 0x5265656E7472616E637947756172643A207265656E7472616E742063616C6C00 PUSH1 0x44 DUP3 ADD MSTORE REVERT JUMPDEST ISZERO PUSH2 0x1FCD JUMPI JUMP JUMPDEST PUSH1 0x64 PUSH1 0x40 MLOAD PUSH3 0x461BCD PUSH1 0xE5 SHL DUP2 MSTORE PUSH1 0x20 PUSH1 0x4 DUP3 ADD MSTORE PUSH1 0x1A PUSH1 0x24 DUP3 ADD MSTORE PUSH32 0x4E6F7420746865206F776E6572206F662074686973206E6F7465000000000000 PUSH1 0x44 DUP3 ADD MSTORE REVERT JUMPDEST PUSH1 0x0 DUP2 DUP2 MSTORE PUSH1 0x2 PUSH1 0x20 MSTORE PUSH1 0x40 DUP2 KECCAK256 SWAP3 PUSH1 0x40 MLOAD SWAP4 PUSH2 0x202D DUP6 PUSH2 0x1A52 JUMP JUMPDEST PUSH1 0x1 PUSH1 0x1 PUSH1 0xA0 SHL SUB SWAP5 DUP6 DUP3 SLOAD AND DUP2 MSTORE PUSH1 0x1 DUP3 ADD SLOAD PUSH1 0x20 DUP3 ADD MSTORE PUSH1 0x2 DUP3 ADD SLOAD PUSH1 0x40 DUP3 ADD MSTORE PUSH2 0x205C PUSH1 0x3 DUP4 ADD PUSH2 0x1B64 JUMP JUMPDEST PUSH1 0x60 DUP3 ADD MSTORE PUSH2 0x140 PUSH2 0x20C0 PUSH1 0x9 PUSH1 0x4 DUP6 ADD SLOAD SWAP5 PUSH1 0xFF DUP7 AND ISZERO ISZERO PUSH1 0x80 DUP7 ADD MSTORE PUSH1 0xFF PUSH1 0xA0 DUP7 ADD SWAP7 PUSH1 0x8 SHR AND ISZERO ISZERO DUP7 MSTORE PUSH1 0x5 DUP2 ADD SLOAD PUSH1 0xC0 DUP7 ADD MSTORE PUSH1 0x6 DUP2 ADD SLOAD PUSH1 0xE0 DUP7 ADD MSTORE PUSH1 0x7 DUP2 ADD SLOAD PUSH2 0x100 DUP7 ADD MSTORE PUSH2 0x20B4 PUSH1 0x8 DUP3 ADD PUSH2 0x1B64 JUMP JUMPDEST PUSH2 0x120 DUP7 ADD MSTORE ADD PUSH2 0x1B64 JUMP JUMPDEST SWAP2 ADD MSTORE MLOAD ISZERO PUSH2 0x20E6 JUMPI PUSH1 0xFF SWAP4 PUSH1 0x40 SWAP4 DUP4 MSTORE PUSH1 0x5 PUSH1 0x20 MSTORE DUP4 DUP4 KECCAK256 SWAP2 AND DUP3 MSTORE PUSH1 0x20 MSTORE KECCAK256 SLOAD AND SWAP1 JUMP JUMPDEST POP POP POP POP PUSH1 0x1 SWAP1 JUMP JUMPDEST PUSH8 0xFFFFFFFFFFFFFFFF DUP2 GT PUSH2 0x8BA JUMPI PUSH1 0x5 SHL PUSH1 0x20 ADD SWAP1 JUMP JUMPDEST DUP1 MLOAD DUP3 LT ISZERO PUSH2 0x1CE0 JUMPI PUSH1 0x20 SWAP2 PUSH1 0x5 SHL ADD ADD SWAP1 JUMP JUMPDEST SWAP3 SWAP2 PUSH1 0x1 PUSH1 0x1 PUSH1 0xA0 SHL SUB PUSH1 0x0 SWAP5 AND DUP5 MSTORE PUSH1 0x20 SWAP1 PUSH1 0x3 DUP3 MSTORE PUSH1 0x40 DUP6 KECCAK256 SWAP1 PUSH1 0x40 MLOAD DUP1 DUP4 DUP6 DUP3 SWAP6 SLOAD SWAP4 DUP5 DUP2 MSTORE ADD SWAP1 DUP10 MSTORE DUP6 DUP10 KECCAK256 SWAP3 DUP10 JUMPDEST DUP8 DUP3 DUP3 LT PUSH2 0x2241 JUMPI POP POP POP PUSH2 0x2165 SWAP3 POP SUB DUP4 PUSH2 0x1A6F JUMP JUMPDEST DUP2 MLOAD SWAP1 DUP2 DUP6 LT ISZERO PUSH2 0x2202 JUMPI PUSH2 0x218E SWAP2 PUSH2 0x217F DUP7 SWAP3 DUP4 PUSH2 0x1F64 JUMP JUMPDEST SWAP1 DUP1 DUP3 GT PUSH2 0x21FA JUMPI JUMPDEST POP PUSH2 0x1EF4 JUMP JUMPDEST SWAP3 PUSH2 0x2198 DUP5 PUSH2 0x20EF JUMP JUMPDEST SWAP3 PUSH2 0x21A6 PUSH1 0x40 MLOAD SWAP5 DUP6 PUSH2 0x1A6F JUMP JUMPDEST DUP5 DUP5 MSTORE PUSH1 0x1F NOT PUSH2 0x21B5 DUP7 PUSH2 0x20EF JUMP JUMPDEST ADD SWAP1 CALLDATASIZE SWAP1 DUP6 ADD CALLDATACOPY DUP3 SWAP6 JUMPDEST DUP5 DUP2 LT PUSH2 0x21CD JUMPI POP POP POP POP POP JUMP JUMPDEST DUP1 PUSH2 0x21E4 PUSH2 0x21DE PUSH2 0x21F5 SWAP4 DUP6 PUSH2 0x1F64 JUMP JUMPDEST DUP6 PUSH2 0x2107 JUMP JUMPDEST MLOAD PUSH2 0x21EF DUP3 DUP8 PUSH2 0x2107 JUMP JUMPDEST MSTORE PUSH2 0x1DB1 JUMP JUMPDEST PUSH2 0x21BF JUMP JUMPDEST SWAP1 POP CODESIZE PUSH2 0x2188 JUMP JUMPDEST POP POP PUSH1 0x40 MLOAD SWAP4 SWAP5 SWAP3 POP POP DUP3 ADD PUSH8 0xFFFFFFFFFFFFFFFF DUP2 GT DUP4 DUP3 LT OR PUSH2 0x222D JUMPI PUSH1 0x40 MSTORE DUP1 DUP3 MSTORE CALLDATASIZE DUP2 CALLDATACOPY SWAP1 JUMP JUMPDEST PUSH1 0x24 DUP3 PUSH4 0x4E487B71 PUSH1 0xE0 SHL DUP2 MSTORE PUSH1 0x41 PUSH1 0x4 MSTORE REVERT JUMPDEST DUP6 SLOAD DUP5 MSTORE PUSH1 0x1 SWAP6 DUP7 ADD SWAP6 DUP9 SWAP6 POP SWAP4 ADD SWAP3 ADD PUSH2 0x214E JUMP INVALID LOG2 PUSH5 0x6970667358 0x22 SLT KECCAK256 PUSH15 0x4E46A4852AEAC2BE90B413AFCF04C8 0x4C PUSH32 0xBE5400D4209AC12B56EC4C98B46364736F6C6343000813003300000000000000 "},"methodIdentifiers":{"MAX_PLATFORM_FEE()":"3998a681","MAX_PRICE()":"01c11d96","MIN_PRICE()":"ad9f20a6","checkNoteAccess(uint256,address)":"8b7cc3df","feeRecipient()":"46904840","getNoteDetails(uint256)":"63b3834e","getUserNotes(address,uint256,uint256)":"4d548506","hasAccess(uint256,address)":"ced14198","hashToNoteId(bytes32)":"96fa9022","moduloToken()":"8a0b3b0a","noteCount()":"317a4c76","notePurchases(uint256,uint256)":"75e2a27e","notes(uint256)":"61c3a7e6","owner()":"8da5cb5b","ownerNotes(address,uint256)":"a6d52e3d","pause()":"8456cb59","paused()":"5c975abb","platformFeePercent()":"8c639a85","purchaseNoteAccess(uint256)":"95ba85c4","recoverERC20(address,uint256)":"8980f11f","registerNote(bytes32,string,bool,uint256,string,string)":"3de0c4d7","renounceOwnership()":"715018a6","totalPurchases()":"5962a941","transferOwnership(address)":"f2fde38b","unpause()":"3f4ba83a","updateFeeRecipient(address)":"f160d369","updateNotePremiumStatus(uint256,bool,uint256)":"bce5f59f","updateNotePrice(uint256,uint256)":"5f71566d","updatePlatformFee(uint256)":"aa0b5988","userEarnings(address)":"d8ba6021","withdrawEarnings(uint256)":"6e70096e"}}}}}