{"contracts/MaliciousReentrant.sol":{"MaliciousReentrant":{"abi":[{"inputs":[],"stateMutability":"nonpayable","type":"constructor"},{"anonymous":false,"inputs":[{"indexed":false,"internalType":"uint256","name":"count","type":"uint256"}],"name":"AttackAttempted","type":"event"},{"inputs":[],"name":"attackCount","outputs":[{"internalType":"uint256","name":"","type":"uint256"}],"stateMutability":"view","type":"function"},{"inputs":[],"name":"attackStarted","outputs":[{"internalType":"bool","name":"","type":"bool"}],"stateMutability":"view","type":"function"},{"inputs":[{"internalType":"address","name":"_targetContract","type":"address"}],"name":"attemptReentrancy","outputs":[],"stateMutability":"nonpayable","type":"function"},{"inputs":[],"name":"onTokenReceived","outputs":[],"stateMutability":"nonpayable","type":"function"},{"inputs":[],"name":"resetAttack","outputs":[],"stateMutability":"nonpayable","type":"function"},{"inputs":[],"name":"targetContract","outputs":[{"internalType":"contract IModuloTokenOptimized","name":"","type":"address"}],"stateMutability":"view","type":"function"},{"inputs":[],"name":"wasAttackSuccessful","outputs":[{"internalType":"bool","name":"","type":"bool"}],"stateMutability":"view","type":"function"}],"evm":{"bytecode":{"linkReferences":{},"object":"608080604052346100285760006001819055805460ff60a01b19169055610369908161002e8239f35b600080fdfe60806040818152600436101561001457600080fd5b600091823560e01c9081630f0147dc146102cb57816316bc6e29146102ad57508063407c28211461028f5780638521009f146101a8578063bd90df701461017657828163c6f9d52214610098575063d18ce4011461007157600080fd5b3461009457816003193601126100945760ff6020925460a01c1690519015158152f35b5080fd5b8083346101735760203660031901126101735760043573ffffffffffffffffffffffffffffffffffffffff9081811680910361016e5774010000000000000000000000000000000000000000907fffffffffffffffffffffff0000000000000000000000000000000000000000008554161717808455836001551690813b1561016a5782809260448351809581936340c10f1960e01b8352306004840152606460248401525af1908115610161575061014e5750f35b61015790610309565b61015e5780f35b80fd5b513d84823e3d90fd5b5050fd5b505050fd5b50fd5b503461009457816003193601126100945773ffffffffffffffffffffffffffffffffffffffff60209254169051908152f35b50903461015e578060031936011261015e5780549160ff8360a01c1680610283575b6101d2575080f35b600154600019811461026f5782937f9de7696c1ddde10847858955a8530cc578ad5b8a8887b231fad51acf0a4cfa0a6020600173ffffffffffffffffffffffffffffffffffffffff9401806001558551908152a116803b1561016a57829060448351809581936340c10f1960e01b8352306004840152606460248401525af1908115610161575061026257508080f35b61026b90610309565b8080f35b602483634e487b7160e01b81526011600452fd5b506003600154106101ca565b50346100945781600319360112610094576020906001549051908152f35b83903461009457816003193601126100945760209060018054118152f35b833461015e578060031936011261015e577fffffffffffffffffffffff00ffffffffffffffffffffffffffffffffffffffff81541681558060015580f35b67ffffffffffffffff811161031d57604052565b634e487b7160e01b600052604160045260246000fdfea2646970667358221220a2cfa3032c3511b7fc6b5139a930f7e876bd72b46328e8e3d12bb9fca088993764736f6c63430008130033","opcodes":"PUSH1 0x80 DUP1 PUSH1 0x40 MSTORE CALLVALUE PUSH2 0x28 JUMPI PUSH1 0x0 PUSH1 0x1 DUP2 SWAP1 SSTORE DUP1 SLOAD PUSH1 0xFF PUSH1 0xA0 SHL NOT AND SWAP1 SSTORE PUSH2 0x369 SWAP1 DUP2 PUSH2 0x2E DUP3 CODECOPY RETURN JUMPDEST PUSH1 0x0 DUP1 REVERT INVALID PUSH1 0x80 PUSH1 0x40 DUP2 DUP2 MSTORE PUSH1 0x4 CALLDATASIZE LT ISZERO PUSH2 0x14 JUMPI PUSH1 0x0 DUP1 REVERT JUMPDEST PUSH1 0x0 SWAP2 DUP3 CALLDATALOAD PUSH1 0xE0 SHR SWAP1 DUP2 PUSH4 0xF0147DC EQ PUSH2 0x2CB JUMPI DUP2 PUSH4 0x16BC6E29 EQ PUSH2 0x2AD JUMPI POP DUP1 PUSH4 0x407C2821 EQ PUSH2 0x28F JUMPI DUP1 PUSH4 0x8521009F EQ PUSH2 0x1A8 JUMPI DUP1 PUSH4 0xBD90DF70 EQ PUSH2 0x176 JUMPI DUP3 DUP2 PUSH4 0xC6F9D522 EQ PUSH2 0x98 JUMPI POP PUSH4 0xD18CE401 EQ PUSH2 0x71 JUMPI PUSH1 0x0 DUP1 REVERT JUMPDEST CALLVALUE PUSH2 0x94 JUMPI DUP2 PUSH1 0x3 NOT CALLDATASIZE ADD SLT PUSH2 0x94 JUMPI PUSH1 0xFF PUSH1 0x20 SWAP3 SLOAD PUSH1 0xA0 SHR AND SWAP1 MLOAD SWAP1 ISZERO ISZERO DUP2 MSTORE RETURN JUMPDEST POP DUP1 REVERT JUMPDEST DUP1 DUP4 CALLVALUE PUSH2 0x173 JUMPI PUSH1 0x20 CALLDATASIZE PUSH1 0x3 NOT ADD SLT PUSH2 0x173 JUMPI PUSH1 0x4 CALLDATALOAD PUSH20 0xFFFFFFFFFFFFFFFFFFFFFFFFFFFFFFFFFFFFFFFF SWAP1 DUP2 DUP2 AND DUP1 SWAP2 SUB PUSH2 0x16E JUMPI PUSH21 0x10000000000000000000000000000000000000000 SWAP1 PUSH32 0xFFFFFFFFFFFFFFFFFFFFFF000000000000000000000000000000000000000000 DUP6 SLOAD AND OR OR DUP1 DUP5 SSTORE DUP4 PUSH1 0x1 SSTORE AND SWAP1 DUP2 EXTCODESIZE ISZERO PUSH2 0x16A JUMPI DUP3 DUP1 SWAP3 PUSH1 0x44 DUP4 MLOAD DUP1 SWAP6 DUP2 SWAP4 PUSH4 0x40C10F19 PUSH1 0xE0 SHL DUP4 MSTORE ADDRESS PUSH1 0x4 DUP5 ADD MSTORE PUSH1 0x64 PUSH1 0x24 DUP5 ADD MSTORE GAS CALL SWAP1 DUP2 ISZERO PUSH2 0x161 JUMPI POP PUSH2 0x14E JUMPI POP RETURN JUMPDEST PUSH2 0x157 SWAP1 PUSH2 0x309 JUMP JUMPDEST PUSH2 0x15E JUMPI DUP1 RETURN JUMPDEST DUP1 REVERT JUMPDEST MLOAD RETURNDATASIZE DUP5 DUP3 RETURNDATACOPY RETURNDATASIZE SWAP1 REVERT JUMPDEST POP POP REVERT JUMPDEST POP POP POP REVERT JUMPDEST POP REVERT JUMPDEST POP CALLVALUE PUSH2 0x94 JUMPI DUP2 PUSH1 0x3 NOT CALLDATASIZE ADD SLT PUSH2 0x94 JUMPI PUSH20 0xFFFFFFFFFFFFFFFFFFFFFFFFFFFFFFFFFFFFFFFF PUSH1 0x20 SWAP3 SLOAD AND SWAP1 MLOAD SWAP1 DUP2 MSTORE RETURN JUMPDEST POP SWAP1 CALLVALUE PUSH2 0x15E JUMPI DUP1 PUSH1 0x3 NOT CALLDATASIZE ADD SLT PUSH2 0x15E JUMPI DUP1 SLOAD SWAP2 PUSH1 0xFF DUP4 PUSH1 0xA0 SHR AND DUP1 PUSH2 0x283 JUMPI JUMPDEST PUSH2 0x1D2 JUMPI POP DUP1 RETURN JUMPDEST PUSH1 0x1 SLOAD PUSH1 0x0 NOT DUP2 EQ PUSH2 0x26F JUMPI DUP3 SWAP4 PUSH32 0x9DE7696C1DDDE10847858955A8530CC578AD5B8A8887B231FAD51ACF0A4CFA0A PUSH1 0x20 PUSH1 0x1 PUSH20 0xFFFFFFFFFFFFFFFFFFFFFFFFFFFFFFFFFFFFFFFF SWAP5 ADD DUP1 PUSH1 0x1 SSTORE DUP6 MLOAD SWAP1 DUP2 MSTORE LOG1 AND DUP1 EXTCODESIZE ISZERO PUSH2 0x16A JUMPI DUP3 SWAP1 PUSH1 0x44 DUP4 MLOAD DUP1 SWAP6 DUP2 SWAP4 PUSH4 0x40C10F19 PUSH1 0xE0 SHL DUP4 MSTORE ADDRESS PUSH1 0x4 DUP5 ADD MSTORE PUSH1 0x64 PUSH1 0x24 DUP5 ADD MSTORE GAS CALL SWAP1 DUP2 ISZERO PUSH2 0x161 JUMPI POP PUSH2 0x262 JUMPI POP DUP1 DUP1 RETURN JUMPDEST PUSH2 0x26B SWAP1 PUSH2 0x309 JUMP JUMPDEST DUP1 DUP1 RETURN JUMPDEST PUSH1 0x24 DUP4 PUSH4 0x4E487B71 PUSH1 0xE0 SHL DUP2 MSTORE PUSH1 0x11 PUSH1 0x4 MSTORE REVERT JUMPDEST POP PUSH1 0x3 PUSH1 0x1 SLOAD LT PUSH2 0x1CA JUMP JUMPDEST POP CALLVALUE PUSH2 0x94 JUMPI DUP2 PUSH1 0x3 NOT CALLDATASIZE ADD SLT PUSH2 0x94 JUMPI PUSH1 0x20 SWAP1 PUSH1 0x1 SLOAD SWAP1 MLOAD SWAP1 DUP2 MSTORE RETURN JUMPDEST DUP4 SWAP1 CALLVALUE PUSH2 0x94 JUMPI DUP2 PUSH1 0x3 NOT CALLDATASIZE ADD SLT PUSH2 0x94 JUMPI PUSH1 0x20 SWAP1 PUSH1 0x1 DUP1 SLOAD GT DUP2 MSTORE RETURN JUMPDEST DUP4 CALLVALUE PUSH2 0x15E JUMPI DUP1 PUSH1 0x3 NOT CALLDATASIZE ADD SLT PUSH2 0x15E JUMPI PUSH32 0xFFFFFFFFFFFFFFFFFFFFFF00FFFFFFFFFFFFFFFFFFFFFFFFFFFFFFFFFFFFFFFF DUP2 SLOAD AND DUP2 SSTORE DUP1 PUSH1 0x1 SSTORE DUP1 RETURN JUMPDEST PUSH8 0xFFFFFFFFFFFFFFFF DUP2 GT PUSH2 0x31D JUMPI PUSH1 0x40 MSTORE JUMP JUMPDEST PUSH4 0x4E487B71 PUSH1 0xE0 SHL PUSH1 0x0 MSTORE PUSH1 0x41 PUSH1 0x4 MSTORE PUSH1 0x24 PUSH1 0x0 REVERT INVALID LOG2 PUSH5 0x6970667358 0x22 SLT KECCAK256 LOG2 0xCF LOG3 SUB 0x2C CALLDATALOAD GT 0xB7 0xFC PUSH12 0x5139A930F7E876BD72B46328 0xE8 0xE3 0xD1 0x2B 0xB9 0xFC LOG0 DUP9 SWAP10 CALLDATACOPY PUSH5 0x736F6C6343 STOP ADDMOD SGT STOP CALLER "},"methodIdentifiers":{"attackCount()":"407c2821","attackStarted()":"d18ce401","attemptReentrancy(address)":"c6f9d522","onTokenReceived()":"8521009f","resetAttack()":"0f0147dc","targetContract()":"bd90df70","wasAttackSuccessful()":"16bc6e29"}}}}}