{"contracts/NoteRegistry.sol":{"NoteRegistry":{"abi":[{"anonymous":false,"inputs":[{"indexed":true,"internalType":"address","name":"owner","type":"address"},{"indexed":true,"internalType":"uint256","name":"noteId","type":"uint256"},{"indexed":false,"internalType":"uint256","name":"timestamp","type":"uint256"}],"name":"NoteDeactivated","type":"event"},{"anonymous":false,"inputs":[{"indexed":true,"internalType":"address","name":"owner","type":"address"},{"indexed":true,"internalType":"uint256","name":"noteId","type":"uint256"},{"indexed":false,"internalType":"bytes32","name":"hash","type":"bytes32"},{"indexed":false,"internalType":"string","name":"title","type":"string"},{"indexed":false,"internalType":"uint256","name":"timestamp","type":"uint256"}],"name":"NoteRegistered","type":"event"},{"anonymous":false,"inputs":[{"indexed":true,"internalType":"address","name":"owner","type":"address"},{"indexed":true,"internalType":"uint256","name":"noteId","type":"uint256"},{"indexed":false,"internalType":"bytes32","name":"newHash","type":"bytes32"},{"indexed":false,"internalType":"uint256","name":"timestamp","type":"uint256"}],"name":"NoteUpdated","type":"event"},{"anonymous":false,"inputs":[{"indexed":true,"internalType":"uint256","name":"noteId","type":"uint256"},{"indexed":true,"internalType":"address","name":"previousOwner","type":"address"},{"indexed":true,"internalType":"address","name":"newOwner","type":"address"}],"name":"OwnershipTransferred","type":"event"},{"inputs":[{"internalType":"uint256","name":"noteId","type":"uint256"}],"name":"deactivateNote","outputs":[],"stateMutability":"nonpayable","type":"function"},{"inputs":[{"internalType":"address","name":"owner","type":"address"}],"name":"getActiveNoteCount","outputs":[{"internalType":"uint256","name":"count","type":"uint256"}],"stateMutability":"view","type":"function"},{"inputs":[{"internalType":"uint256","name":"noteId","type":"uint256"}],"name":"getNote","outputs":[{"components":[{"internalType":"address","name":"owner","type":"address"},{"internalType":"bytes32","name":"hash","type":"bytes32"},{"internalType":"uint256","name":"timestamp","type":"uint256"},{"internalType":"string","name":"title","type":"string"},{"internalType":"bool","name":"isActive","type":"bool"}],"internalType":"struct NoteRegistry.Note","name":"note","type":"tuple"}],"stateMutability":"view","type":"function"},{"inputs":[{"internalType":"bytes32","name":"hash","type":"bytes32"}],"name":"getNoteByHash","outputs":[{"components":[{"internalType":"address","name":"owner","type":"address"},{"internalType":"bytes32","name":"hash","type":"bytes32"},{"internalType":"uint256","name":"timestamp","type":"uint256"},{"internalType":"string","name":"title","type":"string"},{"internalType":"bool","name":"isActive","type":"bool"}],"internalType":"struct NoteRegistry.Note","name":"note","type":"tuple"}],"stateMutability":"view","type":"function"},{"inputs":[{"internalType":"address","name":"user","type":"address"}],"name":"getNotesByOwner","outputs":[{"internalType":"uint256[]","name":"noteIds","type":"uint256[]"}],"stateMutability":"view","type":"function"},{"inputs":[],"name":"getTotalNoteCount","outputs":[{"internalType":"uint256","name":"count","type":"uint256"}],"stateMutability":"view","type":"function"},{"inputs":[{"internalType":"bytes32","name":"","type":"bytes32"}],"name":"hashToNoteId","outputs":[{"internalType":"uint256","name":"","type":"uint256"}],"stateMutability":"view","type":"function"},{"inputs":[{"internalType":"uint256","name":"noteId","type":"uint256"},{"internalType":"address","name":"owner","type":"address"}],"name":"isNoteOwner","outputs":[{"internalType":"bool","name":"isOwner","type":"bool"}],"stateMutability":"view","type":"function"},{"inputs":[{"internalType":"uint256","name":"noteId","type":"uint256"}],"name":"isOwner","outputs":[{"internalType":"bool","name":"isOwner","type":"bool"}],"stateMutability":"view","type":"function"},{"inputs":[],"name":"noteCount","outputs":[{"internalType":"uint256","name":"","type":"uint256"}],"stateMutability":"view","type":"function"},{"inputs":[{"internalType":"uint256","name":"","type":"uint256"}],"name":"notes","outputs":[{"internalType":"address","name":"owner","type":"address"},{"internalType":"bytes32","name":"hash","type":"bytes32"},{"internalType":"uint256","name":"timestamp","type":"uint256"},{"internalType":"string","name":"title","type":"string"},{"internalType":"bool","name":"isActive","type":"bool"}],"stateMutability":"view","type":"function"},{"inputs":[{"internalType":"address","name":"","type":"address"},{"internalType":"uint256","name":"","type":"uint256"}],"name":"ownerNotes","outputs":[{"internalType":"uint256","name":"","type":"uint256"}],"stateMutability":"view","type":"function"},{"inputs":[{"internalType":"bytes32","name":"hash","type":"bytes32"},{"internalType":"string","name":"title","type":"string"}],"name":"registerNote","outputs":[{"internalType":"uint256","name":"noteId","type":"uint256"}],"stateMutability":"nonpayable","type":"function"},{"inputs":[{"internalType":"uint256","name":"noteId","type":"uint256"},{"internalType":"address","name":"newOwner","type":"address"}],"name":"transferOwnership","outputs":[],"stateMutability":"nonpayable","type":"function"},{"inputs":[{"internalType":"uint256","name":"noteId","type":"uint256"},{"internalType":"bytes32","name":"newHash","type":"bytes32"}],"name":"updateNote","outputs":[],"stateMutability":"nonpayable","type":"function"},{"inputs":[{"internalType":"bytes32","name":"hash","type":"bytes32"}],"name":"verifyNote","outputs":[{"internalType":"bool","name":"exists","type":"bool"},{"internalType":"bool","name":"isOwner","type":"bool"},{"internalType":"bool","name":"isActive","type":"bool"}],"stateMutability":"view","type":"function"}],"evm":{"bytecode":{"linkReferences":{},"object":"6080806040523461001657611114908161001c8239f35b600080fdfe6080604052600436101561001257600080fd5b60003560e01c806316d06cc114610bef578063233833ca14610b2657806329507f73146108b35780632d29c2f91461087d578063317a4c76146102dd57806339c7639c146108465780634e37cfc5146107cd57806354cb06d114610487578063570a3b27146103d957806361c3a7e61461035a57806367c3a914146102fb5780638e133f70146102dd57806396fa9022146102b1578063a6d52e3d1461025b578063a965a941146101b35763e153c558146100cc57600080fd5b346101ae576020806003193601126101ae576100e6610d15565b6001600160a01b03600091166000526001908183526040600020604051808286829454938481520190600052866000209260005b8789838310610199575050505061013392500382610dd5565b6000835b610146575b8483604051908152f35b815181101561019457848160051b830101516000526000855260ff6004604060002001541661017f575b61017990610f9b565b83610137565b9161018c61017991610f9b565b929050610170565b61013c565b8654855295810195879550909301920161011a565b600080fd5b346101ae5760203660031901126101ae576004356101cf6110b3565b508015158061024f575b6101e290610fd2565b600052600060205261024b604060002060ff60046040519261020384610db9565b6001600160a01b038154168452600181015460208501526002810154604085015261023060038201610e31565b60608501520154161515608082015260405191829182610d6b565b0390f35b506003548111156101d9565b346101ae5760403660031901126101ae57610274610d15565b6001600160a01b0360243591166000526001602052604060002080548210156101ae576020916102a391610ed7565b90546040519160031b1c8152f35b346101ae5760203660031901126101ae5760043560005260026020526020604060002054604051908152f35b346101ae5760003660031901126101ae576020600354604051908152f35b346101ae5760403660031901126101ae576020600435610319610cff565b908015158061034e575b61032c90610fd2565b600052600082526001600160a01b038060406000205416906040519216148152f35b50600354811115610323565b346101ae5760203660031901126101ae57600435600052600060205260406000206001600160a01b038154166001820154916103cd60028201549160ff60046103a560038401610e31565b920154169260405195869586526020860152604085015260a0606085015260a0840190610d2b565b90151560808301520390f35b346101ae576020806003193601126101ae576001600160a01b036103fb610d15565b1660005260019081815260406000209160405191828185549182815201908195600052826000209060005b818110610474575050508361043c910384610dd5565b60405192818401908285525180915260408401949160005b8281106104615785870386f35b8351875295810195928101928401610454565b8254845292840192918501918501610426565b346101ae5760403660031901126101ae5760243567ffffffffffffffff81116101ae57366023820112156101ae57806004013567ffffffffffffffff811161077357604051916104e1601f8301601f191660200184610dd5565b81835236602483830101116101ae5781600092602460209301838601378301015261050f6004351515610f05565b80511561078957600435600052600260205261053060406000205415610f50565b61053b600354610f9b565b90816003556040519161054d83610db9565b3383526004356020840152426040840152816060840152600160808401528060005260006020526040600020916001600160a01b0384511673ffffffffffffffffffffffffffffffffffffffff198454161783556020840151600184015560408401516002840155606084015193845167ffffffffffffffff8111610773576105d96003860154610df7565b95601f8711610728575b602096508690601f83116001146106b457958260809360049388996000926106a9575b50508160011b916000199060031b1c19161760038201555b01910151151560ff801983541691161790553360005260018452610646826040600020610faa565b60043560005260028452816040600020557f732dbb13bcb53a4e6be085be288d50e705f8f68a958875d1ed9a8a007bfbfe8e6106946040519260043584526060878501526060840190610d2b565b914260408201528033930390a3604051908152f35b015190508a80610606565b9060038701600052876000209160005b601f1985168110610711575083600493889993600193608097601f198116106106f8575b505050811b01600382015561061e565b015160001960f88460031b161c191690558a80806106e8565b9192896001819286850151815501940192016106c4565b600386016000526020600020601f830160051c81019760208410610769575b601f0160051c01965b87811061075d57506105e3565b60008155600101610750565b9097508790610747565b634e487b7160e01b600052604160045260246000fd5b606460405162461bcd60e51b815260206004820152601560248201527f5469746c652063616e6e6f7420626520656d70747900000000000000000000006044820152fd5b346101ae5760203660031901126101ae576060600080600090600435600052600260205260406000205480610816575b5060405192151583521515602083015215156040820152f35b925050506001906000526000602052604060002060ff60046001600160a01b0383541633149201541690846107fd565b346101ae5760203660031901126101ae57600435600052600060205260206001600160a01b03604060002054166040519033148152f35b346101ae5760203660031901126101ae576108966110b3565b5060043560005260026020526040600020546101e2811515610fd2565b346101ae5760403660031901126101ae576004356108cf610cff565b81151580610b1a575b6108e190610fd2565b81600052602090600082526001600160a01b0380916109088260406000205416331461101d565b846000526000845261092460ff60046040600020015416611068565b16928315610ad657338414610a9257806000526000835260406000208473ffffffffffffffffffffffffffffffffffffffff1982549485169416179055836000526001838180955261097a836040600020610faa565b83600052526040600020836000905b6109b8575b8584847f16b85f49bf01212961345d3016c9a531894accf62eb7680f2045d79185cc0ec0600080a4005b815480821015610a8c5783906109ce8385610ed7565b929054600393841b1c146109ed5750506109e790610f9b565b84610989565b949550929360001991828201918211610a7657610a1d610a10610a369386610ed7565b905490871b1c9185610ed7565b90919082549060031b91821b91600019901b1916179055565b81548015610a6057810192610a4b8484610ed7565b81939154921b1b19169055558190848061098e565b634e487b7160e01b600052603160045260246000fd5b634e487b7160e01b600052601160045260246000fd5b5061098e565b6064836040519062461bcd60e51b82526004820152601b60248201527f43616e6e6f74207472616e7366657220746f20796f757273656c6600000000006044820152fd5b6064836040519062461bcd60e51b82526004820152601f60248201527f43616e6e6f74207472616e7366657220746f207a65726f2061646472657373006044820152fd5b506003548211156108d8565b346101ae576020806003193601126101ae576004359081151580610be3575b610b4e90610fd2565b8160005260008152610b6f6001600160a01b0360406000205416331461101d565b8160005260008152610b8b60ff60046040600020015416611068565b8160005260008152600160406000206004810160ff198154169055015460005260028152600060408120557fa6ce03be5d75ae83d219243d923da4fddd2263c8c6427891615d2492f9b6490f604051914283523392a3005b50600354821115610b45565b346101ae5760403660031901126101ae5760043560243581151580610cf3575b610c1890610fd2565b81600052602060008152610c3b6001600160a01b0360406000205416331461101d565b8260005260008152610c5760ff60046040600020015416611068565b610c62821515610f05565b8160005260028152610c7960406000205415610f50565b826000526000815260016040600020015460005260028152600060408120558260005260008152604060002082600182015560024291015581600052600281528260406000205560405191825242908201527f50f2b41364885ab267cc890d61657def298f540b0cf476cc2bec5137af047f3d60403392a3005b50600354821115610c0f565b602435906001600160a01b03821682036101ae57565b600435906001600160a01b03821682036101ae57565b919082519283825260005b848110610d57575050826000602080949584010152601f8019910116010190565b602081830181015184830182015201610d36565b602081526001600160a01b038251166020820152602082015160408201526040820151606082015260a06080610dae6060850151838386015260c0850190610d2b565b930151151591015290565b60a0810190811067ffffffffffffffff82111761077357604052565b90601f8019910116810190811067ffffffffffffffff82111761077357604052565b90600182811c92168015610e27575b6020831014610e1157565b634e487b7160e01b600052602260045260246000fd5b91607f1691610e06565b9060405191826000825492610e4584610df7565b908184526001948581169081600014610eb45750600114610e71575b5050610e6f92500383610dd5565b565b9093915060005260209081600020936000915b818310610e9c575050610e6f93508201013880610e61565b85548884018501529485019487945091830191610e84565b915050610e6f94506020925060ff191682840152151560051b8201013880610e61565b8054821015610eef5760005260206000200190600090565b634e487b7160e01b600052603260045260246000fd5b15610f0c57565b606460405162461bcd60e51b815260206004820152601460248201527f486173682063616e6e6f7420626520656d7074790000000000000000000000006044820152fd5b15610f5757565b606460405162461bcd60e51b815260206004820152601860248201527f4e6f7465206861736820616c72656164792065786973747300000000000000006044820152fd5b6000198114610a765760010190565b90815491680100000000000000008310156107735782610a1d916001610e6f95018155610ed7565b15610fd957565b606460405162461bcd60e51b815260206004820152601360248201527f4e6f746520646f6573206e6f74206578697374000000000000000000000000006044820152fd5b1561102457565b606460405162461bcd60e51b815260206004820152601a60248201527f4e6f7420746865206f776e6572206f662074686973206e6f74650000000000006044820152fd5b1561106f57565b606460405162461bcd60e51b815260206004820152601260248201527f4e6f7465206973206e6f742061637469766500000000000000000000000000006044820152fd5b604051906110c082610db9565b6000608083828152826020820152826040820152606080820152015256fea264697066735822122042330792cb99f365f163a6f58e0f08becb46a1e13b5ff7397bb63b8d2173081b64736f6c63430008130033","opcodes":"PUSH1 0x80 DUP1 PUSH1 0x40 MSTORE CALLVALUE PUSH2 0x16 JUMPI PUSH2 0x1114 SWAP1 DUP2 PUSH2 0x1C DUP3 CODECOPY RETURN JUMPDEST PUSH1 0x0 DUP1 REVERT INVALID PUSH1 0x80 PUSH1 0x40 MSTORE PUSH1 0x4 CALLDATASIZE LT ISZERO PUSH2 0x12 JUMPI PUSH1 0x0 DUP1 REVERT JUMPDEST PUSH1 0x0 CALLDATALOAD PUSH1 0xE0 SHR DUP1 PUSH4 0x16D06CC1 EQ PUSH2 0xBEF JUMPI DUP1 PUSH4 0x233833CA EQ PUSH2 0xB26 JUMPI DUP1 PUSH4 0x29507F73 EQ PUSH2 0x8B3 JUMPI DUP1 PUSH4 0x2D29C2F9 EQ PUSH2 0x87D JUMPI DUP1 PUSH4 0x317A4C76 EQ PUSH2 0x2DD JUMPI DUP1 PUSH4 0x39C7639C EQ PUSH2 0x846 JUMPI DUP1 PUSH4 0x4E37CFC5 EQ PUSH2 0x7CD JUMPI DUP1 PUSH4 0x54CB06D1 EQ PUSH2 0x487 JUMPI DUP1 PUSH4 0x570A3B27 EQ PUSH2 0x3D9 JUMPI DUP1 PUSH4 0x61C3A7E6 EQ PUSH2 0x35A JUMPI DUP1 PUSH4 0x67C3A914 EQ PUSH2 0x2FB JUMPI DUP1 PUSH4 0x8E133F70 EQ PUSH2 0x2DD JUMPI DUP1 PUSH4 0x96FA9022 EQ PUSH2 0x2B1 JUMPI DUP1 PUSH4 0xA6D52E3D EQ PUSH2 0x25B JUMPI DUP1 PUSH4 0xA965A941 EQ PUSH2 0x1B3 JUMPI PUSH4 0xE153C558 EQ PUSH2 0xCC JUMPI PUSH1 0x0 DUP1 REVERT JUMPDEST CALLVALUE PUSH2 0x1AE JUMPI PUSH1 0x20 DUP1 PUSH1 0x3 NOT CALLDATASIZE ADD SLT PUSH2 0x1AE JUMPI PUSH2 0xE6 PUSH2 0xD15 JUMP JUMPDEST PUSH1 0x1 PUSH1 0x1 PUSH1 0xA0 SHL SUB PUSH1 0x0 SWAP2 AND PUSH1 0x0 MSTORE PUSH1 0x1 SWAP1 DUP2 DUP4 MSTORE PUSH1 0x40 PUSH1 0x0 KECCAK256 PUSH1 0x40 MLOAD DUP1 DUP3 DUP7 DUP3 SWAP5 SLOAD SWAP4 DUP5 DUP2 MSTORE ADD SWAP1 PUSH1 0x0 MSTORE DUP7 PUSH1 0x0 KECCAK256 SWAP3 PUSH1 0x0 JUMPDEST DUP8 DUP10 DUP4 DUP4 LT PUSH2 0x199 JUMPI POP POP POP POP PUSH2 0x133 SWAP3 POP SUB DUP3 PUSH2 0xDD5 JUMP JUMPDEST PUSH1 0x0 DUP4 JUMPDEST PUSH2 0x146 JUMPI JUMPDEST DUP5 DUP4 PUSH1 0x40 MLOAD SWAP1 DUP2 MSTORE RETURN JUMPDEST DUP2 MLOAD DUP2 LT ISZERO PUSH2 0x194 JUMPI DUP5 DUP2 PUSH1 0x5 SHL DUP4 ADD ADD MLOAD PUSH1 0x0 MSTORE PUSH1 0x0 DUP6 MSTORE PUSH1 0xFF PUSH1 0x4 PUSH1 0x40 PUSH1 0x0 KECCAK256 ADD SLOAD AND PUSH2 0x17F JUMPI JUMPDEST PUSH2 0x179 SWAP1 PUSH2 0xF9B JUMP JUMPDEST DUP4 PUSH2 0x137 JUMP JUMPDEST SWAP2 PUSH2 0x18C PUSH2 0x179 SWAP2 PUSH2 0xF9B JUMP JUMPDEST SWAP3 SWAP1 POP PUSH2 0x170 JUMP JUMPDEST PUSH2 0x13C JUMP JUMPDEST DUP7 SLOAD DUP6 MSTORE SWAP6 DUP2 ADD SWAP6 DUP8 SWAP6 POP SWAP1 SWAP4 ADD SWAP3 ADD PUSH2 0x11A JUMP JUMPDEST PUSH1 0x0 DUP1 REVERT JUMPDEST CALLVALUE PUSH2 0x1AE JUMPI PUSH1 0x20 CALLDATASIZE PUSH1 0x3 NOT ADD SLT PUSH2 0x1AE JUMPI PUSH1 0x4 CALLDATALOAD PUSH2 0x1CF PUSH2 0x10B3 JUMP JUMPDEST POP DUP1 ISZERO ISZERO DUP1 PUSH2 0x24F JUMPI JUMPDEST PUSH2 0x1E2 SWAP1 PUSH2 0xFD2 JUMP JUMPDEST PUSH1 0x0 MSTORE PUSH1 0x0 PUSH1 0x20 MSTORE PUSH2 0x24B PUSH1 0x40 PUSH1 0x0 KECCAK256 PUSH1 0xFF PUSH1 0x4 PUSH1 0x40 MLOAD SWAP3 PUSH2 0x203 DUP5 PUSH2 0xDB9 JUMP JUMPDEST PUSH1 0x1 PUSH1 0x1 PUSH1 0xA0 SHL SUB DUP2 SLOAD AND DUP5 MSTORE PUSH1 0x1 DUP2 ADD SLOAD PUSH1 0x20 DUP6 ADD MSTORE PUSH1 0x2 DUP2 ADD SLOAD PUSH1 0x40 DUP6 ADD MSTORE PUSH2 0x230 PUSH1 0x3 DUP3 ADD PUSH2 0xE31 JUMP JUMPDEST PUSH1 0x60 DUP6 ADD MSTORE ADD SLOAD AND ISZERO ISZERO PUSH1 0x80 DUP3 ADD MSTORE PUSH1 0x40 MLOAD SWAP2 DUP3 SWAP2 DUP3 PUSH2 0xD6B JUMP JUMPDEST SUB SWAP1 RETURN JUMPDEST POP PUSH1 0x3 SLOAD DUP2 GT ISZERO PUSH2 0x1D9 JUMP JUMPDEST CALLVALUE PUSH2 0x1AE JUMPI PUSH1 0x40 CALLDATASIZE PUSH1 0x3 NOT ADD SLT PUSH2 0x1AE JUMPI PUSH2 0x274 PUSH2 0xD15 JUMP JUMPDEST PUSH1 0x1 PUSH1 0x1 PUSH1 0xA0 SHL SUB PUSH1 0x24 CALLDATALOAD SWAP2 AND PUSH1 0x0 MSTORE PUSH1 0x1 PUSH1 0x20 MSTORE PUSH1 0x40 PUSH1 0x0 KECCAK256 DUP1 SLOAD DUP3 LT ISZERO PUSH2 0x1AE JUMPI PUSH1 0x20 SWAP2 PUSH2 0x2A3 SWAP2 PUSH2 0xED7 JUMP JUMPDEST SWAP1 SLOAD PUSH1 0x40 MLOAD SWAP2 PUSH1 0x3 SHL SHR DUP2 MSTORE RETURN JUMPDEST CALLVALUE PUSH2 0x1AE JUMPI PUSH1 0x20 CALLDATASIZE PUSH1 0x3 NOT ADD SLT PUSH2 0x1AE JUMPI PUSH1 0x4 CALLDATALOAD PUSH1 0x0 MSTORE PUSH1 0x2 PUSH1 0x20 MSTORE PUSH1 0x20 PUSH1 0x40 PUSH1 0x0 KECCAK256 SLOAD PUSH1 0x40 MLOAD SWAP1 DUP2 MSTORE RETURN JUMPDEST CALLVALUE PUSH2 0x1AE JUMPI PUSH1 0x0 CALLDATASIZE PUSH1 0x3 NOT ADD SLT PUSH2 0x1AE JUMPI PUSH1 0x20 PUSH1 0x3 SLOAD PUSH1 0x40 MLOAD SWAP1 DUP2 MSTORE RETURN JUMPDEST CALLVALUE PUSH2 0x1AE JUMPI PUSH1 0x40 CALLDATASIZE PUSH1 0x3 NOT ADD SLT PUSH2 0x1AE JUMPI PUSH1 0x20 PUSH1 0x4 CALLDATALOAD PUSH2 0x319 PUSH2 0xCFF JUMP JUMPDEST SWAP1 DUP1 ISZERO ISZERO DUP1 PUSH2 0x34E JUMPI JUMPDEST PUSH2 0x32C SWAP1 PUSH2 0xFD2 JUMP JUMPDEST PUSH1 0x0 MSTORE PUSH1 0x0 DUP3 MSTORE PUSH1 0x1 PUSH1 0x1 PUSH1 0xA0 SHL SUB DUP1 PUSH1 0x40 PUSH1 0x0 KECCAK256 SLOAD AND SWAP1 PUSH1 0x40 MLOAD SWAP3 AND EQ DUP2 MSTORE RETURN JUMPDEST POP PUSH1 0x3 SLOAD DUP2 GT ISZERO PUSH2 0x323 JUMP JUMPDEST CALLVALUE PUSH2 0x1AE JUMPI PUSH1 0x20 CALLDATASIZE PUSH1 0x3 NOT ADD SLT PUSH2 0x1AE JUMPI PUSH1 0x4 CALLDATALOAD PUSH1 0x0 MSTORE PUSH1 0x0 PUSH1 0x20 MSTORE PUSH1 0x40 PUSH1 0x0 KECCAK256 PUSH1 0x1 PUSH1 0x1 PUSH1 0xA0 SHL SUB DUP2 SLOAD AND PUSH1 0x1 DUP3 ADD SLOAD SWAP2 PUSH2 0x3CD PUSH1 0x2 DUP3 ADD SLOAD SWAP2 PUSH1 0xFF PUSH1 0x4 PUSH2 0x3A5 PUSH1 0x3 DUP5 ADD PUSH2 0xE31 JUMP JUMPDEST SWAP3 ADD SLOAD AND SWAP3 PUSH1 0x40 MLOAD SWAP6 DUP7 SWAP6 DUP7 MSTORE PUSH1 0x20 DUP7 ADD MSTORE PUSH1 0x40 DUP6 ADD MSTORE PUSH1 0xA0 PUSH1 0x60 DUP6 ADD MSTORE PUSH1 0xA0 DUP5 ADD SWAP1 PUSH2 0xD2B JUMP JUMPDEST SWAP1 ISZERO ISZERO PUSH1 0x80 DUP4 ADD MSTORE SUB SWAP1 RETURN JUMPDEST CALLVALUE PUSH2 0x1AE JUMPI PUSH1 0x20 DUP1 PUSH1 0x3 NOT CALLDATASIZE ADD SLT PUSH2 0x1AE JUMPI PUSH1 0x1 PUSH1 0x1 PUSH1 0xA0 SHL SUB PUSH2 0x3FB PUSH2 0xD15 JUMP JUMPDEST AND PUSH1 0x0 MSTORE PUSH1 0x1 SWAP1 DUP2 DUP2 MSTORE PUSH1 0x40 PUSH1 0x0 KECCAK256 SWAP2 PUSH1 0x40 MLOAD SWAP2 DUP3 DUP2 DUP6 SLOAD SWAP2 DUP3 DUP2 MSTORE ADD SWAP1 DUP2 SWAP6 PUSH1 0x0 MSTORE DUP3 PUSH1 0x0 KECCAK256 SWAP1 PUSH1 0x0 JUMPDEST DUP2 DUP2 LT PUSH2 0x474 JUMPI POP POP POP DUP4 PUSH2 0x43C SWAP2 SUB DUP5 PUSH2 0xDD5 JUMP JUMPDEST PUSH1 0x40 MLOAD SWAP3 DUP2 DUP5 ADD SWAP1 DUP3 DUP6 MSTORE MLOAD DUP1 SWAP2 MSTORE PUSH1 0x40 DUP5 ADD SWAP5 SWAP2 PUSH1 0x0 JUMPDEST DUP3 DUP2 LT PUSH2 0x461 JUMPI DUP6 DUP8 SUB DUP7 RETURN JUMPDEST DUP4 MLOAD DUP8 MSTORE SWAP6 DUP2 ADD SWAP6 SWAP3 DUP2 ADD SWAP3 DUP5 ADD PUSH2 0x454 JUMP JUMPDEST DUP3 SLOAD DUP5 MSTORE SWAP3 DUP5 ADD SWAP3 SWAP2 DUP6 ADD SWAP2 DUP6 ADD PUSH2 0x426 JUMP JUMPDEST CALLVALUE PUSH2 0x1AE JUMPI PUSH1 0x40 CALLDATASIZE PUSH1 0x3 NOT ADD SLT PUSH2 0x1AE JUMPI PUSH1 0x24 CALLDATALOAD PUSH8 0xFFFFFFFFFFFFFFFF DUP2 GT PUSH2 0x1AE JUMPI CALLDATASIZE PUSH1 0x23 DUP3 ADD SLT ISZERO PUSH2 0x1AE JUMPI DUP1 PUSH1 0x4 ADD CALLDATALOAD PUSH8 0xFFFFFFFFFFFFFFFF DUP2 GT PUSH2 0x773 JUMPI PUSH1 0x40 MLOAD SWAP2 PUSH2 0x4E1 PUSH1 0x1F DUP4 ADD PUSH1 0x1F NOT AND PUSH1 0x20 ADD DUP5 PUSH2 0xDD5 JUMP JUMPDEST DUP2 DUP4 MSTORE CALLDATASIZE PUSH1 0x24 DUP4 DUP4 ADD ADD GT PUSH2 0x1AE JUMPI DUP2 PUSH1 0x0 SWAP3 PUSH1 0x24 PUSH1 0x20 SWAP4 ADD DUP4 DUP7 ADD CALLDATACOPY DUP4 ADD ADD MSTORE PUSH2 0x50F PUSH1 0x4 CALLDATALOAD ISZERO ISZERO PUSH2 0xF05 JUMP JUMPDEST DUP1 MLOAD ISZERO PUSH2 0x789 JUMPI PUSH1 0x4 CALLDATALOAD PUSH1 0x0 MSTORE PUSH1 0x2 PUSH1 0x20 MSTORE PUSH2 0x530 PUSH1 0x40 PUSH1 0x0 KECCAK256 SLOAD ISZERO PUSH2 0xF50 JUMP JUMPDEST PUSH2 0x53B PUSH1 0x3 SLOAD PUSH2 0xF9B JUMP JUMPDEST SWAP1 DUP2 PUSH1 0x3 SSTORE PUSH1 0x40 MLOAD SWAP2 PUSH2 0x54D DUP4 PUSH2 0xDB9 JUMP JUMPDEST CALLER DUP4 MSTORE PUSH1 0x4 CALLDATALOAD PUSH1 0x20 DUP5 ADD MSTORE TIMESTAMP PUSH1 0x40 DUP5 ADD MSTORE DUP2 PUSH1 0x60 DUP5 ADD MSTORE PUSH1 0x1 PUSH1 0x80 DUP5 ADD MSTORE DUP1 PUSH1 0x0 MSTORE PUSH1 0x0 PUSH1 0x20 MSTORE PUSH1 0x40 PUSH1 0x0 KECCAK256 SWAP2 PUSH1 0x1 PUSH1 0x1 PUSH1 0xA0 SHL SUB DUP5 MLOAD AND PUSH20 0xFFFFFFFFFFFFFFFFFFFFFFFFFFFFFFFFFFFFFFFF NOT DUP5 SLOAD AND OR DUP4 SSTORE PUSH1 0x20 DUP5 ADD MLOAD PUSH1 0x1 DUP5 ADD SSTORE PUSH1 0x40 DUP5 ADD MLOAD PUSH1 0x2 DUP5 ADD SSTORE PUSH1 0x60 DUP5 ADD MLOAD SWAP4 DUP5 MLOAD PUSH8 0xFFFFFFFFFFFFFFFF DUP2 GT PUSH2 0x773 JUMPI PUSH2 0x5D9 PUSH1 0x3 DUP7 ADD SLOAD PUSH2 0xDF7 JUMP JUMPDEST SWAP6 PUSH1 0x1F DUP8 GT PUSH2 0x728 JUMPI JUMPDEST PUSH1 0x20 SWAP7 POP DUP7 SWAP1 PUSH1 0x1F DUP4 GT PUSH1 0x1 EQ PUSH2 0x6B4 JUMPI SWAP6 DUP3 PUSH1 0x80 SWAP4 PUSH1 0x4 SWAP4 DUP9 SWAP10 PUSH1 0x0 SWAP3 PUSH2 0x6A9 JUMPI JUMPDEST POP POP DUP2 PUSH1 0x1 SHL SWAP2 PUSH1 0x0 NOT SWAP1 PUSH1 0x3 SHL SHR NOT AND OR PUSH1 0x3 DUP3 ADD SSTORE JUMPDEST ADD SWAP2 ADD MLOAD ISZERO ISZERO PUSH1 0xFF DUP1 NOT DUP4 SLOAD AND SWAP2 AND OR SWAP1 SSTORE CALLER PUSH1 0x0 MSTORE PUSH1 0x1 DUP5 MSTORE PUSH2 0x646 DUP3 PUSH1 0x40 PUSH1 0x0 KECCAK256 PUSH2 0xFAA JUMP JUMPDEST PUSH1 0x4 CALLDATALOAD PUSH1 0x0 MSTORE PUSH1 0x2 DUP5 MSTORE DUP2 PUSH1 0x40 PUSH1 0x0 KECCAK256 SSTORE PUSH32 0x732DBB13BCB53A4E6BE085BE288D50E705F8F68A958875D1ED9A8A007BFBFE8E PUSH2 0x694 PUSH1 0x40 MLOAD SWAP3 PUSH1 0x4 CALLDATALOAD DUP5 MSTORE PUSH1 0x60 DUP8 DUP6 ADD MSTORE PUSH1 0x60 DUP5 ADD SWAP1 PUSH2 0xD2B JUMP JUMPDEST SWAP2 TIMESTAMP PUSH1 0x40 DUP3 ADD MSTORE DUP1 CALLER SWAP4 SUB SWAP1 LOG3 PUSH1 0x40 MLOAD SWAP1 DUP2 MSTORE RETURN JUMPDEST ADD MLOAD SWAP1 POP DUP11 DUP1 PUSH2 0x606 JUMP JUMPDEST SWAP1 PUSH1 0x3 DUP8 ADD PUSH1 0x0 MSTORE DUP8 PUSH1 0x0 KECCAK256 SWAP2 PUSH1 0x0 JUMPDEST PUSH1 0x1F NOT DUP6 AND DUP2 LT PUSH2 0x711 JUMPI POP DUP4 PUSH1 0x4 SWAP4 DUP9 SWAP10 SWAP4 PUSH1 0x1 SWAP4 PUSH1 0x80 SWAP8 PUSH1 0x1F NOT DUP2 AND LT PUSH2 0x6F8 JUMPI JUMPDEST POP POP POP DUP2 SHL ADD PUSH1 0x3 DUP3 ADD SSTORE PUSH2 0x61E JUMP JUMPDEST ADD MLOAD PUSH1 0x0 NOT PUSH1 0xF8 DUP5 PUSH1 0x3 SHL AND SHR NOT AND SWAP1 SSTORE DUP11 DUP1 DUP1 PUSH2 0x6E8 JUMP JUMPDEST SWAP2 SWAP3 DUP10 PUSH1 0x1 DUP2 SWAP3 DUP7 DUP6 ADD MLOAD DUP2 SSTORE ADD SWAP5 ADD SWAP3 ADD PUSH2 0x6C4 JUMP JUMPDEST PUSH1 0x3 DUP7 ADD PUSH1 0x0 MSTORE PUSH1 0x20 PUSH1 0x0 KECCAK256 PUSH1 0x1F DUP4 ADD PUSH1 0x5 SHR DUP2 ADD SWAP8 PUSH1 0x20 DUP5 LT PUSH2 0x769 JUMPI JUMPDEST PUSH1 0x1F ADD PUSH1 0x5 SHR ADD SWAP7 JUMPDEST DUP8 DUP2 LT PUSH2 0x75D JUMPI POP PUSH2 0x5E3 JUMP JUMPDEST PUSH1 0x0 DUP2 SSTORE PUSH1 0x1 ADD PUSH2 0x750 JUMP JUMPDEST SWAP1 SWAP8 POP DUP8 SWAP1 PUSH2 0x747 JUMP JUMPDEST PUSH4 0x4E487B71 PUSH1 0xE0 SHL PUSH1 0x0 MSTORE PUSH1 0x41 PUSH1 0x4 MSTORE PUSH1 0x24 PUSH1 0x0 REVERT JUMPDEST PUSH1 0x64 PUSH1 0x40 MLOAD PUSH3 0x461BCD PUSH1 0xE5 SHL DUP2 MSTORE PUSH1 0x20 PUSH1 0x4 DUP3 ADD MSTORE PUSH1 0x15 PUSH1 0x24 DUP3 ADD MSTORE PUSH32 0x5469746C652063616E6E6F7420626520656D7074790000000000000000000000 PUSH1 0x44 DUP3 ADD MSTORE REVERT JUMPDEST CALLVALUE PUSH2 0x1AE JUMPI PUSH1 0x20 CALLDATASIZE PUSH1 0x3 NOT ADD SLT PUSH2 0x1AE JUMPI PUSH1 0x60 PUSH1 0x0 DUP1 PUSH1 0x0 SWAP1 PUSH1 0x4 CALLDATALOAD PUSH1 0x0 MSTORE PUSH1 0x2 PUSH1 0x20 MSTORE PUSH1 0x40 PUSH1 0x0 KECCAK256 SLOAD DUP1 PUSH2 0x816 JUMPI JUMPDEST POP PUSH1 0x40 MLOAD SWAP3 ISZERO ISZERO DUP4 MSTORE ISZERO ISZERO PUSH1 0x20 DUP4 ADD MSTORE ISZERO ISZERO PUSH1 0x40 DUP3 ADD MSTORE RETURN JUMPDEST SWAP3 POP POP POP PUSH1 0x1 SWAP1 PUSH1 0x0 MSTORE PUSH1 0x0 PUSH1 0x20 MSTORE PUSH1 0x40 PUSH1 0x0 KECCAK256 PUSH1 0xFF PUSH1 0x4 PUSH1 0x1 PUSH1 0x1 PUSH1 0xA0 SHL SUB DUP4 SLOAD AND CALLER EQ SWAP3 ADD SLOAD AND SWAP1 DUP5 PUSH2 0x7FD JUMP JUMPDEST CALLVALUE PUSH2 0x1AE JUMPI PUSH1 0x20 CALLDATASIZE PUSH1 0x3 NOT ADD SLT PUSH2 0x1AE JUMPI PUSH1 0x4 CALLDATALOAD PUSH1 0x0 MSTORE PUSH1 0x0 PUSH1 0x20 MSTORE PUSH1 0x20 PUSH1 0x1 PUSH1 0x1 PUSH1 0xA0 SHL SUB PUSH1 0x40 PUSH1 0x0 KECCAK256 SLOAD AND PUSH1 0x40 MLOAD SWAP1 CALLER EQ DUP2 MSTORE RETURN JUMPDEST CALLVALUE PUSH2 0x1AE JUMPI PUSH1 0x20 CALLDATASIZE PUSH1 0x3 NOT ADD SLT PUSH2 0x1AE JUMPI PUSH2 0x896 PUSH2 0x10B3 JUMP JUMPDEST POP PUSH1 0x4 CALLDATALOAD PUSH1 0x0 MSTORE PUSH1 0x2 PUSH1 0x20 MSTORE PUSH1 0x40 PUSH1 0x0 KECCAK256 SLOAD PUSH2 0x1E2 DUP2 ISZERO ISZERO PUSH2 0xFD2 JUMP JUMPDEST CALLVALUE PUSH2 0x1AE JUMPI PUSH1 0x40 CALLDATASIZE PUSH1 0x3 NOT ADD SLT PUSH2 0x1AE JUMPI PUSH1 0x4 CALLDATALOAD PUSH2 0x8CF PUSH2 0xCFF JUMP JUMPDEST DUP2 ISZERO ISZERO DUP1 PUSH2 0xB1A JUMPI JUMPDEST PUSH2 0x8E1 SWAP1 PUSH2 0xFD2 JUMP JUMPDEST DUP2 PUSH1 0x0 MSTORE PUSH1 0x20 SWAP1 PUSH1 0x0 DUP3 MSTORE PUSH1 0x1 PUSH1 0x1 PUSH1 0xA0 SHL SUB DUP1 SWAP2 PUSH2 0x908 DUP3 PUSH1 0x40 PUSH1 0x0 KECCAK256 SLOAD AND CALLER EQ PUSH2 0x101D JUMP JUMPDEST DUP5 PUSH1 0x0 MSTORE PUSH1 0x0 DUP5 MSTORE PUSH2 0x924 PUSH1 0xFF PUSH1 0x4 PUSH1 0x40 PUSH1 0x0 KECCAK256 ADD SLOAD AND PUSH2 0x1068 JUMP JUMPDEST AND SWAP3 DUP4 ISZERO PUSH2 0xAD6 JUMPI CALLER DUP5 EQ PUSH2 0xA92 JUMPI DUP1 PUSH1 0x0 MSTORE PUSH1 0x0 DUP4 MSTORE PUSH1 0x40 PUSH1 0x0 KECCAK256 DUP5 PUSH20 0xFFFFFFFFFFFFFFFFFFFFFFFFFFFFFFFFFFFFFFFF NOT DUP3 SLOAD SWAP5 DUP6 AND SWAP5 AND OR SWAP1 SSTORE DUP4 PUSH1 0x0 MSTORE PUSH1 0x1 DUP4 DUP2 DUP1 SWAP6 MSTORE PUSH2 0x97A DUP4 PUSH1 0x40 PUSH1 0x0 KECCAK256 PUSH2 0xFAA JUMP JUMPDEST DUP4 PUSH1 0x0 MSTORE MSTORE PUSH1 0x40 PUSH1 0x0 KECCAK256 DUP4 PUSH1 0x0 SWAP1 JUMPDEST PUSH2 0x9B8 JUMPI JUMPDEST DUP6 DUP5 DUP5 PUSH32 0x16B85F49BF01212961345D3016C9A531894ACCF62EB7680F2045D79185CC0EC0 PUSH1 0x0 DUP1 LOG4 STOP JUMPDEST DUP2 SLOAD DUP1 DUP3 LT ISZERO PUSH2 0xA8C JUMPI DUP4 SWAP1 PUSH2 0x9CE DUP4 DUP6 PUSH2 0xED7 JUMP JUMPDEST SWAP3 SWAP1 SLOAD PUSH1 0x3 SWAP4 DUP5 SHL SHR EQ PUSH2 0x9ED JUMPI POP POP PUSH2 0x9E7 SWAP1 PUSH2 0xF9B JUMP JUMPDEST DUP5 PUSH2 0x989 JUMP JUMPDEST SWAP5 SWAP6 POP SWAP3 SWAP4 PUSH1 0x0 NOT SWAP2 DUP3 DUP3 ADD SWAP2 DUP3 GT PUSH2 0xA76 JUMPI PUSH2 0xA1D PUSH2 0xA10 PUSH2 0xA36 SWAP4 DUP7 PUSH2 0xED7 JUMP JUMPDEST SWAP1 SLOAD SWAP1 DUP8 SHL SHR SWAP2 DUP6 PUSH2 0xED7 JUMP JUMPDEST SWAP1 SWAP2 SWAP1 DUP3 SLOAD SWAP1 PUSH1 0x3 SHL SWAP2 DUP3 SHL SWAP2 PUSH1 0x0 NOT SWAP1 SHL NOT AND OR SWAP1 SSTORE JUMP JUMPDEST DUP2 SLOAD DUP1 ISZERO PUSH2 0xA60 JUMPI DUP2 ADD SWAP3 PUSH2 0xA4B DUP5 DUP5 PUSH2 0xED7 JUMP JUMPDEST DUP2 SWAP4 SWAP2 SLOAD SWAP3 SHL SHL NOT AND SWAP1 SSTORE SSTORE DUP2 SWAP1 DUP5 DUP1 PUSH2 0x98E JUMP JUMPDEST PUSH4 0x4E487B71 PUSH1 0xE0 SHL PUSH1 0x0 MSTORE PUSH1 0x31 PUSH1 0x4 MSTORE PUSH1 0x24 PUSH1 0x0 REVERT JUMPDEST PUSH4 0x4E487B71 PUSH1 0xE0 SHL PUSH1 0x0 MSTORE PUSH1 0x11 PUSH1 0x4 MSTORE PUSH1 0x24 PUSH1 0x0 REVERT JUMPDEST POP PUSH2 0x98E JUMP JUMPDEST PUSH1 0x64 DUP4 PUSH1 0x40 MLOAD SWAP1 PUSH3 0x461BCD PUSH1 0xE5 SHL DUP3 MSTORE PUSH1 0x4 DUP3 ADD MSTORE PUSH1 0x1B PUSH1 0x24 DUP3 ADD MSTORE PUSH32 0x43616E6E6F74207472616E7366657220746F20796F757273656C660000000000 PUSH1 0x44 DUP3 ADD MSTORE REVERT JUMPDEST PUSH1 0x64 DUP4 PUSH1 0x40 MLOAD SWAP1 PUSH3 0x461BCD PUSH1 0xE5 SHL DUP3 MSTORE PUSH1 0x4 DUP3 ADD MSTORE PUSH1 0x1F PUSH1 0x24 DUP3 ADD MSTORE PUSH32 0x43616E6E6F74207472616E7366657220746F207A65726F206164647265737300 PUSH1 0x44 DUP3 ADD MSTORE REVERT JUMPDEST POP PUSH1 0x3 SLOAD DUP3 GT ISZERO PUSH2 0x8D8 JUMP JUMPDEST CALLVALUE PUSH2 0x1AE JUMPI PUSH1 0x20 DUP1 PUSH1 0x3 NOT CALLDATASIZE ADD SLT PUSH2 0x1AE JUMPI PUSH1 0x4 CALLDATALOAD SWAP1 DUP2 ISZERO ISZERO DUP1 PUSH2 0xBE3 JUMPI JUMPDEST PUSH2 0xB4E SWAP1 PUSH2 0xFD2 JUMP JUMPDEST DUP2 PUSH1 0x0 MSTORE PUSH1 0x0 DUP2 MSTORE PUSH2 0xB6F PUSH1 0x1 PUSH1 0x1 PUSH1 0xA0 SHL SUB PUSH1 0x40 PUSH1 0x0 KECCAK256 SLOAD AND CALLER EQ PUSH2 0x101D JUMP JUMPDEST DUP2 PUSH1 0x0 MSTORE PUSH1 0x0 DUP2 MSTORE PUSH2 0xB8B PUSH1 0xFF PUSH1 0x4 PUSH1 0x40 PUSH1 0x0 KECCAK256 ADD SLOAD AND PUSH2 0x1068 JUMP JUMPDEST DUP2 PUSH1 0x0 MSTORE PUSH1 0x0 DUP2 MSTORE PUSH1 0x1 PUSH1 0x40 PUSH1 0x0 KECCAK256 PUSH1 0x4 DUP2 ADD PUSH1 0xFF NOT DUP2 SLOAD AND SWAP1 SSTORE ADD SLOAD PUSH1 0x0 MSTORE PUSH1 0x2 DUP2 MSTORE PUSH1 0x0 PUSH1 0x40 DUP2 KECCAK256 SSTORE PUSH32 0xA6CE03BE5D75AE83D219243D923DA4FDDD2263C8C6427891615D2492F9B6490F PUSH1 0x40 MLOAD SWAP2 TIMESTAMP DUP4 MSTORE CALLER SWAP3 LOG3 STOP JUMPDEST POP PUSH1 0x3 SLOAD DUP3 GT ISZERO PUSH2 0xB45 JUMP JUMPDEST CALLVALUE PUSH2 0x1AE JUMPI PUSH1 0x40 CALLDATASIZE PUSH1 0x3 NOT ADD SLT PUSH2 0x1AE JUMPI PUSH1 0x4 CALLDATALOAD PUSH1 0x24 CALLDATALOAD DUP2 ISZERO ISZERO DUP1 PUSH2 0xCF3 JUMPI JUMPDEST PUSH2 0xC18 SWAP1 PUSH2 0xFD2 JUMP JUMPDEST DUP2 PUSH1 0x0 MSTORE PUSH1 0x20 PUSH1 0x0 DUP2 MSTORE PUSH2 0xC3B PUSH1 0x1 PUSH1 0x1 PUSH1 0xA0 SHL SUB PUSH1 0x40 PUSH1 0x0 KECCAK256 SLOAD AND CALLER EQ PUSH2 0x101D JUMP JUMPDEST DUP3 PUSH1 0x0 MSTORE PUSH1 0x0 DUP2 MSTORE PUSH2 0xC57 PUSH1 0xFF PUSH1 0x4 PUSH1 0x40 PUSH1 0x0 KECCAK256 ADD SLOAD AND PUSH2 0x1068 JUMP JUMPDEST PUSH2 0xC62 DUP3 ISZERO ISZERO PUSH2 0xF05 JUMP JUMPDEST DUP2 PUSH1 0x0 MSTORE PUSH1 0x2 DUP2 MSTORE PUSH2 0xC79 PUSH1 0x40 PUSH1 0x0 KECCAK256 SLOAD ISZERO PUSH2 0xF50 JUMP JUMPDEST DUP3 PUSH1 0x0 MSTORE PUSH1 0x0 DUP2 MSTORE PUSH1 0x1 PUSH1 0x40 PUSH1 0x0 KECCAK256 ADD SLOAD PUSH1 0x0 MSTORE PUSH1 0x2 DUP2 MSTORE PUSH1 0x0 PUSH1 0x40 DUP2 KECCAK256 SSTORE DUP3 PUSH1 0x0 MSTORE PUSH1 0x0 DUP2 MSTORE PUSH1 0x40 PUSH1 0x0 KECCAK256 DUP3 PUSH1 0x1 DUP3 ADD SSTORE PUSH1 0x2 TIMESTAMP SWAP2 ADD SSTORE DUP2 PUSH1 0x0 MSTORE PUSH1 0x2 DUP2 MSTORE DUP3 PUSH1 0x40 PUSH1 0x0 KECCAK256 SSTORE PUSH1 0x40 MLOAD SWAP2 DUP3 MSTORE TIMESTAMP SWAP1 DUP3 ADD MSTORE PUSH32 0x50F2B41364885AB267CC890D61657DEF298F540B0CF476CC2BEC5137AF047F3D PUSH1 0x40 CALLER SWAP3 LOG3 STOP JUMPDEST POP PUSH1 0x3 SLOAD DUP3 GT ISZERO PUSH2 0xC0F JUMP JUMPDEST PUSH1 0x24 CALLDATALOAD SWAP1 PUSH1 0x1 PUSH1 0x1 PUSH1 0xA0 SHL SUB DUP3 AND DUP3 SUB PUSH2 0x1AE JUMPI JUMP JUMPDEST PUSH1 0x4 CALLDATALOAD SWAP1 PUSH1 0x1 PUSH1 0x1 PUSH1 0xA0 SHL SUB DUP3 AND DUP3 SUB PUSH2 0x1AE JUMPI JUMP JUMPDEST SWAP2 SWAP1 DUP3 MLOAD SWAP3 DUP4 DUP3 MSTORE PUSH1 0x0 JUMPDEST DUP5 DUP2 LT PUSH2 0xD57 JUMPI POP POP DUP3 PUSH1 0x0 PUSH1 0x20 DUP1 SWAP5 SWAP6 DUP5 ADD ADD MSTORE PUSH1 0x1F DUP1 NOT SWAP2 ADD AND ADD ADD SWAP1 JUMP JUMPDEST PUSH1 0x20 DUP2 DUP4 ADD DUP2 ADD MLOAD DUP5 DUP4 ADD DUP3 ADD MSTORE ADD PUSH2 0xD36 JUMP JUMPDEST PUSH1 0x20 DUP2 MSTORE PUSH1 0x1 PUSH1 0x1 PUSH1 0xA0 SHL SUB DUP3 MLOAD AND PUSH1 0x20 DUP3 ADD MSTORE PUSH1 0x20 DUP3 ADD MLOAD PUSH1 0x40 DUP3 ADD MSTORE PUSH1 0x40 DUP3 ADD MLOAD PUSH1 0x60 DUP3 ADD MSTORE PUSH1 0xA0 PUSH1 0x80 PUSH2 0xDAE PUSH1 0x60 DUP6 ADD MLOAD DUP4 DUP4 DUP7 ADD MSTORE PUSH1 0xC0 DUP6 ADD SWAP1 PUSH2 0xD2B JUMP JUMPDEST SWAP4 ADD MLOAD ISZERO ISZERO SWAP2 ADD MSTORE SWAP1 JUMP JUMPDEST PUSH1 0xA0 DUP2 ADD SWAP1 DUP2 LT PUSH8 0xFFFFFFFFFFFFFFFF DUP3 GT OR PUSH2 0x773 JUMPI PUSH1 0x40 MSTORE JUMP JUMPDEST SWAP1 PUSH1 0x1F DUP1 NOT SWAP2 ADD AND DUP2 ADD SWAP1 DUP2 LT PUSH8 0xFFFFFFFFFFFFFFFF DUP3 GT OR PUSH2 0x773 JUMPI PUSH1 0x40 MSTORE JUMP JUMPDEST SWAP1 PUSH1 0x1 DUP3 DUP2 SHR SWAP3 AND DUP1 ISZERO PUSH2 0xE27 JUMPI JUMPDEST PUSH1 0x20 DUP4 LT EQ PUSH2 0xE11 JUMPI JUMP JUMPDEST PUSH4 0x4E487B71 PUSH1 0xE0 SHL PUSH1 0x0 MSTORE PUSH1 0x22 PUSH1 0x4 MSTORE PUSH1 0x24 PUSH1 0x0 REVERT JUMPDEST SWAP2 PUSH1 0x7F AND SWAP2 PUSH2 0xE06 JUMP JUMPDEST SWAP1 PUSH1 0x40 MLOAD SWAP2 DUP3 PUSH1 0x0 DUP3 SLOAD SWAP3 PUSH2 0xE45 DUP5 PUSH2 0xDF7 JUMP JUMPDEST SWAP1 DUP2 DUP5 MSTORE PUSH1 0x1 SWAP5 DUP6 DUP2 AND SWAP1 DUP2 PUSH1 0x0 EQ PUSH2 0xEB4 JUMPI POP PUSH1 0x1 EQ PUSH2 0xE71 JUMPI JUMPDEST POP POP PUSH2 0xE6F SWAP3 POP SUB DUP4 PUSH2 0xDD5 JUMP JUMPDEST JUMP JUMPDEST SWAP1 SWAP4 SWAP2 POP PUSH1 0x0 MSTORE PUSH1 0x20 SWAP1 DUP2 PUSH1 0x0 KECCAK256 SWAP4 PUSH1 0x0 SWAP2 JUMPDEST DUP2 DUP4 LT PUSH2 0xE9C JUMPI POP POP PUSH2 0xE6F SWAP4 POP DUP3 ADD ADD CODESIZE DUP1 PUSH2 0xE61 JUMP JUMPDEST DUP6 SLOAD DUP9 DUP5 ADD DUP6 ADD MSTORE SWAP5 DUP6 ADD SWAP5 DUP8 SWAP5 POP SWAP2 DUP4 ADD SWAP2 PUSH2 0xE84 JUMP JUMPDEST SWAP2 POP POP PUSH2 0xE6F SWAP5 POP PUSH1 0x20 SWAP3 POP PUSH1 0xFF NOT AND DUP3 DUP5 ADD MSTORE ISZERO ISZERO PUSH1 0x5 SHL DUP3 ADD ADD CODESIZE DUP1 PUSH2 0xE61 JUMP JUMPDEST DUP1 SLOAD DUP3 LT ISZERO PUSH2 0xEEF JUMPI PUSH1 0x0 MSTORE PUSH1 0x20 PUSH1 0x0 KECCAK256 ADD SWAP1 PUSH1 0x0 SWAP1 JUMP JUMPDEST PUSH4 0x4E487B71 PUSH1 0xE0 SHL PUSH1 0x0 MSTORE PUSH1 0x32 PUSH1 0x4 MSTORE PUSH1 0x24 PUSH1 0x0 REVERT JUMPDEST ISZERO PUSH2 0xF0C JUMPI JUMP JUMPDEST PUSH1 0x64 PUSH1 0x40 MLOAD PUSH3 0x461BCD PUSH1 0xE5 SHL DUP2 MSTORE PUSH1 0x20 PUSH1 0x4 DUP3 ADD MSTORE PUSH1 0x14 PUSH1 0x24 DUP3 ADD MSTORE PUSH32 0x486173682063616E6E6F7420626520656D707479000000000000000000000000 PUSH1 0x44 DUP3 ADD MSTORE REVERT JUMPDEST ISZERO PUSH2 0xF57 JUMPI JUMP JUMPDEST PUSH1 0x64 PUSH1 0x40 MLOAD PUSH3 0x461BCD PUSH1 0xE5 SHL DUP2 MSTORE PUSH1 0x20 PUSH1 0x4 DUP3 ADD MSTORE PUSH1 0x18 PUSH1 0x24 DUP3 ADD MSTORE PUSH32 0x4E6F7465206861736820616C7265616479206578697374730000000000000000 PUSH1 0x44 DUP3 ADD MSTORE REVERT JUMPDEST PUSH1 0x0 NOT DUP2 EQ PUSH2 0xA76 JUMPI PUSH1 0x1 ADD SWAP1 JUMP JUMPDEST SWAP1 DUP2 SLOAD SWAP2 PUSH9 0x10000000000000000 DUP4 LT ISZERO PUSH2 0x773 JUMPI DUP3 PUSH2 0xA1D SWAP2 PUSH1 0x1 PUSH2 0xE6F SWAP6 ADD DUP2 SSTORE PUSH2 0xED7 JUMP JUMPDEST ISZERO PUSH2 0xFD9 JUMPI JUMP JUMPDEST PUSH1 0x64 PUSH1 0x40 MLOAD PUSH3 0x461BCD PUSH1 0xE5 SHL DUP2 MSTORE PUSH1 0x20 PUSH1 0x4 DUP3 ADD MSTORE PUSH1 0x13 PUSH1 0x24 DUP3 ADD MSTORE PUSH32 0x4E6F746520646F6573206E6F7420657869737400000000000000000000000000 PUSH1 0x44 DUP3 ADD MSTORE REVERT JUMPDEST ISZERO PUSH2 0x1024 JUMPI JUMP JUMPDEST PUSH1 0x64 PUSH1 0x40 MLOAD PUSH3 0x461BCD PUSH1 0xE5 SHL DUP2 MSTORE PUSH1 0x20 PUSH1 0x4 DUP3 ADD MSTORE PUSH1 0x1A PUSH1 0x24 DUP3 ADD MSTORE PUSH32 0x4E6F7420746865206F776E6572206F662074686973206E6F7465000000000000 PUSH1 0x44 DUP3 ADD MSTORE REVERT JUMPDEST ISZERO PUSH2 0x106F JUMPI JUMP JUMPDEST PUSH1 0x64 PUSH1 0x40 MLOAD PUSH3 0x461BCD PUSH1 0xE5 SHL DUP2 MSTORE PUSH1 0x20 PUSH1 0x4 DUP3 ADD MSTORE PUSH1 0x12 PUSH1 0x24 DUP3 ADD MSTORE PUSH32 0x4E6F7465206973206E6F74206163746976650000000000000000000000000000 PUSH1 0x44 DUP3 ADD MSTORE REVERT JUMPDEST PUSH1 0x40 MLOAD SWAP1 PUSH2 0x10C0 DUP3 PUSH2 0xDB9 JUMP JUMPDEST PUSH1 0x0 PUSH1 0x80 DUP4 DUP3 DUP2 MSTORE DUP3 PUSH1 0x20 DUP3 ADD MSTORE DUP3 PUSH1 0x40 DUP3 ADD MSTORE PUSH1 0x60 DUP1 DUP3 ADD MSTORE ADD MSTORE JUMP INVALID LOG2 PUSH5 0x6970667358 0x22 SLT KECCAK256 TIMESTAMP CALLER SMOD SWAP3 0xCB SWAP10 RETURN PUSH6 0xF163A6F58E0F ADDMOD 0xBE 0xCB CHAINID LOG1 0xE1 EXTCODESIZE 0x5F 0xF7 CODECOPY PUSH28 0xB63B8D2173081B64736F6C6343000813003300000000000000000000 "},"methodIdentifiers":{"deactivateNote(uint256)":"233833ca","getActiveNoteCount(address)":"e153c558","getNote(uint256)":"a965a941","getNoteByHash(bytes32)":"2d29c2f9","getNotesByOwner(address)":"570a3b27","getTotalNoteCount()":"8e133f70","hashToNoteId(bytes32)":"96fa9022","isNoteOwner(uint256,address)":"67c3a914","isOwner(uint256)":"39c7639c","noteCount()":"317a4c76","notes(uint256)":"61c3a7e6","ownerNotes(address,uint256)":"a6d52e3d","registerNote(bytes32,string)":"54cb06d1","transferOwnership(uint256,address)":"29507f73","updateNote(uint256,bytes32)":"16d06cc1","verifyNote(bytes32)":"4e37cfc5"}}}}}