{"contracts/MaliciousReentrant.sol":{"MaliciousReentrant":{"abi":[{"inputs":[],"stateMutability":"nonpayable","type":"constructor"},{"anonymous":false,"inputs":[{"indexed":false,"internalType":"uint256","name":"count","type":"uint256"}],"name":"AttackAttempted","type":"event"},{"inputs":[],"name":"attackCount","outputs":[{"internalType":"uint256","name":"","type":"uint256"}],"stateMutability":"view","type":"function"},{"inputs":[],"name":"attackStarted","outputs":[{"internalType":"bool","name":"","type":"bool"}],"stateMutability":"view","type":"function"},{"inputs":[{"internalType":"address","name":"_targetContract","type":"address"}],"name":"attemptReentrancy","outputs":[],"stateMutability":"nonpayable","type":"function"},{"inputs":[],"name":"resetAttack","outputs":[],"stateMutability":"nonpayable","type":"function"},{"inputs":[],"name":"targetContract","outputs":[{"internalType":"contract ModuloToken","name":"","type":"address"}],"stateMutability":"view","type":"function"},{"inputs":[],"name":"wasAttackSuccessful","outputs":[{"internalType":"bool","name":"","type":"bool"}],"stateMutability":"view","type":"function"},{"stateMutability":"payable","type":"receive"}],"evm":{"bytecode":{"linkReferences":{},"object":"608080604052346100285760006001819055805460ff60a01b19169055610380908161002e8239f35b600080fdfe6080806040526004361015610046575b50361561001b57600080fd5b60ff60005460a01c168061003a575b61003057005b61003861026a565b005b5060036001541061002a565b600090813560e01c9081630f0147dc1461020257816316bc6e29146101e057508063407c2821146101c2578063bd90df701461018f578063c6f9d522146100b85763d18ce4010361000f57346100b557806003193601126100b55760ff6020915460a01c166040519015158152f35b80fd5b50346100b55760203660031901126100b5578060043573ffffffffffffffffffffffffffffffffffffffff9081811680910361018b5774010000000000000000000000000000000000000000907fffffffffffffffffffffff00000000000000000000000000000000000000000084541617178083558260015516803b156101885781906044604051809581936340c10f1960e01b8352306004840152606460248401525af19182610179575b509061016e5780f35b61017661026a565b80f35b61018290610240565b38610165565b50fd5b5050fd5b50346100b557806003193601126100b55773ffffffffffffffffffffffffffffffffffffffff6020915416604051908152f35b50346100b557806003193601126100b5576020600154604051908152f35b9050346101fe57816003193601126101fe5760209060018054118152f35b5080fd5b82346100b557806003193601126100b5577fffffffffffffffffffffff00ffffffffffffffffffffffffffffffffffffffff81541681558060015580f35b67ffffffffffffffff811161025457604052565b634e487b7160e01b600052604160045260246000fd5b6000805460ff8160a01c168061033e575b610283575050565b600154600019811461032a57907f9de7696c1ddde10847858955a8530cc578ad5b8a8887b231fad51acf0a4cfa0a6020600173ffffffffffffffffffffffffffffffffffffffff940180600155604051908152a116803b156101fe578180916044604051809581936340c10f1960e01b8352306004840152606460248401525af190811561031e57506103135750565b61031c90610240565b565b604051903d90823e3d90fd5b602483634e487b7160e01b81526011600452fd5b5060036001541061027b56fea26469706673582212208d68eebe23392174bc2ad42f49c007e9f5bf9637109f8fd4ab237bc583195fea64736f6c63430008130033","opcodes":"PUSH1 0x80 DUP1 PUSH1 0x40 MSTORE CALLVALUE PUSH2 0x28 JUMPI PUSH1 0x0 PUSH1 0x1 DUP2 SWAP1 SSTORE DUP1 SLOAD PUSH1 0xFF PUSH1 0xA0 SHL NOT AND SWAP1 SSTORE PUSH2 0x380 SWAP1 DUP2 PUSH2 0x2E DUP3 CODECOPY RETURN JUMPDEST PUSH1 0x0 DUP1 REVERT INVALID PUSH1 0x80 DUP1 PUSH1 0x40 MSTORE PUSH1 0x4 CALLDATASIZE LT ISZERO PUSH2 0x46 JUMPI JUMPDEST POP CALLDATASIZE ISZERO PUSH2 0x1B JUMPI PUSH1 0x0 DUP1 REVERT JUMPDEST PUSH1 0xFF PUSH1 0x0 SLOAD PUSH1 0xA0 SHR AND DUP1 PUSH2 0x3A JUMPI JUMPDEST PUSH2 0x30 JUMPI STOP JUMPDEST PUSH2 0x38 PUSH2 0x26A JUMP JUMPDEST STOP JUMPDEST POP PUSH1 0x3 PUSH1 0x1 SLOAD LT PUSH2 0x2A JUMP JUMPDEST PUSH1 0x0 SWAP1 DUP2 CALLDATALOAD PUSH1 0xE0 SHR SWAP1 DUP2 PUSH4 0xF0147DC EQ PUSH2 0x202 JUMPI DUP2 PUSH4 0x16BC6E29 EQ PUSH2 0x1E0 JUMPI POP DUP1 PUSH4 0x407C2821 EQ PUSH2 0x1C2 JUMPI DUP1 PUSH4 0xBD90DF70 EQ PUSH2 0x18F JUMPI DUP1 PUSH4 0xC6F9D522 EQ PUSH2 0xB8 JUMPI PUSH4 0xD18CE401 SUB PUSH2 0xF JUMPI CALLVALUE PUSH2 0xB5 JUMPI DUP1 PUSH1 0x3 NOT CALLDATASIZE ADD SLT PUSH2 0xB5 JUMPI PUSH1 0xFF PUSH1 0x20 SWAP2 SLOAD PUSH1 0xA0 SHR AND PUSH1 0x40 MLOAD SWAP1 ISZERO ISZERO DUP2 MSTORE RETURN JUMPDEST DUP1 REVERT JUMPDEST POP CALLVALUE PUSH2 0xB5 JUMPI PUSH1 0x20 CALLDATASIZE PUSH1 0x3 NOT ADD SLT PUSH2 0xB5 JUMPI DUP1 PUSH1 0x4 CALLDATALOAD PUSH20 0xFFFFFFFFFFFFFFFFFFFFFFFFFFFFFFFFFFFFFFFF SWAP1 DUP2 DUP2 AND DUP1 SWAP2 SUB PUSH2 0x18B JUMPI PUSH21 0x10000000000000000000000000000000000000000 SWAP1 PUSH32 0xFFFFFFFFFFFFFFFFFFFFFF000000000000000000000000000000000000000000 DUP5 SLOAD AND OR OR DUP1 DUP4 SSTORE DUP3 PUSH1 0x1 SSTORE AND DUP1 EXTCODESIZE ISZERO PUSH2 0x188 JUMPI DUP2 SWAP1 PUSH1 0x44 PUSH1 0x40 MLOAD DUP1 SWAP6 DUP2 SWAP4 PUSH4 0x40C10F19 PUSH1 0xE0 SHL DUP4 MSTORE ADDRESS PUSH1 0x4 DUP5 ADD MSTORE PUSH1 0x64 PUSH1 0x24 DUP5 ADD MSTORE GAS CALL SWAP2 DUP3 PUSH2 0x179 JUMPI JUMPDEST POP SWAP1 PUSH2 0x16E JUMPI DUP1 RETURN JUMPDEST PUSH2 0x176 PUSH2 0x26A JUMP JUMPDEST DUP1 RETURN JUMPDEST PUSH2 0x182 SWAP1 PUSH2 0x240 JUMP JUMPDEST CODESIZE PUSH2 0x165 JUMP JUMPDEST POP REVERT JUMPDEST POP POP REVERT JUMPDEST POP CALLVALUE PUSH2 0xB5 JUMPI DUP1 PUSH1 0x3 NOT CALLDATASIZE ADD SLT PUSH2 0xB5 JUMPI PUSH20 0xFFFFFFFFFFFFFFFFFFFFFFFFFFFFFFFFFFFFFFFF PUSH1 0x20 SWAP2 SLOAD AND PUSH1 0x40 MLOAD SWAP1 DUP2 MSTORE RETURN JUMPDEST POP CALLVALUE PUSH2 0xB5 JUMPI DUP1 PUSH1 0x3 NOT CALLDATASIZE ADD SLT PUSH2 0xB5 JUMPI PUSH1 0x20 PUSH1 0x1 SLOAD PUSH1 0x40 MLOAD SWAP1 DUP2 MSTORE RETURN JUMPDEST SWAP1 POP CALLVALUE PUSH2 0x1FE JUMPI DUP2 PUSH1 0x3 NOT CALLDATASIZE ADD SLT PUSH2 0x1FE JUMPI PUSH1 0x20 SWAP1 PUSH1 0x1 DUP1 SLOAD GT DUP2 MSTORE RETURN JUMPDEST POP DUP1 REVERT JUMPDEST DUP3 CALLVALUE PUSH2 0xB5 JUMPI DUP1 PUSH1 0x3 NOT CALLDATASIZE ADD SLT PUSH2 0xB5 JUMPI PUSH32 0xFFFFFFFFFFFFFFFFFFFFFF00FFFFFFFFFFFFFFFFFFFFFFFFFFFFFFFFFFFFFFFF DUP2 SLOAD AND DUP2 SSTORE DUP1 PUSH1 0x1 SSTORE DUP1 RETURN JUMPDEST PUSH8 0xFFFFFFFFFFFFFFFF DUP2 GT PUSH2 0x254 JUMPI PUSH1 0x40 MSTORE JUMP JUMPDEST PUSH4 0x4E487B71 PUSH1 0xE0 SHL PUSH1 0x0 MSTORE PUSH1 0x41 PUSH1 0x4 MSTORE PUSH1 0x24 PUSH1 0x0 REVERT JUMPDEST PUSH1 0x0 DUP1 SLOAD PUSH1 0xFF DUP2 PUSH1 0xA0 SHR AND DUP1 PUSH2 0x33E JUMPI JUMPDEST PUSH2 0x283 JUMPI POP POP JUMP JUMPDEST PUSH1 0x1 SLOAD PUSH1 0x0 NOT DUP2 EQ PUSH2 0x32A JUMPI SWAP1 PUSH32 0x9DE7696C1DDDE10847858955A8530CC578AD5B8A8887B231FAD51ACF0A4CFA0A PUSH1 0x20 PUSH1 0x1 PUSH20 0xFFFFFFFFFFFFFFFFFFFFFFFFFFFFFFFFFFFFFFFF SWAP5 ADD DUP1 PUSH1 0x1 SSTORE PUSH1 0x40 MLOAD SWAP1 DUP2 MSTORE LOG1 AND DUP1 EXTCODESIZE ISZERO PUSH2 0x1FE JUMPI DUP2 DUP1 SWAP2 PUSH1 0x44 PUSH1 0x40 MLOAD DUP1 SWAP6 DUP2 SWAP4 PUSH4 0x40C10F19 PUSH1 0xE0 SHL DUP4 MSTORE ADDRESS PUSH1 0x4 DUP5 ADD MSTORE PUSH1 0x64 PUSH1 0x24 DUP5 ADD MSTORE GAS CALL SWAP1 DUP2 ISZERO PUSH2 0x31E JUMPI POP PUSH2 0x313 JUMPI POP JUMP JUMPDEST PUSH2 0x31C SWAP1 PUSH2 0x240 JUMP JUMPDEST JUMP JUMPDEST PUSH1 0x40 MLOAD SWAP1 RETURNDATASIZE SWAP1 DUP3 RETURNDATACOPY RETURNDATASIZE SWAP1 REVERT JUMPDEST PUSH1 0x24 DUP4 PUSH4 0x4E487B71 PUSH1 0xE0 SHL DUP2 MSTORE PUSH1 0x11 PUSH1 0x4 MSTORE REVERT JUMPDEST POP PUSH1 0x3 PUSH1 0x1 SLOAD LT PUSH2 0x27B JUMP INVALID LOG2 PUSH5 0x6970667358 0x22 SLT KECCAK256 DUP14 PUSH9 0xEEBE23392174BC2AD4 0x2F 0x49 0xC0 SMOD 0xE9 CREATE2 0xBF SWAP7 CALLDATACOPY LT SWAP16 DUP16 0xD4 0xAB 0x23 PUSH28 0xC583195FEA64736F6C63430008130033000000000000000000000000 "},"methodIdentifiers":{"attackCount()":"407c2821","attackStarted()":"d18ce401","attemptReentrancy(address)":"c6f9d522","resetAttack()":"0f0147dc","targetContract()":"bd90df70","wasAttackSuccessful()":"16bc6e29"}}}}}