{"contracts/NoteRegistryOptimized.sol":{"NoteRegistryOptimized":{"abi":[{"inputs":[],"name":"EmptyHash","type":"error"},{"inputs":[],"name":"HashAlreadyExists","type":"error"},{"inputs":[],"name":"InvalidAddress","type":"error"},{"inputs":[],"name":"NotOwner","type":"error"},{"inputs":[],"name":"NoteNotActive","type":"error"},{"inputs":[],"name":"NoteNotFound","type":"error"},{"inputs":[],"name":"SelfTransfer","type":"error"},{"anonymous":false,"inputs":[{"indexed":true,"internalType":"address","name":"owner","type":"address"},{"indexed":true,"internalType":"uint256","name":"noteId","type":"uint256"}],"name":"NoteDeactivated","type":"event"},{"anonymous":false,"inputs":[{"indexed":true,"internalType":"address","name":"owner","type":"address"},{"indexed":true,"internalType":"uint256","name":"noteId","type":"uint256"},{"indexed":true,"internalType":"bytes32","name":"hash","type":"bytes32"},{"indexed":false,"internalType":"uint96","name":"timestamp","type":"uint96"}],"name":"NoteRegistered","type":"event"},{"anonymous":false,"inputs":[{"indexed":true,"internalType":"address","name":"owner","type":"address"},{"indexed":true,"internalType":"uint256","name":"noteId","type":"uint256"},{"indexed":true,"internalType":"bytes32","name":"newHash","type":"bytes32"},{"indexed":false,"internalType":"uint96","name":"timestamp","type":"uint96"}],"name":"NoteUpdated","type":"event"},{"anonymous":false,"inputs":[{"indexed":true,"internalType":"uint256","name":"noteId","type":"uint256"},{"indexed":true,"internalType":"address","name":"previousOwner","type":"address"},{"indexed":true,"internalType":"address","name":"newOwner","type":"address"}],"name":"OwnershipTransferred","type":"event"},{"inputs":[{"internalType":"bytes32[]","name":"hashes","type":"bytes32[]"}],"name":"batchRegisterNotes","outputs":[{"internalType":"uint256[]","name":"noteIds","type":"uint256[]"}],"stateMutability":"nonpayable","type":"function"},{"inputs":[{"internalType":"uint256","name":"noteId","type":"uint256"}],"name":"deactivateNote","outputs":[],"stateMutability":"nonpayable","type":"function"},{"inputs":[{"internalType":"uint256","name":"noteId","type":"uint256"}],"name":"getNote","outputs":[{"components":[{"internalType":"address","name":"owner","type":"address"},{"internalType":"uint96","name":"timestamp","type":"uint96"},{"internalType":"bytes32","name":"hash","type":"bytes32"},{"internalType":"bool","name":"isActive","type":"bool"}],"internalType":"struct NoteRegistryOptimized.Note","name":"note","type":"tuple"}],"stateMutability":"view","type":"function"},{"inputs":[{"internalType":"bytes32","name":"hash","type":"bytes32"}],"name":"getNoteByHash","outputs":[{"components":[{"internalType":"address","name":"owner","type":"address"},{"internalType":"uint96","name":"timestamp","type":"uint96"},{"internalType":"bytes32","name":"hash","type":"bytes32"},{"internalType":"bool","name":"isActive","type":"bool"}],"internalType":"struct NoteRegistryOptimized.Note","name":"note","type":"tuple"}],"stateMutability":"view","type":"function"},{"inputs":[],"name":"getTotalNoteCount","outputs":[{"internalType":"uint256","name":"count","type":"uint256"}],"stateMutability":"view","type":"function"},{"inputs":[{"internalType":"address","name":"user","type":"address"}],"name":"getUserNoteCount","outputs":[{"internalType":"uint256","name":"count","type":"uint256"}],"stateMutability":"view","type":"function"},{"inputs":[{"internalType":"bytes32","name":"","type":"bytes32"}],"name":"hashToNoteId","outputs":[{"internalType":"uint256","name":"","type":"uint256"}],"stateMutability":"view","type":"function"},{"inputs":[],"name":"noteCount","outputs":[{"internalType":"uint256","name":"","type":"uint256"}],"stateMutability":"view","type":"function"},{"inputs":[{"internalType":"uint256","name":"","type":"uint256"}],"name":"notes","outputs":[{"internalType":"address","name":"owner","type":"address"},{"internalType":"uint96","name":"timestamp","type":"uint96"},{"internalType":"bytes32","name":"hash","type":"bytes32"},{"internalType":"bool","name":"isActive","type":"bool"}],"stateMutability":"view","type":"function"},{"inputs":[{"internalType":"address","name":"user","type":"address"},{"internalType":"uint256","name":"noteId","type":"uint256"}],"name":"ownsNote","outputs":[{"internalType":"bool","name":"owns","type":"bool"}],"stateMutability":"view","type":"function"},{"inputs":[{"internalType":"bytes32","name":"hash","type":"bytes32"}],"name":"registerNote","outputs":[{"internalType":"uint256","name":"noteId","type":"uint256"}],"stateMutability":"nonpayable","type":"function"},{"inputs":[{"internalType":"bytes4","name":"interfaceId","type":"bytes4"}],"name":"supportsInterface","outputs":[{"internalType":"bool","name":"supported","type":"bool"}],"stateMutability":"pure","type":"function"},{"inputs":[{"internalType":"uint256","name":"noteId","type":"uint256"},{"internalType":"address","name":"newOwner","type":"address"}],"name":"transferOwnership","outputs":[],"stateMutability":"nonpayable","type":"function"},{"inputs":[{"internalType":"uint256","name":"noteId","type":"uint256"},{"internalType":"bytes32","name":"newHash","type":"bytes32"}],"name":"updateNote","outputs":[],"stateMutability":"nonpayable","type":"function"},{"inputs":[{"internalType":"address","name":"","type":"address"}],"name":"userNoteCount","outputs":[{"internalType":"uint256","name":"","type":"uint256"}],"stateMutability":"view","type":"function"},{"inputs":[{"internalType":"address","name":"","type":"address"},{"internalType":"uint256","name":"","type":"uint256"}],"name":"userOwnsNote","outputs":[{"internalType":"bool","name":"","type":"bool"}],"stateMutability":"view","type":"function"},{"inputs":[{"internalType":"bytes32","name":"hash","type":"bytes32"}],"name":"verifyNote","outputs":[{"internalType":"bool","name":"exists","type":"bool"},{"internalType":"bool","name":"isOwner","type":"bool"},{"internalType":"bool","name":"isActive","type":"bool"}],"stateMutability":"view","type":"function"}],"evm":{"bytecode":{"linkReferences":{},"object":"6080806040523461001657610ca8908161001c8239f35b600080fdfe608060408181526004918236101561001657600080fd5b600092833560e01c91826301ffc9a714610b155750816316d06cc114610a0e578163186ffcc8146109e7578163233833ca1461092857816329507f731461075d5781632d29c2f914610712578163317a4c76146103b45781634e37cfc51461069f57816361c3a7e61461064a57816388e6ba60146103d25781638e133f70146103b45781638fbe7ffe1461027257816396fa90221461038c578163a965a941146102b7578163c07b0e5414610272578163dccc1d8814610119575063f01d06b8146100e057600080fd5b3461011557602036600319011261011557806020926001600160a01b03610105610bb3565b1681526003845220549051908152f35b5080fd5b838334610115576020928360031936011261026e578035908115610260578184526001855282842054610252576101508154610bce565b9384809255836bffffffffffffffffffffffff916101e58342169360028a610176610bf3565b3381528181018881528782018b81526001606084019081528b8952938890528888209251915190951660a01b73ffffffffffffffffffffffffffffffffffffffff19166001600160a01b03919091161781559251600184015551151591019060ff801983541691151516179055565b848152600188528382822055338152600288528181208482528852818120600160ff1982541617905533815260038852206102208154610bce565b905583519081527f9a3edb3e2b9221b1d1a0d07835b31a5b61e8a247617d50c451099784ef84d4f0863392a451908152f35b8251635d63955d60e01b8152fd5b8251631c37cddf60e21b8152fd5b8280fd5b50503461011557806003193601126101155760ff816020936001600160a01b0361029a610bb3565b168152600285528181206024358252855220541690519015158152f35b90503461026e57602036600319011261026e578035906102d5610c36565b5081158015610382575b6103745750828291610370945280602052209060ff60026102fe610bf3565b9380546001600160a01b038116865260a01c602086015260018101548486015201541615156060830152519182918291909160608060808301946001600160a01b0381511684526bffffffffffffffffffffffff60208201511660208501526040810151604085015201511515910152565b0390f35b825163dc0b736360e01b8152fd5b50805482116102df565b90503461026e57602036600319011261026e5760209282913581526001845220549051908152f35b90503461026e578260031936011261026e5760209250549051908152f35b90503461026e576020806003193601126106465781359367ffffffffffffffff92838611610115573660238701121561011557858101359084821161026e57602436818460051b8a01011161064657601f969761042e84610c5a565b895189199990989101891688019081118882101761063457895283875261045484610c5a565b87870198013689376bffffffffffffffffffffffff428116865b8681106104e25750505050338452600385528784209182549384018094116104d157838355885186815287518188018190528190818c01908b908a8a5b8281106104ba57505050500390f35b8351855286955093810193928101926001016104ab565b60118591634e487b7160e01b835252fd5b8060051b85818601013590811561062557908d9291818b52600193848d528b2054610616578b908f8c6105158c54610bce565b93848d558961059f898b61058161052a610bf3565b3381528681019283528881018c8152606082019485528b89528888528989209151935190961660a01b73ffffffffffffffffffffffffffffffffffffffff19166001600160a01b0393909316929092178255909390565b518b84015551151560028093019060ff801983541691151516179055565b86835288825285848420553383528152848383209252528c208560ff198254161790558d51841015610604578f908d8f918492010152518581527f9a3edb3e2b9221b1d1a0d07835b31a5b61e8a247617d50c451099784ef84d4f08d3392a40161046e565b888c60328c634e487b7160e01b835252fd5b888f51635d63955d60e01b8152fd5b878e51631c37cddf60e21b8152fd5b8286604186634e487b7160e01b835252fd5b8380fd5b90503461026e57602036600319011261026e57608092829135815280602052209081549160ff6002600183015492015416918051936001600160a01b038116855260a01c602085015283015215156060820152f35b8383346101155760203660031901126101155760609282808092358152600160205283812054806106e3575b50508251931515845215156020840152151590820152f35b91508394508092505280602052209060019160ff60026001600160a01b038354163314920154169085806106cb565b90503461026e57602036600319011261026e5761072d610c36565b50803583526001602052818320549081156103745750828291610370945280602052209060ff60026102fe610bf3565b9190503461026e578060031936011261026e57813590602435926001600160a01b0390818516809503610924578315801561091a575b61037457838652602091868352838720541633036108f35783865285825260ff6002848820015416156108cc5784156108a55733851461087e57506003908386528581528286208573ffffffffffffffffffffffffffffffffffffffff1982541617905533865260028152828620848752815282862060ff19908181541690558587526002825283872085885282526001848820918254161790553386528181528286206108418154610c29565b90558486525283206108538154610bce565b905533907f16b85f49bf01212961345d3016c9a531894accf62eb7680f2045d79185cc0ec08480a480f35b82517f4d9ecd91000000000000000000000000000000000000000000000000000000008152fd5b82517fe6c4247b000000000000000000000000000000000000000000000000000000008152fd5b82517f61a83aab000000000000000000000000000000000000000000000000000000008152fd5b82517f30cd7471000000000000000000000000000000000000000000000000000000008152fd5b5080548411610793565b8580fd5b9190503461026e5760208060031936011261064657823592831580156109dd575b610374578385528482526001600160a01b03838620541633036108f35783855284825260ff6002848720015416156108cc575060039083855284815260018386206002810160ff198154169055015485526001815284838120553385525282206109b38154610c29565b9055337f2897f7fd85485b0f7623bd8c03d051c84c05b918ae029a2207fda14f660074268380a380f35b5080548411610949565b50503461011557602036600319011261011557806020926001600160a01b03610105610bb3565b9190503461026e578060031936011261026e578135906024359282158015610b0b575b610afd578285526020908582526001600160a01b03838720541633036108f35783865285825260ff6002848820015416156108cc578415610260578486526001825282862054610252575082855284815281852060018082018054885290835283872087905585905580546001600160a01b03164260a01b73ffffffffffffffffffffffffffffffffffffffff19161781557fb630a2e3678f1b4a6b8d3fd5ea875ee537f241c83c754a8242c2378369b8fe9f919085875284848820555460a01c92519283523392a480f35b905163dc0b736360e01b8152fd5b5080548311610a31565b84913461026e57602036600319011261026e57357fffffffff00000000000000000000000000000000000000000000000000000000811680910361026e57602092507f01ffc9a7000000000000000000000000000000000000000000000000000000008114908115610b89575b5015158152f35b7f80ac58cd0000000000000000000000000000000000000000000000000000000091501483610b82565b600435906001600160a01b0382168203610bc957565b600080fd5b6000198114610bdd5760010190565b634e487b7160e01b600052601160045260246000fd5b604051906080820182811067ffffffffffffffff821117610c1357604052565b634e487b7160e01b600052604160045260246000fd5b8015610bdd576000190190565b610c3e610bf3565b9060008252600060208301526000604083015260006060830152565b67ffffffffffffffff8111610c135760051b6020019056fea2646970667358221220974dffb7ba8651ae2f71a7672d7dc05935d2670e477080058a913cd913cac05e64736f6c63430008130033","opcodes":"PUSH1 0x80 DUP1 PUSH1 0x40 MSTORE CALLVALUE PUSH2 0x16 JUMPI PUSH2 0xCA8 SWAP1 DUP2 PUSH2 0x1C DUP3 CODECOPY RETURN JUMPDEST PUSH1 0x0 DUP1 REVERT INVALID PUSH1 0x80 PUSH1 0x40 DUP2 DUP2 MSTORE PUSH1 0x4 SWAP2 DUP3 CALLDATASIZE LT ISZERO PUSH2 0x16 JUMPI PUSH1 0x0 DUP1 REVERT JUMPDEST PUSH1 0x0 SWAP3 DUP4 CALLDATALOAD PUSH1 0xE0 SHR SWAP2 DUP3 PUSH4 0x1FFC9A7 EQ PUSH2 0xB15 JUMPI POP DUP2 PUSH4 0x16D06CC1 EQ PUSH2 0xA0E JUMPI DUP2 PUSH4 0x186FFCC8 EQ PUSH2 0x9E7 JUMPI DUP2 PUSH4 0x233833CA EQ PUSH2 0x928 JUMPI DUP2 PUSH4 0x29507F73 EQ PUSH2 0x75D JUMPI DUP2 PUSH4 0x2D29C2F9 EQ PUSH2 0x712 JUMPI DUP2 PUSH4 0x317A4C76 EQ PUSH2 0x3B4 JUMPI DUP2 PUSH4 0x4E37CFC5 EQ PUSH2 0x69F JUMPI DUP2 PUSH4 0x61C3A7E6 EQ PUSH2 0x64A JUMPI DUP2 PUSH4 0x88E6BA60 EQ PUSH2 0x3D2 JUMPI DUP2 PUSH4 0x8E133F70 EQ PUSH2 0x3B4 JUMPI DUP2 PUSH4 0x8FBE7FFE EQ PUSH2 0x272 JUMPI DUP2 PUSH4 0x96FA9022 EQ PUSH2 0x38C JUMPI DUP2 PUSH4 0xA965A941 EQ PUSH2 0x2B7 JUMPI DUP2 PUSH4 0xC07B0E54 EQ PUSH2 0x272 JUMPI DUP2 PUSH4 0xDCCC1D88 EQ PUSH2 0x119 JUMPI POP PUSH4 0xF01D06B8 EQ PUSH2 0xE0 JUMPI PUSH1 0x0 DUP1 REVERT JUMPDEST CALLVALUE PUSH2 0x115 JUMPI PUSH1 0x20 CALLDATASIZE PUSH1 0x3 NOT ADD SLT PUSH2 0x115 JUMPI DUP1 PUSH1 0x20 SWAP3 PUSH1 0x1 PUSH1 0x1 PUSH1 0xA0 SHL SUB PUSH2 0x105 PUSH2 0xBB3 JUMP JUMPDEST AND DUP2 MSTORE PUSH1 0x3 DUP5 MSTORE KECCAK256 SLOAD SWAP1 MLOAD SWAP1 DUP2 MSTORE RETURN JUMPDEST POP DUP1 REVERT JUMPDEST DUP4 DUP4 CALLVALUE PUSH2 0x115 JUMPI PUSH1 0x20 SWAP3 DUP4 PUSH1 0x3 NOT CALLDATASIZE ADD SLT PUSH2 0x26E JUMPI DUP1 CALLDATALOAD SWAP1 DUP2 ISZERO PUSH2 0x260 JUMPI DUP2 DUP5 MSTORE PUSH1 0x1 DUP6 MSTORE DUP3 DUP5 KECCAK256 SLOAD PUSH2 0x252 JUMPI PUSH2 0x150 DUP2 SLOAD PUSH2 0xBCE JUMP JUMPDEST SWAP4 DUP5 DUP1 SWAP3 SSTORE DUP4 PUSH12 0xFFFFFFFFFFFFFFFFFFFFFFFF SWAP2 PUSH2 0x1E5 DUP4 TIMESTAMP AND SWAP4 PUSH1 0x2 DUP11 PUSH2 0x176 PUSH2 0xBF3 JUMP JUMPDEST CALLER DUP2 MSTORE DUP2 DUP2 ADD DUP9 DUP2 MSTORE DUP8 DUP3 ADD DUP12 DUP2 MSTORE PUSH1 0x1 PUSH1 0x60 DUP5 ADD SWAP1 DUP2 MSTORE DUP12 DUP10 MSTORE SWAP4 DUP9 SWAP1 MSTORE DUP9 DUP9 KECCAK256 SWAP3 MLOAD SWAP2 MLOAD SWAP1 SWAP6 AND PUSH1 0xA0 SHL PUSH20 0xFFFFFFFFFFFFFFFFFFFFFFFFFFFFFFFFFFFFFFFF NOT AND PUSH1 0x1 PUSH1 0x1 PUSH1 0xA0 SHL SUB SWAP2 SWAP1 SWAP2 AND OR DUP2 SSTORE SWAP3 MLOAD PUSH1 0x1 DUP5 ADD SSTORE MLOAD ISZERO ISZERO SWAP2 ADD SWAP1 PUSH1 0xFF DUP1 NOT DUP4 SLOAD AND SWAP2 ISZERO ISZERO AND OR SWAP1 SSTORE JUMP JUMPDEST DUP5 DUP2 MSTORE PUSH1 0x1 DUP9 MSTORE DUP4 DUP3 DUP3 KECCAK256 SSTORE CALLER DUP2 MSTORE PUSH1 0x2 DUP9 MSTORE DUP2 DUP2 KECCAK256 DUP5 DUP3 MSTORE DUP9 MSTORE DUP2 DUP2 KECCAK256 PUSH1 0x1 PUSH1 0xFF NOT DUP3 SLOAD AND OR SWAP1 SSTORE CALLER DUP2 MSTORE PUSH1 0x3 DUP9 MSTORE KECCAK256 PUSH2 0x220 DUP2 SLOAD PUSH2 0xBCE JUMP JUMPDEST SWAP1 SSTORE DUP4 MLOAD SWAP1 DUP2 MSTORE PUSH32 0x9A3EDB3E2B9221B1D1A0D07835B31A5B61E8A247617D50C451099784EF84D4F0 DUP7 CALLER SWAP3 LOG4 MLOAD SWAP1 DUP2 MSTORE RETURN JUMPDEST DUP3 MLOAD PUSH4 0x5D63955D PUSH1 0xE0 SHL DUP2 MSTORE REVERT JUMPDEST DUP3 MLOAD PUSH4 0x1C37CDDF PUSH1 0xE2 SHL DUP2 MSTORE REVERT JUMPDEST DUP3 DUP1 REVERT JUMPDEST POP POP CALLVALUE PUSH2 0x115 JUMPI DUP1 PUSH1 0x3 NOT CALLDATASIZE ADD SLT PUSH2 0x115 JUMPI PUSH1 0xFF DUP2 PUSH1 0x20 SWAP4 PUSH1 0x1 PUSH1 0x1 PUSH1 0xA0 SHL SUB PUSH2 0x29A PUSH2 0xBB3 JUMP JUMPDEST AND DUP2 MSTORE PUSH1 0x2 DUP6 MSTORE DUP2 DUP2 KECCAK256 PUSH1 0x24 CALLDATALOAD DUP3 MSTORE DUP6 MSTORE KECCAK256 SLOAD AND SWAP1 MLOAD SWAP1 ISZERO ISZERO DUP2 MSTORE RETURN JUMPDEST SWAP1 POP CALLVALUE PUSH2 0x26E JUMPI PUSH1 0x20 CALLDATASIZE PUSH1 0x3 NOT ADD SLT PUSH2 0x26E JUMPI DUP1 CALLDATALOAD SWAP1 PUSH2 0x2D5 PUSH2 0xC36 JUMP JUMPDEST POP DUP2 ISZERO DUP1 ISZERO PUSH2 0x382 JUMPI JUMPDEST PUSH2 0x374 JUMPI POP DUP3 DUP3 SWAP2 PUSH2 0x370 SWAP5 MSTORE DUP1 PUSH1 0x20 MSTORE KECCAK256 SWAP1 PUSH1 0xFF PUSH1 0x2 PUSH2 0x2FE PUSH2 0xBF3 JUMP JUMPDEST SWAP4 DUP1 SLOAD PUSH1 0x1 PUSH1 0x1 PUSH1 0xA0 SHL SUB DUP2 AND DUP7 MSTORE PUSH1 0xA0 SHR PUSH1 0x20 DUP7 ADD MSTORE PUSH1 0x1 DUP2 ADD SLOAD DUP5 DUP7 ADD MSTORE ADD SLOAD AND ISZERO ISZERO PUSH1 0x60 DUP4 ADD MSTORE MLOAD SWAP2 DUP3 SWAP2 DUP3 SWAP2 SWAP1 SWAP2 PUSH1 0x60 DUP1 PUSH1 0x80 DUP4 ADD SWAP5 PUSH1 0x1 PUSH1 0x1 PUSH1 0xA0 SHL SUB DUP2 MLOAD AND DUP5 MSTORE PUSH12 0xFFFFFFFFFFFFFFFFFFFFFFFF PUSH1 0x20 DUP3 ADD MLOAD AND PUSH1 0x20 DUP6 ADD MSTORE PUSH1 0x40 DUP2 ADD MLOAD PUSH1 0x40 DUP6 ADD MSTORE ADD MLOAD ISZERO ISZERO SWAP2 ADD MSTORE JUMP JUMPDEST SUB SWAP1 RETURN JUMPDEST DUP3 MLOAD PUSH4 0xDC0B7363 PUSH1 0xE0 SHL DUP2 MSTORE REVERT JUMPDEST POP DUP1 SLOAD DUP3 GT PUSH2 0x2DF JUMP JUMPDEST SWAP1 POP CALLVALUE PUSH2 0x26E JUMPI PUSH1 0x20 CALLDATASIZE PUSH1 0x3 NOT ADD SLT PUSH2 0x26E JUMPI PUSH1 0x20 SWAP3 DUP3 SWAP2 CALLDATALOAD DUP2 MSTORE PUSH1 0x1 DUP5 MSTORE KECCAK256 SLOAD SWAP1 MLOAD SWAP1 DUP2 MSTORE RETURN JUMPDEST SWAP1 POP CALLVALUE PUSH2 0x26E JUMPI DUP3 PUSH1 0x3 NOT CALLDATASIZE ADD SLT PUSH2 0x26E JUMPI PUSH1 0x20 SWAP3 POP SLOAD SWAP1 MLOAD SWAP1 DUP2 MSTORE RETURN JUMPDEST SWAP1 POP CALLVALUE PUSH2 0x26E JUMPI PUSH1 0x20 DUP1 PUSH1 0x3 NOT CALLDATASIZE ADD SLT PUSH2 0x646 JUMPI DUP2 CALLDATALOAD SWAP4 PUSH8 0xFFFFFFFFFFFFFFFF SWAP3 DUP4 DUP7 GT PUSH2 0x115 JUMPI CALLDATASIZE PUSH1 0x23 DUP8 ADD SLT ISZERO PUSH2 0x115 JUMPI DUP6 DUP2 ADD CALLDATALOAD SWAP1 DUP5 DUP3 GT PUSH2 0x26E JUMPI PUSH1 0x24 CALLDATASIZE DUP2 DUP5 PUSH1 0x5 SHL DUP11 ADD ADD GT PUSH2 0x646 JUMPI PUSH1 0x1F SWAP7 SWAP8 PUSH2 0x42E DUP5 PUSH2 0xC5A JUMP JUMPDEST DUP10 MLOAD DUP10 NOT SWAP10 SWAP1 SWAP9 SWAP2 ADD DUP10 AND DUP9 ADD SWAP1 DUP2 GT DUP9 DUP3 LT OR PUSH2 0x634 JUMPI DUP10 MSTORE DUP4 DUP8 MSTORE PUSH2 0x454 DUP5 PUSH2 0xC5A JUMP JUMPDEST DUP8 DUP8 ADD SWAP9 ADD CALLDATASIZE DUP10 CALLDATACOPY PUSH12 0xFFFFFFFFFFFFFFFFFFFFFFFF TIMESTAMP DUP2 AND DUP7 JUMPDEST DUP7 DUP2 LT PUSH2 0x4E2 JUMPI POP POP POP POP CALLER DUP5 MSTORE PUSH1 0x3 DUP6 MSTORE DUP8 DUP5 KECCAK256 SWAP2 DUP3 SLOAD SWAP4 DUP5 ADD DUP1 SWAP5 GT PUSH2 0x4D1 JUMPI DUP4 DUP4 SSTORE DUP9 MLOAD DUP7 DUP2 MSTORE DUP8 MLOAD DUP2 DUP9 ADD DUP2 SWAP1 MSTORE DUP2 SWAP1 DUP2 DUP13 ADD SWAP1 DUP12 SWAP1 DUP11 DUP11 JUMPDEST DUP3 DUP2 LT PUSH2 0x4BA JUMPI POP POP POP POP SUB SWAP1 RETURN JUMPDEST DUP4 MLOAD DUP6 MSTORE DUP7 SWAP6 POP SWAP4 DUP2 ADD SWAP4 SWAP3 DUP2 ADD SWAP3 PUSH1 0x1 ADD PUSH2 0x4AB JUMP JUMPDEST PUSH1 0x11 DUP6 SWAP2 PUSH4 0x4E487B71 PUSH1 0xE0 SHL DUP4 MSTORE MSTORE REVERT JUMPDEST DUP1 PUSH1 0x5 SHL DUP6 DUP2 DUP7 ADD ADD CALLDATALOAD SWAP1 DUP2 ISZERO PUSH2 0x625 JUMPI SWAP1 DUP14 SWAP3 SWAP2 DUP2 DUP12 MSTORE PUSH1 0x1 SWAP4 DUP5 DUP14 MSTORE DUP12 KECCAK256 SLOAD PUSH2 0x616 JUMPI DUP12 SWAP1 DUP16 DUP13 PUSH2 0x515 DUP13 SLOAD PUSH2 0xBCE JUMP JUMPDEST SWAP4 DUP5 DUP14 SSTORE DUP10 PUSH2 0x59F DUP10 DUP12 PUSH2 0x581 PUSH2 0x52A PUSH2 0xBF3 JUMP JUMPDEST CALLER DUP2 MSTORE DUP7 DUP2 ADD SWAP3 DUP4 MSTORE DUP9 DUP2 ADD DUP13 DUP2 MSTORE PUSH1 0x60 DUP3 ADD SWAP5 DUP6 MSTORE DUP12 DUP10 MSTORE DUP9 DUP9 MSTORE DUP10 DUP10 KECCAK256 SWAP2 MLOAD SWAP4 MLOAD SWAP1 SWAP7 AND PUSH1 0xA0 SHL PUSH20 0xFFFFFFFFFFFFFFFFFFFFFFFFFFFFFFFFFFFFFFFF NOT AND PUSH1 0x1 PUSH1 0x1 PUSH1 0xA0 SHL SUB SWAP4 SWAP1 SWAP4 AND SWAP3 SWAP1 SWAP3 OR DUP3 SSTORE SWAP1 SWAP4 SWAP1 JUMP JUMPDEST MLOAD DUP12 DUP5 ADD SSTORE MLOAD ISZERO ISZERO PUSH1 0x2 DUP1 SWAP4 ADD SWAP1 PUSH1 0xFF DUP1 NOT DUP4 SLOAD AND SWAP2 ISZERO ISZERO AND OR SWAP1 SSTORE JUMP JUMPDEST DUP7 DUP4 MSTORE DUP9 DUP3 MSTORE DUP6 DUP5 DUP5 KECCAK256 SSTORE CALLER DUP4 MSTORE DUP2 MSTORE DUP5 DUP4 DUP4 KECCAK256 SWAP3 MSTORE MSTORE DUP13 KECCAK256 DUP6 PUSH1 0xFF NOT DUP3 SLOAD AND OR SWAP1 SSTORE DUP14 MLOAD DUP5 LT ISZERO PUSH2 0x604 JUMPI DUP16 SWAP1 DUP14 DUP16 SWAP2 DUP5 SWAP3 ADD ADD MSTORE MLOAD DUP6 DUP2 MSTORE PUSH32 0x9A3EDB3E2B9221B1D1A0D07835B31A5B61E8A247617D50C451099784EF84D4F0 DUP14 CALLER SWAP3 LOG4 ADD PUSH2 0x46E JUMP JUMPDEST DUP9 DUP13 PUSH1 0x32 DUP13 PUSH4 0x4E487B71 PUSH1 0xE0 SHL DUP4 MSTORE MSTORE REVERT JUMPDEST DUP9 DUP16 MLOAD PUSH4 0x5D63955D PUSH1 0xE0 SHL DUP2 MSTORE REVERT JUMPDEST DUP8 DUP15 MLOAD PUSH4 0x1C37CDDF PUSH1 0xE2 SHL DUP2 MSTORE REVERT JUMPDEST DUP3 DUP7 PUSH1 0x41 DUP7 PUSH4 0x4E487B71 PUSH1 0xE0 SHL DUP4 MSTORE MSTORE REVERT JUMPDEST DUP4 DUP1 REVERT JUMPDEST SWAP1 POP CALLVALUE PUSH2 0x26E JUMPI PUSH1 0x20 CALLDATASIZE PUSH1 0x3 NOT ADD SLT PUSH2 0x26E JUMPI PUSH1 0x80 SWAP3 DUP3 SWAP2 CALLDATALOAD DUP2 MSTORE DUP1 PUSH1 0x20 MSTORE KECCAK256 SWAP1 DUP2 SLOAD SWAP2 PUSH1 0xFF PUSH1 0x2 PUSH1 0x1 DUP4 ADD SLOAD SWAP3 ADD SLOAD AND SWAP2 DUP1 MLOAD SWAP4 PUSH1 0x1 PUSH1 0x1 PUSH1 0xA0 SHL SUB DUP2 AND DUP6 MSTORE PUSH1 0xA0 SHR PUSH1 0x20 DUP6 ADD MSTORE DUP4 ADD MSTORE ISZERO ISZERO PUSH1 0x60 DUP3 ADD MSTORE RETURN JUMPDEST DUP4 DUP4 CALLVALUE PUSH2 0x115 JUMPI PUSH1 0x20 CALLDATASIZE PUSH1 0x3 NOT ADD SLT PUSH2 0x115 JUMPI PUSH1 0x60 SWAP3 DUP3 DUP1 DUP1 SWAP3 CALLDATALOAD DUP2 MSTORE PUSH1 0x1 PUSH1 0x20 MSTORE DUP4 DUP2 KECCAK256 SLOAD DUP1 PUSH2 0x6E3 JUMPI JUMPDEST POP POP DUP3 MLOAD SWAP4 ISZERO ISZERO DUP5 MSTORE ISZERO ISZERO PUSH1 0x20 DUP5 ADD MSTORE ISZERO ISZERO SWAP1 DUP3 ADD MSTORE RETURN JUMPDEST SWAP2 POP DUP4 SWAP5 POP DUP1 SWAP3 POP MSTORE DUP1 PUSH1 0x20 MSTORE KECCAK256 SWAP1 PUSH1 0x1 SWAP2 PUSH1 0xFF PUSH1 0x2 PUSH1 0x1 PUSH1 0x1 PUSH1 0xA0 SHL SUB DUP4 SLOAD AND CALLER EQ SWAP3 ADD SLOAD AND SWAP1 DUP6 DUP1 PUSH2 0x6CB JUMP JUMPDEST SWAP1 POP CALLVALUE PUSH2 0x26E JUMPI PUSH1 0x20 CALLDATASIZE PUSH1 0x3 NOT ADD SLT PUSH2 0x26E JUMPI PUSH2 0x72D PUSH2 0xC36 JUMP JUMPDEST POP DUP1 CALLDATALOAD DUP4 MSTORE PUSH1 0x1 PUSH1 0x20 MSTORE DUP2 DUP4 KECCAK256 SLOAD SWAP1 DUP2 ISZERO PUSH2 0x374 JUMPI POP DUP3 DUP3 SWAP2 PUSH2 0x370 SWAP5 MSTORE DUP1 PUSH1 0x20 MSTORE KECCAK256 SWAP1 PUSH1 0xFF PUSH1 0x2 PUSH2 0x2FE PUSH2 0xBF3 JUMP JUMPDEST SWAP2 SWAP1 POP CALLVALUE PUSH2 0x26E JUMPI DUP1 PUSH1 0x3 NOT CALLDATASIZE ADD SLT PUSH2 0x26E JUMPI DUP2 CALLDATALOAD SWAP1 PUSH1 0x24 CALLDATALOAD SWAP3 PUSH1 0x1 PUSH1 0x1 PUSH1 0xA0 SHL SUB SWAP1 DUP2 DUP6 AND DUP1 SWAP6 SUB PUSH2 0x924 JUMPI DUP4 ISZERO DUP1 ISZERO PUSH2 0x91A JUMPI JUMPDEST PUSH2 0x374 JUMPI DUP4 DUP7 MSTORE PUSH1 0x20 SWAP2 DUP7 DUP4 MSTORE DUP4 DUP8 KECCAK256 SLOAD AND CALLER SUB PUSH2 0x8F3 JUMPI DUP4 DUP7 MSTORE DUP6 DUP3 MSTORE PUSH1 0xFF PUSH1 0x2 DUP5 DUP9 KECCAK256 ADD SLOAD AND ISZERO PUSH2 0x8CC JUMPI DUP5 ISZERO PUSH2 0x8A5 JUMPI CALLER DUP6 EQ PUSH2 0x87E JUMPI POP PUSH1 0x3 SWAP1 DUP4 DUP7 MSTORE DUP6 DUP2 MSTORE DUP3 DUP7 KECCAK256 DUP6 PUSH20 0xFFFFFFFFFFFFFFFFFFFFFFFFFFFFFFFFFFFFFFFF NOT DUP3 SLOAD AND OR SWAP1 SSTORE CALLER DUP7 MSTORE PUSH1 0x2 DUP2 MSTORE DUP3 DUP7 KECCAK256 DUP5 DUP8 MSTORE DUP2 MSTORE DUP3 DUP7 KECCAK256 PUSH1 0xFF NOT SWAP1 DUP2 DUP2 SLOAD AND SWAP1 SSTORE DUP6 DUP8 MSTORE PUSH1 0x2 DUP3 MSTORE DUP4 DUP8 KECCAK256 DUP6 DUP9 MSTORE DUP3 MSTORE PUSH1 0x1 DUP5 DUP9 KECCAK256 SWAP2 DUP3 SLOAD AND OR SWAP1 SSTORE CALLER DUP7 MSTORE DUP2 DUP2 MSTORE DUP3 DUP7 KECCAK256 PUSH2 0x841 DUP2 SLOAD PUSH2 0xC29 JUMP JUMPDEST SWAP1 SSTORE DUP5 DUP7 MSTORE MSTORE DUP4 KECCAK256 PUSH2 0x853 DUP2 SLOAD PUSH2 0xBCE JUMP JUMPDEST SWAP1 SSTORE CALLER SWAP1 PUSH32 0x16B85F49BF01212961345D3016C9A531894ACCF62EB7680F2045D79185CC0EC0 DUP5 DUP1 LOG4 DUP1 RETURN JUMPDEST DUP3 MLOAD PUSH32 0x4D9ECD9100000000000000000000000000000000000000000000000000000000 DUP2 MSTORE REVERT JUMPDEST DUP3 MLOAD PUSH32 0xE6C4247B00000000000000000000000000000000000000000000000000000000 DUP2 MSTORE REVERT JUMPDEST DUP3 MLOAD PUSH32 0x61A83AAB00000000000000000000000000000000000000000000000000000000 DUP2 MSTORE REVERT JUMPDEST DUP3 MLOAD PUSH32 0x30CD747100000000000000000000000000000000000000000000000000000000 DUP2 MSTORE REVERT JUMPDEST POP DUP1 SLOAD DUP5 GT PUSH2 0x793 JUMP JUMPDEST DUP6 DUP1 REVERT JUMPDEST SWAP2 SWAP1 POP CALLVALUE PUSH2 0x26E JUMPI PUSH1 0x20 DUP1 PUSH1 0x3 NOT CALLDATASIZE ADD SLT PUSH2 0x646 JUMPI DUP3 CALLDATALOAD SWAP3 DUP4 ISZERO DUP1 ISZERO PUSH2 0x9DD JUMPI JUMPDEST PUSH2 0x374 JUMPI DUP4 DUP6 MSTORE DUP5 DUP3 MSTORE PUSH1 0x1 PUSH1 0x1 PUSH1 0xA0 SHL SUB DUP4 DUP7 KECCAK256 SLOAD AND CALLER SUB PUSH2 0x8F3 JUMPI DUP4 DUP6 MSTORE DUP5 DUP3 MSTORE PUSH1 0xFF PUSH1 0x2 DUP5 DUP8 KECCAK256 ADD SLOAD AND ISZERO PUSH2 0x8CC JUMPI POP PUSH1 0x3 SWAP1 DUP4 DUP6 MSTORE DUP5 DUP2 MSTORE PUSH1 0x1 DUP4 DUP7 KECCAK256 PUSH1 0x2 DUP2 ADD PUSH1 0xFF NOT DUP2 SLOAD AND SWAP1 SSTORE ADD SLOAD DUP6 MSTORE PUSH1 0x1 DUP2 MSTORE DUP5 DUP4 DUP2 KECCAK256 SSTORE CALLER DUP6 MSTORE MSTORE DUP3 KECCAK256 PUSH2 0x9B3 DUP2 SLOAD PUSH2 0xC29 JUMP JUMPDEST SWAP1 SSTORE CALLER PUSH32 0x2897F7FD85485B0F7623BD8C03D051C84C05B918AE029A2207FDA14F66007426 DUP4 DUP1 LOG3 DUP1 RETURN JUMPDEST POP DUP1 SLOAD DUP5 GT PUSH2 0x949 JUMP JUMPDEST POP POP CALLVALUE PUSH2 0x115 JUMPI PUSH1 0x20 CALLDATASIZE PUSH1 0x3 NOT ADD SLT PUSH2 0x115 JUMPI DUP1 PUSH1 0x20 SWAP3 PUSH1 0x1 PUSH1 0x1 PUSH1 0xA0 SHL SUB PUSH2 0x105 PUSH2 0xBB3 JUMP JUMPDEST SWAP2 SWAP1 POP CALLVALUE PUSH2 0x26E JUMPI DUP1 PUSH1 0x3 NOT CALLDATASIZE ADD SLT PUSH2 0x26E JUMPI DUP2 CALLDATALOAD SWAP1 PUSH1 0x24 CALLDATALOAD SWAP3 DUP3 ISZERO DUP1 ISZERO PUSH2 0xB0B JUMPI JUMPDEST PUSH2 0xAFD JUMPI DUP3 DUP6 MSTORE PUSH1 0x20 SWAP1 DUP6 DUP3 MSTORE PUSH1 0x1 PUSH1 0x1 PUSH1 0xA0 SHL SUB DUP4 DUP8 KECCAK256 SLOAD AND CALLER SUB PUSH2 0x8F3 JUMPI DUP4 DUP7 MSTORE DUP6 DUP3 MSTORE PUSH1 0xFF PUSH1 0x2 DUP5 DUP9 KECCAK256 ADD SLOAD AND ISZERO PUSH2 0x8CC JUMPI DUP5 ISZERO PUSH2 0x260 JUMPI DUP5 DUP7 MSTORE PUSH1 0x1 DUP3 MSTORE DUP3 DUP7 KECCAK256 SLOAD PUSH2 0x252 JUMPI POP DUP3 DUP6 MSTORE DUP5 DUP2 MSTORE DUP2 DUP6 KECCAK256 PUSH1 0x1 DUP1 DUP3 ADD DUP1 SLOAD DUP9 MSTORE SWAP1 DUP4 MSTORE DUP4 DUP8 KECCAK256 DUP8 SWAP1 SSTORE DUP6 SWAP1 SSTORE DUP1 SLOAD PUSH1 0x1 PUSH1 0x1 PUSH1 0xA0 SHL SUB AND TIMESTAMP PUSH1 0xA0 SHL PUSH20 0xFFFFFFFFFFFFFFFFFFFFFFFFFFFFFFFFFFFFFFFF NOT AND OR DUP2 SSTORE PUSH32 0xB630A2E3678F1B4A6B8D3FD5EA875EE537F241C83C754A8242C2378369B8FE9F SWAP2 SWAP1 DUP6 DUP8 MSTORE DUP5 DUP5 DUP9 KECCAK256 SSTORE SLOAD PUSH1 0xA0 SHR SWAP3 MLOAD SWAP3 DUP4 MSTORE CALLER SWAP3 LOG4 DUP1 RETURN JUMPDEST SWAP1 MLOAD PUSH4 0xDC0B7363 PUSH1 0xE0 SHL DUP2 MSTORE REVERT JUMPDEST POP DUP1 SLOAD DUP4 GT PUSH2 0xA31 JUMP JUMPDEST DUP5 SWAP2 CALLVALUE PUSH2 0x26E JUMPI PUSH1 0x20 CALLDATASIZE PUSH1 0x3 NOT ADD SLT PUSH2 0x26E JUMPI CALLDATALOAD PUSH32 0xFFFFFFFF00000000000000000000000000000000000000000000000000000000 DUP2 AND DUP1 SWAP2 SUB PUSH2 0x26E JUMPI PUSH1 0x20 SWAP3 POP PUSH32 0x1FFC9A700000000000000000000000000000000000000000000000000000000 DUP2 EQ SWAP1 DUP2 ISZERO PUSH2 0xB89 JUMPI JUMPDEST POP ISZERO ISZERO DUP2 MSTORE RETURN JUMPDEST PUSH32 0x80AC58CD00000000000000000000000000000000000000000000000000000000 SWAP2 POP EQ DUP4 PUSH2 0xB82 JUMP JUMPDEST PUSH1 0x4 CALLDATALOAD SWAP1 PUSH1 0x1 PUSH1 0x1 PUSH1 0xA0 SHL SUB DUP3 AND DUP3 SUB PUSH2 0xBC9 JUMPI JUMP JUMPDEST PUSH1 0x0 DUP1 REVERT JUMPDEST PUSH1 0x0 NOT DUP2 EQ PUSH2 0xBDD JUMPI PUSH1 0x1 ADD SWAP1 JUMP JUMPDEST PUSH4 0x4E487B71 PUSH1 0xE0 SHL PUSH1 0x0 MSTORE PUSH1 0x11 PUSH1 0x4 MSTORE PUSH1 0x24 PUSH1 0x0 REVERT JUMPDEST PUSH1 0x40 MLOAD SWAP1 PUSH1 0x80 DUP3 ADD DUP3 DUP2 LT PUSH8 0xFFFFFFFFFFFFFFFF DUP3 GT OR PUSH2 0xC13 JUMPI PUSH1 0x40 MSTORE JUMP JUMPDEST PUSH4 0x4E487B71 PUSH1 0xE0 SHL PUSH1 0x0 MSTORE PUSH1 0x41 PUSH1 0x4 MSTORE PUSH1 0x24 PUSH1 0x0 REVERT JUMPDEST DUP1 ISZERO PUSH2 0xBDD JUMPI PUSH1 0x0 NOT ADD SWAP1 JUMP JUMPDEST PUSH2 0xC3E PUSH2 0xBF3 JUMP JUMPDEST SWAP1 PUSH1 0x0 DUP3 MSTORE PUSH1 0x0 PUSH1 0x20 DUP4 ADD MSTORE PUSH1 0x0 PUSH1 0x40 DUP4 ADD MSTORE PUSH1 0x0 PUSH1 0x60 DUP4 ADD MSTORE JUMP JUMPDEST PUSH8 0xFFFFFFFFFFFFFFFF DUP2 GT PUSH2 0xC13 JUMPI PUSH1 0x5 SHL PUSH1 0x20 ADD SWAP1 JUMP INVALID LOG2 PUSH5 0x6970667358 0x22 SLT KECCAK256 SWAP8 0x4D SELFDESTRUCT 0xB7 0xBA DUP7 MLOAD 0xAE 0x2F PUSH18 0xA7672D7DC05935D2670E477080058A913CD9 SGT 0xCA 0xC0 0x5E PUSH5 0x736F6C6343 STOP ADDMOD SGT STOP CALLER "},"methodIdentifiers":{"batchRegisterNotes(bytes32[])":"88e6ba60","deactivateNote(uint256)":"233833ca","getNote(uint256)":"a965a941","getNoteByHash(bytes32)":"2d29c2f9","getTotalNoteCount()":"8e133f70","getUserNoteCount(address)":"186ffcc8","hashToNoteId(bytes32)":"96fa9022","noteCount()":"317a4c76","notes(uint256)":"61c3a7e6","ownsNote(address,uint256)":"c07b0e54","registerNote(bytes32)":"dccc1d88","supportsInterface(bytes4)":"01ffc9a7","transferOwnership(uint256,address)":"29507f73","updateNote(uint256,bytes32)":"16d06cc1","userNoteCount(address)":"f01d06b8","userOwnsNote(address,uint256)":"8fbe7ffe","verifyNote(bytes32)":"4e37cfc5"}}}}}