{"contracts/ModuloTokenOptimized.sol":{"ModuloTokenOptimized":{"abi":[{"inputs":[],"stateMutability":"nonpayable","type":"constructor"},{"inputs":[],"name":"ExceedsMaxSupply","type":"error"},{"inputs":[],"name":"ExceedsMintLimit","type":"error"},{"inputs":[],"name":"InsufficientAllowance","type":"error"},{"inputs":[],"name":"InvalidAmount","type":"error"},{"inputs":[],"name":"InvalidMinter","type":"error"},{"inputs":[],"name":"MintCooldownActive","type":"error"},{"inputs":[],"name":"MinterExists","type":"error"},{"inputs":[],"name":"MinterNotFound","type":"error"},{"inputs":[],"name":"ZeroAddress","type":"error"},{"anonymous":false,"inputs":[{"indexed":true,"internalType":"address","name":"owner","type":"address"},{"indexed":true,"internalType":"address","name":"spender","type":"address"},{"indexed":false,"internalType":"uint256","name":"value","type":"uint256"}],"name":"Approval","type":"event"},{"anonymous":false,"inputs":[{"indexed":true,"internalType":"address","name":"minter","type":"address"},{"indexed":false,"internalType":"uint64","name":"newAllowance","type":"uint64"}],"name":"MintAllowanceUpdated","type":"event"},{"anonymous":false,"inputs":[{"indexed":true,"internalType":"address","name":"minter","type":"address"},{"indexed":false,"internalType":"uint64","name":"allowance","type":"uint64"}],"name":"MinterAdded","type":"event"},{"anonymous":false,"inputs":[{"indexed":true,"internalType":"address","name":"minter","type":"address"}],"name":"MinterRemoved","type":"event"},{"anonymous":false,"inputs":[{"indexed":true,"internalType":"address","name":"previousOwner","type":"address"},{"indexed":true,"internalType":"address","name":"newOwner","type":"address"}],"name":"OwnershipTransferred","type":"event"},{"anonymous":false,"inputs":[{"indexed":false,"internalType":"address","name":"account","type":"address"}],"name":"Paused","type":"event"},{"anonymous":false,"inputs":[{"indexed":true,"internalType":"address","name":"from","type":"address"},{"indexed":false,"internalType":"uint256","name":"amount","type":"uint256"}],"name":"TokensBurned","type":"event"},{"anonymous":false,"inputs":[{"indexed":true,"internalType":"address","name":"to","type":"address"},{"indexed":true,"internalType":"address","name":"minter","type":"address"},{"indexed":false,"internalType":"uint256","name":"amount","type":"uint256"}],"name":"TokensMinted","type":"event"},{"anonymous":false,"inputs":[{"indexed":true,"internalType":"address","name":"from","type":"address"},{"indexed":true,"internalType":"address","name":"to","type":"address"},{"indexed":false,"internalType":"uint256","name":"value","type":"uint256"}],"name":"Transfer","type":"event"},{"anonymous":false,"inputs":[{"indexed":false,"internalType":"address","name":"account","type":"address"}],"name":"Unpaused","type":"event"},{"inputs":[],"name":"MAX_MINT_PER_DAY","outputs":[{"internalType":"uint256","name":"","type":"uint256"}],"stateMutability":"view","type":"function"},{"inputs":[],"name":"MINT_COOLDOWN","outputs":[{"internalType":"uint256","name":"","type":"uint256"}],"stateMutability":"view","type":"function"},{"inputs":[{"internalType":"address","name":"minter","type":"address"},{"internalType":"uint64","name":"allowance","type":"uint64"}],"name":"addMinter","outputs":[],"stateMutability":"nonpayable","type":"function"},{"inputs":[{"internalType":"address","name":"owner","type":"address"},{"internalType":"address","name":"spender","type":"address"}],"name":"allowance","outputs":[{"internalType":"uint256","name":"","type":"uint256"}],"stateMutability":"view","type":"function"},{"inputs":[{"internalType":"address","name":"spender","type":"address"},{"internalType":"uint256","name":"amount","type":"uint256"}],"name":"approve","outputs":[{"internalType":"bool","name":"","type":"bool"}],"stateMutability":"nonpayable","type":"function"},{"inputs":[{"internalType":"address","name":"account","type":"address"}],"name":"balanceOf","outputs":[{"internalType":"uint256","name":"","type":"uint256"}],"stateMutability":"view","type":"function"},{"inputs":[{"internalType":"address[]","name":"recipients","type":"address[]"},{"internalType":"uint256[]","name":"amounts","type":"uint256[]"}],"name":"batchMint","outputs":[],"stateMutability":"nonpayable","type":"function"},{"inputs":[{"internalType":"uint256","name":"amount","type":"uint256"}],"name":"burn","outputs":[],"stateMutability":"nonpayable","type":"function"},{"inputs":[{"internalType":"address","name":"account","type":"address"},{"internalType":"uint256","name":"amount","type":"uint256"}],"name":"burnFrom","outputs":[],"stateMutability":"nonpayable","type":"function"},{"inputs":[],"name":"decimals","outputs":[{"internalType":"uint8","name":"","type":"uint8"}],"stateMutability":"pure","type":"function"},{"inputs":[{"internalType":"address","name":"spender","type":"address"},{"internalType":"uint256","name":"subtractedValue","type":"uint256"}],"name":"decreaseAllowance","outputs":[{"internalType":"bool","name":"","type":"bool"}],"stateMutability":"nonpayable","type":"function"},{"inputs":[{"internalType":"address","name":"minter","type":"address"}],"name":"getMinterInfo","outputs":[{"components":[{"internalType":"bool","name":"isMinter","type":"bool"},{"internalType":"uint96","name":"mintedAmount","type":"uint96"},{"internalType":"uint96","name":"lastMintTime","type":"uint96"},{"internalType":"uint64","name":"mintAllowance","type":"uint64"}],"internalType":"struct ModuloTokenOptimized.MinterInfo","name":"info","type":"tuple"}],"stateMutability":"view","type":"function"},{"inputs":[{"internalType":"address","name":"minter","type":"address"}],"name":"getRemainingAllowance","outputs":[{"internalType":"uint64","name":"remaining","type":"uint64"}],"stateMutability":"view","type":"function"},{"inputs":[{"internalType":"address","name":"spender","type":"address"},{"internalType":"uint256","name":"addedValue","type":"uint256"}],"name":"increaseAllowance","outputs":[{"internalType":"bool","name":"","type":"bool"}],"stateMutability":"nonpayable","type":"function"},{"inputs":[{"internalType":"address","name":"addr","type":"address"}],"name":"isMinter","outputs":[{"internalType":"bool","name":"","type":"bool"}],"stateMutability":"view","type":"function"},{"inputs":[],"name":"maxSupply","outputs":[{"internalType":"uint256","name":"","type":"uint256"}],"stateMutability":"pure","type":"function"},{"inputs":[{"internalType":"address","name":"to","type":"address"},{"internalType":"uint256","name":"amount","type":"uint256"}],"name":"mint","outputs":[],"stateMutability":"nonpayable","type":"function"},{"inputs":[{"internalType":"address","name":"","type":"address"}],"name":"minters","outputs":[{"internalType":"bool","name":"isMinter","type":"bool"},{"internalType":"uint96","name":"mintedAmount","type":"uint96"},{"internalType":"uint96","name":"lastMintTime","type":"uint96"},{"internalType":"uint64","name":"mintAllowance","type":"uint64"}],"stateMutability":"view","type":"function"},{"inputs":[],"name":"name","outputs":[{"internalType":"string","name":"","type":"string"}],"stateMutability":"view","type":"function"},{"inputs":[],"name":"owner","outputs":[{"internalType":"address","name":"","type":"address"}],"stateMutability":"view","type":"function"},{"inputs":[],"name":"pause","outputs":[],"stateMutability":"nonpayable","type":"function"},{"inputs":[],"name":"paused","outputs":[{"internalType":"bool","name":"","type":"bool"}],"stateMutability":"view","type":"function"},{"inputs":[{"internalType":"address","name":"minter","type":"address"}],"name":"removeMinter","outputs":[],"stateMutability":"nonpayable","type":"function"},{"inputs":[],"name":"renounceOwnership","outputs":[],"stateMutability":"nonpayable","type":"function"},{"inputs":[],"name":"symbol","outputs":[{"internalType":"string","name":"","type":"string"}],"stateMutability":"view","type":"function"},{"inputs":[],"name":"totalSupply","outputs":[{"internalType":"uint256","name":"","type":"uint256"}],"stateMutability":"view","type":"function"},{"inputs":[{"internalType":"address","name":"to","type":"address"},{"internalType":"uint256","name":"amount","type":"uint256"}],"name":"transfer","outputs":[{"internalType":"bool","name":"","type":"bool"}],"stateMutability":"nonpayable","type":"function"},{"inputs":[{"internalType":"address","name":"from","type":"address"},{"internalType":"address","name":"to","type":"address"},{"internalType":"uint256","name":"amount","type":"uint256"}],"name":"transferFrom","outputs":[{"internalType":"bool","name":"","type":"bool"}],"stateMutability":"nonpayable","type":"function"},{"inputs":[{"internalType":"address","name":"newOwner","type":"address"}],"name":"transferOwnership","outputs":[],"stateMutability":"nonpayable","type":"function"},{"inputs":[],"name":"unpause","outputs":[],"stateMutability":"nonpayable","type":"function"},{"inputs":[{"internalType":"address","name":"minter","type":"address"},{"internalType":"uint64","name":"newAllowance","type":"uint64"}],"name":"updateMinterAllowance","outputs":[],"stateMutability":"nonpayable","type":"function"}],"evm":{"bytecode":{"linkReferences":{},"object":"604060808152346200050c576200001562000511565b600c815260206b26b7b23ab637902a37b5b2b760a11b818301526200003962000511565b6004808252634d4f444f60e01b8383015283516001600160401b03949192858211620004f75760038054926001948585811c95168015620004ec575b88861014620003ee578190601f9586811162000496575b5088908683116001146200042f5760009262000423575b505060001982841b1c191690851b1781555b8151918783116200040e5785548581811c9116801562000403575b88821014620003ee579081858594931162000396575b5087908584116001146200032b576000936200031f575b505082851b92600019911b1c19161783555b600580546001600160a81b0319811633600881811b610100600160a81b0316929092179093558851939291901c6001600160a01b03167f8be0079c531659141344cd1fd0a4f28419497f9722a3daafe3b4186f6b6457e0600080a3826006553315620002df5750506002546a52b7d2dcc80cd2e400000090818101809111620002ca57600255336000526000845285600020818154019055855190815260007fddf252ad1be2c89b69c2b068fc378daa952ba7f163c4a11628f55a4df523b3ef853393a3845191608083019083821086831117620002b5575085528082526000828401818152426001600160601b03168785019081526060850187815233808552600788529389902095518654935192516001600160c81b031990941660ff911515919091161760089290921b610100600160681b03169190911760689290921b600160681b600160c81b0316919091178455519290910180546001600160401b031916928516929092179091558351928352917f7d892828e4525bfae295b0e5641e236a5f5eff36ed1be675dcc9a8fc5850c8539190a251611bed9081620005488239f35b604190634e487b7160e01b6000525260246000fd5b601184634e487b7160e01b6000525260246000fd5b62461bcd60e51b825281840185905260248201527f45524332303a206d696e7420746f20746865207a65726f206164647265737300604482015260649150fd5b015191503880620000fd565b9190869450601f1984169288600052896000209360005b8b8282106200037f575050851162000364575b50505050811b0183556200010f565b01519060f884600019921b161c191690553880808062000355565b8385015187558a9890960195938401930162000342565b9091925086600052876000208580860160051c8201928a8710620003e4575b91889187969594930160051c01915b828110620003d4575050620000e6565b60008155869550889101620003c4565b92508192620003b5565b602287634e487b7160e01b6000525260246000fd5b90607f1690620000d0565b604186634e487b7160e01b6000525260246000fd5b015190503880620000a3565b90879350601f19831691856000528a6000209260005b8c8282106200047f575050841162000466575b505050811b018155620000b5565b015160001983861b60f8161c1916905538808062000458565b8385015186558b9790950194938401930162000445565b90915083600052886000208680850160051c8201928b8610620004e2575b918991869594930160051c01915b828110620004d25750506200008c565b60008155859450899101620004c2565b92508192620004b4565b94607f169462000075565b604184634e487b7160e01b6000525260246000fd5b600080fd5b60408051919082016001600160401b038111838210176200053157604052565b634e487b7160e01b600052604160045260246000fdfe608060408181526004918236101561001657600080fd5b600092833560e01c91826306fdde03146112b957508163095ea7b31461128f5781630f5d8524146111fd57816318160ddd146111de57816323b872dd146111a15781633092afd5146110fd578163313ce567146110e157816339509351146110925781633f4ba83a14610ff357816340c10f1914610da157816342966c6814610d4d5781635c975abb14610d295781636857310714610a0d5781636f2417671461087d57816370a0823114610847578163715018a6146107db57816379cc67901461076b5781638456cb59146107105781638da5cb5b146106e557816395d89b41146105e2578163a457c2d714610521578163a9059cbb146104f0578163aa271e1a146104b4578163d45e7a6a1461048f578163d5abeb0114610468578163dd62ed3e1461041f578163ef092065146103db578163f09b22031461031a578163f2fde38b1461020f57508063f46eccc41461019a5763f7ee7a431461017a57600080fd5b3461019657816003193601126101965760209051620151808152f35b5080fd5b503461019657602036600319011261019657806080926001600160a01b036101c06113f7565b1681526007602052209067ffffffffffffffff60018354930154169080519260ff8116151584526bffffffffffffffffffffffff90818160081c16602086015260681c16908301526060820152f35b9050346103165760203660031901126103165761022a6113f7565b610232611490565b6001600160a01b03918282169384156102ad57505074ffffffffffffffffffffffffffffffffffffffff006005549160081b1674ffffffffffffffffffffffffffffffffffffffff001982161760055560081c167f8be0079c531659141344cd1fd0a4f28419497f9722a3daafe3b4186f6b6457e08380a380f35b906020608492519162461bcd60e51b8352820152602660248201527f4f776e61626c653a206e6577206f776e657220697320746865207a65726f206160448201527f64647265737300000000000000000000000000000000000000000000000000006064820152fd5b8280fd5b505034610196576020366003190112610196576001816080936001600160a01b036103436113f7565b8260608551610351816114eb565b8281528260208201528287820152015216815260076020522091805190610377826114eb565b6060845460ff8116151595868552602085016bffffffffffffffffffffffff938492838560081c168352838789019560681c16855267ffffffffffffffff988991015416960195865284519788525116602087015251169084015251166060820152f35b5050346101965760203660031901126101965767ffffffffffffffff6001826020946001600160a01b0361040d6113f7565b16815260078652200154169051908152f35b5050346101965780600319360112610196578060209261043d6113f7565b610445611412565b6001600160a01b0391821683526001865283832091168252845220549051908152f35b505034610196578160031936011261019657602090516b033b2e3c9fd0803ce80000008152f35b5050346101965781600319360112610196576020905169d3c21bcecceda10000008152f35b5050346101965760203660031901126101965760ff816020936001600160a01b036104dd6113f7565b1681526007855220541690519015158152f35b50503461019657806003193601126101965760209061051a6105106113f7565b6024359033611562565b5160018152f35b905082346105df57826003193601126105df5761053c6113f7565b91836024359233815260016020528181206001600160a01b03861682526020522054908282106105765760208561051a858503873361171e565b608490602086519162461bcd60e51b8352820152602560248201527f45524332303a2064656372656173656420616c6c6f77616e63652062656c6f7760448201527f207a65726f0000000000000000000000000000000000000000000000000000006064820152fd5b80fd5b838334610196578160031936011261019657805191809380549160019083821c928285169485156106db575b60209586861081146106c8578589529081156106a4575060011461064c575b610648878761063e828c038361151d565b51918291826113ae565b0390f35b81529295507f8a35acfbc15ff81a39ae7d344fd709f28e8600b4aa8c65c6b64bfe7fe36bd19b5b82841061069157505050826106489461063e9282010194868061062d565b8054868501880152928601928101610673565b60ff19168887015250505050151560051b830101925061063e82610648868061062d565b602484602285634e487b7160e01b835252fd5b93607f169361060e565b5050346101965781600319360112610196576020906001600160a01b0360055460081c169051908152f35b50503461019657816003193601126101965760207f62e78cea01bee320cd4e420270b5ea74000d11b0c9f74754ebdbfc544b05a2589161074e611490565b6107566118ea565b600160ff19600554161760055551338152a180f35b5050346101965780600319360112610196577ffd38818f5291bf0bb3a2a48aadc06ba8757865d1dabd804585338aab3009dcb660206001600160a01b036107b06113f7565b602435946107bc6118ea565b6107c7863384611852565b6107d18683611a73565b519485521692a280f35b83346105df57806003193601126105df576107f4611490565b806001600160a01b0360055474ffffffffffffffffffffffffffffffffffffffff0019811660055560081c167f8be0079c531659141344cd1fd0a4f28419497f9722a3daafe3b4186f6b6457e08280a380f35b50503461019657602036600319011261019657806020926001600160a01b0361086e6113f7565b16815280845220549051908152f35b91905034610316576001600160a01b0361089636611428565b91906108a0611490565b169283156109ff57838552600760205260ff83862054166109d8575082828560209360017f7d892828e4525bfae295b0e5641e236a5f5eff36ed1be675dcc9a8fc5850c85396516108f0816114eb565b8181526109bc8782018581528683016109726bffffffffffffffffffffffff809381421684528a606088019a67ffffffffffffffff809b169d8e8d52815260078f52209651151560ff80198954169116178755511685906cffffffffffffffffffffffff0082549160081b16906cffffffffffffffffffffffff001916179055565b5183547fffffffffffffff000000000000000000000000ffffffffffffffffffffffffff16911660681b78ffffffffffffffffffffffff0000000000000000000000000016178255565b0191511667ffffffffffffffff1982541617905551908152a280f35b82517f0e0d9ff8000000000000000000000000000000000000000000000000000000008152fd5b825163d92e233d60e01b8152fd5b90503461031657816003193601126103165767ffffffffffffffff918135838111610d2557610a3f903690840161145f565b919092602435858111610d2157610a59903690830161145f565b90933388526020926007845260ff858a2054161580610d09575b610cfb57610a7f6118ea565b610a8761193a565b828203610ced5788895b838110610ca257506b033b2e3c9fd0803ce8000000610ab28260025461153f565b11610c9357338a5260078552858a20988954996bffffffffffffffffffffffff9a8b8160681c16620151808101809111610c8057421015610c35575069d3c21bcecceda1000000610b09848d845460081c1661153f565b11610c26575b60019a8b820194838654168511610c18575081546cffffffffffffffffffffffff00198116600891821c831686841601909216901b6cffffffffffffffffffffffff001617905582549181831690828203610bfa575b505050505086885b828110610b7c57898260065580f35b610ba4610b92610b8d83868c611a39565b611a5f565b610b9d83878b611a39565b359061198f565b610bb2610b8d82858b611a39565b610bbd82868a611a39565b3587519081527fbf67ec129007be07f346d9d2933215293a6612ce7ff17d6b479a5a5cae72890c876001600160a01b0333941692a3018790610b6d565b82169003169067ffffffffffffffff19161790553880808080610b65565b89516313be252b60e01b8152fd5b838851636ae0191360e11b8152fd5b7fffffffffffffff000000000000000000000000000000000000000000000000ff16428c1660681b78ffffffffffffffffffffffff0000000000000000000000000016178155610b0f565b60248e601188634e487b7160e01b835252fd5b50845163c30436e960e01b8152fd5b906001600160a01b03610cb9610b8d84878d611a39565b1615610cde57610cd7600191610cd084888c611a39565b359061153f565b9101610a91565b82875163d92e233d60e01b8152fd5b845163162908e360e11b8152fd5b845163d8d5894f60e01b8152fd5b506001600160a01b0360055460081c16331415610a73565b8680fd5b8480fd5b50503461019657816003193601126101965760209060ff6005541690519015158152f35b905034610316576020366003190112610316573590610d6a6118ea565b610d748233611a73565b519081527ffd38818f5291bf0bb3a2a48aadc06ba8757865d1dabd804585338aab3009dcb660203392a280f35b905034610316578160031936011261031657610dbb6113f7565b9160243592338552600760205260ff82862054161580610fdb575b610fcd57610de26118ea565b6001600160a01b0381169283156109ff57610dfb61193a565b8415610fbf576b033b2e3c9fd0803ce8000000610e1a8660025461153f565b11610fb1573386526007602052828620908154916bffffffffffffffffffffffff92838160681c16620151808101809111610f9e57421015610f53575069d3c21bcecceda1000000610e728885845460081c1661153f565b11610f44575b600181019267ffffffffffffffff92838554168911610f36575081546cffffffffffffffffffffffff00198116600891821c83168a841601909216901b6cffffffffffffffffffffffff0016179055610ee69286929091815490808216818103610f18575b5050505061198f565b519182527fbf67ec129007be07f346d9d2933215293a6612ce7ff17d6b479a5a5cae72890c60203393a3600160065580f35b8186169003169067ffffffffffffffff191617905538808080610edd565b86516313be252b60e01b8152fd5b508351636ae0191360e11b8152fd5b7fffffffffffffff000000000000000000000000000000000000000000000000ff1642841660681b78ffffffffffffffffffffffff0000000000000000000000000016178155610e78565b60248a601186634e487b7160e01b835252fd5b825163c30436e960e01b8152fd5b825163162908e360e11b8152fd5b505163d8d5894f60e01b8152fd5b506001600160a01b0360055460081c16331415610dd6565b90503461031657826003193601126103165761100d611490565b6005549060ff82161561104f575060ff1916600555513381527f5db9ee0a495bf2e6ff9c91a7834c1ba4fdd244a5e8aa4e537bd38aeae4b073aa90602090a180f35b606490602084519162461bcd60e51b8352820152601460248201527f5061757361626c653a206e6f74207061757365640000000000000000000000006044820152fd5b50503461019657806003193601126101965761051a6020926110da6110b56113f7565b91338152600186528481206001600160a01b038416825286528460243591205461153f565b903361171e565b5050346101965781600319360112610196576020905160128152f35b91905034610316576020366003190112610316576001600160a01b036111216113f7565b611129611490565b1691828452600760205260ff82852054161561117a5750600183918383526007602052822082815501557fe94479a9f7e1952cc78f2d6baab678adc1b772d936c6583def489e524cb666928280a280f35b90517f7c46c2b1000000000000000000000000000000000000000000000000000000008152fd5b5050346101965760603660031901126101965760209061051a6111c26113f7565b6111ca611412565b604435916111d9833383611852565b611562565b5050346101965781600319360112610196576020906002549051908152f35b91905034610316576001600160a01b039061121736611428565b9290611221611490565b1692838552600760205260ff82862054161561117a57507f4126147d688f3acf6f4d8552ab7bd5d1aa6c0db60d931274901938a08370429a916020918486526007835267ffffffffffffffff6001828820019216918267ffffffffffffffff1982541617905551908152a280f35b50503461019657806003193601126101965760209061051a6112af6113f7565b602435903361171e565b929150346113aa57836003193601126113aa57600354600181811c91869082811680156113a0575b602095868610821461138d575084885290811561136b5750600114611312575b610648868661063e828b038361151d565b929550600383527fc2575a0e9e593c00f959f8c92f12db2869c3395a3b0502d05e2516446f71f85b5b82841061135857505050826106489461063e928201019438611301565b805486850188015292860192810161133b565b60ff191687860152505050151560051b830101925061063e8261064838611301565b836022602492634e487b7160e01b835252fd5b93607f16936112e1565b8380fd5b6020808252825181830181905290939260005b8281106113e357505060409293506000838284010152601f8019910116010190565b8181018601518482016040015285016113c1565b600435906001600160a01b038216820361140d57565b600080fd5b602435906001600160a01b038216820361140d57565b604090600319011261140d576004356001600160a01b038116810361140d579060243567ffffffffffffffff8116810361140d5790565b9181601f8401121561140d5782359167ffffffffffffffff831161140d576020808501948460051b01011161140d57565b6001600160a01b0360055460081c1633036114a757565b606460405162461bcd60e51b815260206004820152602060248201527f4f776e61626c653a2063616c6c6572206973206e6f7420746865206f776e65726044820152fd5b6080810190811067ffffffffffffffff82111761150757604052565b634e487b7160e01b600052604160045260246000fd5b90601f8019910116810190811067ffffffffffffffff82111761150757604052565b9190820180921161154c57565b634e487b7160e01b600052601160045260246000fd5b6001600160a01b038091169182156116b4571691821561164a576115846118ea565b6000828152806020526040812054918083106115e057604082827fddf252ad1be2c89b69c2b068fc378daa952ba7f163c4a11628f55a4df523b3ef958760209652828652038282205586815220818154019055604051908152a3565b608460405162461bcd60e51b815260206004820152602660248201527f45524332303a207472616e7366657220616d6f756e742065786365656473206260448201527f616c616e636500000000000000000000000000000000000000000000000000006064820152fd5b608460405162461bcd60e51b815260206004820152602360248201527f45524332303a207472616e7366657220746f20746865207a65726f206164647260448201527f65737300000000000000000000000000000000000000000000000000000000006064820152fd5b608460405162461bcd60e51b815260206004820152602560248201527f45524332303a207472616e736665722066726f6d20746865207a65726f20616460448201527f64726573730000000000000000000000000000000000000000000000000000006064820152fd5b6001600160a01b038091169182156117e9571691821561177f5760207f8c5be1e5ebec7d5bd14f71427d1e84f3dd0314c0f7b2291e5b200ac8c7c3b925918360005260018252604060002085600052825280604060002055604051908152a3565b608460405162461bcd60e51b815260206004820152602260248201527f45524332303a20617070726f766520746f20746865207a65726f20616464726560448201527f73730000000000000000000000000000000000000000000000000000000000006064820152fd5b608460405162461bcd60e51b8152602060048201526024808201527f45524332303a20617070726f76652066726f6d20746865207a65726f2061646460448201527f72657373000000000000000000000000000000000000000000000000000000006064820152fd5b906001600160a01b038083166000526001602052604060002090821660005260205260406000205492600019840361188b575b50505050565b8084106118a65761189d93039161171e565b38808080611885565b606460405162461bcd60e51b815260206004820152601d60248201527f45524332303a20696e73756666696369656e7420616c6c6f77616e63650000006044820152fd5b60ff600554166118f657565b606460405162461bcd60e51b815260206004820152601060248201527f5061757361626c653a20706175736564000000000000000000000000000000006044820152fd5b60026006541461194b576002600655565b606460405162461bcd60e51b815260206004820152601f60248201527f5265656e7472616e637947756172643a207265656e7472616e742063616c6c006044820152fd5b6001600160a01b03169081156119f5577fddf252ad1be2c89b69c2b068fc378daa952ba7f163c4a11628f55a4df523b3ef60206000926119cd6118ea565b6119d98160025461153f565b60025584845283825260408420818154019055604051908152a3565b606460405162461bcd60e51b815260206004820152601f60248201527f45524332303a206d696e7420746f20746865207a65726f2061646472657373006044820152fd5b9190811015611a495760051b0190565b634e487b7160e01b600052603260045260246000fd5b356001600160a01b038116810361140d5790565b6001600160a01b03168015611b4d57611a8a6118ea565b600091818352826020526040832054818110611ae357817fddf252ad1be2c89b69c2b068fc378daa952ba7f163c4a11628f55a4df523b3ef926020928587528684520360408620558060025403600255604051908152a3565b608460405162461bcd60e51b815260206004820152602260248201527f45524332303a206275726e20616d6f756e7420657863656564732062616c616e60448201527f63650000000000000000000000000000000000000000000000000000000000006064820152fd5b608460405162461bcd60e51b815260206004820152602160248201527f45524332303a206275726e2066726f6d20746865207a65726f2061646472657360448201527f73000000000000000000000000000000000000000000000000000000000000006064820152fdfea264697066735822122073d122324a3d881027de09653b6864912e21ed053d6db1e4e46a2b17b662728364736f6c63430008130033","opcodes":"PUSH1 0x40 PUSH1 0x80 DUP2 MSTORE CALLVALUE PUSH3 0x50C JUMPI PUSH3 0x15 PUSH3 0x511 JUMP JUMPDEST PUSH1 0xC DUP2 MSTORE PUSH1 0x20 PUSH12 0x26B7B23AB637902A37B5B2B7 PUSH1 0xA1 SHL DUP2 DUP4 ADD MSTORE PUSH3 0x39 PUSH3 0x511 JUMP JUMPDEST PUSH1 0x4 DUP1 DUP3 MSTORE PUSH4 0x4D4F444F PUSH1 0xE0 SHL DUP4 DUP4 ADD MSTORE DUP4 MLOAD PUSH1 0x1 PUSH1 0x1 PUSH1 0x40 SHL SUB SWAP5 SWAP2 SWAP3 DUP6 DUP3 GT PUSH3 0x4F7 JUMPI PUSH1 0x3 DUP1 SLOAD SWAP3 PUSH1 0x1 SWAP5 DUP6 DUP6 DUP2 SHR SWAP6 AND DUP1 ISZERO PUSH3 0x4EC JUMPI JUMPDEST DUP9 DUP7 LT EQ PUSH3 0x3EE JUMPI DUP2 SWAP1 PUSH1 0x1F SWAP6 DUP7 DUP2 GT PUSH3 0x496 JUMPI JUMPDEST POP DUP9 SWAP1 DUP7 DUP4 GT PUSH1 0x1 EQ PUSH3 0x42F JUMPI PUSH1 0x0 SWAP3 PUSH3 0x423 JUMPI JUMPDEST POP POP PUSH1 0x0 NOT DUP3 DUP5 SHL SHR NOT AND SWAP1 DUP6 SHL OR DUP2 SSTORE JUMPDEST DUP2 MLOAD SWAP2 DUP8 DUP4 GT PUSH3 0x40E JUMPI DUP6 SLOAD DUP6 DUP2 DUP2 SHR SWAP2 AND DUP1 ISZERO PUSH3 0x403 JUMPI JUMPDEST DUP9 DUP3 LT EQ PUSH3 0x3EE JUMPI SWAP1 DUP2 DUP6 DUP6 SWAP5 SWAP4 GT PUSH3 0x396 JUMPI JUMPDEST POP DUP8 SWAP1 DUP6 DUP5 GT PUSH1 0x1 EQ PUSH3 0x32B JUMPI PUSH1 0x0 SWAP4 PUSH3 0x31F JUMPI JUMPDEST POP POP DUP3 DUP6 SHL SWAP3 PUSH1 0x0 NOT SWAP2 SHL SHR NOT AND OR DUP4 SSTORE JUMPDEST PUSH1 0x5 DUP1 SLOAD PUSH1 0x1 PUSH1 0x1 PUSH1 0xA8 SHL SUB NOT DUP2 AND CALLER PUSH1 0x8 DUP2 DUP2 SHL PUSH2 0x100 PUSH1 0x1 PUSH1 0xA8 SHL SUB AND SWAP3 SWAP1 SWAP3 OR SWAP1 SWAP4 SSTORE DUP9 MLOAD SWAP4 SWAP3 SWAP2 SWAP1 SHR PUSH1 0x1 PUSH1 0x1 PUSH1 0xA0 SHL SUB AND PUSH32 0x8BE0079C531659141344CD1FD0A4F28419497F9722A3DAAFE3B4186F6B6457E0 PUSH1 0x0 DUP1 LOG3 DUP3 PUSH1 0x6 SSTORE CALLER ISZERO PUSH3 0x2DF JUMPI POP POP PUSH1 0x2 SLOAD PUSH11 0x52B7D2DCC80CD2E4000000 SWAP1 DUP2 DUP2 ADD DUP1 SWAP2 GT PUSH3 0x2CA JUMPI PUSH1 0x2 SSTORE CALLER PUSH1 0x0 MSTORE PUSH1 0x0 DUP5 MSTORE DUP6 PUSH1 0x0 KECCAK256 DUP2 DUP2 SLOAD ADD SWAP1 SSTORE DUP6 MLOAD SWAP1 DUP2 MSTORE PUSH1 0x0 PUSH32 0xDDF252AD1BE2C89B69C2B068FC378DAA952BA7F163C4A11628F55A4DF523B3EF DUP6 CALLER SWAP4 LOG3 DUP5 MLOAD SWAP2 PUSH1 0x80 DUP4 ADD SWAP1 DUP4 DUP3 LT DUP7 DUP4 GT OR PUSH3 0x2B5 JUMPI POP DUP6 MSTORE DUP1 DUP3 MSTORE PUSH1 0x0 DUP3 DUP5 ADD DUP2 DUP2 MSTORE TIMESTAMP PUSH1 0x1 PUSH1 0x1 PUSH1 0x60 SHL SUB AND DUP8 DUP6 ADD SWAP1 DUP2 MSTORE PUSH1 0x60 DUP6 ADD DUP8 DUP2 MSTORE CALLER DUP1 DUP6 MSTORE PUSH1 0x7 DUP9 MSTORE SWAP4 DUP10 SWAP1 KECCAK256 SWAP6 MLOAD DUP7 SLOAD SWAP4 MLOAD SWAP3 MLOAD PUSH1 0x1 PUSH1 0x1 PUSH1 0xC8 SHL SUB NOT SWAP1 SWAP5 AND PUSH1 0xFF SWAP2 ISZERO ISZERO SWAP2 SWAP1 SWAP2 AND OR PUSH1 0x8 SWAP3 SWAP1 SWAP3 SHL PUSH2 0x100 PUSH1 0x1 PUSH1 0x68 SHL SUB AND SWAP2 SWAP1 SWAP2 OR PUSH1 0x68 SWAP3 SWAP1 SWAP3 SHL PUSH1 0x1 PUSH1 0x68 SHL PUSH1 0x1 PUSH1 0xC8 SHL SUB AND SWAP2 SWAP1 SWAP2 OR DUP5 SSTORE MLOAD SWAP3 SWAP1 SWAP2 ADD DUP1 SLOAD PUSH1 0x1 PUSH1 0x1 PUSH1 0x40 SHL SUB NOT AND SWAP3 DUP6 AND SWAP3 SWAP1 SWAP3 OR SWAP1 SWAP2 SSTORE DUP4 MLOAD SWAP3 DUP4 MSTORE SWAP2 PUSH32 0x7D892828E4525BFAE295B0E5641E236A5F5EFF36ED1BE675DCC9A8FC5850C853 SWAP2 SWAP1 LOG2 MLOAD PUSH2 0x1BED SWAP1 DUP2 PUSH3 0x548 DUP3 CODECOPY RETURN JUMPDEST PUSH1 0x41 SWAP1 PUSH4 0x4E487B71 PUSH1 0xE0 SHL PUSH1 0x0 MSTORE MSTORE PUSH1 0x24 PUSH1 0x0 REVERT JUMPDEST PUSH1 0x11 DUP5 PUSH4 0x4E487B71 PUSH1 0xE0 SHL PUSH1 0x0 MSTORE MSTORE PUSH1 0x24 PUSH1 0x0 REVERT JUMPDEST PUSH3 0x461BCD PUSH1 0xE5 SHL DUP3 MSTORE DUP2 DUP5 ADD DUP6 SWAP1 MSTORE PUSH1 0x24 DUP3 ADD MSTORE PUSH32 0x45524332303A206D696E7420746F20746865207A65726F206164647265737300 PUSH1 0x44 DUP3 ADD MSTORE PUSH1 0x64 SWAP2 POP REVERT JUMPDEST ADD MLOAD SWAP2 POP CODESIZE DUP1 PUSH3 0xFD JUMP JUMPDEST SWAP2 SWAP1 DUP7 SWAP5 POP PUSH1 0x1F NOT DUP5 AND SWAP3 DUP9 PUSH1 0x0 MSTORE DUP10 PUSH1 0x0 KECCAK256 SWAP4 PUSH1 0x0 JUMPDEST DUP12 DUP3 DUP3 LT PUSH3 0x37F JUMPI POP POP DUP6 GT PUSH3 0x364 JUMPI JUMPDEST POP POP POP POP DUP2 SHL ADD DUP4 SSTORE PUSH3 0x10F JUMP JUMPDEST ADD MLOAD SWAP1 PUSH1 0xF8 DUP5 PUSH1 0x0 NOT SWAP3 SHL AND SHR NOT AND SWAP1 SSTORE CODESIZE DUP1 DUP1 DUP1 PUSH3 0x355 JUMP JUMPDEST DUP4 DUP6 ADD MLOAD DUP8 SSTORE DUP11 SWAP9 SWAP1 SWAP7 ADD SWAP6 SWAP4 DUP5 ADD SWAP4 ADD PUSH3 0x342 JUMP JUMPDEST SWAP1 SWAP2 SWAP3 POP DUP7 PUSH1 0x0 MSTORE DUP8 PUSH1 0x0 KECCAK256 DUP6 DUP1 DUP7 ADD PUSH1 0x5 SHR DUP3 ADD SWAP3 DUP11 DUP8 LT PUSH3 0x3E4 JUMPI JUMPDEST SWAP2 DUP9 SWAP2 DUP8 SWAP7 SWAP6 SWAP5 SWAP4 ADD PUSH1 0x5 SHR ADD SWAP2 JUMPDEST DUP3 DUP2 LT PUSH3 0x3D4 JUMPI POP POP PUSH3 0xE6 JUMP JUMPDEST PUSH1 0x0 DUP2 SSTORE DUP7 SWAP6 POP DUP9 SWAP2 ADD PUSH3 0x3C4 JUMP JUMPDEST SWAP3 POP DUP2 SWAP3 PUSH3 0x3B5 JUMP JUMPDEST PUSH1 0x22 DUP8 PUSH4 0x4E487B71 PUSH1 0xE0 SHL PUSH1 0x0 MSTORE MSTORE PUSH1 0x24 PUSH1 0x0 REVERT JUMPDEST SWAP1 PUSH1 0x7F AND SWAP1 PUSH3 0xD0 JUMP JUMPDEST PUSH1 0x41 DUP7 PUSH4 0x4E487B71 PUSH1 0xE0 SHL PUSH1 0x0 MSTORE MSTORE PUSH1 0x24 PUSH1 0x0 REVERT JUMPDEST ADD MLOAD SWAP1 POP CODESIZE DUP1 PUSH3 0xA3 JUMP JUMPDEST SWAP1 DUP8 SWAP4 POP PUSH1 0x1F NOT DUP4 AND SWAP2 DUP6 PUSH1 0x0 MSTORE DUP11 PUSH1 0x0 KECCAK256 SWAP3 PUSH1 0x0 JUMPDEST DUP13 DUP3 DUP3 LT PUSH3 0x47F JUMPI POP POP DUP5 GT PUSH3 0x466 JUMPI JUMPDEST POP POP POP DUP2 SHL ADD DUP2 SSTORE PUSH3 0xB5 JUMP JUMPDEST ADD MLOAD PUSH1 0x0 NOT DUP4 DUP7 SHL PUSH1 0xF8 AND SHR NOT AND SWAP1 SSTORE CODESIZE DUP1 DUP1 PUSH3 0x458 JUMP JUMPDEST DUP4 DUP6 ADD MLOAD DUP7 SSTORE DUP12 SWAP8 SWAP1 SWAP6 ADD SWAP5 SWAP4 DUP5 ADD SWAP4 ADD PUSH3 0x445 JUMP JUMPDEST SWAP1 SWAP2 POP DUP4 PUSH1 0x0 MSTORE DUP9 PUSH1 0x0 KECCAK256 DUP7 DUP1 DUP6 ADD PUSH1 0x5 SHR DUP3 ADD SWAP3 DUP12 DUP7 LT PUSH3 0x4E2 JUMPI JUMPDEST SWAP2 DUP10 SWAP2 DUP7 SWAP6 SWAP5 SWAP4 ADD PUSH1 0x5 SHR ADD SWAP2 JUMPDEST DUP3 DUP2 LT PUSH3 0x4D2 JUMPI POP POP PUSH3 0x8C JUMP JUMPDEST PUSH1 0x0 DUP2 SSTORE DUP6 SWAP5 POP DUP10 SWAP2 ADD PUSH3 0x4C2 JUMP JUMPDEST SWAP3 POP DUP2 SWAP3 PUSH3 0x4B4 JUMP JUMPDEST SWAP5 PUSH1 0x7F AND SWAP5 PUSH3 0x75 JUMP JUMPDEST PUSH1 0x41 DUP5 PUSH4 0x4E487B71 PUSH1 0xE0 SHL PUSH1 0x0 MSTORE MSTORE PUSH1 0x24 PUSH1 0x0 REVERT JUMPDEST PUSH1 0x0 DUP1 REVERT JUMPDEST PUSH1 0x40 DUP1 MLOAD SWAP2 SWAP1 DUP3 ADD PUSH1 0x1 PUSH1 0x1 PUSH1 0x40 SHL SUB DUP2 GT DUP4 DUP3 LT OR PUSH3 0x531 JUMPI PUSH1 0x40 MSTORE JUMP JUMPDEST PUSH4 0x4E487B71 PUSH1 0xE0 SHL PUSH1 0x0 MSTORE PUSH1 0x41 PUSH1 0x4 MSTORE PUSH1 0x24 PUSH1 0x0 REVERT INVALID PUSH1 0x80 PUSH1 0x40 DUP2 DUP2 MSTORE PUSH1 0x4 SWAP2 DUP3 CALLDATASIZE LT ISZERO PUSH2 0x16 JUMPI PUSH1 0x0 DUP1 REVERT JUMPDEST PUSH1 0x0 SWAP3 DUP4 CALLDATALOAD PUSH1 0xE0 SHR SWAP2 DUP3 PUSH4 0x6FDDE03 EQ PUSH2 0x12B9 JUMPI POP DUP2 PUSH4 0x95EA7B3 EQ PUSH2 0x128F JUMPI DUP2 PUSH4 0xF5D8524 EQ PUSH2 0x11FD JUMPI DUP2 PUSH4 0x18160DDD EQ PUSH2 0x11DE JUMPI DUP2 PUSH4 0x23B872DD EQ PUSH2 0x11A1 JUMPI DUP2 PUSH4 0x3092AFD5 EQ PUSH2 0x10FD JUMPI DUP2 PUSH4 0x313CE567 EQ PUSH2 0x10E1 JUMPI DUP2 PUSH4 0x39509351 EQ PUSH2 0x1092 JUMPI DUP2 PUSH4 0x3F4BA83A EQ PUSH2 0xFF3 JUMPI DUP2 PUSH4 0x40C10F19 EQ PUSH2 0xDA1 JUMPI DUP2 PUSH4 0x42966C68 EQ PUSH2 0xD4D JUMPI DUP2 PUSH4 0x5C975ABB EQ PUSH2 0xD29 JUMPI DUP2 PUSH4 0x68573107 EQ PUSH2 0xA0D JUMPI DUP2 PUSH4 0x6F241767 EQ PUSH2 0x87D JUMPI DUP2 PUSH4 0x70A08231 EQ PUSH2 0x847 JUMPI DUP2 PUSH4 0x715018A6 EQ PUSH2 0x7DB JUMPI DUP2 PUSH4 0x79CC6790 EQ PUSH2 0x76B JUMPI DUP2 PUSH4 0x8456CB59 EQ PUSH2 0x710 JUMPI DUP2 PUSH4 0x8DA5CB5B EQ PUSH2 0x6E5 JUMPI DUP2 PUSH4 0x95D89B41 EQ PUSH2 0x5E2 JUMPI DUP2 PUSH4 0xA457C2D7 EQ PUSH2 0x521 JUMPI DUP2 PUSH4 0xA9059CBB EQ PUSH2 0x4F0 JUMPI DUP2 PUSH4 0xAA271E1A EQ PUSH2 0x4B4 JUMPI DUP2 PUSH4 0xD45E7A6A EQ PUSH2 0x48F JUMPI DUP2 PUSH4 0xD5ABEB01 EQ PUSH2 0x468 JUMPI DUP2 PUSH4 0xDD62ED3E EQ PUSH2 0x41F JUMPI DUP2 PUSH4 0xEF092065 EQ PUSH2 0x3DB JUMPI DUP2 PUSH4 0xF09B2203 EQ PUSH2 0x31A JUMPI DUP2 PUSH4 0xF2FDE38B EQ PUSH2 0x20F JUMPI POP DUP1 PUSH4 0xF46ECCC4 EQ PUSH2 0x19A JUMPI PUSH4 0xF7EE7A43 EQ PUSH2 0x17A JUMPI PUSH1 0x0 DUP1 REVERT JUMPDEST CALLVALUE PUSH2 0x196 JUMPI DUP2 PUSH1 0x3 NOT CALLDATASIZE ADD SLT PUSH2 0x196 JUMPI PUSH1 0x20 SWAP1 MLOAD PUSH3 0x15180 DUP2 MSTORE RETURN JUMPDEST POP DUP1 REVERT JUMPDEST POP CALLVALUE PUSH2 0x196 JUMPI PUSH1 0x20 CALLDATASIZE PUSH1 0x3 NOT ADD SLT PUSH2 0x196 JUMPI DUP1 PUSH1 0x80 SWAP3 PUSH1 0x1 PUSH1 0x1 PUSH1 0xA0 SHL SUB PUSH2 0x1C0 PUSH2 0x13F7 JUMP JUMPDEST AND DUP2 MSTORE PUSH1 0x7 PUSH1 0x20 MSTORE KECCAK256 SWAP1 PUSH8 0xFFFFFFFFFFFFFFFF PUSH1 0x1 DUP4 SLOAD SWAP4 ADD SLOAD AND SWAP1 DUP1 MLOAD SWAP3 PUSH1 0xFF DUP2 AND ISZERO ISZERO DUP5 MSTORE PUSH12 0xFFFFFFFFFFFFFFFFFFFFFFFF SWAP1 DUP2 DUP2 PUSH1 0x8 SHR AND PUSH1 0x20 DUP7 ADD MSTORE PUSH1 0x68 SHR AND SWAP1 DUP4 ADD MSTORE PUSH1 0x60 DUP3 ADD MSTORE RETURN JUMPDEST SWAP1 POP CALLVALUE PUSH2 0x316 JUMPI PUSH1 0x20 CALLDATASIZE PUSH1 0x3 NOT ADD SLT PUSH2 0x316 JUMPI PUSH2 0x22A PUSH2 0x13F7 JUMP JUMPDEST PUSH2 0x232 PUSH2 0x1490 JUMP JUMPDEST PUSH1 0x1 PUSH1 0x1 PUSH1 0xA0 SHL SUB SWAP2 DUP3 DUP3 AND SWAP4 DUP5 ISZERO PUSH2 0x2AD JUMPI POP POP PUSH21 0xFFFFFFFFFFFFFFFFFFFFFFFFFFFFFFFFFFFFFFFF00 PUSH1 0x5 SLOAD SWAP2 PUSH1 0x8 SHL AND PUSH21 0xFFFFFFFFFFFFFFFFFFFFFFFFFFFFFFFFFFFFFFFF00 NOT DUP3 AND OR PUSH1 0x5 SSTORE PUSH1 0x8 SHR AND PUSH32 0x8BE0079C531659141344CD1FD0A4F28419497F9722A3DAAFE3B4186F6B6457E0 DUP4 DUP1 LOG3 DUP1 RETURN JUMPDEST SWAP1 PUSH1 0x20 PUSH1 0x84 SWAP3 MLOAD SWAP2 PUSH3 0x461BCD PUSH1 0xE5 SHL DUP4 MSTORE DUP3 ADD MSTORE PUSH1 0x26 PUSH1 0x24 DUP3 ADD MSTORE PUSH32 0x4F776E61626C653A206E6577206F776E657220697320746865207A65726F2061 PUSH1 0x44 DUP3 ADD MSTORE PUSH32 0x6464726573730000000000000000000000000000000000000000000000000000 PUSH1 0x64 DUP3 ADD MSTORE REVERT JUMPDEST DUP3 DUP1 REVERT JUMPDEST POP POP CALLVALUE PUSH2 0x196 JUMPI PUSH1 0x20 CALLDATASIZE PUSH1 0x3 NOT ADD SLT PUSH2 0x196 JUMPI PUSH1 0x1 DUP2 PUSH1 0x80 SWAP4 PUSH1 0x1 PUSH1 0x1 PUSH1 0xA0 SHL SUB PUSH2 0x343 PUSH2 0x13F7 JUMP JUMPDEST DUP3 PUSH1 0x60 DUP6 MLOAD PUSH2 0x351 DUP2 PUSH2 0x14EB JUMP JUMPDEST DUP3 DUP2 MSTORE DUP3 PUSH1 0x20 DUP3 ADD MSTORE DUP3 DUP8 DUP3 ADD MSTORE ADD MSTORE AND DUP2 MSTORE PUSH1 0x7 PUSH1 0x20 MSTORE KECCAK256 SWAP2 DUP1 MLOAD SWAP1 PUSH2 0x377 DUP3 PUSH2 0x14EB JUMP JUMPDEST PUSH1 0x60 DUP5 SLOAD PUSH1 0xFF DUP2 AND ISZERO ISZERO SWAP6 DUP7 DUP6 MSTORE PUSH1 0x20 DUP6 ADD PUSH12 0xFFFFFFFFFFFFFFFFFFFFFFFF SWAP4 DUP5 SWAP3 DUP4 DUP6 PUSH1 0x8 SHR AND DUP4 MSTORE DUP4 DUP8 DUP10 ADD SWAP6 PUSH1 0x68 SHR AND DUP6 MSTORE PUSH8 0xFFFFFFFFFFFFFFFF SWAP9 DUP10 SWAP2 ADD SLOAD AND SWAP7 ADD SWAP6 DUP7 MSTORE DUP5 MLOAD SWAP8 DUP9 MSTORE MLOAD AND PUSH1 0x20 DUP8 ADD MSTORE MLOAD AND SWAP1 DUP5 ADD MSTORE MLOAD AND PUSH1 0x60 DUP3 ADD MSTORE RETURN JUMPDEST POP POP CALLVALUE PUSH2 0x196 JUMPI PUSH1 0x20 CALLDATASIZE PUSH1 0x3 NOT ADD SLT PUSH2 0x196 JUMPI PUSH8 0xFFFFFFFFFFFFFFFF PUSH1 0x1 DUP3 PUSH1 0x20 SWAP5 PUSH1 0x1 PUSH1 0x1 PUSH1 0xA0 SHL SUB PUSH2 0x40D PUSH2 0x13F7 JUMP JUMPDEST AND DUP2 MSTORE PUSH1 0x7 DUP7 MSTORE KECCAK256 ADD SLOAD AND SWAP1 MLOAD SWAP1 DUP2 MSTORE RETURN JUMPDEST POP POP CALLVALUE PUSH2 0x196 JUMPI DUP1 PUSH1 0x3 NOT CALLDATASIZE ADD SLT PUSH2 0x196 JUMPI DUP1 PUSH1 0x20 SWAP3 PUSH2 0x43D PUSH2 0x13F7 JUMP JUMPDEST PUSH2 0x445 PUSH2 0x1412 JUMP JUMPDEST PUSH1 0x1 PUSH1 0x1 PUSH1 0xA0 SHL SUB SWAP2 DUP3 AND DUP4 MSTORE PUSH1 0x1 DUP7 MSTORE DUP4 DUP4 KECCAK256 SWAP2 AND DUP3 MSTORE DUP5 MSTORE KECCAK256 SLOAD SWAP1 MLOAD SWAP1 DUP2 MSTORE RETURN JUMPDEST POP POP CALLVALUE PUSH2 0x196 JUMPI DUP2 PUSH1 0x3 NOT CALLDATASIZE ADD SLT PUSH2 0x196 JUMPI PUSH1 0x20 SWAP1 MLOAD PUSH12 0x33B2E3C9FD0803CE8000000 DUP2 MSTORE RETURN JUMPDEST POP POP CALLVALUE PUSH2 0x196 JUMPI DUP2 PUSH1 0x3 NOT CALLDATASIZE ADD SLT PUSH2 0x196 JUMPI PUSH1 0x20 SWAP1 MLOAD PUSH10 0xD3C21BCECCEDA1000000 DUP2 MSTORE RETURN JUMPDEST POP POP CALLVALUE PUSH2 0x196 JUMPI PUSH1 0x20 CALLDATASIZE PUSH1 0x3 NOT ADD SLT PUSH2 0x196 JUMPI PUSH1 0xFF DUP2 PUSH1 0x20 SWAP4 PUSH1 0x1 PUSH1 0x1 PUSH1 0xA0 SHL SUB PUSH2 0x4DD PUSH2 0x13F7 JUMP JUMPDEST AND DUP2 MSTORE PUSH1 0x7 DUP6 MSTORE KECCAK256 SLOAD AND SWAP1 MLOAD SWAP1 ISZERO ISZERO DUP2 MSTORE RETURN JUMPDEST POP POP CALLVALUE PUSH2 0x196 JUMPI DUP1 PUSH1 0x3 NOT CALLDATASIZE ADD SLT PUSH2 0x196 JUMPI PUSH1 0x20 SWAP1 PUSH2 0x51A PUSH2 0x510 PUSH2 0x13F7 JUMP JUMPDEST PUSH1 0x24 CALLDATALOAD SWAP1 CALLER PUSH2 0x1562 JUMP JUMPDEST MLOAD PUSH1 0x1 DUP2 MSTORE RETURN JUMPDEST SWAP1 POP DUP3 CALLVALUE PUSH2 0x5DF JUMPI DUP3 PUSH1 0x3 NOT CALLDATASIZE ADD SLT PUSH2 0x5DF JUMPI PUSH2 0x53C PUSH2 0x13F7 JUMP JUMPDEST SWAP2 DUP4 PUSH1 0x24 CALLDATALOAD SWAP3 CALLER DUP2 MSTORE PUSH1 0x1 PUSH1 0x20 MSTORE DUP2 DUP2 KECCAK256 PUSH1 0x1 PUSH1 0x1 PUSH1 0xA0 SHL SUB DUP7 AND DUP3 MSTORE PUSH1 0x20 MSTORE KECCAK256 SLOAD SWAP1 DUP3 DUP3 LT PUSH2 0x576 JUMPI PUSH1 0x20 DUP6 PUSH2 0x51A DUP6 DUP6 SUB DUP8 CALLER PUSH2 0x171E JUMP JUMPDEST PUSH1 0x84 SWAP1 PUSH1 0x20 DUP7 MLOAD SWAP2 PUSH3 0x461BCD PUSH1 0xE5 SHL DUP4 MSTORE DUP3 ADD MSTORE PUSH1 0x25 PUSH1 0x24 DUP3 ADD MSTORE PUSH32 0x45524332303A2064656372656173656420616C6C6F77616E63652062656C6F77 PUSH1 0x44 DUP3 ADD MSTORE PUSH32 0x207A65726F000000000000000000000000000000000000000000000000000000 PUSH1 0x64 DUP3 ADD MSTORE REVERT JUMPDEST DUP1 REVERT JUMPDEST DUP4 DUP4 CALLVALUE PUSH2 0x196 JUMPI DUP2 PUSH1 0x3 NOT CALLDATASIZE ADD SLT PUSH2 0x196 JUMPI DUP1 MLOAD SWAP2 DUP1 SWAP4 DUP1 SLOAD SWAP2 PUSH1 0x1 SWAP1 DUP4 DUP3 SHR SWAP3 DUP3 DUP6 AND SWAP5 DUP6 ISZERO PUSH2 0x6DB JUMPI JUMPDEST PUSH1 0x20 SWAP6 DUP7 DUP7 LT DUP2 EQ PUSH2 0x6C8 JUMPI DUP6 DUP10 MSTORE SWAP1 DUP2 ISZERO PUSH2 0x6A4 JUMPI POP PUSH1 0x1 EQ PUSH2 0x64C JUMPI JUMPDEST PUSH2 0x648 DUP8 DUP8 PUSH2 0x63E DUP3 DUP13 SUB DUP4 PUSH2 0x151D JUMP JUMPDEST MLOAD SWAP2 DUP3 SWAP2 DUP3 PUSH2 0x13AE JUMP JUMPDEST SUB SWAP1 RETURN JUMPDEST DUP2 MSTORE SWAP3 SWAP6 POP PUSH32 0x8A35ACFBC15FF81A39AE7D344FD709F28E8600B4AA8C65C6B64BFE7FE36BD19B JUMPDEST DUP3 DUP5 LT PUSH2 0x691 JUMPI POP POP POP DUP3 PUSH2 0x648 SWAP5 PUSH2 0x63E SWAP3 DUP3 ADD ADD SWAP5 DUP7 DUP1 PUSH2 0x62D JUMP JUMPDEST DUP1 SLOAD DUP7 DUP6 ADD DUP9 ADD MSTORE SWAP3 DUP7 ADD SWAP3 DUP2 ADD PUSH2 0x673 JUMP JUMPDEST PUSH1 0xFF NOT AND DUP9 DUP8 ADD MSTORE POP POP POP POP ISZERO ISZERO PUSH1 0x5 SHL DUP4 ADD ADD SWAP3 POP PUSH2 0x63E DUP3 PUSH2 0x648 DUP7 DUP1 PUSH2 0x62D JUMP JUMPDEST PUSH1 0x24 DUP5 PUSH1 0x22 DUP6 PUSH4 0x4E487B71 PUSH1 0xE0 SHL DUP4 MSTORE MSTORE REVERT JUMPDEST SWAP4 PUSH1 0x7F AND SWAP4 PUSH2 0x60E JUMP JUMPDEST POP POP CALLVALUE PUSH2 0x196 JUMPI DUP2 PUSH1 0x3 NOT CALLDATASIZE ADD SLT PUSH2 0x196 JUMPI PUSH1 0x20 SWAP1 PUSH1 0x1 PUSH1 0x1 PUSH1 0xA0 SHL SUB PUSH1 0x5 SLOAD PUSH1 0x8 SHR AND SWAP1 MLOAD SWAP1 DUP2 MSTORE RETURN JUMPDEST POP POP CALLVALUE PUSH2 0x196 JUMPI DUP2 PUSH1 0x3 NOT CALLDATASIZE ADD SLT PUSH2 0x196 JUMPI PUSH1 0x20 PUSH32 0x62E78CEA01BEE320CD4E420270B5EA74000D11B0C9F74754EBDBFC544B05A258 SWAP2 PUSH2 0x74E PUSH2 0x1490 JUMP JUMPDEST PUSH2 0x756 PUSH2 0x18EA JUMP JUMPDEST PUSH1 0x1 PUSH1 0xFF NOT PUSH1 0x5 SLOAD AND OR PUSH1 0x5 SSTORE MLOAD CALLER DUP2 MSTORE LOG1 DUP1 RETURN JUMPDEST POP POP CALLVALUE PUSH2 0x196 JUMPI DUP1 PUSH1 0x3 NOT CALLDATASIZE ADD SLT PUSH2 0x196 JUMPI PUSH32 0xFD38818F5291BF0BB3A2A48AADC06BA8757865D1DABD804585338AAB3009DCB6 PUSH1 0x20 PUSH1 0x1 PUSH1 0x1 PUSH1 0xA0 SHL SUB PUSH2 0x7B0 PUSH2 0x13F7 JUMP JUMPDEST PUSH1 0x24 CALLDATALOAD SWAP5 PUSH2 0x7BC PUSH2 0x18EA JUMP JUMPDEST PUSH2 0x7C7 DUP7 CALLER DUP5 PUSH2 0x1852 JUMP JUMPDEST PUSH2 0x7D1 DUP7 DUP4 PUSH2 0x1A73 JUMP JUMPDEST MLOAD SWAP5 DUP6 MSTORE AND SWAP3 LOG2 DUP1 RETURN JUMPDEST DUP4 CALLVALUE PUSH2 0x5DF JUMPI DUP1 PUSH1 0x3 NOT CALLDATASIZE ADD SLT PUSH2 0x5DF JUMPI PUSH2 0x7F4 PUSH2 0x1490 JUMP JUMPDEST DUP1 PUSH1 0x1 PUSH1 0x1 PUSH1 0xA0 SHL SUB PUSH1 0x5 SLOAD PUSH21 0xFFFFFFFFFFFFFFFFFFFFFFFFFFFFFFFFFFFFFFFF00 NOT DUP2 AND PUSH1 0x5 SSTORE PUSH1 0x8 SHR AND PUSH32 0x8BE0079C531659141344CD1FD0A4F28419497F9722A3DAAFE3B4186F6B6457E0 DUP3 DUP1 LOG3 DUP1 RETURN JUMPDEST POP POP CALLVALUE PUSH2 0x196 JUMPI PUSH1 0x20 CALLDATASIZE PUSH1 0x3 NOT ADD SLT PUSH2 0x196 JUMPI DUP1 PUSH1 0x20 SWAP3 PUSH1 0x1 PUSH1 0x1 PUSH1 0xA0 SHL SUB PUSH2 0x86E PUSH2 0x13F7 JUMP JUMPDEST AND DUP2 MSTORE DUP1 DUP5 MSTORE KECCAK256 SLOAD SWAP1 MLOAD SWAP1 DUP2 MSTORE RETURN JUMPDEST SWAP2 SWAP1 POP CALLVALUE PUSH2 0x316 JUMPI PUSH1 0x1 PUSH1 0x1 PUSH1 0xA0 SHL SUB PUSH2 0x896 CALLDATASIZE PUSH2 0x1428 JUMP JUMPDEST SWAP2 SWAP1 PUSH2 0x8A0 PUSH2 0x1490 JUMP JUMPDEST AND SWAP3 DUP4 ISZERO PUSH2 0x9FF JUMPI DUP4 DUP6 MSTORE PUSH1 0x7 PUSH1 0x20 MSTORE PUSH1 0xFF DUP4 DUP7 KECCAK256 SLOAD AND PUSH2 0x9D8 JUMPI POP DUP3 DUP3 DUP6 PUSH1 0x20 SWAP4 PUSH1 0x1 PUSH32 0x7D892828E4525BFAE295B0E5641E236A5F5EFF36ED1BE675DCC9A8FC5850C853 SWAP7 MLOAD PUSH2 0x8F0 DUP2 PUSH2 0x14EB JUMP JUMPDEST DUP2 DUP2 MSTORE PUSH2 0x9BC DUP8 DUP3 ADD DUP6 DUP2 MSTORE DUP7 DUP4 ADD PUSH2 0x972 PUSH12 0xFFFFFFFFFFFFFFFFFFFFFFFF DUP1 SWAP4 DUP2 TIMESTAMP AND DUP5 MSTORE DUP11 PUSH1 0x60 DUP9 ADD SWAP11 PUSH8 0xFFFFFFFFFFFFFFFF DUP1 SWAP12 AND SWAP14 DUP15 DUP14 MSTORE DUP2 MSTORE PUSH1 0x7 DUP16 MSTORE KECCAK256 SWAP7 MLOAD ISZERO ISZERO PUSH1 0xFF DUP1 NOT DUP10 SLOAD AND SWAP2 AND OR DUP8 SSTORE MLOAD AND DUP6 SWAP1 PUSH13 0xFFFFFFFFFFFFFFFFFFFFFFFF00 DUP3 SLOAD SWAP2 PUSH1 0x8 SHL AND SWAP1 PUSH13 0xFFFFFFFFFFFFFFFFFFFFFFFF00 NOT AND OR SWAP1 SSTORE JUMP JUMPDEST MLOAD DUP4 SLOAD PUSH32 0xFFFFFFFFFFFFFF000000000000000000000000FFFFFFFFFFFFFFFFFFFFFFFFFF AND SWAP2 AND PUSH1 0x68 SHL PUSH25 0xFFFFFFFFFFFFFFFFFFFFFFFF00000000000000000000000000 AND OR DUP3 SSTORE JUMP JUMPDEST ADD SWAP2 MLOAD AND PUSH8 0xFFFFFFFFFFFFFFFF NOT DUP3 SLOAD AND OR SWAP1 SSTORE MLOAD SWAP1 DUP2 MSTORE LOG2 DUP1 RETURN JUMPDEST DUP3 MLOAD PUSH32 0xE0D9FF800000000000000000000000000000000000000000000000000000000 DUP2 MSTORE REVERT JUMPDEST DUP3 MLOAD PUSH4 0xD92E233D PUSH1 0xE0 SHL DUP2 MSTORE REVERT JUMPDEST SWAP1 POP CALLVALUE PUSH2 0x316 JUMPI DUP2 PUSH1 0x3 NOT CALLDATASIZE ADD SLT PUSH2 0x316 JUMPI PUSH8 0xFFFFFFFFFFFFFFFF SWAP2 DUP2 CALLDATALOAD DUP4 DUP2 GT PUSH2 0xD25 JUMPI PUSH2 0xA3F SWAP1 CALLDATASIZE SWAP1 DUP5 ADD PUSH2 0x145F JUMP JUMPDEST SWAP2 SWAP1 SWAP3 PUSH1 0x24 CALLDATALOAD DUP6 DUP2 GT PUSH2 0xD21 JUMPI PUSH2 0xA59 SWAP1 CALLDATASIZE SWAP1 DUP4 ADD PUSH2 0x145F JUMP JUMPDEST SWAP1 SWAP4 CALLER DUP9 MSTORE PUSH1 0x20 SWAP3 PUSH1 0x7 DUP5 MSTORE PUSH1 0xFF DUP6 DUP11 KECCAK256 SLOAD AND ISZERO DUP1 PUSH2 0xD09 JUMPI JUMPDEST PUSH2 0xCFB JUMPI PUSH2 0xA7F PUSH2 0x18EA JUMP JUMPDEST PUSH2 0xA87 PUSH2 0x193A JUMP JUMPDEST DUP3 DUP3 SUB PUSH2 0xCED JUMPI DUP9 DUP10 JUMPDEST DUP4 DUP2 LT PUSH2 0xCA2 JUMPI POP PUSH12 0x33B2E3C9FD0803CE8000000 PUSH2 0xAB2 DUP3 PUSH1 0x2 SLOAD PUSH2 0x153F JUMP JUMPDEST GT PUSH2 0xC93 JUMPI CALLER DUP11 MSTORE PUSH1 0x7 DUP6 MSTORE DUP6 DUP11 KECCAK256 SWAP9 DUP10 SLOAD SWAP10 PUSH12 0xFFFFFFFFFFFFFFFFFFFFFFFF SWAP11 DUP12 DUP2 PUSH1 0x68 SHR AND PUSH3 0x15180 DUP2 ADD DUP1 SWAP2 GT PUSH2 0xC80 JUMPI TIMESTAMP LT ISZERO PUSH2 0xC35 JUMPI POP PUSH10 0xD3C21BCECCEDA1000000 PUSH2 0xB09 DUP5 DUP14 DUP5 SLOAD PUSH1 0x8 SHR AND PUSH2 0x153F JUMP JUMPDEST GT PUSH2 0xC26 JUMPI JUMPDEST PUSH1 0x1 SWAP11 DUP12 DUP3 ADD SWAP5 DUP4 DUP7 SLOAD AND DUP6 GT PUSH2 0xC18 JUMPI POP DUP2 SLOAD PUSH13 0xFFFFFFFFFFFFFFFFFFFFFFFF00 NOT DUP2 AND PUSH1 0x8 SWAP2 DUP3 SHR DUP4 AND DUP7 DUP5 AND ADD SWAP1 SWAP3 AND SWAP1 SHL PUSH13 0xFFFFFFFFFFFFFFFFFFFFFFFF00 AND OR SWAP1 SSTORE DUP3 SLOAD SWAP2 DUP2 DUP4 AND SWAP1 DUP3 DUP3 SUB PUSH2 0xBFA JUMPI JUMPDEST POP POP POP POP POP DUP7 DUP9 JUMPDEST DUP3 DUP2 LT PUSH2 0xB7C JUMPI DUP10 DUP3 PUSH1 0x6 SSTORE DUP1 RETURN JUMPDEST PUSH2 0xBA4 PUSH2 0xB92 PUSH2 0xB8D DUP4 DUP7 DUP13 PUSH2 0x1A39 JUMP JUMPDEST PUSH2 0x1A5F JUMP JUMPDEST PUSH2 0xB9D DUP4 DUP8 DUP12 PUSH2 0x1A39 JUMP JUMPDEST CALLDATALOAD SWAP1 PUSH2 0x198F JUMP JUMPDEST PUSH2 0xBB2 PUSH2 0xB8D DUP3 DUP6 DUP12 PUSH2 0x1A39 JUMP JUMPDEST PUSH2 0xBBD DUP3 DUP7 DUP11 PUSH2 0x1A39 JUMP JUMPDEST CALLDATALOAD DUP8 MLOAD SWAP1 DUP2 MSTORE PUSH32 0xBF67EC129007BE07F346D9D2933215293A6612CE7FF17D6B479A5A5CAE72890C DUP8 PUSH1 0x1 PUSH1 0x1 PUSH1 0xA0 SHL SUB CALLER SWAP5 AND SWAP3 LOG3 ADD DUP8 SWAP1 PUSH2 0xB6D JUMP JUMPDEST DUP3 AND SWAP1 SUB AND SWAP1 PUSH8 0xFFFFFFFFFFFFFFFF NOT AND OR SWAP1 SSTORE CODESIZE DUP1 DUP1 DUP1 DUP1 PUSH2 0xB65 JUMP JUMPDEST DUP10 MLOAD PUSH4 0x13BE252B PUSH1 0xE0 SHL DUP2 MSTORE REVERT JUMPDEST DUP4 DUP9 MLOAD PUSH4 0x6AE01913 PUSH1 0xE1 SHL DUP2 MSTORE REVERT JUMPDEST PUSH32 0xFFFFFFFFFFFFFF000000000000000000000000000000000000000000000000FF AND TIMESTAMP DUP13 AND PUSH1 0x68 SHL PUSH25 0xFFFFFFFFFFFFFFFFFFFFFFFF00000000000000000000000000 AND OR DUP2 SSTORE PUSH2 0xB0F JUMP JUMPDEST PUSH1 0x24 DUP15 PUSH1 0x11 DUP9 PUSH4 0x4E487B71 PUSH1 0xE0 SHL DUP4 MSTORE MSTORE REVERT JUMPDEST POP DUP5 MLOAD PUSH4 0xC30436E9 PUSH1 0xE0 SHL DUP2 MSTORE REVERT JUMPDEST SWAP1 PUSH1 0x1 PUSH1 0x1 PUSH1 0xA0 SHL SUB PUSH2 0xCB9 PUSH2 0xB8D DUP5 DUP8 DUP14 PUSH2 0x1A39 JUMP JUMPDEST AND ISZERO PUSH2 0xCDE JUMPI PUSH2 0xCD7 PUSH1 0x1 SWAP2 PUSH2 0xCD0 DUP5 DUP9 DUP13 PUSH2 0x1A39 JUMP JUMPDEST CALLDATALOAD SWAP1 PUSH2 0x153F JUMP JUMPDEST SWAP2 ADD PUSH2 0xA91 JUMP JUMPDEST DUP3 DUP8 MLOAD PUSH4 0xD92E233D PUSH1 0xE0 SHL DUP2 MSTORE REVERT JUMPDEST DUP5 MLOAD PUSH4 0x162908E3 PUSH1 0xE1 SHL DUP2 MSTORE REVERT JUMPDEST DUP5 MLOAD PUSH4 0xD8D5894F PUSH1 0xE0 SHL DUP2 MSTORE REVERT JUMPDEST POP PUSH1 0x1 PUSH1 0x1 PUSH1 0xA0 SHL SUB PUSH1 0x5 SLOAD PUSH1 0x8 SHR AND CALLER EQ ISZERO PUSH2 0xA73 JUMP JUMPDEST DUP7 DUP1 REVERT JUMPDEST DUP5 DUP1 REVERT JUMPDEST POP POP CALLVALUE PUSH2 0x196 JUMPI DUP2 PUSH1 0x3 NOT CALLDATASIZE ADD SLT PUSH2 0x196 JUMPI PUSH1 0x20 SWAP1 PUSH1 0xFF PUSH1 0x5 SLOAD AND SWAP1 MLOAD SWAP1 ISZERO ISZERO DUP2 MSTORE RETURN JUMPDEST SWAP1 POP CALLVALUE PUSH2 0x316 JUMPI PUSH1 0x20 CALLDATASIZE PUSH1 0x3 NOT ADD SLT PUSH2 0x316 JUMPI CALLDATALOAD SWAP1 PUSH2 0xD6A PUSH2 0x18EA JUMP JUMPDEST PUSH2 0xD74 DUP3 CALLER PUSH2 0x1A73 JUMP JUMPDEST MLOAD SWAP1 DUP2 MSTORE PUSH32 0xFD38818F5291BF0BB3A2A48AADC06BA8757865D1DABD804585338AAB3009DCB6 PUSH1 0x20 CALLER SWAP3 LOG2 DUP1 RETURN JUMPDEST SWAP1 POP CALLVALUE PUSH2 0x316 JUMPI DUP2 PUSH1 0x3 NOT CALLDATASIZE ADD SLT PUSH2 0x316 JUMPI PUSH2 0xDBB PUSH2 0x13F7 JUMP JUMPDEST SWAP2 PUSH1 0x24 CALLDATALOAD SWAP3 CALLER DUP6 MSTORE PUSH1 0x7 PUSH1 0x20 MSTORE PUSH1 0xFF DUP3 DUP7 KECCAK256 SLOAD AND ISZERO DUP1 PUSH2 0xFDB JUMPI JUMPDEST PUSH2 0xFCD JUMPI PUSH2 0xDE2 PUSH2 0x18EA JUMP JUMPDEST PUSH1 0x1 PUSH1 0x1 PUSH1 0xA0 SHL SUB DUP2 AND SWAP3 DUP4 ISZERO PUSH2 0x9FF JUMPI PUSH2 0xDFB PUSH2 0x193A JUMP JUMPDEST DUP5 ISZERO PUSH2 0xFBF JUMPI PUSH12 0x33B2E3C9FD0803CE8000000 PUSH2 0xE1A DUP7 PUSH1 0x2 SLOAD PUSH2 0x153F JUMP JUMPDEST GT PUSH2 0xFB1 JUMPI CALLER DUP7 MSTORE PUSH1 0x7 PUSH1 0x20 MSTORE DUP3 DUP7 KECCAK256 SWAP1 DUP2 SLOAD SWAP2 PUSH12 0xFFFFFFFFFFFFFFFFFFFFFFFF SWAP3 DUP4 DUP2 PUSH1 0x68 SHR AND PUSH3 0x15180 DUP2 ADD DUP1 SWAP2 GT PUSH2 0xF9E JUMPI TIMESTAMP LT ISZERO PUSH2 0xF53 JUMPI POP PUSH10 0xD3C21BCECCEDA1000000 PUSH2 0xE72 DUP9 DUP6 DUP5 SLOAD PUSH1 0x8 SHR AND PUSH2 0x153F JUMP JUMPDEST GT PUSH2 0xF44 JUMPI JUMPDEST PUSH1 0x1 DUP2 ADD SWAP3 PUSH8 0xFFFFFFFFFFFFFFFF SWAP3 DUP4 DUP6 SLOAD AND DUP10 GT PUSH2 0xF36 JUMPI POP DUP2 SLOAD PUSH13 0xFFFFFFFFFFFFFFFFFFFFFFFF00 NOT DUP2 AND PUSH1 0x8 SWAP2 DUP3 SHR DUP4 AND DUP11 DUP5 AND ADD SWAP1 SWAP3 AND SWAP1 SHL PUSH13 0xFFFFFFFFFFFFFFFFFFFFFFFF00 AND OR SWAP1 SSTORE PUSH2 0xEE6 SWAP3 DUP7 SWAP3 SWAP1 SWAP2 DUP2 SLOAD SWAP1 DUP1 DUP3 AND DUP2 DUP2 SUB PUSH2 0xF18 JUMPI JUMPDEST POP POP POP POP PUSH2 0x198F JUMP JUMPDEST MLOAD SWAP2 DUP3 MSTORE PUSH32 0xBF67EC129007BE07F346D9D2933215293A6612CE7FF17D6B479A5A5CAE72890C PUSH1 0x20 CALLER SWAP4 LOG3 PUSH1 0x1 PUSH1 0x6 SSTORE DUP1 RETURN JUMPDEST DUP2 DUP7 AND SWAP1 SUB AND SWAP1 PUSH8 0xFFFFFFFFFFFFFFFF NOT AND OR SWAP1 SSTORE CODESIZE DUP1 DUP1 DUP1 PUSH2 0xEDD JUMP JUMPDEST DUP7 MLOAD PUSH4 0x13BE252B PUSH1 0xE0 SHL DUP2 MSTORE REVERT JUMPDEST POP DUP4 MLOAD PUSH4 0x6AE01913 PUSH1 0xE1 SHL DUP2 MSTORE REVERT JUMPDEST PUSH32 0xFFFFFFFFFFFFFF000000000000000000000000000000000000000000000000FF AND TIMESTAMP DUP5 AND PUSH1 0x68 SHL PUSH25 0xFFFFFFFFFFFFFFFFFFFFFFFF00000000000000000000000000 AND OR DUP2 SSTORE PUSH2 0xE78 JUMP JUMPDEST PUSH1 0x24 DUP11 PUSH1 0x11 DUP7 PUSH4 0x4E487B71 PUSH1 0xE0 SHL DUP4 MSTORE MSTORE REVERT JUMPDEST DUP3 MLOAD PUSH4 0xC30436E9 PUSH1 0xE0 SHL DUP2 MSTORE REVERT JUMPDEST DUP3 MLOAD PUSH4 0x162908E3 PUSH1 0xE1 SHL DUP2 MSTORE REVERT JUMPDEST POP MLOAD PUSH4 0xD8D5894F PUSH1 0xE0 SHL DUP2 MSTORE REVERT JUMPDEST POP PUSH1 0x1 PUSH1 0x1 PUSH1 0xA0 SHL SUB PUSH1 0x5 SLOAD PUSH1 0x8 SHR AND CALLER EQ ISZERO PUSH2 0xDD6 JUMP JUMPDEST SWAP1 POP CALLVALUE PUSH2 0x316 JUMPI DUP3 PUSH1 0x3 NOT CALLDATASIZE ADD SLT PUSH2 0x316 JUMPI PUSH2 0x100D PUSH2 0x1490 JUMP JUMPDEST PUSH1 0x5 SLOAD SWAP1 PUSH1 0xFF DUP3 AND ISZERO PUSH2 0x104F JUMPI POP PUSH1 0xFF NOT AND PUSH1 0x5 SSTORE MLOAD CALLER DUP2 MSTORE PUSH32 0x5DB9EE0A495BF2E6FF9C91A7834C1BA4FDD244A5E8AA4E537BD38AEAE4B073AA SWAP1 PUSH1 0x20 SWAP1 LOG1 DUP1 RETURN JUMPDEST PUSH1 0x64 SWAP1 PUSH1 0x20 DUP5 MLOAD SWAP2 PUSH3 0x461BCD PUSH1 0xE5 SHL DUP4 MSTORE DUP3 ADD MSTORE PUSH1 0x14 PUSH1 0x24 DUP3 ADD MSTORE PUSH32 0x5061757361626C653A206E6F7420706175736564000000000000000000000000 PUSH1 0x44 DUP3 ADD MSTORE REVERT JUMPDEST POP POP CALLVALUE PUSH2 0x196 JUMPI DUP1 PUSH1 0x3 NOT CALLDATASIZE ADD SLT PUSH2 0x196 JUMPI PUSH2 0x51A PUSH1 0x20 SWAP3 PUSH2 0x10DA PUSH2 0x10B5 PUSH2 0x13F7 JUMP JUMPDEST SWAP2 CALLER DUP2 MSTORE PUSH1 0x1 DUP7 MSTORE DUP5 DUP2 KECCAK256 PUSH1 0x1 PUSH1 0x1 PUSH1 0xA0 SHL SUB DUP5 AND DUP3 MSTORE DUP7 MSTORE DUP5 PUSH1 0x24 CALLDATALOAD SWAP2 KECCAK256 SLOAD PUSH2 0x153F JUMP JUMPDEST SWAP1 CALLER PUSH2 0x171E JUMP JUMPDEST POP POP CALLVALUE PUSH2 0x196 JUMPI DUP2 PUSH1 0x3 NOT CALLDATASIZE ADD SLT PUSH2 0x196 JUMPI PUSH1 0x20 SWAP1 MLOAD PUSH1 0x12 DUP2 MSTORE RETURN JUMPDEST SWAP2 SWAP1 POP CALLVALUE PUSH2 0x316 JUMPI PUSH1 0x20 CALLDATASIZE PUSH1 0x3 NOT ADD SLT PUSH2 0x316 JUMPI PUSH1 0x1 PUSH1 0x1 PUSH1 0xA0 SHL SUB PUSH2 0x1121 PUSH2 0x13F7 JUMP JUMPDEST PUSH2 0x1129 PUSH2 0x1490 JUMP JUMPDEST AND SWAP2 DUP3 DUP5 MSTORE PUSH1 0x7 PUSH1 0x20 MSTORE PUSH1 0xFF DUP3 DUP6 KECCAK256 SLOAD AND ISZERO PUSH2 0x117A JUMPI POP PUSH1 0x1 DUP4 SWAP2 DUP4 DUP4 MSTORE PUSH1 0x7 PUSH1 0x20 MSTORE DUP3 KECCAK256 DUP3 DUP2 SSTORE ADD SSTORE PUSH32 0xE94479A9F7E1952CC78F2D6BAAB678ADC1B772D936C6583DEF489E524CB66692 DUP3 DUP1 LOG2 DUP1 RETURN JUMPDEST SWAP1 MLOAD PUSH32 0x7C46C2B100000000000000000000000000000000000000000000000000000000 DUP2 MSTORE REVERT JUMPDEST POP POP CALLVALUE PUSH2 0x196 JUMPI PUSH1 0x60 CALLDATASIZE PUSH1 0x3 NOT ADD SLT PUSH2 0x196 JUMPI PUSH1 0x20 SWAP1 PUSH2 0x51A PUSH2 0x11C2 PUSH2 0x13F7 JUMP JUMPDEST PUSH2 0x11CA PUSH2 0x1412 JUMP JUMPDEST PUSH1 0x44 CALLDATALOAD SWAP2 PUSH2 0x11D9 DUP4 CALLER DUP4 PUSH2 0x1852 JUMP JUMPDEST PUSH2 0x1562 JUMP JUMPDEST POP POP CALLVALUE PUSH2 0x196 JUMPI DUP2 PUSH1 0x3 NOT CALLDATASIZE ADD SLT PUSH2 0x196 JUMPI PUSH1 0x20 SWAP1 PUSH1 0x2 SLOAD SWAP1 MLOAD SWAP1 DUP2 MSTORE RETURN JUMPDEST SWAP2 SWAP1 POP CALLVALUE PUSH2 0x316 JUMPI PUSH1 0x1 PUSH1 0x1 PUSH1 0xA0 SHL SUB SWAP1 PUSH2 0x1217 CALLDATASIZE PUSH2 0x1428 JUMP JUMPDEST SWAP3 SWAP1 PUSH2 0x1221 PUSH2 0x1490 JUMP JUMPDEST AND SWAP3 DUP4 DUP6 MSTORE PUSH1 0x7 PUSH1 0x20 MSTORE PUSH1 0xFF DUP3 DUP7 KECCAK256 SLOAD AND ISZERO PUSH2 0x117A JUMPI POP PUSH32 0x4126147D688F3ACF6F4D8552AB7BD5D1AA6C0DB60D931274901938A08370429A SWAP2 PUSH1 0x20 SWAP2 DUP5 DUP7 MSTORE PUSH1 0x7 DUP4 MSTORE PUSH8 0xFFFFFFFFFFFFFFFF PUSH1 0x1 DUP3 DUP9 KECCAK256 ADD SWAP3 AND SWAP2 DUP3 PUSH8 0xFFFFFFFFFFFFFFFF NOT DUP3 SLOAD AND OR SWAP1 SSTORE MLOAD SWAP1 DUP2 MSTORE LOG2 DUP1 RETURN JUMPDEST POP POP CALLVALUE PUSH2 0x196 JUMPI DUP1 PUSH1 0x3 NOT CALLDATASIZE ADD SLT PUSH2 0x196 JUMPI PUSH1 0x20 SWAP1 PUSH2 0x51A PUSH2 0x12AF PUSH2 0x13F7 JUMP JUMPDEST PUSH1 0x24 CALLDATALOAD SWAP1 CALLER PUSH2 0x171E JUMP JUMPDEST SWAP3 SWAP2 POP CALLVALUE PUSH2 0x13AA JUMPI DUP4 PUSH1 0x3 NOT CALLDATASIZE ADD SLT PUSH2 0x13AA JUMPI PUSH1 0x3 SLOAD PUSH1 0x1 DUP2 DUP2 SHR SWAP2 DUP7 SWAP1 DUP3 DUP2 AND DUP1 ISZERO PUSH2 0x13A0 JUMPI JUMPDEST PUSH1 0x20 SWAP6 DUP7 DUP7 LT DUP3 EQ PUSH2 0x138D JUMPI POP DUP5 DUP9 MSTORE SWAP1 DUP2 ISZERO PUSH2 0x136B JUMPI POP PUSH1 0x1 EQ PUSH2 0x1312 JUMPI JUMPDEST PUSH2 0x648 DUP7 DUP7 PUSH2 0x63E DUP3 DUP12 SUB DUP4 PUSH2 0x151D JUMP JUMPDEST SWAP3 SWAP6 POP PUSH1 0x3 DUP4 MSTORE PUSH32 0xC2575A0E9E593C00F959F8C92F12DB2869C3395A3B0502D05E2516446F71F85B JUMPDEST DUP3 DUP5 LT PUSH2 0x1358 JUMPI POP POP POP DUP3 PUSH2 0x648 SWAP5 PUSH2 0x63E SWAP3 DUP3 ADD ADD SWAP5 CODESIZE PUSH2 0x1301 JUMP JUMPDEST DUP1 SLOAD DUP7 DUP6 ADD DUP9 ADD MSTORE SWAP3 DUP7 ADD SWAP3 DUP2 ADD PUSH2 0x133B JUMP JUMPDEST PUSH1 0xFF NOT AND DUP8 DUP7 ADD MSTORE POP POP POP ISZERO ISZERO PUSH1 0x5 SHL DUP4 ADD ADD SWAP3 POP PUSH2 0x63E DUP3 PUSH2 0x648 CODESIZE PUSH2 0x1301 JUMP JUMPDEST DUP4 PUSH1 0x22 PUSH1 0x24 SWAP3 PUSH4 0x4E487B71 PUSH1 0xE0 SHL DUP4 MSTORE MSTORE REVERT JUMPDEST SWAP4 PUSH1 0x7F AND SWAP4 PUSH2 0x12E1 JUMP JUMPDEST DUP4 DUP1 REVERT JUMPDEST PUSH1 0x20 DUP1 DUP3 MSTORE DUP3 MLOAD DUP2 DUP4 ADD DUP2 SWAP1 MSTORE SWAP1 SWAP4 SWAP3 PUSH1 0x0 JUMPDEST DUP3 DUP2 LT PUSH2 0x13E3 JUMPI POP POP PUSH1 0x40 SWAP3 SWAP4 POP PUSH1 0x0 DUP4 DUP3 DUP5 ADD ADD MSTORE PUSH1 0x1F DUP1 NOT SWAP2 ADD AND ADD ADD SWAP1 JUMP JUMPDEST DUP2 DUP2 ADD DUP7 ADD MLOAD DUP5 DUP3 ADD PUSH1 0x40 ADD MSTORE DUP6 ADD PUSH2 0x13C1 JUMP JUMPDEST PUSH1 0x4 CALLDATALOAD SWAP1 PUSH1 0x1 PUSH1 0x1 PUSH1 0xA0 SHL SUB DUP3 AND DUP3 SUB PUSH2 0x140D JUMPI JUMP JUMPDEST PUSH1 0x0 DUP1 REVERT JUMPDEST PUSH1 0x24 CALLDATALOAD SWAP1 PUSH1 0x1 PUSH1 0x1 PUSH1 0xA0 SHL SUB DUP3 AND DUP3 SUB PUSH2 0x140D JUMPI JUMP JUMPDEST PUSH1 0x40 SWAP1 PUSH1 0x3 NOT ADD SLT PUSH2 0x140D JUMPI PUSH1 0x4 CALLDATALOAD PUSH1 0x1 PUSH1 0x1 PUSH1 0xA0 SHL SUB DUP2 AND DUP2 SUB PUSH2 0x140D JUMPI SWAP1 PUSH1 0x24 CALLDATALOAD PUSH8 0xFFFFFFFFFFFFFFFF DUP2 AND DUP2 SUB PUSH2 0x140D JUMPI SWAP1 JUMP JUMPDEST SWAP2 DUP2 PUSH1 0x1F DUP5 ADD SLT ISZERO PUSH2 0x140D JUMPI DUP3 CALLDATALOAD SWAP2 PUSH8 0xFFFFFFFFFFFFFFFF DUP4 GT PUSH2 0x140D JUMPI PUSH1 0x20 DUP1 DUP6 ADD SWAP5 DUP5 PUSH1 0x5 SHL ADD ADD GT PUSH2 0x140D JUMPI JUMP JUMPDEST PUSH1 0x1 PUSH1 0x1 PUSH1 0xA0 SHL SUB PUSH1 0x5 SLOAD PUSH1 0x8 SHR AND CALLER SUB PUSH2 0x14A7 JUMPI JUMP JUMPDEST PUSH1 0x64 PUSH1 0x40 MLOAD PUSH3 0x461BCD PUSH1 0xE5 SHL DUP2 MSTORE PUSH1 0x20 PUSH1 0x4 DUP3 ADD MSTORE PUSH1 0x20 PUSH1 0x24 DUP3 ADD MSTORE PUSH32 0x4F776E61626C653A2063616C6C6572206973206E6F7420746865206F776E6572 PUSH1 0x44 DUP3 ADD MSTORE REVERT JUMPDEST PUSH1 0x80 DUP2 ADD SWAP1 DUP2 LT PUSH8 0xFFFFFFFFFFFFFFFF DUP3 GT OR PUSH2 0x1507 JUMPI PUSH1 0x40 MSTORE JUMP JUMPDEST PUSH4 0x4E487B71 PUSH1 0xE0 SHL PUSH1 0x0 MSTORE PUSH1 0x41 PUSH1 0x4 MSTORE PUSH1 0x24 PUSH1 0x0 REVERT JUMPDEST SWAP1 PUSH1 0x1F DUP1 NOT SWAP2 ADD AND DUP2 ADD SWAP1 DUP2 LT PUSH8 0xFFFFFFFFFFFFFFFF DUP3 GT OR PUSH2 0x1507 JUMPI PUSH1 0x40 MSTORE JUMP JUMPDEST SWAP2 SWAP1 DUP3 ADD DUP1 SWAP3 GT PUSH2 0x154C JUMPI JUMP JUMPDEST PUSH4 0x4E487B71 PUSH1 0xE0 SHL PUSH1 0x0 MSTORE PUSH1 0x11 PUSH1 0x4 MSTORE PUSH1 0x24 PUSH1 0x0 REVERT JUMPDEST PUSH1 0x1 PUSH1 0x1 PUSH1 0xA0 SHL SUB DUP1 SWAP2 AND SWAP2 DUP3 ISZERO PUSH2 0x16B4 JUMPI AND SWAP2 DUP3 ISZERO PUSH2 0x164A JUMPI PUSH2 0x1584 PUSH2 0x18EA JUMP JUMPDEST PUSH1 0x0 DUP3 DUP2 MSTORE DUP1 PUSH1 0x20 MSTORE PUSH1 0x40 DUP2 KECCAK256 SLOAD SWAP2 DUP1 DUP4 LT PUSH2 0x15E0 JUMPI PUSH1 0x40 DUP3 DUP3 PUSH32 0xDDF252AD1BE2C89B69C2B068FC378DAA952BA7F163C4A11628F55A4DF523B3EF SWAP6 DUP8 PUSH1 0x20 SWAP7 MSTORE DUP3 DUP7 MSTORE SUB DUP3 DUP3 KECCAK256 SSTORE DUP7 DUP2 MSTORE KECCAK256 DUP2 DUP2 SLOAD ADD SWAP1 SSTORE PUSH1 0x40 MLOAD SWAP1 DUP2 MSTORE LOG3 JUMP JUMPDEST PUSH1 0x84 PUSH1 0x40 MLOAD PUSH3 0x461BCD PUSH1 0xE5 SHL DUP2 MSTORE PUSH1 0x20 PUSH1 0x4 DUP3 ADD MSTORE PUSH1 0x26 PUSH1 0x24 DUP3 ADD MSTORE PUSH32 0x45524332303A207472616E7366657220616D6F756E7420657863656564732062 PUSH1 0x44 DUP3 ADD MSTORE PUSH32 0x616C616E63650000000000000000000000000000000000000000000000000000 PUSH1 0x64 DUP3 ADD MSTORE REVERT JUMPDEST PUSH1 0x84 PUSH1 0x40 MLOAD PUSH3 0x461BCD PUSH1 0xE5 SHL DUP2 MSTORE PUSH1 0x20 PUSH1 0x4 DUP3 ADD MSTORE PUSH1 0x23 PUSH1 0x24 DUP3 ADD MSTORE PUSH32 0x45524332303A207472616E7366657220746F20746865207A65726F2061646472 PUSH1 0x44 DUP3 ADD MSTORE PUSH32 0x6573730000000000000000000000000000000000000000000000000000000000 PUSH1 0x64 DUP3 ADD MSTORE REVERT JUMPDEST PUSH1 0x84 PUSH1 0x40 MLOAD PUSH3 0x461BCD PUSH1 0xE5 SHL DUP2 MSTORE PUSH1 0x20 PUSH1 0x4 DUP3 ADD MSTORE PUSH1 0x25 PUSH1 0x24 DUP3 ADD MSTORE PUSH32 0x45524332303A207472616E736665722066726F6D20746865207A65726F206164 PUSH1 0x44 DUP3 ADD MSTORE PUSH32 0x6472657373000000000000000000000000000000000000000000000000000000 PUSH1 0x64 DUP3 ADD MSTORE REVERT JUMPDEST PUSH1 0x1 PUSH1 0x1 PUSH1 0xA0 SHL SUB DUP1 SWAP2 AND SWAP2 DUP3 ISZERO PUSH2 0x17E9 JUMPI AND SWAP2 DUP3 ISZERO PUSH2 0x177F JUMPI PUSH1 0x20 PUSH32 0x8C5BE1E5EBEC7D5BD14F71427D1E84F3DD0314C0F7B2291E5B200AC8C7C3B925 SWAP2 DUP4 PUSH1 0x0 MSTORE PUSH1 0x1 DUP3 MSTORE PUSH1 0x40 PUSH1 0x0 KECCAK256 DUP6 PUSH1 0x0 MSTORE DUP3 MSTORE DUP1 PUSH1 0x40 PUSH1 0x0 KECCAK256 SSTORE PUSH1 0x40 MLOAD SWAP1 DUP2 MSTORE LOG3 JUMP JUMPDEST PUSH1 0x84 PUSH1 0x40 MLOAD PUSH3 0x461BCD PUSH1 0xE5 SHL DUP2 MSTORE PUSH1 0x20 PUSH1 0x4 DUP3 ADD MSTORE PUSH1 0x22 PUSH1 0x24 DUP3 ADD MSTORE PUSH32 0x45524332303A20617070726F766520746F20746865207A65726F206164647265 PUSH1 0x44 DUP3 ADD MSTORE PUSH32 0x7373000000000000000000000000000000000000000000000000000000000000 PUSH1 0x64 DUP3 ADD MSTORE REVERT JUMPDEST PUSH1 0x84 PUSH1 0x40 MLOAD PUSH3 0x461BCD PUSH1 0xE5 SHL DUP2 MSTORE PUSH1 0x20 PUSH1 0x4 DUP3 ADD MSTORE PUSH1 0x24 DUP1 DUP3 ADD MSTORE PUSH32 0x45524332303A20617070726F76652066726F6D20746865207A65726F20616464 PUSH1 0x44 DUP3 ADD MSTORE PUSH32 0x7265737300000000000000000000000000000000000000000000000000000000 PUSH1 0x64 DUP3 ADD MSTORE REVERT JUMPDEST SWAP1 PUSH1 0x1 PUSH1 0x1 PUSH1 0xA0 SHL SUB DUP1 DUP4 AND PUSH1 0x0 MSTORE PUSH1 0x1 PUSH1 0x20 MSTORE PUSH1 0x40 PUSH1 0x0 KECCAK256 SWAP1 DUP3 AND PUSH1 0x0 MSTORE PUSH1 0x20 MSTORE PUSH1 0x40 PUSH1 0x0 KECCAK256 SLOAD SWAP3 PUSH1 0x0 NOT DUP5 SUB PUSH2 0x188B JUMPI JUMPDEST POP POP POP POP JUMP JUMPDEST DUP1 DUP5 LT PUSH2 0x18A6 JUMPI PUSH2 0x189D SWAP4 SUB SWAP2 PUSH2 0x171E JUMP JUMPDEST CODESIZE DUP1 DUP1 DUP1 PUSH2 0x1885 JUMP JUMPDEST PUSH1 0x64 PUSH1 0x40 MLOAD PUSH3 0x461BCD PUSH1 0xE5 SHL DUP2 MSTORE PUSH1 0x20 PUSH1 0x4 DUP3 ADD MSTORE PUSH1 0x1D PUSH1 0x24 DUP3 ADD MSTORE PUSH32 0x45524332303A20696E73756666696369656E7420616C6C6F77616E6365000000 PUSH1 0x44 DUP3 ADD MSTORE REVERT JUMPDEST PUSH1 0xFF PUSH1 0x5 SLOAD AND PUSH2 0x18F6 JUMPI JUMP JUMPDEST PUSH1 0x64 PUSH1 0x40 MLOAD PUSH3 0x461BCD PUSH1 0xE5 SHL DUP2 MSTORE PUSH1 0x20 PUSH1 0x4 DUP3 ADD MSTORE PUSH1 0x10 PUSH1 0x24 DUP3 ADD MSTORE PUSH32 0x5061757361626C653A2070617573656400000000000000000000000000000000 PUSH1 0x44 DUP3 ADD MSTORE REVERT JUMPDEST PUSH1 0x2 PUSH1 0x6 SLOAD EQ PUSH2 0x194B JUMPI PUSH1 0x2 PUSH1 0x6 SSTORE JUMP JUMPDEST PUSH1 0x64 PUSH1 0x40 MLOAD PUSH3 0x461BCD PUSH1 0xE5 SHL DUP2 MSTORE PUSH1 0x20 PUSH1 0x4 DUP3 ADD MSTORE PUSH1 0x1F PUSH1 0x24 DUP3 ADD MSTORE PUSH32 0x5265656E7472616E637947756172643A207265656E7472616E742063616C6C00 PUSH1 0x44 DUP3 ADD MSTORE REVERT JUMPDEST PUSH1 0x1 PUSH1 0x1 PUSH1 0xA0 SHL SUB AND SWAP1 DUP2 ISZERO PUSH2 0x19F5 JUMPI PUSH32 0xDDF252AD1BE2C89B69C2B068FC378DAA952BA7F163C4A11628F55A4DF523B3EF PUSH1 0x20 PUSH1 0x0 SWAP3 PUSH2 0x19CD PUSH2 0x18EA JUMP JUMPDEST PUSH2 0x19D9 DUP2 PUSH1 0x2 SLOAD PUSH2 0x153F JUMP JUMPDEST PUSH1 0x2 SSTORE DUP5 DUP5 MSTORE DUP4 DUP3 MSTORE PUSH1 0x40 DUP5 KECCAK256 DUP2 DUP2 SLOAD ADD SWAP1 SSTORE PUSH1 0x40 MLOAD SWAP1 DUP2 MSTORE LOG3 JUMP JUMPDEST PUSH1 0x64 PUSH1 0x40 MLOAD PUSH3 0x461BCD PUSH1 0xE5 SHL DUP2 MSTORE PUSH1 0x20 PUSH1 0x4 DUP3 ADD MSTORE PUSH1 0x1F PUSH1 0x24 DUP3 ADD MSTORE PUSH32 0x45524332303A206D696E7420746F20746865207A65726F206164647265737300 PUSH1 0x44 DUP3 ADD MSTORE REVERT JUMPDEST SWAP2 SWAP1 DUP2 LT ISZERO PUSH2 0x1A49 JUMPI PUSH1 0x5 SHL ADD SWAP1 JUMP JUMPDEST PUSH4 0x4E487B71 PUSH1 0xE0 SHL PUSH1 0x0 MSTORE PUSH1 0x32 PUSH1 0x4 MSTORE PUSH1 0x24 PUSH1 0x0 REVERT JUMPDEST CALLDATALOAD PUSH1 0x1 PUSH1 0x1 PUSH1 0xA0 SHL SUB DUP2 AND DUP2 SUB PUSH2 0x140D JUMPI SWAP1 JUMP JUMPDEST PUSH1 0x1 PUSH1 0x1 PUSH1 0xA0 SHL SUB AND DUP1 ISZERO PUSH2 0x1B4D JUMPI PUSH2 0x1A8A PUSH2 0x18EA JUMP JUMPDEST PUSH1 0x0 SWAP2 DUP2 DUP4 MSTORE DUP3 PUSH1 0x20 MSTORE PUSH1 0x40 DUP4 KECCAK256 SLOAD DUP2 DUP2 LT PUSH2 0x1AE3 JUMPI DUP2 PUSH32 0xDDF252AD1BE2C89B69C2B068FC378DAA952BA7F163C4A11628F55A4DF523B3EF SWAP3 PUSH1 0x20 SWAP3 DUP6 DUP8 MSTORE DUP7 DUP5 MSTORE SUB PUSH1 0x40 DUP7 KECCAK256 SSTORE DUP1 PUSH1 0x2 SLOAD SUB PUSH1 0x2 SSTORE PUSH1 0x40 MLOAD SWAP1 DUP2 MSTORE LOG3 JUMP JUMPDEST PUSH1 0x84 PUSH1 0x40 MLOAD PUSH3 0x461BCD PUSH1 0xE5 SHL DUP2 MSTORE PUSH1 0x20 PUSH1 0x4 DUP3 ADD MSTORE PUSH1 0x22 PUSH1 0x24 DUP3 ADD MSTORE PUSH32 0x45524332303A206275726E20616D6F756E7420657863656564732062616C616E PUSH1 0x44 DUP3 ADD MSTORE PUSH32 0x6365000000000000000000000000000000000000000000000000000000000000 PUSH1 0x64 DUP3 ADD MSTORE REVERT JUMPDEST PUSH1 0x84 PUSH1 0x40 MLOAD PUSH3 0x461BCD PUSH1 0xE5 SHL DUP2 MSTORE PUSH1 0x20 PUSH1 0x4 DUP3 ADD MSTORE PUSH1 0x21 PUSH1 0x24 DUP3 ADD MSTORE PUSH32 0x45524332303A206275726E2066726F6D20746865207A65726F20616464726573 PUSH1 0x44 DUP3 ADD MSTORE PUSH32 0x7300000000000000000000000000000000000000000000000000000000000000 PUSH1 0x64 DUP3 ADD MSTORE REVERT INVALID LOG2 PUSH5 0x6970667358 0x22 SLT KECCAK256 PUSH20 0xD122324A3D881027DE09653B6864912E21ED053D PUSH14 0xB1E4E46A2B17B662728364736F6C PUSH4 0x43000813 STOP CALLER "},"methodIdentifiers":{"MAX_MINT_PER_DAY()":"d45e7a6a","MINT_COOLDOWN()":"f7ee7a43","addMinter(address,uint64)":"6f241767","allowance(address,address)":"dd62ed3e","approve(address,uint256)":"095ea7b3","balanceOf(address)":"70a08231","batchMint(address[],uint256[])":"68573107","burn(uint256)":"42966c68","burnFrom(address,uint256)":"79cc6790","decimals()":"313ce567","decreaseAllowance(address,uint256)":"a457c2d7","getMinterInfo(address)":"f09b2203","getRemainingAllowance(address)":"ef092065","increaseAllowance(address,uint256)":"39509351","isMinter(address)":"aa271e1a","maxSupply()":"d5abeb01","mint(address,uint256)":"40c10f19","minters(address)":"f46eccc4","name()":"06fdde03","owner()":"8da5cb5b","pause()":"8456cb59","paused()":"5c975abb","removeMinter(address)":"3092afd5","renounceOwnership()":"715018a6","symbol()":"95d89b41","totalSupply()":"18160ddd","transfer(address,uint256)":"a9059cbb","transferFrom(address,address,uint256)":"23b872dd","transferOwnership(address)":"f2fde38b","unpause()":"3f4ba83a","updateMinterAllowance(address,uint64)":"0f5d8524"}}}}}