{"contracts/NoteMonetization.sol":{"NoteMonetization":{"abi":[{"inputs":[{"internalType":"address","name":"_moduloToken","type":"address"}],"stateMutability":"nonpayable","type":"constructor"},{"anonymous":false,"inputs":[{"indexed":true,"internalType":"address","name":"user","type":"address"},{"indexed":false,"internalType":"uint256","name":"amount","type":"uint256"}],"name":"EarningsWithdrawn","type":"event"},{"anonymous":false,"inputs":[{"indexed":true,"internalType":"address","name":"buyer","type":"address"},{"indexed":true,"internalType":"uint256","name":"noteId","type":"uint256"},{"indexed":false,"internalType":"uint256","name":"amount","type":"uint256"},{"indexed":false,"internalType":"uint256","name":"timestamp","type":"uint256"}],"name":"NoteAccessGranted","type":"event"},{"anonymous":false,"inputs":[{"indexed":true,"internalType":"address","name":"owner","type":"address"},{"indexed":true,"internalType":"uint256","name":"noteId","type":"uint256"},{"indexed":false,"internalType":"uint256","name":"timestamp","type":"uint256"}],"name":"NoteDeactivated","type":"event"},{"anonymous":false,"inputs":[{"indexed":true,"internalType":"address","name":"owner","type":"address"},{"indexed":true,"internalType":"uint256","name":"noteId","type":"uint256"},{"indexed":false,"internalType":"bytes32","name":"hash","type":"bytes32"},{"indexed":false,"internalType":"string","name":"title","type":"string"},{"indexed":false,"internalType":"bool","name":"isPremium","type":"bool"},{"indexed":false,"internalType":"uint256","name":"accessPrice","type":"uint256"},{"indexed":false,"internalType":"uint256","name":"timestamp","type":"uint256"}],"name":"NoteRegistered","type":"event"},{"anonymous":false,"inputs":[{"indexed":true,"internalType":"address","name":"owner","type":"address"},{"indexed":true,"internalType":"uint256","name":"noteId","type":"uint256"},{"indexed":false,"internalType":"bytes32","name":"newHash","type":"bytes32"},{"indexed":false,"internalType":"uint256","name":"timestamp","type":"uint256"}],"name":"NoteUpdated","type":"event"},{"anonymous":false,"inputs":[{"indexed":true,"internalType":"address","name":"previousOwner","type":"address"},{"indexed":true,"internalType":"address","name":"newOwner","type":"address"}],"name":"OwnershipTransferred","type":"event"},{"anonymous":false,"inputs":[{"indexed":false,"internalType":"address","name":"account","type":"address"}],"name":"Paused","type":"event"},{"anonymous":false,"inputs":[{"indexed":false,"internalType":"uint256","name":"oldFee","type":"uint256"},{"indexed":false,"internalType":"uint256","name":"newFee","type":"uint256"}],"name":"PlatformFeeUpdated","type":"event"},{"anonymous":false,"inputs":[{"indexed":true,"internalType":"uint256","name":"noteId","type":"uint256"},{"indexed":false,"internalType":"uint256","name":"oldPrice","type":"uint256"},{"indexed":false,"internalType":"uint256","name":"newPrice","type":"uint256"}],"name":"PriceUpdated","type":"event"},{"anonymous":false,"inputs":[{"indexed":false,"internalType":"address","name":"account","type":"address"}],"name":"Unpaused","type":"event"},{"inputs":[],"name":"MAX_PLATFORM_FEE","outputs":[{"internalType":"uint256","name":"","type":"uint256"}],"stateMutability":"view","type":"function"},{"inputs":[],"name":"MAX_PRICE","outputs":[{"internalType":"uint256","name":"","type":"uint256"}],"stateMutability":"view","type":"function"},{"inputs":[],"name":"MIN_PRICE","outputs":[{"internalType":"uint256","name":"","type":"uint256"}],"stateMutability":"view","type":"function"},{"inputs":[{"internalType":"uint256","name":"noteId","type":"uint256"},{"internalType":"address","name":"user","type":"address"}],"name":"checkNoteAccess","outputs":[{"internalType":"bool","name":"","type":"bool"}],"stateMutability":"view","type":"function"},{"inputs":[],"name":"feeRecipient","outputs":[{"internalType":"address","name":"","type":"address"}],"stateMutability":"view","type":"function"},{"inputs":[{"internalType":"uint256","name":"noteId","type":"uint256"}],"name":"getNoteDetails","outputs":[{"internalType":"address","name":"owner","type":"address"},{"internalType":"bytes32","name":"hash","type":"bytes32"},{"internalType":"uint256","name":"timestamp","type":"uint256"},{"internalType":"string","name":"title","type":"string"},{"internalType":"bool","name":"isActive","type":"bool"},{"internalType":"bool","name":"isPremium","type":"bool"},{"internalType":"uint256","name":"accessPrice","type":"uint256"},{"internalType":"uint256","name":"totalEarnings","type":"uint256"},{"internalType":"uint256","name":"accessCount","type":"uint256"},{"internalType":"string","name":"category","type":"string"},{"internalType":"string","name":"description","type":"string"}],"stateMutability":"view","type":"function"},{"inputs":[{"internalType":"address","name":"user","type":"address"},{"internalType":"uint256","name":"offset","type":"uint256"},{"internalType":"uint256","name":"limit","type":"uint256"}],"name":"getUserNotes","outputs":[{"internalType":"uint256[]","name":"noteIds","type":"uint256[]"}],"stateMutability":"view","type":"function"},{"inputs":[{"internalType":"uint256","name":"","type":"uint256"},{"internalType":"address","name":"","type":"address"}],"name":"hasAccess","outputs":[{"internalType":"bool","name":"","type":"bool"}],"stateMutability":"view","type":"function"},{"inputs":[{"internalType":"bytes32","name":"","type":"bytes32"}],"name":"hashToNoteId","outputs":[{"internalType":"uint256","name":"","type":"uint256"}],"stateMutability":"view","type":"function"},{"inputs":[],"name":"moduloToken","outputs":[{"internalType":"contract ModuloToken","name":"","type":"address"}],"stateMutability":"view","type":"function"},{"inputs":[],"name":"noteCount","outputs":[{"internalType":"uint256","name":"","type":"uint256"}],"stateMutability":"view","type":"function"},{"inputs":[{"internalType":"uint256","name":"","type":"uint256"},{"internalType":"uint256","name":"","type":"uint256"}],"name":"notePurchases","outputs":[{"internalType":"address","name":"buyer","type":"address"},{"internalType":"uint256","name":"noteId","type":"uint256"},{"internalType":"uint256","name":"amount","type":"uint256"},{"internalType":"uint256","name":"timestamp","type":"uint256"},{"internalType":"bool","name":"isValid","type":"bool"}],"stateMutability":"view","type":"function"},{"inputs":[{"internalType":"uint256","name":"","type":"uint256"}],"name":"notes","outputs":[{"internalType":"address","name":"owner","type":"address"},{"internalType":"bytes32","name":"hash","type":"bytes32"},{"internalType":"uint256","name":"timestamp","type":"uint256"},{"internalType":"string","name":"title","type":"string"},{"internalType":"bool","name":"isActive","type":"bool"},{"internalType":"bool","name":"isPremium","type":"bool"},{"internalType":"uint256","name":"accessPrice","type":"uint256"},{"internalType":"uint256","name":"totalEarnings","type":"uint256"},{"internalType":"uint256","name":"accessCount","type":"uint256"},{"internalType":"string","name":"category","type":"string"},{"internalType":"string","name":"description","type":"string"}],"stateMutability":"view","type":"function"},{"inputs":[],"name":"owner","outputs":[{"internalType":"address","name":"","type":"address"}],"stateMutability":"view","type":"function"},{"inputs":[{"internalType":"address","name":"","type":"address"},{"internalType":"uint256","name":"","type":"uint256"}],"name":"ownerNotes","outputs":[{"internalType":"uint256","name":"","type":"uint256"}],"stateMutability":"view","type":"function"},{"inputs":[],"name":"pause","outputs":[],"stateMutability":"nonpayable","type":"function"},{"inputs":[],"name":"paused","outputs":[{"internalType":"bool","name":"","type":"bool"}],"stateMutability":"view","type":"function"},{"inputs":[],"name":"platformFeePercent","outputs":[{"internalType":"uint256","name":"","type":"uint256"}],"stateMutability":"view","type":"function"},{"inputs":[{"internalType":"uint256","name":"noteId","type":"uint256"}],"name":"purchaseNoteAccess","outputs":[],"stateMutability":"nonpayable","type":"function"},{"inputs":[{"internalType":"address","name":"token","type":"address"},{"internalType":"uint256","name":"amount","type":"uint256"}],"name":"recoverERC20","outputs":[],"stateMutability":"nonpayable","type":"function"},{"inputs":[{"internalType":"bytes32","name":"hash","type":"bytes32"},{"internalType":"string","name":"title","type":"string"},{"internalType":"bool","name":"isPremium","type":"bool"},{"internalType":"uint256","name":"accessPrice","type":"uint256"},{"internalType":"string","name":"category","type":"string"},{"internalType":"string","name":"description","type":"string"}],"name":"registerNote","outputs":[{"internalType":"uint256","name":"noteId","type":"uint256"}],"stateMutability":"nonpayable","type":"function"},{"inputs":[],"name":"renounceOwnership","outputs":[],"stateMutability":"nonpayable","type":"function"},{"inputs":[],"name":"totalPurchases","outputs":[{"internalType":"uint256","name":"","type":"uint256"}],"stateMutability":"view","type":"function"},{"inputs":[{"internalType":"address","name":"newOwner","type":"address"}],"name":"transferOwnership","outputs":[],"stateMutability":"nonpayable","type":"function"},{"inputs":[],"name":"unpause","outputs":[],"stateMutability":"nonpayable","type":"function"},{"inputs":[{"internalType":"address","name":"newRecipient","type":"address"}],"name":"updateFeeRecipient","outputs":[],"stateMutability":"nonpayable","type":"function"},{"inputs":[{"internalType":"uint256","name":"noteId","type":"uint256"},{"internalType":"bool","name":"isPremium","type":"bool"},{"internalType":"uint256","name":"accessPrice","type":"uint256"}],"name":"updateNotePremiumStatus","outputs":[],"stateMutability":"nonpayable","type":"function"},{"inputs":[{"internalType":"uint256","name":"noteId","type":"uint256"},{"internalType":"uint256","name":"newPrice","type":"uint256"}],"name":"updateNotePrice","outputs":[],"stateMutability":"nonpayable","type":"function"},{"inputs":[{"internalType":"uint256","name":"newFeePercent","type":"uint256"}],"name":"updatePlatformFee","outputs":[],"stateMutability":"nonpayable","type":"function"},{"inputs":[{"internalType":"address","name":"","type":"address"}],"name":"userEarnings","outputs":[{"internalType":"uint256","name":"","type":"uint256"}],"stateMutability":"view","type":"function"},{"inputs":[{"internalType":"uint256","name":"amount","type":"uint256"}],"name":"withdrawEarnings","outputs":[],"stateMutability":"nonpayable","type":"function"}],"evm":{"bytecode":{"linkReferences":{},"object":"60a060405260fa600a553480156200001657600080fd5b50604051620028a3380380620028a3833981016040819052620000399162000127565b60016000556200004933620000d5565b6001805460ff60a01b191690556001600160a01b038116620000b15760405162461bcd60e51b815260206004820152601560248201527f496e76616c696420746f6b656e20616464726573730000000000000000000000604482015260640160405180910390fd5b6001600160a01b0316608052600b80546001600160a01b0319163317905562000159565b600180546001600160a01b038381166001600160a01b0319831681179093556040519116919082907f8be0079c531659141344cd1fd0a4f28419497f9722a3daafe3b4186f6b6457e090600090a35050565b6000602082840312156200013a57600080fd5b81516001600160a01b03811681146200015257600080fd5b9392505050565b6080516127196200018a600039600081816103800152818161114f015281816112d2015261189c01526127196000f3fe608060405234801561001057600080fd5b50600436106101e55760003560e01c80638456cb591161010f578063a6d52e3d116100a2578063ced1419811610071578063ced1419814610449578063d8ba602114610477578063f160d36914610497578063f2fde38b146104aa57600080fd5b8063a6d52e3d14610402578063aa0b598814610415578063ad9f20a614610428578063bce5f59f1461043657600080fd5b80638c639a85116100de5780638c639a85146103b55780638da5cb5b146103be57806395ba85c4146103cf57806396fa9022146103e257600080fd5b80638456cb59146103605780638980f11f146103685780638a0b3b0a1461037b5780638b7cc3df146103a257600080fd5b80635962a9411161018757806363b3834e1161015657806363b3834e146102eb5780636e70096e146102fe578063715018a61461031157806375e2a27e1461031957600080fd5b80635962a941146102875780635c975abb146102905780635f71566d146102ae57806361c3a7e6146102c157600080fd5b80633de0c4d7116101c35780633de0c4d71461021f5780633f4ba83a14610232578063469048401461023c5780634d5485061461026757600080fd5b806301c11d96146101ea578063317a4c761461020d5780633998a68114610216575b600080fd5b6101fa683635c9adc5dea0000081565b6040519081526020015b60405180910390f35b6101fa60085481565b6101fa6103e881565b6101fa61022d36600461211e565b6104bd565b61023a610816565b005b600b5461024f906001600160a01b031681565b6040516001600160a01b039091168152602001610204565b61027a6102753660046121e9565b610828565b604051610204919061221c565b6101fa60095481565b600154600160a01b900460ff165b6040519015158152602001610204565b61023a6102bc366004612260565b610987565b6102d46102cf366004612282565b610b6a565b6040516102049b9a999897969594939291906122e1565b6102d46102f9366004612282565b610d6c565b61023a61030c366004612282565b61104a565b61023a61124b565b61032c610327366004612260565b61125d565b604080516001600160a01b03909616865260208601949094529284019190915260608301521515608082015260a001610204565b61023a6112b8565b61023a61037636600461236e565b6112c8565b61024f7f000000000000000000000000000000000000000000000000000000000000000081565b61029e6103b0366004612398565b6113e8565b6101fa600a5481565b6001546001600160a01b031661024f565b61023a6103dd366004612282565b611699565b6101fa6103f0366004612282565b60046020526000908152604090205481565b6101fa61041036600461236e565b611b03565b61023a610423366004612282565b611b34565b6101fa66038d7ea4c6800081565b61023a6104443660046123c4565b611bc2565b61029e610457366004612398565b600560209081526000928352604080842090915290825290205460ff1681565b6101fa6104853660046123fc565b60066020526000908152604090205481565b61023a6104a53660046123fc565b611d49565b61023a6104b83660046123fc565b611dbd565b60006104c7611e33565b60008790036105145760405162461bcd60e51b8152602060048201526014602482015273486173682063616e6e6f7420626520656d70747960601b60448201526064015b60405180910390fd5b600086511161055d5760405162461bcd60e51b81526020600482015260156024820152745469746c652063616e6e6f7420626520656d70747960581b604482015260640161050b565b600087815260046020526040902054156105b95760405162461bcd60e51b815260206004820152601860248201527f4e6f7465206861736820616c7265616479206578697374730000000000000000604482015260640161050b565b84156106005766038d7ea4c6800084101580156105df5750683635c9adc5dea000008411155b6105fb5760405162461bcd60e51b815260040161050b90612417565b610605565b600093505b6008600081546106149061245b565b9182905550604080516101608101825233815260208082018b815242838501908152606084018c81526001608086018190528c151560a087015260c086018c9052600060e08701819052610100870181905261012087018c905261014087018b905288815260029586905296909620855181546001600160a01b0319166001600160a01b03909116178155925195830195909555519181019190915591519293509160038201906106c590826124fc565b50608082015160048201805460a085015161ffff1990911692151561ff00191692909217610100921515830217905560c0830151600583015560e083015160068301558201516007820155610120820151600882019061072590826124fc565b50610140820151600982019061073b90826124fc565b50503360009081526003602090815260408083208054600181018255908452828420018590558a835260049091529020829055508461079d5760008181526005602090815260408083203384529091529020805460ff191660011790556107c2565b60008181526005602090815260408083203384529091529020805460ff191660011790555b80336001600160a01b03167fcbf4e15a8a5c6df39c4529172b0a3aa5bd97c1f8fba73bd241cb3884ffae2e0089898989426040516108049594939291906125bc565b60405180910390a39695505050505050565b61081e611e80565b610826611eda565b565b6001600160a01b038316600090815260036020908152604080832080548251818502810185019093528083526060949383018282801561088757602002820191906000526020600020905b815481526020019060010190808311610873575b50508351939450505081861090506108b15750506040805160008152602081019091529050610980565b60006108bd85876125f2565b9050818111156108ca5750805b60006108d6878361260b565b90508067ffffffffffffffff8111156108f1576108f161206d565b60405190808252806020026020018201604052801561091a578160200160208202803683370190505b50945060005b8181101561097a5784610933828a6125f2565b815181106109435761094361261e565b602002602001015186828151811061095d5761095d61261e565b6020908102919091010152806109728161245b565b915050610920565b50505050505b9392505050565b8160008111801561099a57506008548111155b6109b65760405162461bcd60e51b815260040161050b90612634565b60008381526002602052604090205483906001600160a01b03163314610a1e5760405162461bcd60e51b815260206004820152601a60248201527f4e6f7420746865206f776e6572206f662074686973206e6f7465000000000000604482015260640161050b565b600084815260026020526040902060040154849060ff16610a515760405162461bcd60e51b815260040161050b90612661565b8366038d7ea4c680008110158015610a725750683635c9adc5dea000008111155b610abe5760405162461bcd60e51b815260206004820152601860248201527f5072696365206f7574206f662076616c69642072616e67650000000000000000604482015260640161050b565b60008681526002602052604090206004810154610100900460ff16610b1b5760405162461bcd60e51b81526020600482015260136024820152724e6f7465206973206e6f74207072656d69756d60681b604482015260640161050b565b60058101805490879055604080518281526020810189905289917f15819dd2fd9f6418b142e798d08a18d0bf06ea368f4480b7b0d3f75bd966bc48910160405180910390a25050505050505050565b600260208190526000918252604090912080546001820154928201546003830180546001600160a01b0390931694939192610ba490612474565b80601f0160208091040260200160405190810160405280929190818152602001828054610bd090612474565b8015610c1d5780601f10610bf257610100808354040283529160200191610c1d565b820191906000526020600020905b815481529060010190602001808311610c0057829003601f168201915b505050506004830154600584015460068501546007860154600887018054969760ff80871698610100909704169650939492939192610c5b90612474565b80601f0160208091040260200160405190810160405280929190818152602001828054610c8790612474565b8015610cd45780601f10610ca957610100808354040283529160200191610cd4565b820191906000526020600020905b815481529060010190602001808311610cb757829003601f168201915b505050505090806009018054610ce990612474565b80601f0160208091040260200160405190810160405280929190818152602001828054610d1590612474565b8015610d625780601f10610d3757610100808354040283529160200191610d62565b820191906000526020600020905b815481529060010190602001808311610d4557829003601f168201915b505050505090508b565b6000806000606060008060008060006060808b600081118015610d9157506008548111155b610dad5760405162461bcd60e51b815260040161050b90612634565b60008d815260026020818152604080842081516101608101835281546001600160a01b031681526001820154938101939093529283015490820152600382018054919291606084019190610e0090612474565b80601f0160208091040260200160405190810160405280929190818152602001828054610e2c90612474565b8015610e795780601f10610e4e57610100808354040283529160200191610e79565b820191906000526020600020905b815481529060010190602001808311610e5c57829003601f168201915b5050509183525050600482015460ff8082161515602084015261010090910416151560408201526005820154606082015260068201546080820152600782015460a082015260088201805460c090920191610ed390612474565b80601f0160208091040260200160405190810160405280929190818152602001828054610eff90612474565b8015610f4c5780601f10610f2157610100808354040283529160200191610f4c565b820191906000526020600020905b815481529060010190602001808311610f2f57829003601f168201915b50505050508152602001600982018054610f6590612474565b80601f0160208091040260200160405190810160405280929190818152602001828054610f9190612474565b8015610fde5780601f10610fb357610100808354040283529160200191610fde565b820191906000526020600020905b815481529060010190602001808311610fc157829003601f168201915b5050505050815250509050806000015181602001518260400151836060015184608001518560a001518660c001518760e001518861010001518961012001518a61014001519c509c509c509c509c509c509c509c509c509c509c50505091939597999b90929496989a50565b611052611f2f565b61105a611e33565b33600090815260066020526040902054806110b75760405162461bcd60e51b815260206004820152601760248201527f4e6f206561726e696e677320746f207769746864726177000000000000000000604482015260640161050b565b816000036110c75780915061110f565b8082111561110f5760405162461bcd60e51b8152602060048201526015602482015274496e73756666696369656e74206561726e696e677360581b604482015260640161050b565b336000908152600660205260408120805484929061112e90849061260b565b909155505060405163a9059cbb60e01b8152336004820152602481018390527f00000000000000000000000000000000000000000000000000000000000000006001600160a01b03169063a9059cbb906044016020604051808303816000875af11580156111a0573d6000803e3d6000fd5b505050506040513d601f19601f820116820180604052508101906111c4919061268d565b6112085760405162461bcd60e51b8152602060048201526015602482015274151bdad95b881d1c985b9cd9995c8819985a5b1959605a1b604482015260640161050b565b60405182815233907f48dc35af7b45e2a81fffad55f6e2fafacdb1d3d0d50d24ebdc16324f5ba757f19060200160405180910390a2506112486001600055565b50565b611253611e80565b6108266000611f88565b6007602052816000526040600020818154811061127957600080fd5b6000918252602090912060059091020180546001820154600283015460038401546004909401546001600160a01b039093169550909350919060ff1685565b6112c0611e80565b610826611fda565b6112d0611e80565b7f00000000000000000000000000000000000000000000000000000000000000006001600160a01b0316826001600160a01b0316036113515760405162461bcd60e51b815260206004820152601a60248201527f43616e6e6f74207265636f766572204d4f444f20746f6b656e73000000000000604482015260640161050b565b816001600160a01b031663a9059cbb6113726001546001600160a01b031690565b6040516001600160e01b031960e084901b1681526001600160a01b039091166004820152602481018490526044016020604051808303816000875af11580156113bf573d6000803e3d6000fd5b505050506040513d601f19601f820116820180604052508101906113e3919061268d565b505050565b6000826000811180156113fd57506008548111155b6114195760405162461bcd60e51b815260040161050b90612634565b600084815260026020818152604080842081516101608101835281546001600160a01b03168152600182015493810193909352928301549082015260038201805491929160608401919061146c90612474565b80601f016020809104026020016040519081016040528092919081815260200182805461149890612474565b80156114e55780601f106114ba576101008083540402835291602001916114e5565b820191906000526020600020905b8154815290600101906020018083116114c857829003601f168201915b5050509183525050600482015460ff8082161515602084015261010090910416151560408201526005820154606082015260068201546080820152600782015460a082015260088201805460c09092019161153f90612474565b80601f016020809104026020016040519081016040528092919081815260200182805461156b90612474565b80156115b85780601f1061158d576101008083540402835291602001916115b8565b820191906000526020600020905b81548152906001019060200180831161159b57829003601f168201915b505050505081526020016009820180546115d190612474565b80601f01602080910402602001604051908101604052809291908181526020018280546115fd90612474565b801561164a5780601f1061161f5761010080835404028352916020019161164a565b820191906000526020600020905b81548152906001019060200180831161162d57829003601f168201915b50505050508152505090508060a00151611668576001925050611692565b5060008481526005602090815260408083206001600160a01b038716845290915290205460ff1691505b5092915050565b6116a1611f2f565b6116a9611e33565b806000811180156116bc57506008548111155b6116d85760405162461bcd60e51b815260040161050b90612634565b600082815260026020526040902060040154829060ff1661170b5760405162461bcd60e51b815260040161050b90612661565b60008381526002602052604090206004810154610100900460ff166117685760405162461bcd60e51b81526020600482015260136024820152724e6f7465206973206e6f74207072656d69756d60681b604482015260640161050b565b600084815260056020908152604080832033845290915290205460ff16156117c75760405162461bcd60e51b8152602060048201526012602482015271416c7265616479206861732061636365737360701b604482015260640161050b565b8054336001600160a01b03909116036118225760405162461bcd60e51b815260206004820152601860248201527f43616e6e6f74207075726368617365206f776e206e6f74650000000000000000604482015260640161050b565b60008160050154116118465760405162461bcd60e51b815260040161050b90612417565b6005810154600a546000906127109061185f90846126aa565b61186991906126c1565b90506000611877828461260b565b6040516323b872dd60e01b8152336004820152306024820152604481018590529091507f00000000000000000000000000000000000000000000000000000000000000006001600160a01b0316906323b872dd906064016020604051808303816000875af11580156118ed573d6000803e3d6000fd5b505050506040513d601f19601f82011682018060405250810190611911919061268d565b6119555760405162461bcd60e51b8152602060048201526015602482015274151bdad95b881d1c985b9cd9995c8819985a5b1959605a1b604482015260640161050b565b60008781526005602090815260408083203384529091528120805460ff1916600117905560068501805483929061198d9084906125f2565b9250508190555060018460070160008282546119a991906125f2565b909155505083546001600160a01b0316600090815260066020526040812080548392906119d79084906125f2565b9091555050600b546001600160a01b031660009081526006602052604081208054849290611a069084906125f2565b90915550506000878152600760209081526040808320815160a0810183523381528084018c81529281018881524260608301908152600160808401818152855480830187559589529688209351600590950290930180546001600160a01b0319166001600160a01b039095169490941784559351918301919091555160028201559051600382015590516004909101805460ff19169115159190911790556009805491611ab28361245b565b909155505060408051848152426020820152889133917ff734c49672b04aa6d31caf2a2de7f5bbe9eea86df580f98cea7224bb3642127c910160405180910390a35050505050506112486001600055565b60036020528160005260406000208181548110611b1f57600080fd5b90600052602060002001600091509150505481565b611b3c611e80565b6103e8811115611b7d5760405162461bcd60e51b815260206004820152600c60248201526b08ccaca40e8dede40d0d2ced60a31b604482015260640161050b565b600a80549082905560408051828152602081018490527fd347e206f25a89b917fc9482f1a2d294d749baa4dc9bde7fb495ee11fe491643910160405180910390a15050565b82600081118015611bd557506008548111155b611bf15760405162461bcd60e51b815260040161050b90612634565b60008481526002602052604090205484906001600160a01b03163314611c595760405162461bcd60e51b815260206004820152601a60248201527f4e6f7420746865206f776e6572206f662074686973206e6f7465000000000000604482015260640161050b565b600085815260026020526040902060040154859060ff16611c8c5760405162461bcd60e51b815260040161050b90612661565b6000868152600260205260409020858015611cb157506004810154610100900460ff16155b15611d0f5766038d7ea4c680008510158015611cd65750683635c9adc5dea000008511155b611cf25760405162461bcd60e51b815260040161050b90612417565b60048101805461ff00191661010017905560058101859055611d40565b85158015611d2657506004810154610100900460ff165b15611d405760048101805461ff0019169055600060058201555b50505050505050565b611d51611e80565b6001600160a01b038116611d9b5760405162461bcd60e51b8152602060048201526011602482015270125b9d985b1a59081c9958da5c1a595b9d607a1b604482015260640161050b565b600b80546001600160a01b0319166001600160a01b0392909216919091179055565b611dc5611e80565b6001600160a01b038116611e2a5760405162461bcd60e51b815260206004820152602660248201527f4f776e61626c653a206e6577206f776e657220697320746865207a65726f206160448201526564647265737360d01b606482015260840161050b565b61124881611f88565b600154600160a01b900460ff16156108265760405162461bcd60e51b815260206004820152601060248201526f14185d5cd8589b194e881c185d5cd95960821b604482015260640161050b565b6001546001600160a01b031633146108265760405162461bcd60e51b815260206004820181905260248201527f4f776e61626c653a2063616c6c6572206973206e6f7420746865206f776e6572604482015260640161050b565b611ee261201d565b6001805460ff60a01b191690557f5db9ee0a495bf2e6ff9c91a7834c1ba4fdd244a5e8aa4e537bd38aeae4b073aa335b6040516001600160a01b03909116815260200160405180910390a1565b600260005403611f815760405162461bcd60e51b815260206004820152601f60248201527f5265656e7472616e637947756172643a207265656e7472616e742063616c6c00604482015260640161050b565b6002600055565b600180546001600160a01b038381166001600160a01b0319831681179093556040519116919082907f8be0079c531659141344cd1fd0a4f28419497f9722a3daafe3b4186f6b6457e090600090a35050565b611fe2611e33565b6001805460ff60a01b1916600160a01b1790557f62e78cea01bee320cd4e420270b5ea74000d11b0c9f74754ebdbfc544b05a258611f123390565b600154600160a01b900460ff166108265760405162461bcd60e51b815260206004820152601460248201527314185d5cd8589b194e881b9bdd081c185d5cd95960621b604482015260640161050b565b634e487b7160e01b600052604160045260246000fd5b600082601f83011261209457600080fd5b813567ffffffffffffffff808211156120af576120af61206d565b604051601f8301601f19908116603f011681019082821181831017156120d7576120d761206d565b816040528381528660208588010111156120f057600080fd5b836020870160208301376000602085830101528094505050505092915050565b801515811461124857600080fd5b60008060008060008060c0878903121561213757600080fd5b86359550602087013567ffffffffffffffff8082111561215657600080fd5b6121628a838b01612083565b96506040890135915061217482612110565b909450606088013593506080880135908082111561219157600080fd5b61219d8a838b01612083565b935060a08901359150808211156121b357600080fd5b506121c089828a01612083565b9150509295509295509295565b80356001600160a01b03811681146121e457600080fd5b919050565b6000806000606084860312156121fe57600080fd5b612207846121cd565b95602085013595506040909401359392505050565b6020808252825182820181905260009190848201906040850190845b8181101561225457835183529284019291840191600101612238565b50909695505050505050565b6000806040838503121561227357600080fd5b50508035926020909101359150565b60006020828403121561229457600080fd5b5035919050565b6000815180845260005b818110156122c1576020818501810151868301820152016122a5565b506000602082860101526020601f19601f83011685010191505092915050565b600061016060018060a01b038e1683528c60208401528b604084015280606084015261230f8184018c61229b565b9050891515608084015288151560a08401528760c08401528660e084015285610100840152828103610120840152612347818661229b565b905082810361014084015261235c818561229b565b9e9d5050505050505050505050505050565b6000806040838503121561238157600080fd5b61238a836121cd565b946020939093013593505050565b600080604083850312156123ab57600080fd5b823591506123bb602084016121cd565b90509250929050565b6000806000606084860312156123d957600080fd5b8335925060208401356123eb81612110565b929592945050506040919091013590565b60006020828403121561240e57600080fd5b610980826121cd565b602080825260149082015273496e76616c69642061636365737320707269636560601b604082015260600190565b634e487b7160e01b600052601160045260246000fd5b60006001820161246d5761246d612445565b5060010190565b600181811c9082168061248857607f821691505b6020821081036124a857634e487b7160e01b600052602260045260246000fd5b50919050565b601f8211156113e357600081815260208120601f850160051c810160208610156124d55750805b601f850160051c820191505b818110156124f4578281556001016124e1565b505050505050565b815167ffffffffffffffff8111156125165761251661206d565b61252a816125248454612474565b846124ae565b602080601f83116001811461255f57600084156125475750858301515b600019600386901b1c1916600185901b1785556124f4565b600085815260208120601f198616915b8281101561258e5788860151825594840194600190910190840161256f565b50858210156125ac5787850151600019600388901b60f8161c191681555b5050505050600190811b01905550565b85815260a0602082015260006125d560a083018761229b565b941515604083015250606081019290925260809091015292915050565b8082018082111561260557612605612445565b92915050565b8181038181111561260557612605612445565b634e487b7160e01b600052603260045260246000fd5b602080825260139082015272139bdd1948191bd95cc81b9bdd08195e1a5cdd606a1b604082015260600190565b6020808252601290820152714e6f7465206973206e6f742061637469766560701b604082015260600190565b60006020828403121561269f57600080fd5b815161098081612110565b808202811582820484141761260557612605612445565b6000826126de57634e487b7160e01b600052601260045260246000fd5b50049056fea2646970667358221220f5fcbe71478143db501b915cb404eec873ee69cf49b4a0a7bee98ab5d33425f764736f6c63430008130033","opcodes":"PUSH1 0xA0 PUSH1 0x40 MSTORE PUSH1 0xFA PUSH1 0xA SSTORE CALLVALUE DUP1 ISZERO PUSH3 0x16 JUMPI PUSH1 0x0 DUP1 REVERT JUMPDEST POP PUSH1 0x40 MLOAD PUSH3 0x28A3 CODESIZE SUB DUP1 PUSH3 0x28A3 DUP4 CODECOPY DUP2 ADD PUSH1 0x40 DUP2 SWAP1 MSTORE PUSH3 0x39 SWAP2 PUSH3 0x127 JUMP JUMPDEST PUSH1 0x1 PUSH1 0x0 SSTORE PUSH3 0x49 CALLER PUSH3 0xD5 JUMP JUMPDEST PUSH1 0x1 DUP1 SLOAD PUSH1 0xFF PUSH1 0xA0 SHL NOT AND SWAP1 SSTORE PUSH1 0x1 PUSH1 0x1 PUSH1 0xA0 SHL SUB DUP2 AND PUSH3 0xB1 JUMPI PUSH1 0x40 MLOAD PUSH3 0x461BCD PUSH1 0xE5 SHL DUP2 MSTORE PUSH1 0x20 PUSH1 0x4 DUP3 ADD MSTORE PUSH1 0x15 PUSH1 0x24 DUP3 ADD MSTORE PUSH32 0x496E76616C696420746F6B656E20616464726573730000000000000000000000 PUSH1 0x44 DUP3 ADD MSTORE PUSH1 0x64 ADD PUSH1 0x40 MLOAD DUP1 SWAP2 SUB SWAP1 REVERT JUMPDEST PUSH1 0x1 PUSH1 0x1 PUSH1 0xA0 SHL SUB AND PUSH1 0x80 MSTORE PUSH1 0xB DUP1 SLOAD PUSH1 0x1 PUSH1 0x1 PUSH1 0xA0 SHL SUB NOT AND CALLER OR SWAP1 SSTORE PUSH3 0x159 JUMP JUMPDEST PUSH1 0x1 DUP1 SLOAD PUSH1 0x1 PUSH1 0x1 PUSH1 0xA0 SHL SUB DUP4 DUP2 AND PUSH1 0x1 PUSH1 0x1 PUSH1 0xA0 SHL SUB NOT DUP4 AND DUP2 OR SWAP1 SWAP4 SSTORE PUSH1 0x40 MLOAD SWAP2 AND SWAP2 SWAP1 DUP3 SWAP1 PUSH32 0x8BE0079C531659141344CD1FD0A4F28419497F9722A3DAAFE3B4186F6B6457E0 SWAP1 PUSH1 0x0 SWAP1 LOG3 POP POP JUMP JUMPDEST PUSH1 0x0 PUSH1 0x20 DUP3 DUP5 SUB SLT ISZERO PUSH3 0x13A JUMPI PUSH1 0x0 DUP1 REVERT JUMPDEST DUP2 MLOAD PUSH1 0x1 PUSH1 0x1 PUSH1 0xA0 SHL SUB DUP2 AND DUP2 EQ PUSH3 0x152 JUMPI PUSH1 0x0 DUP1 REVERT JUMPDEST SWAP4 SWAP3 POP POP POP JUMP JUMPDEST PUSH1 0x80 MLOAD PUSH2 0x2719 PUSH3 0x18A PUSH1 0x0 CODECOPY PUSH1 0x0 DUP2 DUP2 PUSH2 0x380 ADD MSTORE DUP2 DUP2 PUSH2 0x114F ADD MSTORE DUP2 DUP2 PUSH2 0x12D2 ADD MSTORE PUSH2 0x189C ADD MSTORE PUSH2 0x2719 PUSH1 0x0 RETURN INVALID PUSH1 0x80 PUSH1 0x40 MSTORE CALLVALUE DUP1 ISZERO PUSH2 0x10 JUMPI PUSH1 0x0 DUP1 REVERT JUMPDEST POP PUSH1 0x4 CALLDATASIZE LT PUSH2 0x1E5 JUMPI PUSH1 0x0 CALLDATALOAD PUSH1 0xE0 SHR DUP1 PUSH4 0x8456CB59 GT PUSH2 0x10F JUMPI DUP1 PUSH4 0xA6D52E3D GT PUSH2 0xA2 JUMPI DUP1 PUSH4 0xCED14198 GT PUSH2 0x71 JUMPI DUP1 PUSH4 0xCED14198 EQ PUSH2 0x449 JUMPI DUP1 PUSH4 0xD8BA6021 EQ PUSH2 0x477 JUMPI DUP1 PUSH4 0xF160D369 EQ PUSH2 0x497 JUMPI DUP1 PUSH4 0xF2FDE38B EQ PUSH2 0x4AA JUMPI PUSH1 0x0 DUP1 REVERT JUMPDEST DUP1 PUSH4 0xA6D52E3D EQ PUSH2 0x402 JUMPI DUP1 PUSH4 0xAA0B5988 EQ PUSH2 0x415 JUMPI DUP1 PUSH4 0xAD9F20A6 EQ PUSH2 0x428 JUMPI DUP1 PUSH4 0xBCE5F59F EQ PUSH2 0x436 JUMPI PUSH1 0x0 DUP1 REVERT JUMPDEST DUP1 PUSH4 0x8C639A85 GT PUSH2 0xDE JUMPI DUP1 PUSH4 0x8C639A85 EQ PUSH2 0x3B5 JUMPI DUP1 PUSH4 0x8DA5CB5B EQ PUSH2 0x3BE JUMPI DUP1 PUSH4 0x95BA85C4 EQ PUSH2 0x3CF JUMPI DUP1 PUSH4 0x96FA9022 EQ PUSH2 0x3E2 JUMPI PUSH1 0x0 DUP1 REVERT JUMPDEST DUP1 PUSH4 0x8456CB59 EQ PUSH2 0x360 JUMPI DUP1 PUSH4 0x8980F11F EQ PUSH2 0x368 JUMPI DUP1 PUSH4 0x8A0B3B0A EQ PUSH2 0x37B JUMPI DUP1 PUSH4 0x8B7CC3DF EQ PUSH2 0x3A2 JUMPI PUSH1 0x0 DUP1 REVERT JUMPDEST DUP1 PUSH4 0x5962A941 GT PUSH2 0x187 JUMPI DUP1 PUSH4 0x63B3834E GT PUSH2 0x156 JUMPI DUP1 PUSH4 0x63B3834E EQ PUSH2 0x2EB JUMPI DUP1 PUSH4 0x6E70096E EQ PUSH2 0x2FE JUMPI DUP1 PUSH4 0x715018A6 EQ PUSH2 0x311 JUMPI DUP1 PUSH4 0x75E2A27E EQ PUSH2 0x319 JUMPI PUSH1 0x0 DUP1 REVERT JUMPDEST DUP1 PUSH4 0x5962A941 EQ PUSH2 0x287 JUMPI DUP1 PUSH4 0x5C975ABB EQ PUSH2 0x290 JUMPI DUP1 PUSH4 0x5F71566D EQ PUSH2 0x2AE JUMPI DUP1 PUSH4 0x61C3A7E6 EQ PUSH2 0x2C1 JUMPI PUSH1 0x0 DUP1 REVERT JUMPDEST DUP1 PUSH4 0x3DE0C4D7 GT PUSH2 0x1C3 JUMPI DUP1 PUSH4 0x3DE0C4D7 EQ PUSH2 0x21F JUMPI DUP1 PUSH4 0x3F4BA83A EQ PUSH2 0x232 JUMPI DUP1 PUSH4 0x46904840 EQ PUSH2 0x23C JUMPI DUP1 PUSH4 0x4D548506 EQ PUSH2 0x267 JUMPI PUSH1 0x0 DUP1 REVERT JUMPDEST DUP1 PUSH4 0x1C11D96 EQ PUSH2 0x1EA JUMPI DUP1 PUSH4 0x317A4C76 EQ PUSH2 0x20D JUMPI DUP1 PUSH4 0x3998A681 EQ PUSH2 0x216 JUMPI JUMPDEST PUSH1 0x0 DUP1 REVERT JUMPDEST PUSH2 0x1FA PUSH9 0x3635C9ADC5DEA00000 DUP2 JUMP JUMPDEST PUSH1 0x40 MLOAD SWAP1 DUP2 MSTORE PUSH1 0x20 ADD JUMPDEST PUSH1 0x40 MLOAD DUP1 SWAP2 SUB SWAP1 RETURN JUMPDEST PUSH2 0x1FA PUSH1 0x8 SLOAD DUP2 JUMP JUMPDEST PUSH2 0x1FA PUSH2 0x3E8 DUP2 JUMP JUMPDEST PUSH2 0x1FA PUSH2 0x22D CALLDATASIZE PUSH1 0x4 PUSH2 0x211E JUMP JUMPDEST PUSH2 0x4BD JUMP JUMPDEST PUSH2 0x23A PUSH2 0x816 JUMP JUMPDEST STOP JUMPDEST PUSH1 0xB SLOAD PUSH2 0x24F SWAP1 PUSH1 0x1 PUSH1 0x1 PUSH1 0xA0 SHL SUB AND DUP2 JUMP JUMPDEST PUSH1 0x40 MLOAD PUSH1 0x1 PUSH1 0x1 PUSH1 0xA0 SHL SUB SWAP1 SWAP2 AND DUP2 MSTORE PUSH1 0x20 ADD PUSH2 0x204 JUMP JUMPDEST PUSH2 0x27A PUSH2 0x275 CALLDATASIZE PUSH1 0x4 PUSH2 0x21E9 JUMP JUMPDEST PUSH2 0x828 JUMP JUMPDEST PUSH1 0x40 MLOAD PUSH2 0x204 SWAP2 SWAP1 PUSH2 0x221C JUMP JUMPDEST PUSH2 0x1FA PUSH1 0x9 SLOAD DUP2 JUMP JUMPDEST PUSH1 0x1 SLOAD PUSH1 0x1 PUSH1 0xA0 SHL SWAP1 DIV PUSH1 0xFF AND JUMPDEST PUSH1 0x40 MLOAD SWAP1 ISZERO ISZERO DUP2 MSTORE PUSH1 0x20 ADD PUSH2 0x204 JUMP JUMPDEST PUSH2 0x23A PUSH2 0x2BC CALLDATASIZE PUSH1 0x4 PUSH2 0x2260 JUMP JUMPDEST PUSH2 0x987 JUMP JUMPDEST PUSH2 0x2D4 PUSH2 0x2CF CALLDATASIZE PUSH1 0x4 PUSH2 0x2282 JUMP JUMPDEST PUSH2 0xB6A JUMP JUMPDEST PUSH1 0x40 MLOAD PUSH2 0x204 SWAP12 SWAP11 SWAP10 SWAP9 SWAP8 SWAP7 SWAP6 SWAP5 SWAP4 SWAP3 SWAP2 SWAP1 PUSH2 0x22E1 JUMP JUMPDEST PUSH2 0x2D4 PUSH2 0x2F9 CALLDATASIZE PUSH1 0x4 PUSH2 0x2282 JUMP JUMPDEST PUSH2 0xD6C JUMP JUMPDEST PUSH2 0x23A PUSH2 0x30C CALLDATASIZE PUSH1 0x4 PUSH2 0x2282 JUMP JUMPDEST PUSH2 0x104A JUMP JUMPDEST PUSH2 0x23A PUSH2 0x124B JUMP JUMPDEST PUSH2 0x32C PUSH2 0x327 CALLDATASIZE PUSH1 0x4 PUSH2 0x2260 JUMP JUMPDEST PUSH2 0x125D JUMP JUMPDEST PUSH1 0x40 DUP1 MLOAD PUSH1 0x1 PUSH1 0x1 PUSH1 0xA0 SHL SUB SWAP1 SWAP7 AND DUP7 MSTORE PUSH1 0x20 DUP7 ADD SWAP5 SWAP1 SWAP5 MSTORE SWAP3 DUP5 ADD SWAP2 SWAP1 SWAP2 MSTORE PUSH1 0x60 DUP4 ADD MSTORE ISZERO ISZERO PUSH1 0x80 DUP3 ADD MSTORE PUSH1 0xA0 ADD PUSH2 0x204 JUMP JUMPDEST PUSH2 0x23A PUSH2 0x12B8 JUMP JUMPDEST PUSH2 0x23A PUSH2 0x376 CALLDATASIZE PUSH1 0x4 PUSH2 0x236E JUMP JUMPDEST PUSH2 0x12C8 JUMP JUMPDEST PUSH2 0x24F PUSH32 0x0 DUP2 JUMP JUMPDEST PUSH2 0x29E PUSH2 0x3B0 CALLDATASIZE PUSH1 0x4 PUSH2 0x2398 JUMP JUMPDEST PUSH2 0x13E8 JUMP JUMPDEST PUSH2 0x1FA PUSH1 0xA SLOAD DUP2 JUMP JUMPDEST PUSH1 0x1 SLOAD PUSH1 0x1 PUSH1 0x1 PUSH1 0xA0 SHL SUB AND PUSH2 0x24F JUMP JUMPDEST PUSH2 0x23A PUSH2 0x3DD CALLDATASIZE PUSH1 0x4 PUSH2 0x2282 JUMP JUMPDEST PUSH2 0x1699 JUMP JUMPDEST PUSH2 0x1FA PUSH2 0x3F0 CALLDATASIZE PUSH1 0x4 PUSH2 0x2282 JUMP JUMPDEST PUSH1 0x4 PUSH1 0x20 MSTORE PUSH1 0x0 SWAP1 DUP2 MSTORE PUSH1 0x40 SWAP1 KECCAK256 SLOAD DUP2 JUMP JUMPDEST PUSH2 0x1FA PUSH2 0x410 CALLDATASIZE PUSH1 0x4 PUSH2 0x236E JUMP JUMPDEST PUSH2 0x1B03 JUMP JUMPDEST PUSH2 0x23A PUSH2 0x423 CALLDATASIZE PUSH1 0x4 PUSH2 0x2282 JUMP JUMPDEST PUSH2 0x1B34 JUMP JUMPDEST PUSH2 0x1FA PUSH7 0x38D7EA4C68000 DUP2 JUMP JUMPDEST PUSH2 0x23A PUSH2 0x444 CALLDATASIZE PUSH1 0x4 PUSH2 0x23C4 JUMP JUMPDEST PUSH2 0x1BC2 JUMP JUMPDEST PUSH2 0x29E PUSH2 0x457 CALLDATASIZE PUSH1 0x4 PUSH2 0x2398 JUMP JUMPDEST PUSH1 0x5 PUSH1 0x20 SWAP1 DUP2 MSTORE PUSH1 0x0 SWAP3 DUP4 MSTORE PUSH1 0x40 DUP1 DUP5 KECCAK256 SWAP1 SWAP2 MSTORE SWAP1 DUP3 MSTORE SWAP1 KECCAK256 SLOAD PUSH1 0xFF AND DUP2 JUMP JUMPDEST PUSH2 0x1FA PUSH2 0x485 CALLDATASIZE PUSH1 0x4 PUSH2 0x23FC JUMP JUMPDEST PUSH1 0x6 PUSH1 0x20 MSTORE PUSH1 0x0 SWAP1 DUP2 MSTORE PUSH1 0x40 SWAP1 KECCAK256 SLOAD DUP2 JUMP JUMPDEST PUSH2 0x23A PUSH2 0x4A5 CALLDATASIZE PUSH1 0x4 PUSH2 0x23FC JUMP JUMPDEST PUSH2 0x1D49 JUMP JUMPDEST PUSH2 0x23A PUSH2 0x4B8 CALLDATASIZE PUSH1 0x4 PUSH2 0x23FC JUMP JUMPDEST PUSH2 0x1DBD JUMP JUMPDEST PUSH1 0x0 PUSH2 0x4C7 PUSH2 0x1E33 JUMP JUMPDEST PUSH1 0x0 DUP8 SWAP1 SUB PUSH2 0x514 JUMPI PUSH1 0x40 MLOAD PUSH3 0x461BCD PUSH1 0xE5 SHL DUP2 MSTORE PUSH1 0x20 PUSH1 0x4 DUP3 ADD MSTORE PUSH1 0x14 PUSH1 0x24 DUP3 ADD MSTORE PUSH20 0x486173682063616E6E6F7420626520656D707479 PUSH1 0x60 SHL PUSH1 0x44 DUP3 ADD MSTORE PUSH1 0x64 ADD JUMPDEST PUSH1 0x40 MLOAD DUP1 SWAP2 SUB SWAP1 REVERT JUMPDEST PUSH1 0x0 DUP7 MLOAD GT PUSH2 0x55D JUMPI PUSH1 0x40 MLOAD PUSH3 0x461BCD PUSH1 0xE5 SHL DUP2 MSTORE PUSH1 0x20 PUSH1 0x4 DUP3 ADD MSTORE PUSH1 0x15 PUSH1 0x24 DUP3 ADD MSTORE PUSH21 0x5469746C652063616E6E6F7420626520656D707479 PUSH1 0x58 SHL PUSH1 0x44 DUP3 ADD MSTORE PUSH1 0x64 ADD PUSH2 0x50B JUMP JUMPDEST PUSH1 0x0 DUP8 DUP2 MSTORE PUSH1 0x4 PUSH1 0x20 MSTORE PUSH1 0x40 SWAP1 KECCAK256 SLOAD ISZERO PUSH2 0x5B9 JUMPI PUSH1 0x40 MLOAD PUSH3 0x461BCD PUSH1 0xE5 SHL DUP2 MSTORE PUSH1 0x20 PUSH1 0x4 DUP3 ADD MSTORE PUSH1 0x18 PUSH1 0x24 DUP3 ADD MSTORE PUSH32 0x4E6F7465206861736820616C7265616479206578697374730000000000000000 PUSH1 0x44 DUP3 ADD MSTORE PUSH1 0x64 ADD PUSH2 0x50B JUMP JUMPDEST DUP5 ISZERO PUSH2 0x600 JUMPI PUSH7 0x38D7EA4C68000 DUP5 LT ISZERO DUP1 ISZERO PUSH2 0x5DF JUMPI POP PUSH9 0x3635C9ADC5DEA00000 DUP5 GT ISZERO JUMPDEST PUSH2 0x5FB JUMPI PUSH1 0x40 MLOAD PUSH3 0x461BCD PUSH1 0xE5 SHL DUP2 MSTORE PUSH1 0x4 ADD PUSH2 0x50B SWAP1 PUSH2 0x2417 JUMP JUMPDEST PUSH2 0x605 JUMP JUMPDEST PUSH1 0x0 SWAP4 POP JUMPDEST PUSH1 0x8 PUSH1 0x0 DUP2 SLOAD PUSH2 0x614 SWAP1 PUSH2 0x245B JUMP JUMPDEST SWAP2 DUP3 SWAP1 SSTORE POP PUSH1 0x40 DUP1 MLOAD PUSH2 0x160 DUP2 ADD DUP3 MSTORE CALLER DUP2 MSTORE PUSH1 0x20 DUP1 DUP3 ADD DUP12 DUP2 MSTORE TIMESTAMP DUP4 DUP6 ADD SWAP1 DUP2 MSTORE PUSH1 0x60 DUP5 ADD DUP13 DUP2 MSTORE PUSH1 0x1 PUSH1 0x80 DUP7 ADD DUP2 SWAP1 MSTORE DUP13 ISZERO ISZERO PUSH1 0xA0 DUP8 ADD MSTORE PUSH1 0xC0 DUP7 ADD DUP13 SWAP1 MSTORE PUSH1 0x0 PUSH1 0xE0 DUP8 ADD DUP2 SWAP1 MSTORE PUSH2 0x100 DUP8 ADD DUP2 SWAP1 MSTORE PUSH2 0x120 DUP8 ADD DUP13 SWAP1 MSTORE PUSH2 0x140 DUP8 ADD DUP12 SWAP1 MSTORE DUP9 DUP2 MSTORE PUSH1 0x2 SWAP6 DUP7 SWAP1 MSTORE SWAP7 SWAP1 SWAP7 KECCAK256 DUP6 MLOAD DUP2 SLOAD PUSH1 0x1 PUSH1 0x1 PUSH1 0xA0 SHL SUB NOT AND PUSH1 0x1 PUSH1 0x1 PUSH1 0xA0 SHL SUB SWAP1 SWAP2 AND OR DUP2 SSTORE SWAP3 MLOAD SWAP6 DUP4 ADD SWAP6 SWAP1 SWAP6 SSTORE MLOAD SWAP2 DUP2 ADD SWAP2 SWAP1 SWAP2 SSTORE SWAP2 MLOAD SWAP3 SWAP4 POP SWAP2 PUSH1 0x3 DUP3 ADD SWAP1 PUSH2 0x6C5 SWAP1 DUP3 PUSH2 0x24FC JUMP JUMPDEST POP PUSH1 0x80 DUP3 ADD MLOAD PUSH1 0x4 DUP3 ADD DUP1 SLOAD PUSH1 0xA0 DUP6 ADD MLOAD PUSH2 0xFFFF NOT SWAP1 SWAP2 AND SWAP3 ISZERO ISZERO PUSH2 0xFF00 NOT AND SWAP3 SWAP1 SWAP3 OR PUSH2 0x100 SWAP3 ISZERO ISZERO DUP4 MUL OR SWAP1 SSTORE PUSH1 0xC0 DUP4 ADD MLOAD PUSH1 0x5 DUP4 ADD SSTORE PUSH1 0xE0 DUP4 ADD MLOAD PUSH1 0x6 DUP4 ADD SSTORE DUP3 ADD MLOAD PUSH1 0x7 DUP3 ADD SSTORE PUSH2 0x120 DUP3 ADD MLOAD PUSH1 0x8 DUP3 ADD SWAP1 PUSH2 0x725 SWAP1 DUP3 PUSH2 0x24FC JUMP JUMPDEST POP PUSH2 0x140 DUP3 ADD MLOAD PUSH1 0x9 DUP3 ADD SWAP1 PUSH2 0x73B SWAP1 DUP3 PUSH2 0x24FC JUMP JUMPDEST POP POP CALLER PUSH1 0x0 SWAP1 DUP2 MSTORE PUSH1 0x3 PUSH1 0x20 SWAP1 DUP2 MSTORE PUSH1 0x40 DUP1 DUP4 KECCAK256 DUP1 SLOAD PUSH1 0x1 DUP2 ADD DUP3 SSTORE SWAP1 DUP5 MSTORE DUP3 DUP5 KECCAK256 ADD DUP6 SWAP1 SSTORE DUP11 DUP4 MSTORE PUSH1 0x4 SWAP1 SWAP2 MSTORE SWAP1 KECCAK256 DUP3 SWAP1 SSTORE POP DUP5 PUSH2 0x79D JUMPI PUSH1 0x0 DUP2 DUP2 MSTORE PUSH1 0x5 PUSH1 0x20 SWAP1 DUP2 MSTORE PUSH1 0x40 DUP1 DUP4 KECCAK256 CALLER DUP5 MSTORE SWAP1 SWAP2 MSTORE SWAP1 KECCAK256 DUP1 SLOAD PUSH1 0xFF NOT AND PUSH1 0x1 OR SWAP1 SSTORE PUSH2 0x7C2 JUMP JUMPDEST PUSH1 0x0 DUP2 DUP2 MSTORE PUSH1 0x5 PUSH1 0x20 SWAP1 DUP2 MSTORE PUSH1 0x40 DUP1 DUP4 KECCAK256 CALLER DUP5 MSTORE SWAP1 SWAP2 MSTORE SWAP1 KECCAK256 DUP1 SLOAD PUSH1 0xFF NOT AND PUSH1 0x1 OR SWAP1 SSTORE JUMPDEST DUP1 CALLER PUSH1 0x1 PUSH1 0x1 PUSH1 0xA0 SHL SUB AND PUSH32 0xCBF4E15A8A5C6DF39C4529172B0A3AA5BD97C1F8FBA73BD241CB3884FFAE2E00 DUP10 DUP10 DUP10 DUP10 TIMESTAMP PUSH1 0x40 MLOAD PUSH2 0x804 SWAP6 SWAP5 SWAP4 SWAP3 SWAP2 SWAP1 PUSH2 0x25BC JUMP JUMPDEST PUSH1 0x40 MLOAD DUP1 SWAP2 SUB SWAP1 LOG3 SWAP7 SWAP6 POP POP POP POP POP POP JUMP JUMPDEST PUSH2 0x81E PUSH2 0x1E80 JUMP JUMPDEST PUSH2 0x826 PUSH2 0x1EDA JUMP JUMPDEST JUMP JUMPDEST PUSH1 0x1 PUSH1 0x1 PUSH1 0xA0 SHL SUB DUP4 AND PUSH1 0x0 SWAP1 DUP2 MSTORE PUSH1 0x3 PUSH1 0x20 SWAP1 DUP2 MSTORE PUSH1 0x40 DUP1 DUP4 KECCAK256 DUP1 SLOAD DUP3 MLOAD DUP2 DUP6 MUL DUP2 ADD DUP6 ADD SWAP1 SWAP4 MSTORE DUP1 DUP4 MSTORE PUSH1 0x60 SWAP5 SWAP4 DUP4 ADD DUP3 DUP3 DUP1 ISZERO PUSH2 0x887 JUMPI PUSH1 0x20 MUL DUP3 ADD SWAP2 SWAP1 PUSH1 0x0 MSTORE PUSH1 0x20 PUSH1 0x0 KECCAK256 SWAP1 JUMPDEST DUP2 SLOAD DUP2 MSTORE PUSH1 0x20 ADD SWAP1 PUSH1 0x1 ADD SWAP1 DUP1 DUP4 GT PUSH2 0x873 JUMPI JUMPDEST POP POP DUP4 MLOAD SWAP4 SWAP5 POP POP POP DUP2 DUP7 LT SWAP1 POP PUSH2 0x8B1 JUMPI POP POP PUSH1 0x40 DUP1 MLOAD PUSH1 0x0 DUP2 MSTORE PUSH1 0x20 DUP2 ADD SWAP1 SWAP2 MSTORE SWAP1 POP PUSH2 0x980 JUMP JUMPDEST PUSH1 0x0 PUSH2 0x8BD DUP6 DUP8 PUSH2 0x25F2 JUMP JUMPDEST SWAP1 POP DUP2 DUP2 GT ISZERO PUSH2 0x8CA JUMPI POP DUP1 JUMPDEST PUSH1 0x0 PUSH2 0x8D6 DUP8 DUP4 PUSH2 0x260B JUMP JUMPDEST SWAP1 POP DUP1 PUSH8 0xFFFFFFFFFFFFFFFF DUP2 GT ISZERO PUSH2 0x8F1 JUMPI PUSH2 0x8F1 PUSH2 0x206D JUMP JUMPDEST PUSH1 0x40 MLOAD SWAP1 DUP1 DUP3 MSTORE DUP1 PUSH1 0x20 MUL PUSH1 0x20 ADD DUP3 ADD PUSH1 0x40 MSTORE DUP1 ISZERO PUSH2 0x91A JUMPI DUP2 PUSH1 0x20 ADD PUSH1 0x20 DUP3 MUL DUP1 CALLDATASIZE DUP4 CALLDATACOPY ADD SWAP1 POP JUMPDEST POP SWAP5 POP PUSH1 0x0 JUMPDEST DUP2 DUP2 LT ISZERO PUSH2 0x97A JUMPI DUP5 PUSH2 0x933 DUP3 DUP11 PUSH2 0x25F2 JUMP JUMPDEST DUP2 MLOAD DUP2 LT PUSH2 0x943 JUMPI PUSH2 0x943 PUSH2 0x261E JUMP JUMPDEST PUSH1 0x20 MUL PUSH1 0x20 ADD ADD MLOAD DUP7 DUP3 DUP2 MLOAD DUP2 LT PUSH2 0x95D JUMPI PUSH2 0x95D PUSH2 0x261E JUMP JUMPDEST PUSH1 0x20 SWAP1 DUP2 MUL SWAP2 SWAP1 SWAP2 ADD ADD MSTORE DUP1 PUSH2 0x972 DUP2 PUSH2 0x245B JUMP JUMPDEST SWAP2 POP POP PUSH2 0x920 JUMP JUMPDEST POP POP POP POP POP JUMPDEST SWAP4 SWAP3 POP POP POP JUMP JUMPDEST DUP2 PUSH1 0x0 DUP2 GT DUP1 ISZERO PUSH2 0x99A JUMPI POP PUSH1 0x8 SLOAD DUP2 GT ISZERO JUMPDEST PUSH2 0x9B6 JUMPI PUSH1 0x40 MLOAD PUSH3 0x461BCD PUSH1 0xE5 SHL DUP2 MSTORE PUSH1 0x4 ADD PUSH2 0x50B SWAP1 PUSH2 0x2634 JUMP JUMPDEST PUSH1 0x0 DUP4 DUP2 MSTORE PUSH1 0x2 PUSH1 0x20 MSTORE PUSH1 0x40 SWAP1 KECCAK256 SLOAD DUP4 SWAP1 PUSH1 0x1 PUSH1 0x1 PUSH1 0xA0 SHL SUB AND CALLER EQ PUSH2 0xA1E JUMPI PUSH1 0x40 MLOAD PUSH3 0x461BCD PUSH1 0xE5 SHL DUP2 MSTORE PUSH1 0x20 PUSH1 0x4 DUP3 ADD MSTORE PUSH1 0x1A PUSH1 0x24 DUP3 ADD MSTORE PUSH32 0x4E6F7420746865206F776E6572206F662074686973206E6F7465000000000000 PUSH1 0x44 DUP3 ADD MSTORE PUSH1 0x64 ADD PUSH2 0x50B JUMP JUMPDEST PUSH1 0x0 DUP5 DUP2 MSTORE PUSH1 0x2 PUSH1 0x20 MSTORE PUSH1 0x40 SWAP1 KECCAK256 PUSH1 0x4 ADD SLOAD DUP5 SWAP1 PUSH1 0xFF AND PUSH2 0xA51 JUMPI PUSH1 0x40 MLOAD PUSH3 0x461BCD PUSH1 0xE5 SHL DUP2 MSTORE PUSH1 0x4 ADD PUSH2 0x50B SWAP1 PUSH2 0x2661 JUMP JUMPDEST DUP4 PUSH7 0x38D7EA4C68000 DUP2 LT ISZERO DUP1 ISZERO PUSH2 0xA72 JUMPI POP PUSH9 0x3635C9ADC5DEA00000 DUP2 GT ISZERO JUMPDEST PUSH2 0xABE JUMPI PUSH1 0x40 MLOAD PUSH3 0x461BCD PUSH1 0xE5 SHL DUP2 MSTORE PUSH1 0x20 PUSH1 0x4 DUP3 ADD MSTORE PUSH1 0x18 PUSH1 0x24 DUP3 ADD MSTORE PUSH32 0x5072696365206F7574206F662076616C69642072616E67650000000000000000 PUSH1 0x44 DUP3 ADD MSTORE PUSH1 0x64 ADD PUSH2 0x50B JUMP JUMPDEST PUSH1 0x0 DUP7 DUP2 MSTORE PUSH1 0x2 PUSH1 0x20 MSTORE PUSH1 0x40 SWAP1 KECCAK256 PUSH1 0x4 DUP2 ADD SLOAD PUSH2 0x100 SWAP1 DIV PUSH1 0xFF AND PUSH2 0xB1B JUMPI PUSH1 0x40 MLOAD PUSH3 0x461BCD PUSH1 0xE5 SHL DUP2 MSTORE PUSH1 0x20 PUSH1 0x4 DUP3 ADD MSTORE PUSH1 0x13 PUSH1 0x24 DUP3 ADD MSTORE PUSH19 0x4E6F7465206973206E6F74207072656D69756D PUSH1 0x68 SHL PUSH1 0x44 DUP3 ADD MSTORE PUSH1 0x64 ADD PUSH2 0x50B JUMP JUMPDEST PUSH1 0x5 DUP2 ADD DUP1 SLOAD SWAP1 DUP8 SWAP1 SSTORE PUSH1 0x40 DUP1 MLOAD DUP3 DUP2 MSTORE PUSH1 0x20 DUP2 ADD DUP10 SWAP1 MSTORE DUP10 SWAP2 PUSH32 0x15819DD2FD9F6418B142E798D08A18D0BF06EA368F4480B7B0D3F75BD966BC48 SWAP2 ADD PUSH1 0x40 MLOAD DUP1 SWAP2 SUB SWAP1 LOG2 POP POP POP POP POP POP POP POP JUMP JUMPDEST PUSH1 0x2 PUSH1 0x20 DUP2 SWAP1 MSTORE PUSH1 0x0 SWAP2 DUP3 MSTORE PUSH1 0x40 SWAP1 SWAP2 KECCAK256 DUP1 SLOAD PUSH1 0x1 DUP3 ADD SLOAD SWAP3 DUP3 ADD SLOAD PUSH1 0x3 DUP4 ADD DUP1 SLOAD PUSH1 0x1 PUSH1 0x1 PUSH1 0xA0 SHL SUB SWAP1 SWAP4 AND SWAP5 SWAP4 SWAP2 SWAP3 PUSH2 0xBA4 SWAP1 PUSH2 0x2474 JUMP JUMPDEST DUP1 PUSH1 0x1F ADD PUSH1 0x20 DUP1 SWAP2 DIV MUL PUSH1 0x20 ADD PUSH1 0x40 MLOAD SWAP1 DUP2 ADD PUSH1 0x40 MSTORE DUP1 SWAP3 SWAP2 SWAP1 DUP2 DUP2 MSTORE PUSH1 0x20 ADD DUP3 DUP1 SLOAD PUSH2 0xBD0 SWAP1 PUSH2 0x2474 JUMP JUMPDEST DUP1 ISZERO PUSH2 0xC1D JUMPI DUP1 PUSH1 0x1F LT PUSH2 0xBF2 JUMPI PUSH2 0x100 DUP1 DUP4 SLOAD DIV MUL DUP4 MSTORE SWAP2 PUSH1 0x20 ADD SWAP2 PUSH2 0xC1D JUMP JUMPDEST DUP3 ADD SWAP2 SWAP1 PUSH1 0x0 MSTORE PUSH1 0x20 PUSH1 0x0 KECCAK256 SWAP1 JUMPDEST DUP2 SLOAD DUP2 MSTORE SWAP1 PUSH1 0x1 ADD SWAP1 PUSH1 0x20 ADD DUP1 DUP4 GT PUSH2 0xC00 JUMPI DUP3 SWAP1 SUB PUSH1 0x1F AND DUP3 ADD SWAP2 JUMPDEST POP POP POP POP PUSH1 0x4 DUP4 ADD SLOAD PUSH1 0x5 DUP5 ADD SLOAD PUSH1 0x6 DUP6 ADD SLOAD PUSH1 0x7 DUP7 ADD SLOAD PUSH1 0x8 DUP8 ADD DUP1 SLOAD SWAP7 SWAP8 PUSH1 0xFF DUP1 DUP8 AND SWAP9 PUSH2 0x100 SWAP1 SWAP8 DIV AND SWAP7 POP SWAP4 SWAP5 SWAP3 SWAP4 SWAP2 SWAP3 PUSH2 0xC5B SWAP1 PUSH2 0x2474 JUMP JUMPDEST DUP1 PUSH1 0x1F ADD PUSH1 0x20 DUP1 SWAP2 DIV MUL PUSH1 0x20 ADD PUSH1 0x40 MLOAD SWAP1 DUP2 ADD PUSH1 0x40 MSTORE DUP1 SWAP3 SWAP2 SWAP1 DUP2 DUP2 MSTORE PUSH1 0x20 ADD DUP3 DUP1 SLOAD PUSH2 0xC87 SWAP1 PUSH2 0x2474 JUMP JUMPDEST DUP1 ISZERO PUSH2 0xCD4 JUMPI DUP1 PUSH1 0x1F LT PUSH2 0xCA9 JUMPI PUSH2 0x100 DUP1 DUP4 SLOAD DIV MUL DUP4 MSTORE SWAP2 PUSH1 0x20 ADD SWAP2 PUSH2 0xCD4 JUMP JUMPDEST DUP3 ADD SWAP2 SWAP1 PUSH1 0x0 MSTORE PUSH1 0x20 PUSH1 0x0 KECCAK256 SWAP1 JUMPDEST DUP2 SLOAD DUP2 MSTORE SWAP1 PUSH1 0x1 ADD SWAP1 PUSH1 0x20 ADD DUP1 DUP4 GT PUSH2 0xCB7 JUMPI DUP3 SWAP1 SUB PUSH1 0x1F AND DUP3 ADD SWAP2 JUMPDEST POP POP POP POP POP SWAP1 DUP1 PUSH1 0x9 ADD DUP1 SLOAD PUSH2 0xCE9 SWAP1 PUSH2 0x2474 JUMP JUMPDEST DUP1 PUSH1 0x1F ADD PUSH1 0x20 DUP1 SWAP2 DIV MUL PUSH1 0x20 ADD PUSH1 0x40 MLOAD SWAP1 DUP2 ADD PUSH1 0x40 MSTORE DUP1 SWAP3 SWAP2 SWAP1 DUP2 DUP2 MSTORE PUSH1 0x20 ADD DUP3 DUP1 SLOAD PUSH2 0xD15 SWAP1 PUSH2 0x2474 JUMP JUMPDEST DUP1 ISZERO PUSH2 0xD62 JUMPI DUP1 PUSH1 0x1F LT PUSH2 0xD37 JUMPI PUSH2 0x100 DUP1 DUP4 SLOAD DIV MUL DUP4 MSTORE SWAP2 PUSH1 0x20 ADD SWAP2 PUSH2 0xD62 JUMP JUMPDEST DUP3 ADD SWAP2 SWAP1 PUSH1 0x0 MSTORE PUSH1 0x20 PUSH1 0x0 KECCAK256 SWAP1 JUMPDEST DUP2 SLOAD DUP2 MSTORE SWAP1 PUSH1 0x1 ADD SWAP1 PUSH1 0x20 ADD DUP1 DUP4 GT PUSH2 0xD45 JUMPI DUP3 SWAP1 SUB PUSH1 0x1F AND DUP3 ADD SWAP2 JUMPDEST POP POP POP POP POP SWAP1 POP DUP12 JUMP JUMPDEST PUSH1 0x0 DUP1 PUSH1 0x0 PUSH1 0x60 PUSH1 0x0 DUP1 PUSH1 0x0 DUP1 PUSH1 0x0 PUSH1 0x60 DUP1 DUP12 PUSH1 0x0 DUP2 GT DUP1 ISZERO PUSH2 0xD91 JUMPI POP PUSH1 0x8 SLOAD DUP2 GT ISZERO JUMPDEST PUSH2 0xDAD JUMPI PUSH1 0x40 MLOAD PUSH3 0x461BCD PUSH1 0xE5 SHL DUP2 MSTORE PUSH1 0x4 ADD PUSH2 0x50B SWAP1 PUSH2 0x2634 JUMP JUMPDEST PUSH1 0x0 DUP14 DUP2 MSTORE PUSH1 0x2 PUSH1 0x20 DUP2 DUP2 MSTORE PUSH1 0x40 DUP1 DUP5 KECCAK256 DUP2 MLOAD PUSH2 0x160 DUP2 ADD DUP4 MSTORE DUP2 SLOAD PUSH1 0x1 PUSH1 0x1 PUSH1 0xA0 SHL SUB AND DUP2 MSTORE PUSH1 0x1 DUP3 ADD SLOAD SWAP4 DUP2 ADD SWAP4 SWAP1 SWAP4 MSTORE SWAP3 DUP4 ADD SLOAD SWAP1 DUP3 ADD MSTORE PUSH1 0x3 DUP3 ADD DUP1 SLOAD SWAP2 SWAP3 SWAP2 PUSH1 0x60 DUP5 ADD SWAP2 SWAP1 PUSH2 0xE00 SWAP1 PUSH2 0x2474 JUMP JUMPDEST DUP1 PUSH1 0x1F ADD PUSH1 0x20 DUP1 SWAP2 DIV MUL PUSH1 0x20 ADD PUSH1 0x40 MLOAD SWAP1 DUP2 ADD PUSH1 0x40 MSTORE DUP1 SWAP3 SWAP2 SWAP1 DUP2 DUP2 MSTORE PUSH1 0x20 ADD DUP3 DUP1 SLOAD PUSH2 0xE2C SWAP1 PUSH2 0x2474 JUMP JUMPDEST DUP1 ISZERO PUSH2 0xE79 JUMPI DUP1 PUSH1 0x1F LT PUSH2 0xE4E JUMPI PUSH2 0x100 DUP1 DUP4 SLOAD DIV MUL DUP4 MSTORE SWAP2 PUSH1 0x20 ADD SWAP2 PUSH2 0xE79 JUMP JUMPDEST DUP3 ADD SWAP2 SWAP1 PUSH1 0x0 MSTORE PUSH1 0x20 PUSH1 0x0 KECCAK256 SWAP1 JUMPDEST DUP2 SLOAD DUP2 MSTORE SWAP1 PUSH1 0x1 ADD SWAP1 PUSH1 0x20 ADD DUP1 DUP4 GT PUSH2 0xE5C JUMPI DUP3 SWAP1 SUB PUSH1 0x1F AND DUP3 ADD SWAP2 JUMPDEST POP POP POP SWAP2 DUP4 MSTORE POP POP PUSH1 0x4 DUP3 ADD SLOAD PUSH1 0xFF DUP1 DUP3 AND ISZERO ISZERO PUSH1 0x20 DUP5 ADD MSTORE PUSH2 0x100 SWAP1 SWAP2 DIV AND ISZERO ISZERO PUSH1 0x40 DUP3 ADD MSTORE PUSH1 0x5 DUP3 ADD SLOAD PUSH1 0x60 DUP3 ADD MSTORE PUSH1 0x6 DUP3 ADD SLOAD PUSH1 0x80 DUP3 ADD MSTORE PUSH1 0x7 DUP3 ADD SLOAD PUSH1 0xA0 DUP3 ADD MSTORE PUSH1 0x8 DUP3 ADD DUP1 SLOAD PUSH1 0xC0 SWAP1 SWAP3 ADD SWAP2 PUSH2 0xED3 SWAP1 PUSH2 0x2474 JUMP JUMPDEST DUP1 PUSH1 0x1F ADD PUSH1 0x20 DUP1 SWAP2 DIV MUL PUSH1 0x20 ADD PUSH1 0x40 MLOAD SWAP1 DUP2 ADD PUSH1 0x40 MSTORE DUP1 SWAP3 SWAP2 SWAP1 DUP2 DUP2 MSTORE PUSH1 0x20 ADD DUP3 DUP1 SLOAD PUSH2 0xEFF SWAP1 PUSH2 0x2474 JUMP JUMPDEST DUP1 ISZERO PUSH2 0xF4C JUMPI DUP1 PUSH1 0x1F LT PUSH2 0xF21 JUMPI PUSH2 0x100 DUP1 DUP4 SLOAD DIV MUL DUP4 MSTORE SWAP2 PUSH1 0x20 ADD SWAP2 PUSH2 0xF4C JUMP JUMPDEST DUP3 ADD SWAP2 SWAP1 PUSH1 0x0 MSTORE PUSH1 0x20 PUSH1 0x0 KECCAK256 SWAP1 JUMPDEST DUP2 SLOAD DUP2 MSTORE SWAP1 PUSH1 0x1 ADD SWAP1 PUSH1 0x20 ADD DUP1 DUP4 GT PUSH2 0xF2F JUMPI DUP3 SWAP1 SUB PUSH1 0x1F AND DUP3 ADD SWAP2 JUMPDEST POP POP POP POP POP DUP2 MSTORE PUSH1 0x20 ADD PUSH1 0x9 DUP3 ADD DUP1 SLOAD PUSH2 0xF65 SWAP1 PUSH2 0x2474 JUMP JUMPDEST DUP1 PUSH1 0x1F ADD PUSH1 0x20 DUP1 SWAP2 DIV MUL PUSH1 0x20 ADD PUSH1 0x40 MLOAD SWAP1 DUP2 ADD PUSH1 0x40 MSTORE DUP1 SWAP3 SWAP2 SWAP1 DUP2 DUP2 MSTORE PUSH1 0x20 ADD DUP3 DUP1 SLOAD PUSH2 0xF91 SWAP1 PUSH2 0x2474 JUMP JUMPDEST DUP1 ISZERO PUSH2 0xFDE JUMPI DUP1 PUSH1 0x1F LT PUSH2 0xFB3 JUMPI PUSH2 0x100 DUP1 DUP4 SLOAD DIV MUL DUP4 MSTORE SWAP2 PUSH1 0x20 ADD SWAP2 PUSH2 0xFDE JUMP JUMPDEST DUP3 ADD SWAP2 SWAP1 PUSH1 0x0 MSTORE PUSH1 0x20 PUSH1 0x0 KECCAK256 SWAP1 JUMPDEST DUP2 SLOAD DUP2 MSTORE SWAP1 PUSH1 0x1 ADD SWAP1 PUSH1 0x20 ADD DUP1 DUP4 GT PUSH2 0xFC1 JUMPI DUP3 SWAP1 SUB PUSH1 0x1F AND DUP3 ADD SWAP2 JUMPDEST POP POP POP POP POP DUP2 MSTORE POP POP SWAP1 POP DUP1 PUSH1 0x0 ADD MLOAD DUP2 PUSH1 0x20 ADD MLOAD DUP3 PUSH1 0x40 ADD MLOAD DUP4 PUSH1 0x60 ADD MLOAD DUP5 PUSH1 0x80 ADD MLOAD DUP6 PUSH1 0xA0 ADD MLOAD DUP7 PUSH1 0xC0 ADD MLOAD DUP8 PUSH1 0xE0 ADD MLOAD DUP9 PUSH2 0x100 ADD MLOAD DUP10 PUSH2 0x120 ADD MLOAD DUP11 PUSH2 0x140 ADD MLOAD SWAP13 POP SWAP13 POP SWAP13 POP SWAP13 POP SWAP13 POP SWAP13 POP SWAP13 POP SWAP13 POP SWAP13 POP SWAP13 POP SWAP13 POP POP POP SWAP2 SWAP4 SWAP6 SWAP8 SWAP10 SWAP12 SWAP1 SWAP3 SWAP5 SWAP7 SWAP9 SWAP11 POP JUMP JUMPDEST PUSH2 0x1052 PUSH2 0x1F2F JUMP JUMPDEST PUSH2 0x105A PUSH2 0x1E33 JUMP JUMPDEST CALLER PUSH1 0x0 SWAP1 DUP2 MSTORE PUSH1 0x6 PUSH1 0x20 MSTORE PUSH1 0x40 SWAP1 KECCAK256 SLOAD DUP1 PUSH2 0x10B7 JUMPI PUSH1 0x40 MLOAD PUSH3 0x461BCD PUSH1 0xE5 SHL DUP2 MSTORE PUSH1 0x20 PUSH1 0x4 DUP3 ADD MSTORE PUSH1 0x17 PUSH1 0x24 DUP3 ADD MSTORE PUSH32 0x4E6F206561726E696E677320746F207769746864726177000000000000000000 PUSH1 0x44 DUP3 ADD MSTORE PUSH1 0x64 ADD PUSH2 0x50B JUMP JUMPDEST DUP2 PUSH1 0x0 SUB PUSH2 0x10C7 JUMPI DUP1 SWAP2 POP PUSH2 0x110F JUMP JUMPDEST DUP1 DUP3 GT ISZERO PUSH2 0x110F JUMPI PUSH1 0x40 MLOAD PUSH3 0x461BCD PUSH1 0xE5 SHL DUP2 MSTORE PUSH1 0x20 PUSH1 0x4 DUP3 ADD MSTORE PUSH1 0x15 PUSH1 0x24 DUP3 ADD MSTORE PUSH21 0x496E73756666696369656E74206561726E696E6773 PUSH1 0x58 SHL PUSH1 0x44 DUP3 ADD MSTORE PUSH1 0x64 ADD PUSH2 0x50B JUMP JUMPDEST CALLER PUSH1 0x0 SWAP1 DUP2 MSTORE PUSH1 0x6 PUSH1 0x20 MSTORE PUSH1 0x40 DUP2 KECCAK256 DUP1 SLOAD DUP5 SWAP3 SWAP1 PUSH2 0x112E SWAP1 DUP5 SWAP1 PUSH2 0x260B JUMP JUMPDEST SWAP1 SWAP2 SSTORE POP POP PUSH1 0x40 MLOAD PUSH4 0xA9059CBB PUSH1 0xE0 SHL DUP2 MSTORE CALLER PUSH1 0x4 DUP3 ADD MSTORE PUSH1 0x24 DUP2 ADD DUP4 SWAP1 MSTORE PUSH32 0x0 PUSH1 0x1 PUSH1 0x1 PUSH1 0xA0 SHL SUB AND SWAP1 PUSH4 0xA9059CBB SWAP1 PUSH1 0x44 ADD PUSH1 0x20 PUSH1 0x40 MLOAD DUP1 DUP4 SUB DUP2 PUSH1 0x0 DUP8 GAS CALL ISZERO DUP1 ISZERO PUSH2 0x11A0 JUMPI RETURNDATASIZE PUSH1 0x0 DUP1 RETURNDATACOPY RETURNDATASIZE PUSH1 0x0 REVERT JUMPDEST POP POP POP POP PUSH1 0x40 MLOAD RETURNDATASIZE PUSH1 0x1F NOT PUSH1 0x1F DUP3 ADD AND DUP3 ADD DUP1 PUSH1 0x40 MSTORE POP DUP2 ADD SWAP1 PUSH2 0x11C4 SWAP2 SWAP1 PUSH2 0x268D JUMP JUMPDEST PUSH2 0x1208 JUMPI PUSH1 0x40 MLOAD PUSH3 0x461BCD PUSH1 0xE5 SHL DUP2 MSTORE PUSH1 0x20 PUSH1 0x4 DUP3 ADD MSTORE PUSH1 0x15 PUSH1 0x24 DUP3 ADD MSTORE PUSH21 0x151BDAD95B881D1C985B9CD9995C8819985A5B1959 PUSH1 0x5A SHL PUSH1 0x44 DUP3 ADD MSTORE PUSH1 0x64 ADD PUSH2 0x50B JUMP JUMPDEST PUSH1 0x40 MLOAD DUP3 DUP2 MSTORE CALLER SWAP1 PUSH32 0x48DC35AF7B45E2A81FFFAD55F6E2FAFACDB1D3D0D50D24EBDC16324F5BA757F1 SWAP1 PUSH1 0x20 ADD PUSH1 0x40 MLOAD DUP1 SWAP2 SUB SWAP1 LOG2 POP PUSH2 0x1248 PUSH1 0x1 PUSH1 0x0 SSTORE JUMP JUMPDEST POP JUMP JUMPDEST PUSH2 0x1253 PUSH2 0x1E80 JUMP JUMPDEST PUSH2 0x826 PUSH1 0x0 PUSH2 0x1F88 JUMP JUMPDEST PUSH1 0x7 PUSH1 0x20 MSTORE DUP2 PUSH1 0x0 MSTORE PUSH1 0x40 PUSH1 0x0 KECCAK256 DUP2 DUP2 SLOAD DUP2 LT PUSH2 0x1279 JUMPI PUSH1 0x0 DUP1 REVERT JUMPDEST PUSH1 0x0 SWAP2 DUP3 MSTORE PUSH1 0x20 SWAP1 SWAP2 KECCAK256 PUSH1 0x5 SWAP1 SWAP2 MUL ADD DUP1 SLOAD PUSH1 0x1 DUP3 ADD SLOAD PUSH1 0x2 DUP4 ADD SLOAD PUSH1 0x3 DUP5 ADD SLOAD PUSH1 0x4 SWAP1 SWAP5 ADD SLOAD PUSH1 0x1 PUSH1 0x1 PUSH1 0xA0 SHL SUB SWAP1 SWAP4 AND SWAP6 POP SWAP1 SWAP4 POP SWAP2 SWAP1 PUSH1 0xFF AND DUP6 JUMP JUMPDEST PUSH2 0x12C0 PUSH2 0x1E80 JUMP JUMPDEST PUSH2 0x826 PUSH2 0x1FDA JUMP JUMPDEST PUSH2 0x12D0 PUSH2 0x1E80 JUMP JUMPDEST PUSH32 0x0 PUSH1 0x1 PUSH1 0x1 PUSH1 0xA0 SHL SUB AND DUP3 PUSH1 0x1 PUSH1 0x1 PUSH1 0xA0 SHL SUB AND SUB PUSH2 0x1351 JUMPI PUSH1 0x40 MLOAD PUSH3 0x461BCD PUSH1 0xE5 SHL DUP2 MSTORE PUSH1 0x20 PUSH1 0x4 DUP3 ADD MSTORE PUSH1 0x1A PUSH1 0x24 DUP3 ADD MSTORE PUSH32 0x43616E6E6F74207265636F766572204D4F444F20746F6B656E73000000000000 PUSH1 0x44 DUP3 ADD MSTORE PUSH1 0x64 ADD PUSH2 0x50B JUMP JUMPDEST DUP2 PUSH1 0x1 PUSH1 0x1 PUSH1 0xA0 SHL SUB AND PUSH4 0xA9059CBB PUSH2 0x1372 PUSH1 0x1 SLOAD PUSH1 0x1 PUSH1 0x1 PUSH1 0xA0 SHL SUB AND SWAP1 JUMP JUMPDEST PUSH1 0x40 MLOAD PUSH1 0x1 PUSH1 0x1 PUSH1 0xE0 SHL SUB NOT PUSH1 0xE0 DUP5 SWAP1 SHL AND DUP2 MSTORE PUSH1 0x1 PUSH1 0x1 PUSH1 0xA0 SHL SUB SWAP1 SWAP2 AND PUSH1 0x4 DUP3 ADD MSTORE PUSH1 0x24 DUP2 ADD DUP5 SWAP1 MSTORE PUSH1 0x44 ADD PUSH1 0x20 PUSH1 0x40 MLOAD DUP1 DUP4 SUB DUP2 PUSH1 0x0 DUP8 GAS CALL ISZERO DUP1 ISZERO PUSH2 0x13BF JUMPI RETURNDATASIZE PUSH1 0x0 DUP1 RETURNDATACOPY RETURNDATASIZE PUSH1 0x0 REVERT JUMPDEST POP POP POP POP PUSH1 0x40 MLOAD RETURNDATASIZE PUSH1 0x1F NOT PUSH1 0x1F DUP3 ADD AND DUP3 ADD DUP1 PUSH1 0x40 MSTORE POP DUP2 ADD SWAP1 PUSH2 0x13E3 SWAP2 SWAP1 PUSH2 0x268D JUMP JUMPDEST POP POP POP JUMP JUMPDEST PUSH1 0x0 DUP3 PUSH1 0x0 DUP2 GT DUP1 ISZERO PUSH2 0x13FD JUMPI POP PUSH1 0x8 SLOAD DUP2 GT ISZERO JUMPDEST PUSH2 0x1419 JUMPI PUSH1 0x40 MLOAD PUSH3 0x461BCD PUSH1 0xE5 SHL DUP2 MSTORE PUSH1 0x4 ADD PUSH2 0x50B SWAP1 PUSH2 0x2634 JUMP JUMPDEST PUSH1 0x0 DUP5 DUP2 MSTORE PUSH1 0x2 PUSH1 0x20 DUP2 DUP2 MSTORE PUSH1 0x40 DUP1 DUP5 KECCAK256 DUP2 MLOAD PUSH2 0x160 DUP2 ADD DUP4 MSTORE DUP2 SLOAD PUSH1 0x1 PUSH1 0x1 PUSH1 0xA0 SHL SUB AND DUP2 MSTORE PUSH1 0x1 DUP3 ADD SLOAD SWAP4 DUP2 ADD SWAP4 SWAP1 SWAP4 MSTORE SWAP3 DUP4 ADD SLOAD SWAP1 DUP3 ADD MSTORE PUSH1 0x3 DUP3 ADD DUP1 SLOAD SWAP2 SWAP3 SWAP2 PUSH1 0x60 DUP5 ADD SWAP2 SWAP1 PUSH2 0x146C SWAP1 PUSH2 0x2474 JUMP JUMPDEST DUP1 PUSH1 0x1F ADD PUSH1 0x20 DUP1 SWAP2 DIV MUL PUSH1 0x20 ADD PUSH1 0x40 MLOAD SWAP1 DUP2 ADD PUSH1 0x40 MSTORE DUP1 SWAP3 SWAP2 SWAP1 DUP2 DUP2 MSTORE PUSH1 0x20 ADD DUP3 DUP1 SLOAD PUSH2 0x1498 SWAP1 PUSH2 0x2474 JUMP JUMPDEST DUP1 ISZERO PUSH2 0x14E5 JUMPI DUP1 PUSH1 0x1F LT PUSH2 0x14BA JUMPI PUSH2 0x100 DUP1 DUP4 SLOAD DIV MUL DUP4 MSTORE SWAP2 PUSH1 0x20 ADD SWAP2 PUSH2 0x14E5 JUMP JUMPDEST DUP3 ADD SWAP2 SWAP1 PUSH1 0x0 MSTORE PUSH1 0x20 PUSH1 0x0 KECCAK256 SWAP1 JUMPDEST DUP2 SLOAD DUP2 MSTORE SWAP1 PUSH1 0x1 ADD SWAP1 PUSH1 0x20 ADD DUP1 DUP4 GT PUSH2 0x14C8 JUMPI DUP3 SWAP1 SUB PUSH1 0x1F AND DUP3 ADD SWAP2 JUMPDEST POP POP POP SWAP2 DUP4 MSTORE POP POP PUSH1 0x4 DUP3 ADD SLOAD PUSH1 0xFF DUP1 DUP3 AND ISZERO ISZERO PUSH1 0x20 DUP5 ADD MSTORE PUSH2 0x100 SWAP1 SWAP2 DIV AND ISZERO ISZERO PUSH1 0x40 DUP3 ADD MSTORE PUSH1 0x5 DUP3 ADD SLOAD PUSH1 0x60 DUP3 ADD MSTORE PUSH1 0x6 DUP3 ADD SLOAD PUSH1 0x80 DUP3 ADD MSTORE PUSH1 0x7 DUP3 ADD SLOAD PUSH1 0xA0 DUP3 ADD MSTORE PUSH1 0x8 DUP3 ADD DUP1 SLOAD PUSH1 0xC0 SWAP1 SWAP3 ADD SWAP2 PUSH2 0x153F SWAP1 PUSH2 0x2474 JUMP JUMPDEST DUP1 PUSH1 0x1F ADD PUSH1 0x20 DUP1 SWAP2 DIV MUL PUSH1 0x20 ADD PUSH1 0x40 MLOAD SWAP1 DUP2 ADD PUSH1 0x40 MSTORE DUP1 SWAP3 SWAP2 SWAP1 DUP2 DUP2 MSTORE PUSH1 0x20 ADD DUP3 DUP1 SLOAD PUSH2 0x156B SWAP1 PUSH2 0x2474 JUMP JUMPDEST DUP1 ISZERO PUSH2 0x15B8 JUMPI DUP1 PUSH1 0x1F LT PUSH2 0x158D JUMPI PUSH2 0x100 DUP1 DUP4 SLOAD DIV MUL DUP4 MSTORE SWAP2 PUSH1 0x20 ADD SWAP2 PUSH2 0x15B8 JUMP JUMPDEST DUP3 ADD SWAP2 SWAP1 PUSH1 0x0 MSTORE PUSH1 0x20 PUSH1 0x0 KECCAK256 SWAP1 JUMPDEST DUP2 SLOAD DUP2 MSTORE SWAP1 PUSH1 0x1 ADD SWAP1 PUSH1 0x20 ADD DUP1 DUP4 GT PUSH2 0x159B JUMPI DUP3 SWAP1 SUB PUSH1 0x1F AND DUP3 ADD SWAP2 JUMPDEST POP POP POP POP POP DUP2 MSTORE PUSH1 0x20 ADD PUSH1 0x9 DUP3 ADD DUP1 SLOAD PUSH2 0x15D1 SWAP1 PUSH2 0x2474 JUMP JUMPDEST DUP1 PUSH1 0x1F ADD PUSH1 0x20 DUP1 SWAP2 DIV MUL PUSH1 0x20 ADD PUSH1 0x40 MLOAD SWAP1 DUP2 ADD PUSH1 0x40 MSTORE DUP1 SWAP3 SWAP2 SWAP1 DUP2 DUP2 MSTORE PUSH1 0x20 ADD DUP3 DUP1 SLOAD PUSH2 0x15FD SWAP1 PUSH2 0x2474 JUMP JUMPDEST DUP1 ISZERO PUSH2 0x164A JUMPI DUP1 PUSH1 0x1F LT PUSH2 0x161F JUMPI PUSH2 0x100 DUP1 DUP4 SLOAD DIV MUL DUP4 MSTORE SWAP2 PUSH1 0x20 ADD SWAP2 PUSH2 0x164A JUMP JUMPDEST DUP3 ADD SWAP2 SWAP1 PUSH1 0x0 MSTORE PUSH1 0x20 PUSH1 0x0 KECCAK256 SWAP1 JUMPDEST DUP2 SLOAD DUP2 MSTORE SWAP1 PUSH1 0x1 ADD SWAP1 PUSH1 0x20 ADD DUP1 DUP4 GT PUSH2 0x162D JUMPI DUP3 SWAP1 SUB PUSH1 0x1F AND DUP3 ADD SWAP2 JUMPDEST POP POP POP POP POP DUP2 MSTORE POP POP SWAP1 POP DUP1 PUSH1 0xA0 ADD MLOAD PUSH2 0x1668 JUMPI PUSH1 0x1 SWAP3 POP POP PUSH2 0x1692 JUMP JUMPDEST POP PUSH1 0x0 DUP5 DUP2 MSTORE PUSH1 0x5 PUSH1 0x20 SWAP1 DUP2 MSTORE PUSH1 0x40 DUP1 DUP4 KECCAK256 PUSH1 0x1 PUSH1 0x1 PUSH1 0xA0 SHL SUB DUP8 AND DUP5 MSTORE SWAP1 SWAP2 MSTORE SWAP1 KECCAK256 SLOAD PUSH1 0xFF AND SWAP2 POP JUMPDEST POP SWAP3 SWAP2 POP POP JUMP JUMPDEST PUSH2 0x16A1 PUSH2 0x1F2F JUMP JUMPDEST PUSH2 0x16A9 PUSH2 0x1E33 JUMP JUMPDEST DUP1 PUSH1 0x0 DUP2 GT DUP1 ISZERO PUSH2 0x16BC JUMPI POP PUSH1 0x8 SLOAD DUP2 GT ISZERO JUMPDEST PUSH2 0x16D8 JUMPI PUSH1 0x40 MLOAD PUSH3 0x461BCD PUSH1 0xE5 SHL DUP2 MSTORE PUSH1 0x4 ADD PUSH2 0x50B SWAP1 PUSH2 0x2634 JUMP JUMPDEST PUSH1 0x0 DUP3 DUP2 MSTORE PUSH1 0x2 PUSH1 0x20 MSTORE PUSH1 0x40 SWAP1 KECCAK256 PUSH1 0x4 ADD SLOAD DUP3 SWAP1 PUSH1 0xFF AND PUSH2 0x170B JUMPI PUSH1 0x40 MLOAD PUSH3 0x461BCD PUSH1 0xE5 SHL DUP2 MSTORE PUSH1 0x4 ADD PUSH2 0x50B SWAP1 PUSH2 0x2661 JUMP JUMPDEST PUSH1 0x0 DUP4 DUP2 MSTORE PUSH1 0x2 PUSH1 0x20 MSTORE PUSH1 0x40 SWAP1 KECCAK256 PUSH1 0x4 DUP2 ADD SLOAD PUSH2 0x100 SWAP1 DIV PUSH1 0xFF AND PUSH2 0x1768 JUMPI PUSH1 0x40 MLOAD PUSH3 0x461BCD PUSH1 0xE5 SHL DUP2 MSTORE PUSH1 0x20 PUSH1 0x4 DUP3 ADD MSTORE PUSH1 0x13 PUSH1 0x24 DUP3 ADD MSTORE PUSH19 0x4E6F7465206973206E6F74207072656D69756D PUSH1 0x68 SHL PUSH1 0x44 DUP3 ADD MSTORE PUSH1 0x64 ADD PUSH2 0x50B JUMP JUMPDEST PUSH1 0x0 DUP5 DUP2 MSTORE PUSH1 0x5 PUSH1 0x20 SWAP1 DUP2 MSTORE PUSH1 0x40 DUP1 DUP4 KECCAK256 CALLER DUP5 MSTORE SWAP1 SWAP2 MSTORE SWAP1 KECCAK256 SLOAD PUSH1 0xFF AND ISZERO PUSH2 0x17C7 JUMPI PUSH1 0x40 MLOAD PUSH3 0x461BCD PUSH1 0xE5 SHL DUP2 MSTORE PUSH1 0x20 PUSH1 0x4 DUP3 ADD MSTORE PUSH1 0x12 PUSH1 0x24 DUP3 ADD MSTORE PUSH18 0x416C72656164792068617320616363657373 PUSH1 0x70 SHL PUSH1 0x44 DUP3 ADD MSTORE PUSH1 0x64 ADD PUSH2 0x50B JUMP JUMPDEST DUP1 SLOAD CALLER PUSH1 0x1 PUSH1 0x1 PUSH1 0xA0 SHL SUB SWAP1 SWAP2 AND SUB PUSH2 0x1822 JUMPI PUSH1 0x40 MLOAD PUSH3 0x461BCD PUSH1 0xE5 SHL DUP2 MSTORE PUSH1 0x20 PUSH1 0x4 DUP3 ADD MSTORE PUSH1 0x18 PUSH1 0x24 DUP3 ADD MSTORE PUSH32 0x43616E6E6F74207075726368617365206F776E206E6F74650000000000000000 PUSH1 0x44 DUP3 ADD MSTORE PUSH1 0x64 ADD PUSH2 0x50B JUMP JUMPDEST PUSH1 0x0 DUP2 PUSH1 0x5 ADD SLOAD GT PUSH2 0x1846 JUMPI PUSH1 0x40 MLOAD PUSH3 0x461BCD PUSH1 0xE5 SHL DUP2 MSTORE PUSH1 0x4 ADD PUSH2 0x50B SWAP1 PUSH2 0x2417 JUMP JUMPDEST PUSH1 0x5 DUP2 ADD SLOAD PUSH1 0xA SLOAD PUSH1 0x0 SWAP1 PUSH2 0x2710 SWAP1 PUSH2 0x185F SWAP1 DUP5 PUSH2 0x26AA JUMP JUMPDEST PUSH2 0x1869 SWAP2 SWAP1 PUSH2 0x26C1 JUMP JUMPDEST SWAP1 POP PUSH1 0x0 PUSH2 0x1877 DUP3 DUP5 PUSH2 0x260B JUMP JUMPDEST PUSH1 0x40 MLOAD PUSH4 0x23B872DD PUSH1 0xE0 SHL DUP2 MSTORE CALLER PUSH1 0x4 DUP3 ADD MSTORE ADDRESS PUSH1 0x24 DUP3 ADD MSTORE PUSH1 0x44 DUP2 ADD DUP6 SWAP1 MSTORE SWAP1 SWAP2 POP PUSH32 0x0 PUSH1 0x1 PUSH1 0x1 PUSH1 0xA0 SHL SUB AND SWAP1 PUSH4 0x23B872DD SWAP1 PUSH1 0x64 ADD PUSH1 0x20 PUSH1 0x40 MLOAD DUP1 DUP4 SUB DUP2 PUSH1 0x0 DUP8 GAS CALL ISZERO DUP1 ISZERO PUSH2 0x18ED JUMPI RETURNDATASIZE PUSH1 0x0 DUP1 RETURNDATACOPY RETURNDATASIZE PUSH1 0x0 REVERT JUMPDEST POP POP POP POP PUSH1 0x40 MLOAD RETURNDATASIZE PUSH1 0x1F NOT PUSH1 0x1F DUP3 ADD AND DUP3 ADD DUP1 PUSH1 0x40 MSTORE POP DUP2 ADD SWAP1 PUSH2 0x1911 SWAP2 SWAP1 PUSH2 0x268D JUMP JUMPDEST PUSH2 0x1955 JUMPI PUSH1 0x40 MLOAD PUSH3 0x461BCD PUSH1 0xE5 SHL DUP2 MSTORE PUSH1 0x20 PUSH1 0x4 DUP3 ADD MSTORE PUSH1 0x15 PUSH1 0x24 DUP3 ADD MSTORE PUSH21 0x151BDAD95B881D1C985B9CD9995C8819985A5B1959 PUSH1 0x5A SHL PUSH1 0x44 DUP3 ADD MSTORE PUSH1 0x64 ADD PUSH2 0x50B JUMP JUMPDEST PUSH1 0x0 DUP8 DUP2 MSTORE PUSH1 0x5 PUSH1 0x20 SWAP1 DUP2 MSTORE PUSH1 0x40 DUP1 DUP4 KECCAK256 CALLER DUP5 MSTORE SWAP1 SWAP2 MSTORE DUP2 KECCAK256 DUP1 SLOAD PUSH1 0xFF NOT AND PUSH1 0x1 OR SWAP1 SSTORE PUSH1 0x6 DUP6 ADD DUP1 SLOAD DUP4 SWAP3 SWAP1 PUSH2 0x198D SWAP1 DUP5 SWAP1 PUSH2 0x25F2 JUMP JUMPDEST SWAP3 POP POP DUP2 SWAP1 SSTORE POP PUSH1 0x1 DUP5 PUSH1 0x7 ADD PUSH1 0x0 DUP3 DUP3 SLOAD PUSH2 0x19A9 SWAP2 SWAP1 PUSH2 0x25F2 JUMP JUMPDEST SWAP1 SWAP2 SSTORE POP POP DUP4 SLOAD PUSH1 0x1 PUSH1 0x1 PUSH1 0xA0 SHL SUB AND PUSH1 0x0 SWAP1 DUP2 MSTORE PUSH1 0x6 PUSH1 0x20 MSTORE PUSH1 0x40 DUP2 KECCAK256 DUP1 SLOAD DUP4 SWAP3 SWAP1 PUSH2 0x19D7 SWAP1 DUP5 SWAP1 PUSH2 0x25F2 JUMP JUMPDEST SWAP1 SWAP2 SSTORE POP POP PUSH1 0xB SLOAD PUSH1 0x1 PUSH1 0x1 PUSH1 0xA0 SHL SUB AND PUSH1 0x0 SWAP1 DUP2 MSTORE PUSH1 0x6 PUSH1 0x20 MSTORE PUSH1 0x40 DUP2 KECCAK256 DUP1 SLOAD DUP5 SWAP3 SWAP1 PUSH2 0x1A06 SWAP1 DUP5 SWAP1 PUSH2 0x25F2 JUMP JUMPDEST SWAP1 SWAP2 SSTORE POP POP PUSH1 0x0 DUP8 DUP2 MSTORE PUSH1 0x7 PUSH1 0x20 SWAP1 DUP2 MSTORE PUSH1 0x40 DUP1 DUP4 KECCAK256 DUP2 MLOAD PUSH1 0xA0 DUP2 ADD DUP4 MSTORE CALLER DUP2 MSTORE DUP1 DUP5 ADD DUP13 DUP2 MSTORE SWAP3 DUP2 ADD DUP9 DUP2 MSTORE TIMESTAMP PUSH1 0x60 DUP4 ADD SWAP1 DUP2 MSTORE PUSH1 0x1 PUSH1 0x80 DUP5 ADD DUP2 DUP2 MSTORE DUP6 SLOAD DUP1 DUP4 ADD DUP8 SSTORE SWAP6 DUP10 MSTORE SWAP7 DUP9 KECCAK256 SWAP4 MLOAD PUSH1 0x5 SWAP1 SWAP6 MUL SWAP1 SWAP4 ADD DUP1 SLOAD PUSH1 0x1 PUSH1 0x1 PUSH1 0xA0 SHL SUB NOT AND PUSH1 0x1 PUSH1 0x1 PUSH1 0xA0 SHL SUB SWAP1 SWAP6 AND SWAP5 SWAP1 SWAP5 OR DUP5 SSTORE SWAP4 MLOAD SWAP2 DUP4 ADD SWAP2 SWAP1 SWAP2 SSTORE MLOAD PUSH1 0x2 DUP3 ADD SSTORE SWAP1 MLOAD PUSH1 0x3 DUP3 ADD SSTORE SWAP1 MLOAD PUSH1 0x4 SWAP1 SWAP2 ADD DUP1 SLOAD PUSH1 0xFF NOT AND SWAP2 ISZERO ISZERO SWAP2 SWAP1 SWAP2 OR SWAP1 SSTORE PUSH1 0x9 DUP1 SLOAD SWAP2 PUSH2 0x1AB2 DUP4 PUSH2 0x245B JUMP JUMPDEST SWAP1 SWAP2 SSTORE POP POP PUSH1 0x40 DUP1 MLOAD DUP5 DUP2 MSTORE TIMESTAMP PUSH1 0x20 DUP3 ADD MSTORE DUP9 SWAP2 CALLER SWAP2 PUSH32 0xF734C49672B04AA6D31CAF2A2DE7F5BBE9EEA86DF580F98CEA7224BB3642127C SWAP2 ADD PUSH1 0x40 MLOAD DUP1 SWAP2 SUB SWAP1 LOG3 POP POP POP POP POP POP PUSH2 0x1248 PUSH1 0x1 PUSH1 0x0 SSTORE JUMP JUMPDEST PUSH1 0x3 PUSH1 0x20 MSTORE DUP2 PUSH1 0x0 MSTORE PUSH1 0x40 PUSH1 0x0 KECCAK256 DUP2 DUP2 SLOAD DUP2 LT PUSH2 0x1B1F JUMPI PUSH1 0x0 DUP1 REVERT JUMPDEST SWAP1 PUSH1 0x0 MSTORE PUSH1 0x20 PUSH1 0x0 KECCAK256 ADD PUSH1 0x0 SWAP2 POP SWAP2 POP POP SLOAD DUP2 JUMP JUMPDEST PUSH2 0x1B3C PUSH2 0x1E80 JUMP JUMPDEST PUSH2 0x3E8 DUP2 GT ISZERO PUSH2 0x1B7D JUMPI PUSH1 0x40 MLOAD PUSH3 0x461BCD PUSH1 0xE5 SHL DUP2 MSTORE PUSH1 0x20 PUSH1 0x4 DUP3 ADD MSTORE PUSH1 0xC PUSH1 0x24 DUP3 ADD MSTORE PUSH12 0x8CCACA40E8DEDE40D0D2CED PUSH1 0xA3 SHL PUSH1 0x44 DUP3 ADD MSTORE PUSH1 0x64 ADD PUSH2 0x50B JUMP JUMPDEST PUSH1 0xA DUP1 SLOAD SWAP1 DUP3 SWAP1 SSTORE PUSH1 0x40 DUP1 MLOAD DUP3 DUP2 MSTORE PUSH1 0x20 DUP2 ADD DUP5 SWAP1 MSTORE PUSH32 0xD347E206F25A89B917FC9482F1A2D294D749BAA4DC9BDE7FB495EE11FE491643 SWAP2 ADD PUSH1 0x40 MLOAD DUP1 SWAP2 SUB SWAP1 LOG1 POP POP JUMP JUMPDEST DUP3 PUSH1 0x0 DUP2 GT DUP1 ISZERO PUSH2 0x1BD5 JUMPI POP PUSH1 0x8 SLOAD DUP2 GT ISZERO JUMPDEST PUSH2 0x1BF1 JUMPI PUSH1 0x40 MLOAD PUSH3 0x461BCD PUSH1 0xE5 SHL DUP2 MSTORE PUSH1 0x4 ADD PUSH2 0x50B SWAP1 PUSH2 0x2634 JUMP JUMPDEST PUSH1 0x0 DUP5 DUP2 MSTORE PUSH1 0x2 PUSH1 0x20 MSTORE PUSH1 0x40 SWAP1 KECCAK256 SLOAD DUP5 SWAP1 PUSH1 0x1 PUSH1 0x1 PUSH1 0xA0 SHL SUB AND CALLER EQ PUSH2 0x1C59 JUMPI PUSH1 0x40 MLOAD PUSH3 0x461BCD PUSH1 0xE5 SHL DUP2 MSTORE PUSH1 0x20 PUSH1 0x4 DUP3 ADD MSTORE PUSH1 0x1A PUSH1 0x24 DUP3 ADD MSTORE PUSH32 0x4E6F7420746865206F776E6572206F662074686973206E6F7465000000000000 PUSH1 0x44 DUP3 ADD MSTORE PUSH1 0x64 ADD PUSH2 0x50B JUMP JUMPDEST PUSH1 0x0 DUP6 DUP2 MSTORE PUSH1 0x2 PUSH1 0x20 MSTORE PUSH1 0x40 SWAP1 KECCAK256 PUSH1 0x4 ADD SLOAD DUP6 SWAP1 PUSH1 0xFF AND PUSH2 0x1C8C JUMPI PUSH1 0x40 MLOAD PUSH3 0x461BCD PUSH1 0xE5 SHL DUP2 MSTORE PUSH1 0x4 ADD PUSH2 0x50B SWAP1 PUSH2 0x2661 JUMP JUMPDEST PUSH1 0x0 DUP7 DUP2 MSTORE PUSH1 0x2 PUSH1 0x20 MSTORE PUSH1 0x40 SWAP1 KECCAK256 DUP6 DUP1 ISZERO PUSH2 0x1CB1 JUMPI POP PUSH1 0x4 DUP2 ADD SLOAD PUSH2 0x100 SWAP1 DIV PUSH1 0xFF AND ISZERO JUMPDEST ISZERO PUSH2 0x1D0F JUMPI PUSH7 0x38D7EA4C68000 DUP6 LT ISZERO DUP1 ISZERO PUSH2 0x1CD6 JUMPI POP PUSH9 0x3635C9ADC5DEA00000 DUP6 GT ISZERO JUMPDEST PUSH2 0x1CF2 JUMPI PUSH1 0x40 MLOAD PUSH3 0x461BCD PUSH1 0xE5 SHL DUP2 MSTORE PUSH1 0x4 ADD PUSH2 0x50B SWAP1 PUSH2 0x2417 JUMP JUMPDEST PUSH1 0x4 DUP2 ADD DUP1 SLOAD PUSH2 0xFF00 NOT AND PUSH2 0x100 OR SWAP1 SSTORE PUSH1 0x5 DUP2 ADD DUP6 SWAP1 SSTORE PUSH2 0x1D40 JUMP JUMPDEST DUP6 ISZERO DUP1 ISZERO PUSH2 0x1D26 JUMPI POP PUSH1 0x4 DUP2 ADD SLOAD PUSH2 0x100 SWAP1 DIV PUSH1 0xFF AND JUMPDEST ISZERO PUSH2 0x1D40 JUMPI PUSH1 0x4 DUP2 ADD DUP1 SLOAD PUSH2 0xFF00 NOT AND SWAP1 SSTORE PUSH1 0x0 PUSH1 0x5 DUP3 ADD SSTORE JUMPDEST POP POP POP POP POP POP POP JUMP JUMPDEST PUSH2 0x1D51 PUSH2 0x1E80 JUMP JUMPDEST PUSH1 0x1 PUSH1 0x1 PUSH1 0xA0 SHL SUB DUP2 AND PUSH2 0x1D9B JUMPI PUSH1 0x40 MLOAD PUSH3 0x461BCD PUSH1 0xE5 SHL DUP2 MSTORE PUSH1 0x20 PUSH1 0x4 DUP3 ADD MSTORE PUSH1 0x11 PUSH1 0x24 DUP3 ADD MSTORE PUSH17 0x125B9D985B1A59081C9958DA5C1A595B9D PUSH1 0x7A SHL PUSH1 0x44 DUP3 ADD MSTORE PUSH1 0x64 ADD PUSH2 0x50B JUMP JUMPDEST PUSH1 0xB DUP1 SLOAD PUSH1 0x1 PUSH1 0x1 PUSH1 0xA0 SHL SUB NOT AND PUSH1 0x1 PUSH1 0x1 PUSH1 0xA0 SHL SUB SWAP3 SWAP1 SWAP3 AND SWAP2 SWAP1 SWAP2 OR SWAP1 SSTORE JUMP JUMPDEST PUSH2 0x1DC5 PUSH2 0x1E80 JUMP JUMPDEST PUSH1 0x1 PUSH1 0x1 PUSH1 0xA0 SHL SUB DUP2 AND PUSH2 0x1E2A JUMPI PUSH1 0x40 MLOAD PUSH3 0x461BCD PUSH1 0xE5 SHL DUP2 MSTORE PUSH1 0x20 PUSH1 0x4 DUP3 ADD MSTORE PUSH1 0x26 PUSH1 0x24 DUP3 ADD MSTORE PUSH32 0x4F776E61626C653A206E6577206F776E657220697320746865207A65726F2061 PUSH1 0x44 DUP3 ADD MSTORE PUSH6 0x646472657373 PUSH1 0xD0 SHL PUSH1 0x64 DUP3 ADD MSTORE PUSH1 0x84 ADD PUSH2 0x50B JUMP JUMPDEST PUSH2 0x1248 DUP2 PUSH2 0x1F88 JUMP JUMPDEST PUSH1 0x1 SLOAD PUSH1 0x1 PUSH1 0xA0 SHL SWAP1 DIV PUSH1 0xFF AND ISZERO PUSH2 0x826 JUMPI PUSH1 0x40 MLOAD PUSH3 0x461BCD PUSH1 0xE5 SHL DUP2 MSTORE PUSH1 0x20 PUSH1 0x4 DUP3 ADD MSTORE PUSH1 0x10 PUSH1 0x24 DUP3 ADD MSTORE PUSH16 0x14185D5CD8589B194E881C185D5CD959 PUSH1 0x82 SHL PUSH1 0x44 DUP3 ADD MSTORE PUSH1 0x64 ADD PUSH2 0x50B JUMP JUMPDEST PUSH1 0x1 SLOAD PUSH1 0x1 PUSH1 0x1 PUSH1 0xA0 SHL SUB AND CALLER EQ PUSH2 0x826 JUMPI PUSH1 0x40 MLOAD PUSH3 0x461BCD PUSH1 0xE5 SHL DUP2 MSTORE PUSH1 0x20 PUSH1 0x4 DUP3 ADD DUP2 SWAP1 MSTORE PUSH1 0x24 DUP3 ADD MSTORE PUSH32 0x4F776E61626C653A2063616C6C6572206973206E6F7420746865206F776E6572 PUSH1 0x44 DUP3 ADD MSTORE PUSH1 0x64 ADD PUSH2 0x50B JUMP JUMPDEST PUSH2 0x1EE2 PUSH2 0x201D JUMP JUMPDEST PUSH1 0x1 DUP1 SLOAD PUSH1 0xFF PUSH1 0xA0 SHL NOT AND SWAP1 SSTORE PUSH32 0x5DB9EE0A495BF2E6FF9C91A7834C1BA4FDD244A5E8AA4E537BD38AEAE4B073AA CALLER JUMPDEST PUSH1 0x40 MLOAD PUSH1 0x1 PUSH1 0x1 PUSH1 0xA0 SHL SUB SWAP1 SWAP2 AND DUP2 MSTORE PUSH1 0x20 ADD PUSH1 0x40 MLOAD DUP1 SWAP2 SUB SWAP1 LOG1 JUMP JUMPDEST PUSH1 0x2 PUSH1 0x0 SLOAD SUB PUSH2 0x1F81 JUMPI PUSH1 0x40 MLOAD PUSH3 0x461BCD PUSH1 0xE5 SHL DUP2 MSTORE PUSH1 0x20 PUSH1 0x4 DUP3 ADD MSTORE PUSH1 0x1F PUSH1 0x24 DUP3 ADD MSTORE PUSH32 0x5265656E7472616E637947756172643A207265656E7472616E742063616C6C00 PUSH1 0x44 DUP3 ADD MSTORE PUSH1 0x64 ADD PUSH2 0x50B JUMP JUMPDEST PUSH1 0x2 PUSH1 0x0 SSTORE JUMP JUMPDEST PUSH1 0x1 DUP1 SLOAD PUSH1 0x1 PUSH1 0x1 PUSH1 0xA0 SHL SUB DUP4 DUP2 AND PUSH1 0x1 PUSH1 0x1 PUSH1 0xA0 SHL SUB NOT DUP4 AND DUP2 OR SWAP1 SWAP4 SSTORE PUSH1 0x40 MLOAD SWAP2 AND SWAP2 SWAP1 DUP3 SWAP1 PUSH32 0x8BE0079C531659141344CD1FD0A4F28419497F9722A3DAAFE3B4186F6B6457E0 SWAP1 PUSH1 0x0 SWAP1 LOG3 POP POP JUMP JUMPDEST PUSH2 0x1FE2 PUSH2 0x1E33 JUMP JUMPDEST PUSH1 0x1 DUP1 SLOAD PUSH1 0xFF PUSH1 0xA0 SHL NOT AND PUSH1 0x1 PUSH1 0xA0 SHL OR SWAP1 SSTORE PUSH32 0x62E78CEA01BEE320CD4E420270B5EA74000D11B0C9F74754EBDBFC544B05A258 PUSH2 0x1F12 CALLER SWAP1 JUMP JUMPDEST PUSH1 0x1 SLOAD PUSH1 0x1 PUSH1 0xA0 SHL SWAP1 DIV PUSH1 0xFF AND PUSH2 0x826 JUMPI PUSH1 0x40 MLOAD PUSH3 0x461BCD PUSH1 0xE5 SHL DUP2 MSTORE PUSH1 0x20 PUSH1 0x4 DUP3 ADD MSTORE PUSH1 0x14 PUSH1 0x24 DUP3 ADD MSTORE PUSH20 0x14185D5CD8589B194E881B9BDD081C185D5CD959 PUSH1 0x62 SHL PUSH1 0x44 DUP3 ADD MSTORE PUSH1 0x64 ADD PUSH2 0x50B JUMP JUMPDEST PUSH4 0x4E487B71 PUSH1 0xE0 SHL PUSH1 0x0 MSTORE PUSH1 0x41 PUSH1 0x4 MSTORE PUSH1 0x24 PUSH1 0x0 REVERT JUMPDEST PUSH1 0x0 DUP3 PUSH1 0x1F DUP4 ADD SLT PUSH2 0x2094 JUMPI PUSH1 0x0 DUP1 REVERT JUMPDEST DUP2 CALLDATALOAD PUSH8 0xFFFFFFFFFFFFFFFF DUP1 DUP3 GT ISZERO PUSH2 0x20AF JUMPI PUSH2 0x20AF PUSH2 0x206D JUMP JUMPDEST PUSH1 0x40 MLOAD PUSH1 0x1F DUP4 ADD PUSH1 0x1F NOT SWAP1 DUP2 AND PUSH1 0x3F ADD AND DUP2 ADD SWAP1 DUP3 DUP3 GT DUP2 DUP4 LT OR ISZERO PUSH2 0x20D7 JUMPI PUSH2 0x20D7 PUSH2 0x206D JUMP JUMPDEST DUP2 PUSH1 0x40 MSTORE DUP4 DUP2 MSTORE DUP7 PUSH1 0x20 DUP6 DUP9 ADD ADD GT ISZERO PUSH2 0x20F0 JUMPI PUSH1 0x0 DUP1 REVERT JUMPDEST DUP4 PUSH1 0x20 DUP8 ADD PUSH1 0x20 DUP4 ADD CALLDATACOPY PUSH1 0x0 PUSH1 0x20 DUP6 DUP4 ADD ADD MSTORE DUP1 SWAP5 POP POP POP POP POP SWAP3 SWAP2 POP POP JUMP JUMPDEST DUP1 ISZERO ISZERO DUP2 EQ PUSH2 0x1248 JUMPI PUSH1 0x0 DUP1 REVERT JUMPDEST PUSH1 0x0 DUP1 PUSH1 0x0 DUP1 PUSH1 0x0 DUP1 PUSH1 0xC0 DUP8 DUP10 SUB SLT ISZERO PUSH2 0x2137 JUMPI PUSH1 0x0 DUP1 REVERT JUMPDEST DUP7 CALLDATALOAD SWAP6 POP PUSH1 0x20 DUP8 ADD CALLDATALOAD PUSH8 0xFFFFFFFFFFFFFFFF DUP1 DUP3 GT ISZERO PUSH2 0x2156 JUMPI PUSH1 0x0 DUP1 REVERT JUMPDEST PUSH2 0x2162 DUP11 DUP4 DUP12 ADD PUSH2 0x2083 JUMP JUMPDEST SWAP7 POP PUSH1 0x40 DUP10 ADD CALLDATALOAD SWAP2 POP PUSH2 0x2174 DUP3 PUSH2 0x2110 JUMP JUMPDEST SWAP1 SWAP5 POP PUSH1 0x60 DUP9 ADD CALLDATALOAD SWAP4 POP PUSH1 0x80 DUP9 ADD CALLDATALOAD SWAP1 DUP1 DUP3 GT ISZERO PUSH2 0x2191 JUMPI PUSH1 0x0 DUP1 REVERT JUMPDEST PUSH2 0x219D DUP11 DUP4 DUP12 ADD PUSH2 0x2083 JUMP JUMPDEST SWAP4 POP PUSH1 0xA0 DUP10 ADD CALLDATALOAD SWAP2 POP DUP1 DUP3 GT ISZERO PUSH2 0x21B3 JUMPI PUSH1 0x0 DUP1 REVERT JUMPDEST POP PUSH2 0x21C0 DUP10 DUP3 DUP11 ADD PUSH2 0x2083 JUMP JUMPDEST SWAP2 POP POP SWAP3 SWAP6 POP SWAP3 SWAP6 POP SWAP3 SWAP6 JUMP JUMPDEST DUP1 CALLDATALOAD PUSH1 0x1 PUSH1 0x1 PUSH1 0xA0 SHL SUB DUP2 AND DUP2 EQ PUSH2 0x21E4 JUMPI PUSH1 0x0 DUP1 REVERT JUMPDEST SWAP2 SWAP1 POP JUMP JUMPDEST PUSH1 0x0 DUP1 PUSH1 0x0 PUSH1 0x60 DUP5 DUP7 SUB SLT ISZERO PUSH2 0x21FE JUMPI PUSH1 0x0 DUP1 REVERT JUMPDEST PUSH2 0x2207 DUP5 PUSH2 0x21CD JUMP JUMPDEST SWAP6 PUSH1 0x20 DUP6 ADD CALLDATALOAD SWAP6 POP PUSH1 0x40 SWAP1 SWAP5 ADD CALLDATALOAD SWAP4 SWAP3 POP POP POP JUMP JUMPDEST PUSH1 0x20 DUP1 DUP3 MSTORE DUP3 MLOAD DUP3 DUP3 ADD DUP2 SWAP1 MSTORE PUSH1 0x0 SWAP2 SWAP1 DUP5 DUP3 ADD SWAP1 PUSH1 0x40 DUP6 ADD SWAP1 DUP5 JUMPDEST DUP2 DUP2 LT ISZERO PUSH2 0x2254 JUMPI DUP4 MLOAD DUP4 MSTORE SWAP3 DUP5 ADD SWAP3 SWAP2 DUP5 ADD SWAP2 PUSH1 0x1 ADD PUSH2 0x2238 JUMP JUMPDEST POP SWAP1 SWAP7 SWAP6 POP POP POP POP POP POP JUMP JUMPDEST PUSH1 0x0 DUP1 PUSH1 0x40 DUP4 DUP6 SUB SLT ISZERO PUSH2 0x2273 JUMPI PUSH1 0x0 DUP1 REVERT JUMPDEST POP POP DUP1 CALLDATALOAD SWAP3 PUSH1 0x20 SWAP1 SWAP2 ADD CALLDATALOAD SWAP2 POP JUMP JUMPDEST PUSH1 0x0 PUSH1 0x20 DUP3 DUP5 SUB SLT ISZERO PUSH2 0x2294 JUMPI PUSH1 0x0 DUP1 REVERT JUMPDEST POP CALLDATALOAD SWAP2 SWAP1 POP JUMP JUMPDEST PUSH1 0x0 DUP2 MLOAD DUP1 DUP5 MSTORE PUSH1 0x0 JUMPDEST DUP2 DUP2 LT ISZERO PUSH2 0x22C1 JUMPI PUSH1 0x20 DUP2 DUP6 ADD DUP2 ADD MLOAD DUP7 DUP4 ADD DUP3 ADD MSTORE ADD PUSH2 0x22A5 JUMP JUMPDEST POP PUSH1 0x0 PUSH1 0x20 DUP3 DUP7 ADD ADD MSTORE PUSH1 0x20 PUSH1 0x1F NOT PUSH1 0x1F DUP4 ADD AND DUP6 ADD ADD SWAP2 POP POP SWAP3 SWAP2 POP POP JUMP JUMPDEST PUSH1 0x0 PUSH2 0x160 PUSH1 0x1 DUP1 PUSH1 0xA0 SHL SUB DUP15 AND DUP4 MSTORE DUP13 PUSH1 0x20 DUP5 ADD MSTORE DUP12 PUSH1 0x40 DUP5 ADD MSTORE DUP1 PUSH1 0x60 DUP5 ADD MSTORE PUSH2 0x230F DUP2 DUP5 ADD DUP13 PUSH2 0x229B JUMP JUMPDEST SWAP1 POP DUP10 ISZERO ISZERO PUSH1 0x80 DUP5 ADD MSTORE DUP9 ISZERO ISZERO PUSH1 0xA0 DUP5 ADD MSTORE DUP8 PUSH1 0xC0 DUP5 ADD MSTORE DUP7 PUSH1 0xE0 DUP5 ADD MSTORE DUP6 PUSH2 0x100 DUP5 ADD MSTORE DUP3 DUP2 SUB PUSH2 0x120 DUP5 ADD MSTORE PUSH2 0x2347 DUP2 DUP7 PUSH2 0x229B JUMP JUMPDEST SWAP1 POP DUP3 DUP2 SUB PUSH2 0x140 DUP5 ADD MSTORE PUSH2 0x235C DUP2 DUP6 PUSH2 0x229B JUMP JUMPDEST SWAP15 SWAP14 POP POP POP POP POP POP POP POP POP POP POP POP POP POP JUMP JUMPDEST PUSH1 0x0 DUP1 PUSH1 0x40 DUP4 DUP6 SUB SLT ISZERO PUSH2 0x2381 JUMPI PUSH1 0x0 DUP1 REVERT JUMPDEST PUSH2 0x238A DUP4 PUSH2 0x21CD JUMP JUMPDEST SWAP5 PUSH1 0x20 SWAP4 SWAP1 SWAP4 ADD CALLDATALOAD SWAP4 POP POP POP JUMP JUMPDEST PUSH1 0x0 DUP1 PUSH1 0x40 DUP4 DUP6 SUB SLT ISZERO PUSH2 0x23AB JUMPI PUSH1 0x0 DUP1 REVERT JUMPDEST DUP3 CALLDATALOAD SWAP2 POP PUSH2 0x23BB PUSH1 0x20 DUP5 ADD PUSH2 0x21CD JUMP JUMPDEST SWAP1 POP SWAP3 POP SWAP3 SWAP1 POP JUMP JUMPDEST PUSH1 0x0 DUP1 PUSH1 0x0 PUSH1 0x60 DUP5 DUP7 SUB SLT ISZERO PUSH2 0x23D9 JUMPI PUSH1 0x0 DUP1 REVERT JUMPDEST DUP4 CALLDATALOAD SWAP3 POP PUSH1 0x20 DUP5 ADD CALLDATALOAD PUSH2 0x23EB DUP2 PUSH2 0x2110 JUMP JUMPDEST SWAP3 SWAP6 SWAP3 SWAP5 POP POP POP PUSH1 0x40 SWAP2 SWAP1 SWAP2 ADD CALLDATALOAD SWAP1 JUMP JUMPDEST PUSH1 0x0 PUSH1 0x20 DUP3 DUP5 SUB SLT ISZERO PUSH2 0x240E JUMPI PUSH1 0x0 DUP1 REVERT JUMPDEST PUSH2 0x980 DUP3 PUSH2 0x21CD JUMP JUMPDEST PUSH1 0x20 DUP1 DUP3 MSTORE PUSH1 0x14 SWAP1 DUP3 ADD MSTORE PUSH20 0x496E76616C696420616363657373207072696365 PUSH1 0x60 SHL PUSH1 0x40 DUP3 ADD MSTORE PUSH1 0x60 ADD SWAP1 JUMP JUMPDEST PUSH4 0x4E487B71 PUSH1 0xE0 SHL PUSH1 0x0 MSTORE PUSH1 0x11 PUSH1 0x4 MSTORE PUSH1 0x24 PUSH1 0x0 REVERT JUMPDEST PUSH1 0x0 PUSH1 0x1 DUP3 ADD PUSH2 0x246D JUMPI PUSH2 0x246D PUSH2 0x2445 JUMP JUMPDEST POP PUSH1 0x1 ADD SWAP1 JUMP JUMPDEST PUSH1 0x1 DUP2 DUP2 SHR SWAP1 DUP3 AND DUP1 PUSH2 0x2488 JUMPI PUSH1 0x7F DUP3 AND SWAP2 POP JUMPDEST PUSH1 0x20 DUP3 LT DUP2 SUB PUSH2 0x24A8 JUMPI PUSH4 0x4E487B71 PUSH1 0xE0 SHL PUSH1 0x0 MSTORE PUSH1 0x22 PUSH1 0x4 MSTORE PUSH1 0x24 PUSH1 0x0 REVERT JUMPDEST POP SWAP2 SWAP1 POP JUMP JUMPDEST PUSH1 0x1F DUP3 GT ISZERO PUSH2 0x13E3 JUMPI PUSH1 0x0 DUP2 DUP2 MSTORE PUSH1 0x20 DUP2 KECCAK256 PUSH1 0x1F DUP6 ADD PUSH1 0x5 SHR DUP2 ADD PUSH1 0x20 DUP7 LT ISZERO PUSH2 0x24D5 JUMPI POP DUP1 JUMPDEST PUSH1 0x1F DUP6 ADD PUSH1 0x5 SHR DUP3 ADD SWAP2 POP JUMPDEST DUP2 DUP2 LT ISZERO PUSH2 0x24F4 JUMPI DUP3 DUP2 SSTORE PUSH1 0x1 ADD PUSH2 0x24E1 JUMP JUMPDEST POP POP POP POP POP POP JUMP JUMPDEST DUP2 MLOAD PUSH8 0xFFFFFFFFFFFFFFFF DUP2 GT ISZERO PUSH2 0x2516 JUMPI PUSH2 0x2516 PUSH2 0x206D JUMP JUMPDEST PUSH2 0x252A DUP2 PUSH2 0x2524 DUP5 SLOAD PUSH2 0x2474 JUMP JUMPDEST DUP5 PUSH2 0x24AE JUMP JUMPDEST PUSH1 0x20 DUP1 PUSH1 0x1F DUP4 GT PUSH1 0x1 DUP2 EQ PUSH2 0x255F JUMPI PUSH1 0x0 DUP5 ISZERO PUSH2 0x2547 JUMPI POP DUP6 DUP4 ADD MLOAD JUMPDEST PUSH1 0x0 NOT PUSH1 0x3 DUP7 SWAP1 SHL SHR NOT AND PUSH1 0x1 DUP6 SWAP1 SHL OR DUP6 SSTORE PUSH2 0x24F4 JUMP JUMPDEST PUSH1 0x0 DUP6 DUP2 MSTORE PUSH1 0x20 DUP2 KECCAK256 PUSH1 0x1F NOT DUP7 AND SWAP2 JUMPDEST DUP3 DUP2 LT ISZERO PUSH2 0x258E JUMPI DUP9 DUP7 ADD MLOAD DUP3 SSTORE SWAP5 DUP5 ADD SWAP5 PUSH1 0x1 SWAP1 SWAP2 ADD SWAP1 DUP5 ADD PUSH2 0x256F JUMP JUMPDEST POP DUP6 DUP3 LT ISZERO PUSH2 0x25AC JUMPI DUP8 DUP6 ADD MLOAD PUSH1 0x0 NOT PUSH1 0x3 DUP9 SWAP1 SHL PUSH1 0xF8 AND SHR NOT AND DUP2 SSTORE JUMPDEST POP POP POP POP POP PUSH1 0x1 SWAP1 DUP2 SHL ADD SWAP1 SSTORE POP JUMP JUMPDEST DUP6 DUP2 MSTORE PUSH1 0xA0 PUSH1 0x20 DUP3 ADD MSTORE PUSH1 0x0 PUSH2 0x25D5 PUSH1 0xA0 DUP4 ADD DUP8 PUSH2 0x229B JUMP JUMPDEST SWAP5 ISZERO ISZERO PUSH1 0x40 DUP4 ADD MSTORE POP PUSH1 0x60 DUP2 ADD SWAP3 SWAP1 SWAP3 MSTORE PUSH1 0x80 SWAP1 SWAP2 ADD MSTORE SWAP3 SWAP2 POP POP JUMP JUMPDEST DUP1 DUP3 ADD DUP1 DUP3 GT ISZERO PUSH2 0x2605 JUMPI PUSH2 0x2605 PUSH2 0x2445 JUMP JUMPDEST SWAP3 SWAP2 POP POP JUMP JUMPDEST DUP2 DUP2 SUB DUP2 DUP2 GT ISZERO PUSH2 0x2605 JUMPI PUSH2 0x2605 PUSH2 0x2445 JUMP JUMPDEST PUSH4 0x4E487B71 PUSH1 0xE0 SHL PUSH1 0x0 MSTORE PUSH1 0x32 PUSH1 0x4 MSTORE PUSH1 0x24 PUSH1 0x0 REVERT JUMPDEST PUSH1 0x20 DUP1 DUP3 MSTORE PUSH1 0x13 SWAP1 DUP3 ADD MSTORE PUSH19 0x139BDD1948191BD95CC81B9BDD08195E1A5CDD PUSH1 0x6A SHL PUSH1 0x40 DUP3 ADD MSTORE PUSH1 0x60 ADD SWAP1 JUMP JUMPDEST PUSH1 0x20 DUP1 DUP3 MSTORE PUSH1 0x12 SWAP1 DUP3 ADD MSTORE PUSH18 0x4E6F7465206973206E6F7420616374697665 PUSH1 0x70 SHL PUSH1 0x40 DUP3 ADD MSTORE PUSH1 0x60 ADD SWAP1 JUMP JUMPDEST PUSH1 0x0 PUSH1 0x20 DUP3 DUP5 SUB SLT ISZERO PUSH2 0x269F JUMPI PUSH1 0x0 DUP1 REVERT JUMPDEST DUP2 MLOAD PUSH2 0x980 DUP2 PUSH2 0x2110 JUMP JUMPDEST DUP1 DUP3 MUL DUP2 ISZERO DUP3 DUP3 DIV DUP5 EQ OR PUSH2 0x2605 JUMPI PUSH2 0x2605 PUSH2 0x2445 JUMP JUMPDEST PUSH1 0x0 DUP3 PUSH2 0x26DE JUMPI PUSH4 0x4E487B71 PUSH1 0xE0 SHL PUSH1 0x0 MSTORE PUSH1 0x12 PUSH1 0x4 MSTORE PUSH1 0x24 PUSH1 0x0 REVERT JUMPDEST POP DIV SWAP1 JUMP INVALID LOG2 PUSH5 0x6970667358 0x22 SLT KECCAK256 CREATE2 0xFC 0xBE PUSH18 0x478143DB501B915CB404EEC873EE69CF49B4 LOG0 0xA7 0xBE 0xE9 DUP11 0xB5 0xD3 CALLVALUE 0x25 0xF7 PUSH5 0x736F6C6343 STOP ADDMOD SGT STOP CALLER "},"methodIdentifiers":{"MAX_PLATFORM_FEE()":"3998a681","MAX_PRICE()":"01c11d96","MIN_PRICE()":"ad9f20a6","checkNoteAccess(uint256,address)":"8b7cc3df","feeRecipient()":"46904840","getNoteDetails(uint256)":"63b3834e","getUserNotes(address,uint256,uint256)":"4d548506","hasAccess(uint256,address)":"ced14198","hashToNoteId(bytes32)":"96fa9022","moduloToken()":"8a0b3b0a","noteCount()":"317a4c76","notePurchases(uint256,uint256)":"75e2a27e","notes(uint256)":"61c3a7e6","owner()":"8da5cb5b","ownerNotes(address,uint256)":"a6d52e3d","pause()":"8456cb59","paused()":"5c975abb","platformFeePercent()":"8c639a85","purchaseNoteAccess(uint256)":"95ba85c4","recoverERC20(address,uint256)":"8980f11f","registerNote(bytes32,string,bool,uint256,string,string)":"3de0c4d7","renounceOwnership()":"715018a6","totalPurchases()":"5962a941","transferOwnership(address)":"f2fde38b","unpause()":"3f4ba83a","updateFeeRecipient(address)":"f160d369","updateNotePremiumStatus(uint256,bool,uint256)":"bce5f59f","updateNotePrice(uint256,uint256)":"5f71566d","updatePlatformFee(uint256)":"aa0b5988","userEarnings(address)":"d8ba6021","withdrawEarnings(uint256)":"6e70096e"}}}}}