{
  "_format": "hh-sol-artifact-1",
  "contractName": "ModuloToken",
  "sourceName": "contracts/ModuloToken.sol",
  "abi": [
    {
      "inputs": [],
      "stateMutability": "nonpayable",
      "type": "constructor"
    },
    {
      "anonymous": false,
      "inputs": [
        {
          "indexed": true,
          "internalType": "address",
          "name": "owner",
          "type": "address"
        },
        {
          "indexed": true,
          "internalType": "address",
          "name": "spender",
          "type": "address"
        },
        {
          "indexed": false,
          "internalType": "uint256",
          "name": "value",
          "type": "uint256"
        }
      ],
      "name": "Approval",
      "type": "event"
    },
    {
      "anonymous": false,
      "inputs": [
        {
          "indexed": true,
          "internalType": "address",
          "name": "minter",
          "type": "address"
        }
      ],
      "name": "MinterAdded",
      "type": "event"
    },
    {
      "anonymous": false,
      "inputs": [
        {
          "indexed": true,
          "internalType": "address",
          "name": "minter",
          "type": "address"
        }
      ],
      "name": "MinterRemoved",
      "type": "event"
    },
    {
      "anonymous": false,
      "inputs": [
        {
          "indexed": true,
          "internalType": "address",
          "name": "previousOwner",
          "type": "address"
        },
        {
          "indexed": true,
          "internalType": "address",
          "name": "newOwner",
          "type": "address"
        }
      ],
      "name": "OwnershipTransferred",
      "type": "event"
    },
    {
      "anonymous": false,
      "inputs": [
        {
          "indexed": false,
          "internalType": "address",
          "name": "account",
          "type": "address"
        }
      ],
      "name": "Paused",
      "type": "event"
    },
    {
      "anonymous": false,
      "inputs": [
        {
          "indexed": true,
          "internalType": "address",
          "name": "from",
          "type": "address"
        },
        {
          "indexed": false,
          "internalType": "uint256",
          "name": "amount",
          "type": "uint256"
        }
      ],
      "name": "TokensBurned",
      "type": "event"
    },
    {
      "anonymous": false,
      "inputs": [
        {
          "indexed": true,
          "internalType": "address",
          "name": "to",
          "type": "address"
        },
        {
          "indexed": false,
          "internalType": "uint256",
          "name": "amount",
          "type": "uint256"
        }
      ],
      "name": "TokensMinted",
      "type": "event"
    },
    {
      "anonymous": false,
      "inputs": [
        {
          "indexed": true,
          "internalType": "address",
          "name": "from",
          "type": "address"
        },
        {
          "indexed": true,
          "internalType": "address",
          "name": "to",
          "type": "address"
        },
        {
          "indexed": false,
          "internalType": "uint256",
          "name": "value",
          "type": "uint256"
        }
      ],
      "name": "Transfer",
      "type": "event"
    },
    {
      "anonymous": false,
      "inputs": [
        {
          "indexed": false,
          "internalType": "address",
          "name": "account",
          "type": "address"
        }
      ],
      "name": "Unpaused",
      "type": "event"
    },
    {
      "inputs": [
        {
          "internalType": "address",
          "name": "minter",
          "type": "address"
        }
      ],
      "name": "addMinter",
      "outputs": [],
      "stateMutability": "nonpayable",
      "type": "function"
    },
    {
      "inputs": [
        {
          "internalType": "address",
          "name": "owner",
          "type": "address"
        },
        {
          "internalType": "address",
          "name": "spender",
          "type": "address"
        }
      ],
      "name": "allowance",
      "outputs": [
        {
          "internalType": "uint256",
          "name": "",
          "type": "uint256"
        }
      ],
      "stateMutability": "view",
      "type": "function"
    },
    {
      "inputs": [
        {
          "internalType": "address",
          "name": "spender",
          "type": "address"
        },
        {
          "internalType": "uint256",
          "name": "amount",
          "type": "uint256"
        }
      ],
      "name": "approve",
      "outputs": [
        {
          "internalType": "bool",
          "name": "",
          "type": "bool"
        }
      ],
      "stateMutability": "nonpayable",
      "type": "function"
    },
    {
      "inputs": [
        {
          "internalType": "address",
          "name": "account",
          "type": "address"
        }
      ],
      "name": "balanceOf",
      "outputs": [
        {
          "internalType": "uint256",
          "name": "",
          "type": "uint256"
        }
      ],
      "stateMutability": "view",
      "type": "function"
    },
    {
      "inputs": [
        {
          "internalType": "uint256",
          "name": "amount",
          "type": "uint256"
        }
      ],
      "name": "burn",
      "outputs": [],
      "stateMutability": "nonpayable",
      "type": "function"
    },
    {
      "inputs": [
        {
          "internalType": "address",
          "name": "account",
          "type": "address"
        },
        {
          "internalType": "uint256",
          "name": "amount",
          "type": "uint256"
        }
      ],
      "name": "burnFrom",
      "outputs": [],
      "stateMutability": "nonpayable",
      "type": "function"
    },
    {
      "inputs": [],
      "name": "decimals",
      "outputs": [
        {
          "internalType": "uint8",
          "name": "",
          "type": "uint8"
        }
      ],
      "stateMutability": "pure",
      "type": "function"
    },
    {
      "inputs": [
        {
          "internalType": "address",
          "name": "spender",
          "type": "address"
        },
        {
          "internalType": "uint256",
          "name": "subtractedValue",
          "type": "uint256"
        }
      ],
      "name": "decreaseAllowance",
      "outputs": [
        {
          "internalType": "bool",
          "name": "",
          "type": "bool"
        }
      ],
      "stateMutability": "nonpayable",
      "type": "function"
    },
    {
      "inputs": [
        {
          "internalType": "address",
          "name": "spender",
          "type": "address"
        },
        {
          "internalType": "uint256",
          "name": "addedValue",
          "type": "uint256"
        }
      ],
      "name": "increaseAllowance",
      "outputs": [
        {
          "internalType": "bool",
          "name": "",
          "type": "bool"
        }
      ],
      "stateMutability": "nonpayable",
      "type": "function"
    },
    {
      "inputs": [],
      "name": "maxSupply",
      "outputs": [
        {
          "internalType": "uint256",
          "name": "",
          "type": "uint256"
        }
      ],
      "stateMutability": "pure",
      "type": "function"
    },
    {
      "inputs": [
        {
          "internalType": "address",
          "name": "to",
          "type": "address"
        },
        {
          "internalType": "uint256",
          "name": "amount",
          "type": "uint256"
        }
      ],
      "name": "mint",
      "outputs": [],
      "stateMutability": "nonpayable",
      "type": "function"
    },
    {
      "inputs": [
        {
          "internalType": "address",
          "name": "",
          "type": "address"
        }
      ],
      "name": "minters",
      "outputs": [
        {
          "internalType": "bool",
          "name": "",
          "type": "bool"
        }
      ],
      "stateMutability": "view",
      "type": "function"
    },
    {
      "inputs": [],
      "name": "name",
      "outputs": [
        {
          "internalType": "string",
          "name": "",
          "type": "string"
        }
      ],
      "stateMutability": "view",
      "type": "function"
    },
    {
      "inputs": [],
      "name": "owner",
      "outputs": [
        {
          "internalType": "address",
          "name": "",
          "type": "address"
        }
      ],
      "stateMutability": "view",
      "type": "function"
    },
    {
      "inputs": [],
      "name": "pause",
      "outputs": [],
      "stateMutability": "nonpayable",
      "type": "function"
    },
    {
      "inputs": [],
      "name": "paused",
      "outputs": [
        {
          "internalType": "bool",
          "name": "",
          "type": "bool"
        }
      ],
      "stateMutability": "view",
      "type": "function"
    },
    {
      "inputs": [
        {
          "internalType": "address",
          "name": "token",
          "type": "address"
        },
        {
          "internalType": "uint256",
          "name": "amount",
          "type": "uint256"
        }
      ],
      "name": "recoverERC20",
      "outputs": [],
      "stateMutability": "nonpayable",
      "type": "function"
    },
    {
      "inputs": [],
      "name": "recoverETH",
      "outputs": [],
      "stateMutability": "nonpayable",
      "type": "function"
    },
    {
      "inputs": [
        {
          "internalType": "address",
          "name": "minter",
          "type": "address"
        }
      ],
      "name": "removeMinter",
      "outputs": [],
      "stateMutability": "nonpayable",
      "type": "function"
    },
    {
      "inputs": [],
      "name": "renounceOwnership",
      "outputs": [],
      "stateMutability": "nonpayable",
      "type": "function"
    },
    {
      "inputs": [],
      "name": "symbol",
      "outputs": [
        {
          "internalType": "string",
          "name": "",
          "type": "string"
        }
      ],
      "stateMutability": "view",
      "type": "function"
    },
    {
      "inputs": [],
      "name": "totalSupply",
      "outputs": [
        {
          "internalType": "uint256",
          "name": "",
          "type": "uint256"
        }
      ],
      "stateMutability": "view",
      "type": "function"
    },
    {
      "inputs": [
        {
          "internalType": "address",
          "name": "to",
          "type": "address"
        },
        {
          "internalType": "uint256",
          "name": "amount",
          "type": "uint256"
        }
      ],
      "name": "transfer",
      "outputs": [
        {
          "internalType": "bool",
          "name": "",
          "type": "bool"
        }
      ],
      "stateMutability": "nonpayable",
      "type": "function"
    },
    {
      "inputs": [
        {
          "internalType": "address",
          "name": "from",
          "type": "address"
        },
        {
          "internalType": "address",
          "name": "to",
          "type": "address"
        },
        {
          "internalType": "uint256",
          "name": "amount",
          "type": "uint256"
        }
      ],
      "name": "transferFrom",
      "outputs": [
        {
          "internalType": "bool",
          "name": "",
          "type": "bool"
        }
      ],
      "stateMutability": "nonpayable",
      "type": "function"
    },
    {
      "inputs": [
        {
          "internalType": "address",
          "name": "newOwner",
          "type": "address"
        }
      ],
      "name": "transferOwnership",
      "outputs": [],
      "stateMutability": "nonpayable",
      "type": "function"
    },
    {
      "inputs": [],
      "name": "unpause",
      "outputs": [],
      "stateMutability": "nonpayable",
      "type": "function"
    }
  ],
  "bytecode": "0x60806040523480156200001157600080fd5b506040518060400160405280600c81526020016b26b7b23ab637902a37b5b2b760a11b815250604051806040016040528060048152602001634d4f444f60e01b81525081600390816200006591906200033a565b5060046200007482826200033a565b50506005805460ff19169055506200008c33620000fb565b620000b5336200009f6012600a6200051b565b620000af906305f5e10062000533565b62000155565b33600081815260066020526040808220805460ff19166001179055517f6ae172837ea30b801fbfcdd4108aa1d5bf8ff775444fd70256b44e6bf3dfc3f69190a262000563565b600580546001600160a01b03838116610100818102610100600160a81b031985161790945560405193909204169182907f8be0079c531659141344cd1fd0a4f28419497f9722a3daafe3b4186f6b6457e090600090a35050565b6001600160a01b038216620001b15760405162461bcd60e51b815260206004820152601f60248201527f45524332303a206d696e7420746f20746865207a65726f20616464726573730060448201526064015b60405180910390fd5b620001bf600083836200022a565b8060026000828254620001d391906200054d565b90915550506001600160a01b038216600081815260208181526040808320805486019055518481527fddf252ad1be2c89b69c2b068fc378daa952ba7f163c4a11628f55a4df523b3ef910160405180910390a35050565b620002346200024c565b620002478383836001600160e01b038416565b505050565b60055460ff1615620002945760405162461bcd60e51b815260206004820152601060248201526f14185d5cd8589b194e881c185d5cd95960821b6044820152606401620001a8565b565b634e487b7160e01b600052604160045260246000fd5b600181811c90821680620002c157607f821691505b602082108103620002e257634e487b7160e01b600052602260045260246000fd5b50919050565b601f8211156200024757600081815260208120601f850160051c81016020861015620003115750805b601f850160051c820191505b8181101562000332578281556001016200031d565b505050505050565b81516001600160401b0381111562000356576200035662000296565b6200036e81620003678454620002ac565b84620002e8565b602080601f831160018114620003a657600084156200038d5750858301515b600019600386901b1c1916600185901b17855562000332565b600085815260208120601f198616915b82811015620003d757888601518255948401946001909101908401620003b6565b5085821015620003f65787850151600019600388901b60f8161c191681555b5050505050600190811b01905550565b634e487b7160e01b600052601160045260246000fd5b600181815b808511156200045d57816000190482111562000441576200044162000406565b808516156200044f57918102915b93841c939080029062000421565b509250929050565b600082620004765750600162000515565b81620004855750600062000515565b81600181146200049e5760028114620004a957620004c9565b600191505062000515565b60ff841115620004bd57620004bd62000406565b50506001821b62000515565b5060208310610133831016604e8410600b8410161715620004ee575081810a62000515565b620004fa83836200041c565b806000190482111562000511576200051162000406565b0290505b92915050565b60006200052c60ff84168362000465565b9392505050565b808202811582820484141762000515576200051562000406565b8082018082111562000515576200051562000406565b61160480620005736000396000f3fe608060405234801561001057600080fd5b506004361061018e5760003560e01c8063715018a6116100de578063983b2d5611610097578063d5abeb0111610071578063d5abeb011461033a578063dd62ed3e14610342578063f2fde38b14610355578063f46eccc41461036857600080fd5b8063983b2d5614610301578063a457c2d714610314578063a9059cbb1461032757600080fd5b8063715018a61461029a57806379cc6790146102a25780638456cb59146102b55780638980f11f146102bd5780638da5cb5b146102d057806395d89b41146102f957600080fd5b8063313ce5671161014b57806340c10f191161012557806340c10f191461024057806342966c68146102535780635c975abb1461026657806370a082311461027157600080fd5b8063313ce5671461021657806339509351146102255780633f4ba83a1461023857600080fd5b80630614117a1461019357806306fdde031461019d578063095ea7b3146101bb57806318160ddd146101de57806323b872dd146101f05780633092afd514610203575b600080fd5b61019b61038b565b005b6101a56103d6565b6040516101b29190611301565b60405180910390f35b6101ce6101c936600461136b565b610468565b60405190151581526020016101b2565b6002545b6040519081526020016101b2565b6101ce6101fe366004611395565b610482565b61019b6102113660046113d1565b6104a6565b604051601281526020016101b2565b6101ce61023336600461136b565b610564565b61019b610586565b61019b61024e36600461136b565b610598565b61019b6102613660046113f3565b610790565b60055460ff166101ce565b6101e261027f3660046113d1565b6001600160a01b031660009081526020819052604090205490565b61019b6107d9565b61019b6102b036600461136b565b6107eb565b61019b610838565b61019b6102cb36600461136b565b610848565b60055461010090046001600160a01b03166040516001600160a01b0390911681526020016101b2565b6101a5610945565b61019b61030f3660046113d1565b610954565b6101ce61032236600461136b565b610a60565b6101ce61033536600461136b565b610adb565b6101e2610ae9565b6101e261035036600461140c565b610b0a565b61019b6103633660046113d1565b610b35565b6101ce6103763660046113d1565b60066020526000908152604090205460ff1681565b610393610bab565b6005546040516001600160a01b0361010090920491909116904780156108fc02916000818181858888f193505050501580156103d3573d6000803e3d6000fd5b50565b6060600380546103e59061143f565b80601f01602080910402602001604051908101604052809291908181526020018280546104119061143f565b801561045e5780601f106104335761010080835404028352916020019161045e565b820191906000526020600020905b81548152906001019060200180831161044157829003601f168201915b5050505050905090565b600033610476818585610c0b565b60019150505b92915050565b600033610490858285610d2f565b61049b858585610da9565b506001949350505050565b6104ae610bab565b6001600160a01b03811660009081526006602052604090205460ff1661051b5760405162461bcd60e51b815260206004820152601760248201527f41646472657373206973206e6f742061206d696e74657200000000000000000060448201526064015b60405180910390fd5b6001600160a01b038116600081815260066020526040808220805460ff19169055517fe94479a9f7e1952cc78f2d6baab678adc1b772d936c6583def489e524cb666929190a250565b6000336104768185856105778383610b0a565b610581919061148f565b610c0b565b61058e610bab565b610596610f58565b565b3360009081526006602052604090205460ff16806105d7575060055461010090046001600160a01b03166001600160a01b0316336001600160a01b0316145b61061c5760405162461bcd60e51b8152602060048201526016602482015275139bdd08185d5d1a1bdc9a5e9959081d1bc81b5a5b9d60521b6044820152606401610512565b610624610faa565b6001600160a01b03821661067a5760405162461bcd60e51b815260206004820152601b60248201527f43616e6e6f74206d696e7420746f207a65726f206164647265737300000000006044820152606401610512565b600081116106ca5760405162461bcd60e51b815260206004820152601d60248201527f416d6f756e74206d7573742062652067726561746572207468616e20300000006044820152606401610512565b6106d66012600a611586565b6106e490633b9aca00611595565b816106ee60025490565b6106f8919061148f565b111561073f5760405162461bcd60e51b815260206004820152601660248201527545786365656473206d6178696d756d20737570706c7960501b6044820152606401610512565b6107498282610ff0565b816001600160a01b03167f3f2c9d57c068687834f0de942a9babb9e5acab57d516d3480a3c16ee165a42738260405161078491815260200190565b60405180910390a25050565b610798610faa565b6107a1816110bc565b60405181815233907ffd38818f5291bf0bb3a2a48aadc06ba8757865d1dabd804585338aab3009dcb69060200160405180910390a250565b6107e1610bab565b61059660006110c6565b6107f3610faa565b6107fd8282611120565b816001600160a01b03167ffd38818f5291bf0bb3a2a48aadc06ba8757865d1dabd804585338aab3009dcb68260405161078491815260200190565b610840610bab565b610596611135565b610850610bab565b306001600160a01b038316036108a85760405162461bcd60e51b815260206004820152601960248201527f43616e6e6f74207265636f766572206f776e20746f6b656e73000000000000006044820152606401610512565b816001600160a01b031663a9059cbb6108cf6005546001600160a01b036101009091041690565b6040516001600160e01b031960e084901b1681526001600160a01b039091166004820152602481018490526044016020604051808303816000875af115801561091c573d6000803e3d6000fd5b505050506040513d601f19601f8201168201806040525081019061094091906115ac565b505050565b6060600480546103e59061143f565b61095c610bab565b6001600160a01b0381166109ab5760405162461bcd60e51b8152602060048201526016602482015275496e76616c6964206d696e746572206164647265737360501b6044820152606401610512565b6001600160a01b03811660009081526006602052604090205460ff1615610a145760405162461bcd60e51b815260206004820152601b60248201527f4164647265737320697320616c72656164792061206d696e74657200000000006044820152606401610512565b6001600160a01b038116600081815260066020526040808220805460ff19166001179055517f6ae172837ea30b801fbfcdd4108aa1d5bf8ff775444fd70256b44e6bf3dfc3f69190a250565b60003381610a6e8286610b0a565b905083811015610ace5760405162461bcd60e51b815260206004820152602560248201527f45524332303a2064656372656173656420616c6c6f77616e63652062656c6f77604482015264207a65726f60d81b6064820152608401610512565b61049b8286868403610c0b565b600033610476818585610da9565b6000610af76012600a611586565b610b0590633b9aca00611595565b905090565b6001600160a01b03918216600090815260016020908152604080832093909416825291909152205490565b610b3d610bab565b6001600160a01b038116610ba25760405162461bcd60e51b815260206004820152602660248201527f4f776e61626c653a206e6577206f776e657220697320746865207a65726f206160448201526564647265737360d01b6064820152608401610512565b6103d3816110c6565b6005546001600160a01b036101009091041633146105965760405162461bcd60e51b815260206004820181905260248201527f4f776e61626c653a2063616c6c6572206973206e6f7420746865206f776e65726044820152606401610512565b6001600160a01b038316610c6d5760405162461bcd60e51b8152602060048201526024808201527f45524332303a20617070726f76652066726f6d20746865207a65726f206164646044820152637265737360e01b6064820152608401610512565b6001600160a01b038216610cce5760405162461bcd60e51b815260206004820152602260248201527f45524332303a20617070726f766520746f20746865207a65726f206164647265604482015261737360f01b6064820152608401610512565b6001600160a01b0383811660008181526001602090815260408083209487168084529482529182902085905590518481527f8c5be1e5ebec7d5bd14f71427d1e84f3dd0314c0f7b2291e5b200ac8c7c3b925910160405180910390a3505050565b6000610d3b8484610b0a565b90506000198114610da35781811015610d965760405162461bcd60e51b815260206004820152601d60248201527f45524332303a20696e73756666696369656e7420616c6c6f77616e63650000006044820152606401610512565b610da38484848403610c0b565b50505050565b6001600160a01b038316610e0d5760405162461bcd60e51b815260206004820152602560248201527f45524332303a207472616e736665722066726f6d20746865207a65726f206164604482015264647265737360d81b6064820152608401610512565b6001600160a01b038216610e6f5760405162461bcd60e51b815260206004820152602360248201527f45524332303a207472616e7366657220746f20746865207a65726f206164647260448201526265737360e81b6064820152608401610512565b610e7a838383611172565b6001600160a01b03831660009081526020819052604090205481811015610ef25760405162461bcd60e51b815260206004820152602660248201527f45524332303a207472616e7366657220616d6f756e7420657863656564732062604482015265616c616e636560d01b6064820152608401610512565b6001600160a01b03848116600081815260208181526040808320878703905593871680835291849020805487019055925185815290927fddf252ad1be2c89b69c2b068fc378daa952ba7f163c4a11628f55a4df523b3ef910160405180910390a3610da3565b610f6061117a565b6005805460ff191690557f5db9ee0a495bf2e6ff9c91a7834c1ba4fdd244a5e8aa4e537bd38aeae4b073aa335b6040516001600160a01b03909116815260200160405180910390a1565b60055460ff16156105965760405162461bcd60e51b815260206004820152601060248201526f14185d5cd8589b194e881c185d5cd95960821b6044820152606401610512565b6001600160a01b0382166110465760405162461bcd60e51b815260206004820152601f60248201527f45524332303a206d696e7420746f20746865207a65726f2061646472657373006044820152606401610512565b61105260008383611172565b8060026000828254611064919061148f565b90915550506001600160a01b038216600081815260208181526040808320805486019055518481527fddf252ad1be2c89b69c2b068fc378daa952ba7f163c4a11628f55a4df523b3ef910160405180910390a35b5050565b6103d333826111c3565b600580546001600160a01b03838116610100818102610100600160a81b031985161790945560405193909204169182907f8be0079c531659141344cd1fd0a4f28419497f9722a3daafe3b4186f6b6457e090600090a35050565b61112b823383610d2f565b6110b882826111c3565b61113d610faa565b6005805460ff191660011790557f62e78cea01bee320cd4e420270b5ea74000d11b0c9f74754ebdbfc544b05a258610f8d3390565b610940610faa565b60055460ff166105965760405162461bcd60e51b815260206004820152601460248201527314185d5cd8589b194e881b9bdd081c185d5cd95960621b6044820152606401610512565b6001600160a01b0382166112235760405162461bcd60e51b815260206004820152602160248201527f45524332303a206275726e2066726f6d20746865207a65726f206164647265736044820152607360f81b6064820152608401610512565b61122f82600083611172565b6001600160a01b038216600090815260208190526040902054818110156112a35760405162461bcd60e51b815260206004820152602260248201527f45524332303a206275726e20616d6f756e7420657863656564732062616c616e604482015261636560f01b6064820152608401610512565b6001600160a01b0383166000818152602081815260408083208686039055600280548790039055518581529192917fddf252ad1be2c89b69c2b068fc378daa952ba7f163c4a11628f55a4df523b3ef910160405180910390a3505050565b600060208083528351808285015260005b8181101561132e57858101830151858201604001528201611312565b506000604082860101526040601f19601f8301168501019250505092915050565b80356001600160a01b038116811461136657600080fd5b919050565b6000806040838503121561137e57600080fd5b6113878361134f565b946020939093013593505050565b6000806000606084860312156113aa57600080fd5b6113b38461134f565b92506113c16020850161134f565b9150604084013590509250925092565b6000602082840312156113e357600080fd5b6113ec8261134f565b9392505050565b60006020828403121561140557600080fd5b5035919050565b6000806040838503121561141f57600080fd5b6114288361134f565b91506114366020840161134f565b90509250929050565b600181811c9082168061145357607f821691505b60208210810361147357634e487b7160e01b600052602260045260246000fd5b50919050565b634e487b7160e01b600052601160045260246000fd5b8082018082111561047c5761047c611479565b600181815b808511156114dd5781600019048211156114c3576114c3611479565b808516156114d057918102915b93841c93908002906114a7565b509250929050565b6000826114f45750600161047c565b816115015750600061047c565b816001811461151757600281146115215761153d565b600191505061047c565b60ff84111561153257611532611479565b50506001821b61047c565b5060208310610133831016604e8410600b8410161715611560575081810a61047c565b61156a83836114a2565b806000190482111561157e5761157e611479565b029392505050565b60006113ec60ff8416836114e5565b808202811582820484141761047c5761047c611479565b6000602082840312156115be57600080fd5b815180151581146113ec57600080fdfea264697066735822122006a60c0fdc3192dbccc339083937d7716d6eba9c5aa6e34c5fcc40fe94e53b6c64736f6c63430008130033",
  "linkReferences": {},
  "deployedLinkReferences": {}
}