{
  "_format": "hh-sol-artifact-1",
  "contractName": "NoteRegistry",
  "sourceName": "contracts/NoteRegistry.sol",
  "abi": [
    {
      "anonymous": false,
      "inputs": [
        {
          "indexed": true,
          "internalType": "address",
          "name": "owner",
          "type": "address"
        },
        {
          "indexed": true,
          "internalType": "uint256",
          "name": "noteId",
          "type": "uint256"
        },
        {
          "indexed": false,
          "internalType": "uint256",
          "name": "timestamp",
          "type": "uint256"
        }
      ],
      "name": "NoteDeactivated",
      "type": "event"
    },
    {
      "anonymous": false,
      "inputs": [
        {
          "indexed": true,
          "internalType": "address",
          "name": "owner",
          "type": "address"
        },
        {
          "indexed": true,
          "internalType": "uint256",
          "name": "noteId",
          "type": "uint256"
        },
        {
          "indexed": false,
          "internalType": "bytes32",
          "name": "hash",
          "type": "bytes32"
        },
        {
          "indexed": false,
          "internalType": "string",
          "name": "title",
          "type": "string"
        },
        {
          "indexed": false,
          "internalType": "uint256",
          "name": "timestamp",
          "type": "uint256"
        }
      ],
      "name": "NoteRegistered",
      "type": "event"
    },
    {
      "anonymous": false,
      "inputs": [
        {
          "indexed": true,
          "internalType": "address",
          "name": "owner",
          "type": "address"
        },
        {
          "indexed": true,
          "internalType": "uint256",
          "name": "noteId",
          "type": "uint256"
        },
        {
          "indexed": false,
          "internalType": "bytes32",
          "name": "newHash",
          "type": "bytes32"
        },
        {
          "indexed": false,
          "internalType": "uint256",
          "name": "timestamp",
          "type": "uint256"
        }
      ],
      "name": "NoteUpdated",
      "type": "event"
    },
    {
      "anonymous": false,
      "inputs": [
        {
          "indexed": true,
          "internalType": "uint256",
          "name": "noteId",
          "type": "uint256"
        },
        {
          "indexed": true,
          "internalType": "address",
          "name": "previousOwner",
          "type": "address"
        },
        {
          "indexed": true,
          "internalType": "address",
          "name": "newOwner",
          "type": "address"
        }
      ],
      "name": "OwnershipTransferred",
      "type": "event"
    },
    {
      "inputs": [
        {
          "internalType": "uint256",
          "name": "noteId",
          "type": "uint256"
        }
      ],
      "name": "deactivateNote",
      "outputs": [],
      "stateMutability": "nonpayable",
      "type": "function"
    },
    {
      "inputs": [
        {
          "internalType": "address",
          "name": "owner",
          "type": "address"
        }
      ],
      "name": "getActiveNoteCount",
      "outputs": [
        {
          "internalType": "uint256",
          "name": "count",
          "type": "uint256"
        }
      ],
      "stateMutability": "view",
      "type": "function"
    },
    {
      "inputs": [
        {
          "internalType": "uint256",
          "name": "noteId",
          "type": "uint256"
        }
      ],
      "name": "getNote",
      "outputs": [
        {
          "components": [
            {
              "internalType": "address",
              "name": "owner",
              "type": "address"
            },
            {
              "internalType": "bytes32",
              "name": "hash",
              "type": "bytes32"
            },
            {
              "internalType": "uint256",
              "name": "timestamp",
              "type": "uint256"
            },
            {
              "internalType": "string",
              "name": "title",
              "type": "string"
            },
            {
              "internalType": "bool",
              "name": "isActive",
              "type": "bool"
            }
          ],
          "internalType": "struct NoteRegistry.Note",
          "name": "note",
          "type": "tuple"
        }
      ],
      "stateMutability": "view",
      "type": "function"
    },
    {
      "inputs": [
        {
          "internalType": "bytes32",
          "name": "hash",
          "type": "bytes32"
        }
      ],
      "name": "getNoteByHash",
      "outputs": [
        {
          "components": [
            {
              "internalType": "address",
              "name": "owner",
              "type": "address"
            },
            {
              "internalType": "bytes32",
              "name": "hash",
              "type": "bytes32"
            },
            {
              "internalType": "uint256",
              "name": "timestamp",
              "type": "uint256"
            },
            {
              "internalType": "string",
              "name": "title",
              "type": "string"
            },
            {
              "internalType": "bool",
              "name": "isActive",
              "type": "bool"
            }
          ],
          "internalType": "struct NoteRegistry.Note",
          "name": "note",
          "type": "tuple"
        }
      ],
      "stateMutability": "view",
      "type": "function"
    },
    {
      "inputs": [
        {
          "internalType": "address",
          "name": "user",
          "type": "address"
        }
      ],
      "name": "getNotesByOwner",
      "outputs": [
        {
          "internalType": "uint256[]",
          "name": "noteIds",
          "type": "uint256[]"
        }
      ],
      "stateMutability": "view",
      "type": "function"
    },
    {
      "inputs": [],
      "name": "getTotalNoteCount",
      "outputs": [
        {
          "internalType": "uint256",
          "name": "count",
          "type": "uint256"
        }
      ],
      "stateMutability": "view",
      "type": "function"
    },
    {
      "inputs": [
        {
          "internalType": "bytes32",
          "name": "",
          "type": "bytes32"
        }
      ],
      "name": "hashToNoteId",
      "outputs": [
        {
          "internalType": "uint256",
          "name": "",
          "type": "uint256"
        }
      ],
      "stateMutability": "view",
      "type": "function"
    },
    {
      "inputs": [
        {
          "internalType": "uint256",
          "name": "noteId",
          "type": "uint256"
        },
        {
          "internalType": "address",
          "name": "owner",
          "type": "address"
        }
      ],
      "name": "isNoteOwner",
      "outputs": [
        {
          "internalType": "bool",
          "name": "isOwner",
          "type": "bool"
        }
      ],
      "stateMutability": "view",
      "type": "function"
    },
    {
      "inputs": [
        {
          "internalType": "uint256",
          "name": "noteId",
          "type": "uint256"
        }
      ],
      "name": "isOwner",
      "outputs": [
        {
          "internalType": "bool",
          "name": "isOwner",
          "type": "bool"
        }
      ],
      "stateMutability": "view",
      "type": "function"
    },
    {
      "inputs": [],
      "name": "noteCount",
      "outputs": [
        {
          "internalType": "uint256",
          "name": "",
          "type": "uint256"
        }
      ],
      "stateMutability": "view",
      "type": "function"
    },
    {
      "inputs": [
        {
          "internalType": "uint256",
          "name": "",
          "type": "uint256"
        }
      ],
      "name": "notes",
      "outputs": [
        {
          "internalType": "address",
          "name": "owner",
          "type": "address"
        },
        {
          "internalType": "bytes32",
          "name": "hash",
          "type": "bytes32"
        },
        {
          "internalType": "uint256",
          "name": "timestamp",
          "type": "uint256"
        },
        {
          "internalType": "string",
          "name": "title",
          "type": "string"
        },
        {
          "internalType": "bool",
          "name": "isActive",
          "type": "bool"
        }
      ],
      "stateMutability": "view",
      "type": "function"
    },
    {
      "inputs": [
        {
          "internalType": "address",
          "name": "",
          "type": "address"
        },
        {
          "internalType": "uint256",
          "name": "",
          "type": "uint256"
        }
      ],
      "name": "ownerNotes",
      "outputs": [
        {
          "internalType": "uint256",
          "name": "",
          "type": "uint256"
        }
      ],
      "stateMutability": "view",
      "type": "function"
    },
    {
      "inputs": [
        {
          "internalType": "bytes32",
          "name": "hash",
          "type": "bytes32"
        },
        {
          "internalType": "string",
          "name": "title",
          "type": "string"
        }
      ],
      "name": "registerNote",
      "outputs": [
        {
          "internalType": "uint256",
          "name": "noteId",
          "type": "uint256"
        }
      ],
      "stateMutability": "nonpayable",
      "type": "function"
    },
    {
      "inputs": [
        {
          "internalType": "uint256",
          "name": "noteId",
          "type": "uint256"
        },
        {
          "internalType": "address",
          "name": "newOwner",
          "type": "address"
        }
      ],
      "name": "transferOwnership",
      "outputs": [],
      "stateMutability": "nonpayable",
      "type": "function"
    },
    {
      "inputs": [
        {
          "internalType": "uint256",
          "name": "noteId",
          "type": "uint256"
        },
        {
          "internalType": "bytes32",
          "name": "newHash",
          "type": "bytes32"
        }
      ],
      "name": "updateNote",
      "outputs": [],
      "stateMutability": "nonpayable",
      "type": "function"
    },
    {
      "inputs": [
        {
          "internalType": "bytes32",
          "name": "hash",
          "type": "bytes32"
        }
      ],
      "name": "verifyNote",
      "outputs": [
        {
          "internalType": "bool",
          "name": "exists",
          "type": "bool"
        },
        {
          "internalType": "bool",
          "name": "isOwner",
          "type": "bool"
        },
        {
          "internalType": "bool",
          "name": "isActive",
          "type": "bool"
        }
      ],
      "stateMutability": "view",
      "type": "function"
    }
  ],
  "bytecode": "0x608060405234801561001057600080fd5b50611452806100206000396000f3fe608060405234801561001057600080fd5b50600436106101005760003560e01c8063570a3b271161009757806396fa90221161006657806396fa90221461025f578063a6d52e3d1461027f578063a965a94114610292578063e153c558146102a557600080fd5b8063570a3b271461020057806361c3a7e61461022057806367c3a914146102445780638e133f701461025757600080fd5b8063317a4c76116100d3578063317a4c761461016957806339c7639c146101805780634e37cfc5146101bb57806354cb06d1146101ed57600080fd5b806316d06cc114610105578063233833ca1461011a57806329507f731461012d5780632d29c2f914610140575b600080fd5b610118610113366004610ee7565b6102b8565b005b610118610128366004610f09565b610472565b61011861013b366004610f3e565b610572565b61015361014e366004610f09565b61080e565b6040516101609190610fb0565b60405180910390f35b61017260035481565b604051908152602001610160565b6101ab61018e366004610f09565b6000908152602081905260409020546001600160a01b0316331490565b6040519015158152602001610160565b6101ce6101c9366004610f09565b610953565b6040805193151584529115156020840152151590820152606001610160565b6101726101fb366004611020565b6109a4565b61021361020e3660046110db565b610baa565b60405161016091906110fd565b61023361022e366004610f09565b610c16565b604051610160959493929190611141565b6101ab610252366004610f3e565b610cdc565b600354610172565b61017261026d366004610f09565b60026020526000908152604090205481565b61017261028d366004611182565b610d30565b6101536102a0366004610f09565b610d61565b6101726102b33660046110db565b610e15565b816000811180156102cb57506003548111155b6102f05760405162461bcd60e51b81526004016102e7906111ac565b60405180910390fd5b60008381526020819052604090205483906001600160a01b031633146103285760405162461bcd60e51b81526004016102e7906111d9565b600084815260208190526040902060040154849060ff1661035b5760405162461bcd60e51b81526004016102e790611210565b60008490036103a35760405162461bcd60e51b8152602060048201526014602482015273486173682063616e6e6f7420626520656d70747960601b60448201526064016102e7565b600084815260026020526040902054156103fa5760405162461bcd60e51b81526020600482015260186024820152774e6f7465206861736820616c72656164792065786973747360401b60448201526064016102e7565b600085815260208181526040808320600181018054855260028085528386208690559089905542910181905587845292819020889055805187815291820192909252869133917f50f2b41364885ab267cc890d61657def298f540b0cf476cc2bec5137af047f3d910160405180910390a35050505050565b8060008111801561048557506003548111155b6104a15760405162461bcd60e51b81526004016102e7906111ac565b60008281526020819052604090205482906001600160a01b031633146104d95760405162461bcd60e51b81526004016102e7906111d9565b600083815260208190526040902060040154839060ff1661050c5760405162461bcd60e51b81526004016102e790611210565b60008481526020818152604080832060048101805460ff1916905560010154835260028252808320929092559051428152859133917fa6ce03be5d75ae83d219243d923da4fddd2263c8c6427891615d2492f9b6490f910160405180910390a350505050565b8160008111801561058557506003548111155b6105a15760405162461bcd60e51b81526004016102e7906111ac565b60008381526020819052604090205483906001600160a01b031633146105d95760405162461bcd60e51b81526004016102e7906111d9565b600084815260208190526040902060040154849060ff1661060c5760405162461bcd60e51b81526004016102e790611210565b6001600160a01b0384166106625760405162461bcd60e51b815260206004820152601f60248201527f43616e6e6f74207472616e7366657220746f207a65726f20616464726573730060448201526064016102e7565b336001600160a01b038516036106ba5760405162461bcd60e51b815260206004820152601b60248201527f43616e6e6f74207472616e7366657220746f20796f757273656c66000000000060448201526064016102e7565b60008581526020818152604080832080546001600160a01b038981166001600160a01b031983168117909355918552600180855283862080549182018155865293852090930189905590911680835290822090915b81548110156107c3578782828154811061072b5761072b61123c565b9060005260206000200154036107b1578154829061074b90600190611268565b8154811061075b5761075b61123c565b90600052602060002001548282815481106107785761077861123c565b90600052602060002001819055508180548061079657610796611281565b600190038181906000526020600020016000905590556107c3565b806107bb81611297565b91505061070f565b50856001600160a01b0316826001600160a01b0316887f16b85f49bf01212961345d3016c9a531894accf62eb7680f2045d79185cc0ec060405160405180910390a450505050505050565b6040805160a0810182526000808252602082018190529181018290526060808201526080810191909152600082815260026020526040902054806108645760405162461bcd60e51b81526004016102e7906111ac565b60008181526020818152604091829020825160a08101845281546001600160a01b031681526001820154928101929092526002810154928201929092526003820180549192916060840191906108b9906112b0565b80601f01602080910402602001604051908101604052809291908181526020018280546108e5906112b0565b80156109325780601f1061090757610100808354040283529160200191610932565b820191906000526020600020905b81548152906001019060200180831161091557829003601f168201915b50505091835250506004919091015460ff1615156020909101529392505050565b60008181526002602052604081205481908190801561099c5760008181526020819052604090208054600490910154600195506001600160a01b03919091163314935060ff1691505b509193909250565b60008281036109ec5760405162461bcd60e51b8152602060048201526014602482015273486173682063616e6e6f7420626520656d70747960601b60448201526064016102e7565b6000825111610a355760405162461bcd60e51b81526020600482015260156024820152745469746c652063616e6e6f7420626520656d70747960581b60448201526064016102e7565b60008381526002602052604090205415610a8c5760405162461bcd60e51b81526020600482015260186024820152774e6f7465206861736820616c72656164792065786973747360401b60448201526064016102e7565b600360008154610a9b90611297565b91829055506040805160a0810182523381526020808201878152428385019081526060840188815260016080860181905260008881529485905295909320845181546001600160a01b0319166001600160a01b039091161781559151948201949094559251600284015551929350916003820190610b199082611333565b50608091909101516004909101805460ff19169115159190911790553360008181526001602081815260408084208054938401815584528184209092018590558683526002905290819020839055518291907f732dbb13bcb53a4e6be085be288d50e705f8f68a958875d1ed9a8a007bfbfe8e90610b9c908790879042906113f3565b60405180910390a392915050565b6001600160a01b038116600090815260016020908152604091829020805483518184028101840190945280845260609392830182828015610c0a57602002820191906000526020600020905b815481526020019060010190808311610bf6575b50505050509050919050565b60006020819052908152604090208054600182015460028301546003840180546001600160a01b03909416949293919291610c50906112b0565b80601f0160208091040260200160405190810160405280929190818152602001828054610c7c906112b0565b8015610cc95780601f10610c9e57610100808354040283529160200191610cc9565b820191906000526020600020905b815481529060010190602001808311610cac57829003601f168201915b5050506004909301549192505060ff1685565b600082600081118015610cf157506003548111155b610d0d5760405162461bcd60e51b81526004016102e7906111ac565b5050600091825260208290526040909120546001600160a01b0391821691161490565b60016020528160005260406000208181548110610d4c57600080fd5b90600052602060002001600091509150505481565b6040805160a081018252600080825260208201819052918101829052606080820152608081019190915281600081118015610d9e57506003548111155b610dba5760405162461bcd60e51b81526004016102e7906111ac565b60008381526020818152604091829020825160a08101845281546001600160a01b031681526001820154928101929092526002810154928201929092526003820180549192916060840191906108b9906112b0565b50919050565b6001600160a01b038116600090815260016020908152604080832080548251818502810185019093528083528493830182828015610e7257602002820191906000526020600020905b815481526020019060010190808311610e5e575b5050505050905060005b8151811015610ee057600080838381518110610e9a57610e9a61123c565b60209081029190910181015182528101919091526040016000206004015460ff1615610ece5782610eca81611297565b9350505b80610ed881611297565b915050610e7c565b5050919050565b60008060408385031215610efa57600080fd5b50508035926020909101359150565b600060208284031215610f1b57600080fd5b5035919050565b80356001600160a01b0381168114610f3957600080fd5b919050565b60008060408385031215610f5157600080fd5b82359150610f6160208401610f22565b90509250929050565b6000815180845260005b81811015610f9057602081850181015186830182015201610f74565b506000602082860101526020601f19601f83011685010191505092915050565b6020815260018060a01b03825116602082015260208201516040820152604082015160608201526000606083015160a06080840152610ff260c0840182610f6a565b90506080840151151560a08401528091505092915050565b634e487b7160e01b600052604160045260246000fd5b6000806040838503121561103357600080fd5b82359150602083013567ffffffffffffffff8082111561105257600080fd5b818501915085601f83011261106657600080fd5b8135818111156110785761107861100a565b604051601f8201601f19908116603f011681019083821181831017156110a0576110a061100a565b816040528281528860208487010111156110b957600080fd5b8260208601602083013760006020848301015280955050505050509250929050565b6000602082840312156110ed57600080fd5b6110f682610f22565b9392505050565b6020808252825182820181905260009190848201906040850190845b8181101561113557835183529284019291840191600101611119565b50909695505050505050565b60018060a01b038616815284602082015283604082015260a06060820152600061116e60a0830185610f6a565b905082151560808301529695505050505050565b6000806040838503121561119557600080fd5b61119e83610f22565b946020939093013593505050565b602080825260139082015272139bdd1948191bd95cc81b9bdd08195e1a5cdd606a1b604082015260600190565b6020808252601a908201527f4e6f7420746865206f776e6572206f662074686973206e6f7465000000000000604082015260600190565b6020808252601290820152714e6f7465206973206e6f742061637469766560701b604082015260600190565b634e487b7160e01b600052603260045260246000fd5b634e487b7160e01b600052601160045260246000fd5b8181038181111561127b5761127b611252565b92915050565b634e487b7160e01b600052603160045260246000fd5b6000600182016112a9576112a9611252565b5060010190565b600181811c908216806112c457607f821691505b602082108103610e0f57634e487b7160e01b600052602260045260246000fd5b601f82111561132e57600081815260208120601f850160051c8101602086101561130b5750805b601f850160051c820191505b8181101561132a57828155600101611317565b5050505b505050565b815167ffffffffffffffff81111561134d5761134d61100a565b6113618161135b84546112b0565b846112e4565b602080601f831160018114611396576000841561137e5750858301515b600019600386901b1c1916600185901b17855561132a565b600085815260208120601f198616915b828110156113c5578886015182559484019460019091019084016113a6565b50858210156113e35787850151600019600388901b60f8161c191681555b5050505050600190811b01905550565b83815260606020820152600061140c6060830185610f6a565b905082604083015294935050505056fea2646970667358221220073b481f5c1f41f7c9e08e3ad3b3b06f07b278016f48ff22928acc333655a58a64736f6c63430008130033",
  "linkReferences": {},
  "deployedLinkReferences": {}
}