{
  "_format": "hh-sol-artifact-1",
  "contractName": "ModuloTokenOptimized",
  "sourceName": "contracts/ModuloTokenOptimized.sol",
  "abi": [
    {
      "inputs": [],
      "stateMutability": "nonpayable",
      "type": "constructor"
    },
    {
      "inputs": [],
      "name": "ExceedsMaxSupply",
      "type": "error"
    },
    {
      "inputs": [],
      "name": "ExceedsMintLimit",
      "type": "error"
    },
    {
      "inputs": [],
      "name": "InsufficientAllowance",
      "type": "error"
    },
    {
      "inputs": [],
      "name": "InvalidAmount",
      "type": "error"
    },
    {
      "inputs": [],
      "name": "InvalidMinter",
      "type": "error"
    },
    {
      "inputs": [],
      "name": "MintCooldownActive",
      "type": "error"
    },
    {
      "inputs": [],
      "name": "MinterExists",
      "type": "error"
    },
    {
      "inputs": [],
      "name": "MinterNotFound",
      "type": "error"
    },
    {
      "inputs": [],
      "name": "ZeroAddress",
      "type": "error"
    },
    {
      "anonymous": false,
      "inputs": [
        {
          "indexed": true,
          "internalType": "address",
          "name": "owner",
          "type": "address"
        },
        {
          "indexed": true,
          "internalType": "address",
          "name": "spender",
          "type": "address"
        },
        {
          "indexed": false,
          "internalType": "uint256",
          "name": "value",
          "type": "uint256"
        }
      ],
      "name": "Approval",
      "type": "event"
    },
    {
      "anonymous": false,
      "inputs": [
        {
          "indexed": true,
          "internalType": "address",
          "name": "minter",
          "type": "address"
        },
        {
          "indexed": false,
          "internalType": "uint64",
          "name": "newAllowance",
          "type": "uint64"
        }
      ],
      "name": "MintAllowanceUpdated",
      "type": "event"
    },
    {
      "anonymous": false,
      "inputs": [
        {
          "indexed": true,
          "internalType": "address",
          "name": "minter",
          "type": "address"
        },
        {
          "indexed": false,
          "internalType": "uint64",
          "name": "allowance",
          "type": "uint64"
        }
      ],
      "name": "MinterAdded",
      "type": "event"
    },
    {
      "anonymous": false,
      "inputs": [
        {
          "indexed": true,
          "internalType": "address",
          "name": "minter",
          "type": "address"
        }
      ],
      "name": "MinterRemoved",
      "type": "event"
    },
    {
      "anonymous": false,
      "inputs": [
        {
          "indexed": true,
          "internalType": "address",
          "name": "previousOwner",
          "type": "address"
        },
        {
          "indexed": true,
          "internalType": "address",
          "name": "newOwner",
          "type": "address"
        }
      ],
      "name": "OwnershipTransferred",
      "type": "event"
    },
    {
      "anonymous": false,
      "inputs": [
        {
          "indexed": false,
          "internalType": "address",
          "name": "account",
          "type": "address"
        }
      ],
      "name": "Paused",
      "type": "event"
    },
    {
      "anonymous": false,
      "inputs": [
        {
          "indexed": true,
          "internalType": "address",
          "name": "from",
          "type": "address"
        },
        {
          "indexed": false,
          "internalType": "uint256",
          "name": "amount",
          "type": "uint256"
        }
      ],
      "name": "TokensBurned",
      "type": "event"
    },
    {
      "anonymous": false,
      "inputs": [
        {
          "indexed": true,
          "internalType": "address",
          "name": "to",
          "type": "address"
        },
        {
          "indexed": true,
          "internalType": "address",
          "name": "minter",
          "type": "address"
        },
        {
          "indexed": false,
          "internalType": "uint256",
          "name": "amount",
          "type": "uint256"
        }
      ],
      "name": "TokensMinted",
      "type": "event"
    },
    {
      "anonymous": false,
      "inputs": [
        {
          "indexed": true,
          "internalType": "address",
          "name": "from",
          "type": "address"
        },
        {
          "indexed": true,
          "internalType": "address",
          "name": "to",
          "type": "address"
        },
        {
          "indexed": false,
          "internalType": "uint256",
          "name": "value",
          "type": "uint256"
        }
      ],
      "name": "Transfer",
      "type": "event"
    },
    {
      "anonymous": false,
      "inputs": [
        {
          "indexed": false,
          "internalType": "address",
          "name": "account",
          "type": "address"
        }
      ],
      "name": "Unpaused",
      "type": "event"
    },
    {
      "inputs": [],
      "name": "MAX_MINT_PER_DAY",
      "outputs": [
        {
          "internalType": "uint256",
          "name": "",
          "type": "uint256"
        }
      ],
      "stateMutability": "view",
      "type": "function"
    },
    {
      "inputs": [],
      "name": "MINT_COOLDOWN",
      "outputs": [
        {
          "internalType": "uint256",
          "name": "",
          "type": "uint256"
        }
      ],
      "stateMutability": "view",
      "type": "function"
    },
    {
      "inputs": [
        {
          "internalType": "address",
          "name": "minter",
          "type": "address"
        },
        {
          "internalType": "uint64",
          "name": "allowance",
          "type": "uint64"
        }
      ],
      "name": "addMinter",
      "outputs": [],
      "stateMutability": "nonpayable",
      "type": "function"
    },
    {
      "inputs": [
        {
          "internalType": "address",
          "name": "owner",
          "type": "address"
        },
        {
          "internalType": "address",
          "name": "spender",
          "type": "address"
        }
      ],
      "name": "allowance",
      "outputs": [
        {
          "internalType": "uint256",
          "name": "",
          "type": "uint256"
        }
      ],
      "stateMutability": "view",
      "type": "function"
    },
    {
      "inputs": [
        {
          "internalType": "address",
          "name": "spender",
          "type": "address"
        },
        {
          "internalType": "uint256",
          "name": "amount",
          "type": "uint256"
        }
      ],
      "name": "approve",
      "outputs": [
        {
          "internalType": "bool",
          "name": "",
          "type": "bool"
        }
      ],
      "stateMutability": "nonpayable",
      "type": "function"
    },
    {
      "inputs": [
        {
          "internalType": "address",
          "name": "account",
          "type": "address"
        }
      ],
      "name": "balanceOf",
      "outputs": [
        {
          "internalType": "uint256",
          "name": "",
          "type": "uint256"
        }
      ],
      "stateMutability": "view",
      "type": "function"
    },
    {
      "inputs": [
        {
          "internalType": "address[]",
          "name": "recipients",
          "type": "address[]"
        },
        {
          "internalType": "uint256[]",
          "name": "amounts",
          "type": "uint256[]"
        }
      ],
      "name": "batchMint",
      "outputs": [],
      "stateMutability": "nonpayable",
      "type": "function"
    },
    {
      "inputs": [
        {
          "internalType": "uint256",
          "name": "amount",
          "type": "uint256"
        }
      ],
      "name": "burn",
      "outputs": [],
      "stateMutability": "nonpayable",
      "type": "function"
    },
    {
      "inputs": [
        {
          "internalType": "address",
          "name": "account",
          "type": "address"
        },
        {
          "internalType": "uint256",
          "name": "amount",
          "type": "uint256"
        }
      ],
      "name": "burnFrom",
      "outputs": [],
      "stateMutability": "nonpayable",
      "type": "function"
    },
    {
      "inputs": [],
      "name": "decimals",
      "outputs": [
        {
          "internalType": "uint8",
          "name": "",
          "type": "uint8"
        }
      ],
      "stateMutability": "pure",
      "type": "function"
    },
    {
      "inputs": [
        {
          "internalType": "address",
          "name": "spender",
          "type": "address"
        },
        {
          "internalType": "uint256",
          "name": "subtractedValue",
          "type": "uint256"
        }
      ],
      "name": "decreaseAllowance",
      "outputs": [
        {
          "internalType": "bool",
          "name": "",
          "type": "bool"
        }
      ],
      "stateMutability": "nonpayable",
      "type": "function"
    },
    {
      "inputs": [
        {
          "internalType": "address",
          "name": "minter",
          "type": "address"
        }
      ],
      "name": "getMinterInfo",
      "outputs": [
        {
          "components": [
            {
              "internalType": "bool",
              "name": "isMinter",
              "type": "bool"
            },
            {
              "internalType": "uint96",
              "name": "mintedAmount",
              "type": "uint96"
            },
            {
              "internalType": "uint96",
              "name": "lastMintTime",
              "type": "uint96"
            },
            {
              "internalType": "uint64",
              "name": "mintAllowance",
              "type": "uint64"
            }
          ],
          "internalType": "struct ModuloTokenOptimized.MinterInfo",
          "name": "info",
          "type": "tuple"
        }
      ],
      "stateMutability": "view",
      "type": "function"
    },
    {
      "inputs": [
        {
          "internalType": "address",
          "name": "minter",
          "type": "address"
        }
      ],
      "name": "getRemainingAllowance",
      "outputs": [
        {
          "internalType": "uint64",
          "name": "remaining",
          "type": "uint64"
        }
      ],
      "stateMutability": "view",
      "type": "function"
    },
    {
      "inputs": [
        {
          "internalType": "address",
          "name": "spender",
          "type": "address"
        },
        {
          "internalType": "uint256",
          "name": "addedValue",
          "type": "uint256"
        }
      ],
      "name": "increaseAllowance",
      "outputs": [
        {
          "internalType": "bool",
          "name": "",
          "type": "bool"
        }
      ],
      "stateMutability": "nonpayable",
      "type": "function"
    },
    {
      "inputs": [
        {
          "internalType": "address",
          "name": "addr",
          "type": "address"
        }
      ],
      "name": "isMinter",
      "outputs": [
        {
          "internalType": "bool",
          "name": "",
          "type": "bool"
        }
      ],
      "stateMutability": "view",
      "type": "function"
    },
    {
      "inputs": [],
      "name": "maxSupply",
      "outputs": [
        {
          "internalType": "uint256",
          "name": "",
          "type": "uint256"
        }
      ],
      "stateMutability": "pure",
      "type": "function"
    },
    {
      "inputs": [
        {
          "internalType": "address",
          "name": "to",
          "type": "address"
        },
        {
          "internalType": "uint256",
          "name": "amount",
          "type": "uint256"
        }
      ],
      "name": "mint",
      "outputs": [],
      "stateMutability": "nonpayable",
      "type": "function"
    },
    {
      "inputs": [
        {
          "internalType": "address",
          "name": "",
          "type": "address"
        }
      ],
      "name": "minters",
      "outputs": [
        {
          "internalType": "bool",
          "name": "isMinter",
          "type": "bool"
        },
        {
          "internalType": "uint96",
          "name": "mintedAmount",
          "type": "uint96"
        },
        {
          "internalType": "uint96",
          "name": "lastMintTime",
          "type": "uint96"
        },
        {
          "internalType": "uint64",
          "name": "mintAllowance",
          "type": "uint64"
        }
      ],
      "stateMutability": "view",
      "type": "function"
    },
    {
      "inputs": [],
      "name": "name",
      "outputs": [
        {
          "internalType": "string",
          "name": "",
          "type": "string"
        }
      ],
      "stateMutability": "view",
      "type": "function"
    },
    {
      "inputs": [],
      "name": "owner",
      "outputs": [
        {
          "internalType": "address",
          "name": "",
          "type": "address"
        }
      ],
      "stateMutability": "view",
      "type": "function"
    },
    {
      "inputs": [],
      "name": "pause",
      "outputs": [],
      "stateMutability": "nonpayable",
      "type": "function"
    },
    {
      "inputs": [],
      "name": "paused",
      "outputs": [
        {
          "internalType": "bool",
          "name": "",
          "type": "bool"
        }
      ],
      "stateMutability": "view",
      "type": "function"
    },
    {
      "inputs": [
        {
          "internalType": "address",
          "name": "minter",
          "type": "address"
        }
      ],
      "name": "removeMinter",
      "outputs": [],
      "stateMutability": "nonpayable",
      "type": "function"
    },
    {
      "inputs": [],
      "name": "renounceOwnership",
      "outputs": [],
      "stateMutability": "nonpayable",
      "type": "function"
    },
    {
      "inputs": [],
      "name": "symbol",
      "outputs": [
        {
          "internalType": "string",
          "name": "",
          "type": "string"
        }
      ],
      "stateMutability": "view",
      "type": "function"
    },
    {
      "inputs": [],
      "name": "totalSupply",
      "outputs": [
        {
          "internalType": "uint256",
          "name": "",
          "type": "uint256"
        }
      ],
      "stateMutability": "view",
      "type": "function"
    },
    {
      "inputs": [
        {
          "internalType": "address",
          "name": "to",
          "type": "address"
        },
        {
          "internalType": "uint256",
          "name": "amount",
          "type": "uint256"
        }
      ],
      "name": "transfer",
      "outputs": [
        {
          "internalType": "bool",
          "name": "",
          "type": "bool"
        }
      ],
      "stateMutability": "nonpayable",
      "type": "function"
    },
    {
      "inputs": [
        {
          "internalType": "address",
          "name": "from",
          "type": "address"
        },
        {
          "internalType": "address",
          "name": "to",
          "type": "address"
        },
        {
          "internalType": "uint256",
          "name": "amount",
          "type": "uint256"
        }
      ],
      "name": "transferFrom",
      "outputs": [
        {
          "internalType": "bool",
          "name": "",
          "type": "bool"
        }
      ],
      "stateMutability": "nonpayable",
      "type": "function"
    },
    {
      "inputs": [
        {
          "internalType": "address",
          "name": "newOwner",
          "type": "address"
        }
      ],
      "name": "transferOwnership",
      "outputs": [],
      "stateMutability": "nonpayable",
      "type": "function"
    },
    {
      "inputs": [],
      "name": "unpause",
      "outputs": [],
      "stateMutability": "nonpayable",
      "type": "function"
    },
    {
      "inputs": [
        {
          "internalType": "address",
          "name": "minter",
          "type": "address"
        },
        {
          "internalType": "uint64",
          "name": "newAllowance",
          "type": "uint64"
        }
      ],
      "name": "updateMinterAllowance",
      "outputs": [],
      "stateMutability": "nonpayable",
      "type": "function"
    }
  ],
  "bytecode": "0x604060808152346200050c576200001562000511565b600c815260206b26b7b23ab637902a37b5b2b760a11b818301526200003962000511565b6004808252634d4f444f60e01b8383015283516001600160401b03949192858211620004f75760038054926001948585811c95168015620004ec575b88861014620003ee578190601f9586811162000496575b5088908683116001146200042f5760009262000423575b505060001982841b1c191690851b1781555b8151918783116200040e5785548581811c9116801562000403575b88821014620003ee579081858594931162000396575b5087908584116001146200032b576000936200031f575b505082851b92600019911b1c19161783555b600580546001600160a81b0319811633600881811b610100600160a81b0316929092179093558851939291901c6001600160a01b03167f8be0079c531659141344cd1fd0a4f28419497f9722a3daafe3b4186f6b6457e0600080a3826006553315620002df5750506002546a52b7d2dcc80cd2e400000090818101809111620002ca57600255336000526000845285600020818154019055855190815260007fddf252ad1be2c89b69c2b068fc378daa952ba7f163c4a11628f55a4df523b3ef853393a3845191608083019083821086831117620002b5575085528082526000828401818152426001600160601b03168785019081526060850187815233808552600788529389902095518654935192516001600160c81b031990941660ff911515919091161760089290921b610100600160681b03169190911760689290921b600160681b600160c81b0316919091178455519290910180546001600160401b031916928516929092179091558351928352917f7d892828e4525bfae295b0e5641e236a5f5eff36ed1be675dcc9a8fc5850c8539190a251611bed9081620005488239f35b604190634e487b7160e01b6000525260246000fd5b601184634e487b7160e01b6000525260246000fd5b62461bcd60e51b825281840185905260248201527f45524332303a206d696e7420746f20746865207a65726f206164647265737300604482015260649150fd5b015191503880620000fd565b9190869450601f1984169288600052896000209360005b8b8282106200037f575050851162000364575b50505050811b0183556200010f565b01519060f884600019921b161c191690553880808062000355565b8385015187558a9890960195938401930162000342565b9091925086600052876000208580860160051c8201928a8710620003e4575b91889187969594930160051c01915b828110620003d4575050620000e6565b60008155869550889101620003c4565b92508192620003b5565b602287634e487b7160e01b6000525260246000fd5b90607f1690620000d0565b604186634e487b7160e01b6000525260246000fd5b015190503880620000a3565b90879350601f19831691856000528a6000209260005b8c8282106200047f575050841162000466575b505050811b018155620000b5565b015160001983861b60f8161c1916905538808062000458565b8385015186558b9790950194938401930162000445565b90915083600052886000208680850160051c8201928b8610620004e2575b918991869594930160051c01915b828110620004d25750506200008c565b60008155859450899101620004c2565b92508192620004b4565b94607f169462000075565b604184634e487b7160e01b6000525260246000fd5b600080fd5b60408051919082016001600160401b038111838210176200053157604052565b634e487b7160e01b600052604160045260246000fdfe608060408181526004918236101561001657600080fd5b600092833560e01c91826306fdde03146112b957508163095ea7b31461128f5781630f5d8524146111fd57816318160ddd146111de57816323b872dd146111a15781633092afd5146110fd578163313ce567146110e157816339509351146110925781633f4ba83a14610ff357816340c10f1914610da157816342966c6814610d4d5781635c975abb14610d295781636857310714610a0d5781636f2417671461087d57816370a0823114610847578163715018a6146107db57816379cc67901461076b5781638456cb59146107105781638da5cb5b146106e557816395d89b41146105e2578163a457c2d714610521578163a9059cbb146104f0578163aa271e1a146104b4578163d45e7a6a1461048f578163d5abeb0114610468578163dd62ed3e1461041f578163ef092065146103db578163f09b22031461031a578163f2fde38b1461020f57508063f46eccc41461019a5763f7ee7a431461017a57600080fd5b3461019657816003193601126101965760209051620151808152f35b5080fd5b503461019657602036600319011261019657806080926001600160a01b036101c06113f7565b1681526007602052209067ffffffffffffffff60018354930154169080519260ff8116151584526bffffffffffffffffffffffff90818160081c16602086015260681c16908301526060820152f35b9050346103165760203660031901126103165761022a6113f7565b610232611490565b6001600160a01b03918282169384156102ad57505074ffffffffffffffffffffffffffffffffffffffff006005549160081b1674ffffffffffffffffffffffffffffffffffffffff001982161760055560081c167f8be0079c531659141344cd1fd0a4f28419497f9722a3daafe3b4186f6b6457e08380a380f35b906020608492519162461bcd60e51b8352820152602660248201527f4f776e61626c653a206e6577206f776e657220697320746865207a65726f206160448201527f64647265737300000000000000000000000000000000000000000000000000006064820152fd5b8280fd5b505034610196576020366003190112610196576001816080936001600160a01b036103436113f7565b8260608551610351816114eb565b8281528260208201528287820152015216815260076020522091805190610377826114eb565b6060845460ff8116151595868552602085016bffffffffffffffffffffffff938492838560081c168352838789019560681c16855267ffffffffffffffff988991015416960195865284519788525116602087015251169084015251166060820152f35b5050346101965760203660031901126101965767ffffffffffffffff6001826020946001600160a01b0361040d6113f7565b16815260078652200154169051908152f35b5050346101965780600319360112610196578060209261043d6113f7565b610445611412565b6001600160a01b0391821683526001865283832091168252845220549051908152f35b505034610196578160031936011261019657602090516b033b2e3c9fd0803ce80000008152f35b5050346101965781600319360112610196576020905169d3c21bcecceda10000008152f35b5050346101965760203660031901126101965760ff816020936001600160a01b036104dd6113f7565b1681526007855220541690519015158152f35b50503461019657806003193601126101965760209061051a6105106113f7565b6024359033611562565b5160018152f35b905082346105df57826003193601126105df5761053c6113f7565b91836024359233815260016020528181206001600160a01b03861682526020522054908282106105765760208561051a858503873361171e565b608490602086519162461bcd60e51b8352820152602560248201527f45524332303a2064656372656173656420616c6c6f77616e63652062656c6f7760448201527f207a65726f0000000000000000000000000000000000000000000000000000006064820152fd5b80fd5b838334610196578160031936011261019657805191809380549160019083821c928285169485156106db575b60209586861081146106c8578589529081156106a4575060011461064c575b610648878761063e828c038361151d565b51918291826113ae565b0390f35b81529295507f8a35acfbc15ff81a39ae7d344fd709f28e8600b4aa8c65c6b64bfe7fe36bd19b5b82841061069157505050826106489461063e9282010194868061062d565b8054868501880152928601928101610673565b60ff19168887015250505050151560051b830101925061063e82610648868061062d565b602484602285634e487b7160e01b835252fd5b93607f169361060e565b5050346101965781600319360112610196576020906001600160a01b0360055460081c169051908152f35b50503461019657816003193601126101965760207f62e78cea01bee320cd4e420270b5ea74000d11b0c9f74754ebdbfc544b05a2589161074e611490565b6107566118ea565b600160ff19600554161760055551338152a180f35b5050346101965780600319360112610196577ffd38818f5291bf0bb3a2a48aadc06ba8757865d1dabd804585338aab3009dcb660206001600160a01b036107b06113f7565b602435946107bc6118ea565b6107c7863384611852565b6107d18683611a73565b519485521692a280f35b83346105df57806003193601126105df576107f4611490565b806001600160a01b0360055474ffffffffffffffffffffffffffffffffffffffff0019811660055560081c167f8be0079c531659141344cd1fd0a4f28419497f9722a3daafe3b4186f6b6457e08280a380f35b50503461019657602036600319011261019657806020926001600160a01b0361086e6113f7565b16815280845220549051908152f35b91905034610316576001600160a01b0361089636611428565b91906108a0611490565b169283156109ff57838552600760205260ff83862054166109d8575082828560209360017f7d892828e4525bfae295b0e5641e236a5f5eff36ed1be675dcc9a8fc5850c85396516108f0816114eb565b8181526109bc8782018581528683016109726bffffffffffffffffffffffff809381421684528a606088019a67ffffffffffffffff809b169d8e8d52815260078f52209651151560ff80198954169116178755511685906cffffffffffffffffffffffff0082549160081b16906cffffffffffffffffffffffff001916179055565b5183547fffffffffffffff000000000000000000000000ffffffffffffffffffffffffff16911660681b78ffffffffffffffffffffffff0000000000000000000000000016178255565b0191511667ffffffffffffffff1982541617905551908152a280f35b82517f0e0d9ff8000000000000000000000000000000000000000000000000000000008152fd5b825163d92e233d60e01b8152fd5b90503461031657816003193601126103165767ffffffffffffffff918135838111610d2557610a3f903690840161145f565b919092602435858111610d2157610a59903690830161145f565b90933388526020926007845260ff858a2054161580610d09575b610cfb57610a7f6118ea565b610a8761193a565b828203610ced5788895b838110610ca257506b033b2e3c9fd0803ce8000000610ab28260025461153f565b11610c9357338a5260078552858a20988954996bffffffffffffffffffffffff9a8b8160681c16620151808101809111610c8057421015610c35575069d3c21bcecceda1000000610b09848d845460081c1661153f565b11610c26575b60019a8b820194838654168511610c18575081546cffffffffffffffffffffffff00198116600891821c831686841601909216901b6cffffffffffffffffffffffff001617905582549181831690828203610bfa575b505050505086885b828110610b7c57898260065580f35b610ba4610b92610b8d83868c611a39565b611a5f565b610b9d83878b611a39565b359061198f565b610bb2610b8d82858b611a39565b610bbd82868a611a39565b3587519081527fbf67ec129007be07f346d9d2933215293a6612ce7ff17d6b479a5a5cae72890c876001600160a01b0333941692a3018790610b6d565b82169003169067ffffffffffffffff19161790553880808080610b65565b89516313be252b60e01b8152fd5b838851636ae0191360e11b8152fd5b7fffffffffffffff000000000000000000000000000000000000000000000000ff16428c1660681b78ffffffffffffffffffffffff0000000000000000000000000016178155610b0f565b60248e601188634e487b7160e01b835252fd5b50845163c30436e960e01b8152fd5b906001600160a01b03610cb9610b8d84878d611a39565b1615610cde57610cd7600191610cd084888c611a39565b359061153f565b9101610a91565b82875163d92e233d60e01b8152fd5b845163162908e360e11b8152fd5b845163d8d5894f60e01b8152fd5b506001600160a01b0360055460081c16331415610a73565b8680fd5b8480fd5b50503461019657816003193601126101965760209060ff6005541690519015158152f35b905034610316576020366003190112610316573590610d6a6118ea565b610d748233611a73565b519081527ffd38818f5291bf0bb3a2a48aadc06ba8757865d1dabd804585338aab3009dcb660203392a280f35b905034610316578160031936011261031657610dbb6113f7565b9160243592338552600760205260ff82862054161580610fdb575b610fcd57610de26118ea565b6001600160a01b0381169283156109ff57610dfb61193a565b8415610fbf576b033b2e3c9fd0803ce8000000610e1a8660025461153f565b11610fb1573386526007602052828620908154916bffffffffffffffffffffffff92838160681c16620151808101809111610f9e57421015610f53575069d3c21bcecceda1000000610e728885845460081c1661153f565b11610f44575b600181019267ffffffffffffffff92838554168911610f36575081546cffffffffffffffffffffffff00198116600891821c83168a841601909216901b6cffffffffffffffffffffffff0016179055610ee69286929091815490808216818103610f18575b5050505061198f565b519182527fbf67ec129007be07f346d9d2933215293a6612ce7ff17d6b479a5a5cae72890c60203393a3600160065580f35b8186169003169067ffffffffffffffff191617905538808080610edd565b86516313be252b60e01b8152fd5b508351636ae0191360e11b8152fd5b7fffffffffffffff000000000000000000000000000000000000000000000000ff1642841660681b78ffffffffffffffffffffffff0000000000000000000000000016178155610e78565b60248a601186634e487b7160e01b835252fd5b825163c30436e960e01b8152fd5b825163162908e360e11b8152fd5b505163d8d5894f60e01b8152fd5b506001600160a01b0360055460081c16331415610dd6565b90503461031657826003193601126103165761100d611490565b6005549060ff82161561104f575060ff1916600555513381527f5db9ee0a495bf2e6ff9c91a7834c1ba4fdd244a5e8aa4e537bd38aeae4b073aa90602090a180f35b606490602084519162461bcd60e51b8352820152601460248201527f5061757361626c653a206e6f74207061757365640000000000000000000000006044820152fd5b50503461019657806003193601126101965761051a6020926110da6110b56113f7565b91338152600186528481206001600160a01b038416825286528460243591205461153f565b903361171e565b5050346101965781600319360112610196576020905160128152f35b91905034610316576020366003190112610316576001600160a01b036111216113f7565b611129611490565b1691828452600760205260ff82852054161561117a5750600183918383526007602052822082815501557fe94479a9f7e1952cc78f2d6baab678adc1b772d936c6583def489e524cb666928280a280f35b90517f7c46c2b1000000000000000000000000000000000000000000000000000000008152fd5b5050346101965760603660031901126101965760209061051a6111c26113f7565b6111ca611412565b604435916111d9833383611852565b611562565b5050346101965781600319360112610196576020906002549051908152f35b91905034610316576001600160a01b039061121736611428565b9290611221611490565b1692838552600760205260ff82862054161561117a57507f4126147d688f3acf6f4d8552ab7bd5d1aa6c0db60d931274901938a08370429a916020918486526007835267ffffffffffffffff6001828820019216918267ffffffffffffffff1982541617905551908152a280f35b50503461019657806003193601126101965760209061051a6112af6113f7565b602435903361171e565b929150346113aa57836003193601126113aa57600354600181811c91869082811680156113a0575b602095868610821461138d575084885290811561136b5750600114611312575b610648868661063e828b038361151d565b929550600383527fc2575a0e9e593c00f959f8c92f12db2869c3395a3b0502d05e2516446f71f85b5b82841061135857505050826106489461063e928201019438611301565b805486850188015292860192810161133b565b60ff191687860152505050151560051b830101925061063e8261064838611301565b836022602492634e487b7160e01b835252fd5b93607f16936112e1565b8380fd5b6020808252825181830181905290939260005b8281106113e357505060409293506000838284010152601f8019910116010190565b8181018601518482016040015285016113c1565b600435906001600160a01b038216820361140d57565b600080fd5b602435906001600160a01b038216820361140d57565b604090600319011261140d576004356001600160a01b038116810361140d579060243567ffffffffffffffff8116810361140d5790565b9181601f8401121561140d5782359167ffffffffffffffff831161140d576020808501948460051b01011161140d57565b6001600160a01b0360055460081c1633036114a757565b606460405162461bcd60e51b815260206004820152602060248201527f4f776e61626c653a2063616c6c6572206973206e6f7420746865206f776e65726044820152fd5b6080810190811067ffffffffffffffff82111761150757604052565b634e487b7160e01b600052604160045260246000fd5b90601f8019910116810190811067ffffffffffffffff82111761150757604052565b9190820180921161154c57565b634e487b7160e01b600052601160045260246000fd5b6001600160a01b038091169182156116b4571691821561164a576115846118ea565b6000828152806020526040812054918083106115e057604082827fddf252ad1be2c89b69c2b068fc378daa952ba7f163c4a11628f55a4df523b3ef958760209652828652038282205586815220818154019055604051908152a3565b608460405162461bcd60e51b815260206004820152602660248201527f45524332303a207472616e7366657220616d6f756e742065786365656473206260448201527f616c616e636500000000000000000000000000000000000000000000000000006064820152fd5b608460405162461bcd60e51b815260206004820152602360248201527f45524332303a207472616e7366657220746f20746865207a65726f206164647260448201527f65737300000000000000000000000000000000000000000000000000000000006064820152fd5b608460405162461bcd60e51b815260206004820152602560248201527f45524332303a207472616e736665722066726f6d20746865207a65726f20616460448201527f64726573730000000000000000000000000000000000000000000000000000006064820152fd5b6001600160a01b038091169182156117e9571691821561177f5760207f8c5be1e5ebec7d5bd14f71427d1e84f3dd0314c0f7b2291e5b200ac8c7c3b925918360005260018252604060002085600052825280604060002055604051908152a3565b608460405162461bcd60e51b815260206004820152602260248201527f45524332303a20617070726f766520746f20746865207a65726f20616464726560448201527f73730000000000000000000000000000000000000000000000000000000000006064820152fd5b608460405162461bcd60e51b8152602060048201526024808201527f45524332303a20617070726f76652066726f6d20746865207a65726f2061646460448201527f72657373000000000000000000000000000000000000000000000000000000006064820152fd5b906001600160a01b038083166000526001602052604060002090821660005260205260406000205492600019840361188b575b50505050565b8084106118a65761189d93039161171e565b38808080611885565b606460405162461bcd60e51b815260206004820152601d60248201527f45524332303a20696e73756666696369656e7420616c6c6f77616e63650000006044820152fd5b60ff600554166118f657565b606460405162461bcd60e51b815260206004820152601060248201527f5061757361626c653a20706175736564000000000000000000000000000000006044820152fd5b60026006541461194b576002600655565b606460405162461bcd60e51b815260206004820152601f60248201527f5265656e7472616e637947756172643a207265656e7472616e742063616c6c006044820152fd5b6001600160a01b03169081156119f5577fddf252ad1be2c89b69c2b068fc378daa952ba7f163c4a11628f55a4df523b3ef60206000926119cd6118ea565b6119d98160025461153f565b60025584845283825260408420818154019055604051908152a3565b606460405162461bcd60e51b815260206004820152601f60248201527f45524332303a206d696e7420746f20746865207a65726f2061646472657373006044820152fd5b9190811015611a495760051b0190565b634e487b7160e01b600052603260045260246000fd5b356001600160a01b038116810361140d5790565b6001600160a01b03168015611b4d57611a8a6118ea565b600091818352826020526040832054818110611ae357817fddf252ad1be2c89b69c2b068fc378daa952ba7f163c4a11628f55a4df523b3ef926020928587528684520360408620558060025403600255604051908152a3565b608460405162461bcd60e51b815260206004820152602260248201527f45524332303a206275726e20616d6f756e7420657863656564732062616c616e60448201527f63650000000000000000000000000000000000000000000000000000000000006064820152fd5b608460405162461bcd60e51b815260206004820152602160248201527f45524332303a206275726e2066726f6d20746865207a65726f2061646472657360448201527f73000000000000000000000000000000000000000000000000000000000000006064820152fdfea264697066735822122073d122324a3d881027de09653b6864912e21ed053d6db1e4e46a2b17b662728364736f6c63430008130033",
  "linkReferences": {},
  "deployedLinkReferences": {}
}