{
  "_format": "hh-sol-artifact-1",
  "contractName": "MaliciousReentrant",
  "sourceName": "contracts/MaliciousReentrant.sol",
  "abi": [
    {
      "inputs": [],
      "stateMutability": "nonpayable",
      "type": "constructor"
    },
    {
      "anonymous": false,
      "inputs": [
        {
          "indexed": false,
          "internalType": "uint256",
          "name": "count",
          "type": "uint256"
        }
      ],
      "name": "AttackAttempted",
      "type": "event"
    },
    {
      "inputs": [],
      "name": "attackCount",
      "outputs": [
        {
          "internalType": "uint256",
          "name": "",
          "type": "uint256"
        }
      ],
      "stateMutability": "view",
      "type": "function"
    },
    {
      "inputs": [],
      "name": "attackStarted",
      "outputs": [
        {
          "internalType": "bool",
          "name": "",
          "type": "bool"
        }
      ],
      "stateMutability": "view",
      "type": "function"
    },
    {
      "inputs": [
        {
          "internalType": "address",
          "name": "_targetContract",
          "type": "address"
        }
      ],
      "name": "attemptReentrancy",
      "outputs": [],
      "stateMutability": "nonpayable",
      "type": "function"
    },
    {
      "inputs": [],
      "name": "onTokenReceived",
      "outputs": [],
      "stateMutability": "nonpayable",
      "type": "function"
    },
    {
      "inputs": [],
      "name": "resetAttack",
      "outputs": [],
      "stateMutability": "nonpayable",
      "type": "function"
    },
    {
      "inputs": [],
      "name": "targetContract",
      "outputs": [
        {
          "internalType": "contract IModuloTokenOptimized",
          "name": "",
          "type": "address"
        }
      ],
      "stateMutability": "view",
      "type": "function"
    },
    {
      "inputs": [],
      "name": "wasAttackSuccessful",
      "outputs": [
        {
          "internalType": "bool",
          "name": "",
          "type": "bool"
        }
      ],
      "stateMutability": "view",
      "type": "function"
    }
  ],
  "bytecode": "0x608080604052346100285760006001819055805460ff60a01b19169055610369908161002e8239f35b600080fdfe60806040818152600436101561001457600080fd5b600091823560e01c9081630f0147dc146102cb57816316bc6e29146102ad57508063407c28211461028f5780638521009f146101a8578063bd90df701461017657828163c6f9d52214610098575063d18ce4011461007157600080fd5b3461009457816003193601126100945760ff6020925460a01c1690519015158152f35b5080fd5b8083346101735760203660031901126101735760043573ffffffffffffffffffffffffffffffffffffffff9081811680910361016e5774010000000000000000000000000000000000000000907fffffffffffffffffffffff0000000000000000000000000000000000000000008554161717808455836001551690813b1561016a5782809260448351809581936340c10f1960e01b8352306004840152606460248401525af1908115610161575061014e5750f35b61015790610309565b61015e5780f35b80fd5b513d84823e3d90fd5b5050fd5b505050fd5b50fd5b503461009457816003193601126100945773ffffffffffffffffffffffffffffffffffffffff60209254169051908152f35b50903461015e578060031936011261015e5780549160ff8360a01c1680610283575b6101d2575080f35b600154600019811461026f5782937f9de7696c1ddde10847858955a8530cc578ad5b8a8887b231fad51acf0a4cfa0a6020600173ffffffffffffffffffffffffffffffffffffffff9401806001558551908152a116803b1561016a57829060448351809581936340c10f1960e01b8352306004840152606460248401525af1908115610161575061026257508080f35b61026b90610309565b8080f35b602483634e487b7160e01b81526011600452fd5b506003600154106101ca565b50346100945781600319360112610094576020906001549051908152f35b83903461009457816003193601126100945760209060018054118152f35b833461015e578060031936011261015e577fffffffffffffffffffffff00ffffffffffffffffffffffffffffffffffffffff81541681558060015580f35b67ffffffffffffffff811161031d57604052565b634e487b7160e01b600052604160045260246000fdfea2646970667358221220a2cfa3032c3511b7fc6b5139a930f7e876bd72b46328e8e3d12bb9fca088993764736f6c63430008130033",
  "linkReferences": {},
  "deployedLinkReferences": {}
}